{"contracts/Ballot.sol":{"Ballot":{"abi":[{"inputs":[{"internalType":"uint256","name":"","type":"uint256"}],"name":"Elections","outputs":[{"internalType":"uint256","name":"id","type":"uint256"},{"internalType":"address","name":"chairperson","type":"address"},{"internalType":"bytes32","name":"name","type":"bytes32"},{"internalType":"uint256","name":"startdate","type":"uint256"},{"internalType":"uint256","name":"enddate","type":"uint256"},{"internalType":"uint256","name":"total_parties","type":"uint256"},{"internalType":"uint256","name":"total_voters","type":"uint256"},{"internalType":"uint256","name":"total_ballots","type":"uint256"}],"stateMutability":"view","type":"function"},{"inputs":[],"name":"TotalElection","outputs":[{"internalType":"uint256","name":"","type":"uint256"}],"stateMutability":"view","type":"function"},{"inputs":[{"internalType":"uint256","name":"election_id","type":"uint256"},{"internalType":"bytes32[]","name":"_candidates","type":"bytes32[]"},{"internalType":"bool","name":"_general","type":"bool"},{"internalType":"bytes32","name":"_name","type":"bytes32"}],"name":"addBallotEvent","outputs":[],"stateMutability":"nonpayable","type":"function"},{"inputs":[{"internalType":"uint256","name":"_electionID","type":"uint256"},{"internalType":"address","name":"_voter","type":"address"}],"name":"addVoterToElectionEvent","outputs":[],"stateMutability":"nonpayable","type":"function"},{"inputs":[{"internalType":"uint256","name":"_electionID","type":"uint256"},{"internalType":"address[]","name":"_voters","type":"address[]"}],"name":"addVotersToElectionEvent","outputs":[],"stateMutability":"nonpayable","type":"function"},{"inputs":[{"internalType":"bytes32","name":"name","type":"bytes32"},{"internalType":"uint256","name":"startdate","type":"uint256"},{"internalType":"uint256","name":"enddate","type":"uint256"},{"components":[{"internalType":"address","name":"account","type":"address"},{"internalType":"bytes32","name":"name","type":"bytes32"}],"internalType":"struct Ballot.Party[]","name":"_parties","type":"tuple[]"}],"name":"electionCreation","outputs":[],"stateMutability":"nonpayable","type":"function"},{"inputs":[],"name":"electionID","outputs":[{"internalType":"uint256","name":"","type":"uint256"}],"stateMutability":"view","type":"function"},{"inputs":[{"internalType":"uint256","name":"election_id","type":"uint256"},{"internalType":"uint256","name":"ballot_id","type":"uint256"}],"name":"getBallot","outputs":[{"internalType":"uint256","name":"id","type":"uint256"},{"internalType":"bytes32","name":"name","type":"bytes32"},{"components":[{"internalType":"bytes32","name":"name","type":"bytes32"},{"internalType":"uint256","name":"voteCount","type":"uint256"}],"internalType":"struct Ballot.Candidate[]","name":"candidates","type":"tuple[]"},{"internalType":"uint256","name":"totalVotes","type":"uint256"},{"internalType":"uint256","name":"candidateCount","type":"uint256"},{"internalType":"uint256","name":"event_id","type":"uint256"}],"stateMutability":"view","type":"function"},{"inputs":[{"internalType":"uint256","name":"election_id","type":"uint256"}],"name":"getElection","outputs":[{"internalType":"uint256","name":"id","type":"uint256"},{"internalType":"address","name":"chairperson","type":"address"},{"internalType":"bytes32","name":"name","type":"bytes32"},{"internalType":"uint256","name":"startdate","type":"uint256"},{"internalType":"uint256","name":"enddate","type":"uint256"},{"internalType":"bytes32[]","name":"partyNames","type":"bytes32[]"},{"internalType":"address[]","name":"partyAccount","type":"address[]"},{"internalType":"uint256","name":"total_parties","type":"uint256"},{"internalType":"uint256","name":"total_ballots","type":"uint256"},{"internalType":"uint256","name":"total_voters","type":"uint256"}],"stateMutability":"view","type":"function"},{"inputs":[],"name":"getTime","outputs":[{"internalType":"uint256","name":"time","type":"uint256"}],"stateMutability":"view","type":"function"},{"inputs":[{"internalType":"uint256","name":"election_id","type":"uint256"}],"name":"getVoteRight","outputs":[{"internalType":"bool","name":"rightToVote","type":"bool"}],"stateMutability":"view","type":"function"},{"inputs":[{"internalType":"uint256","name":"election_id","type":"uint256"}],"name":"getVoteStatus","outputs":[{"internalType":"address","name":"account","type":"address"},{"internalType":"uint256","name":"weight","type":"uint256"},{"internalType":"uint256","name":"totalVoteEvents","type":"uint256"},{"components":[{"internalType":"address","name":"account","type":"address"},{"internalType":"bytes32","name":"name","type":"bytes32"}],"internalType":"struct Ballot.Party[]","name":"party_verified","type":"tuple[]"},{"internalType":"bool","name":"rightToVote","type":"bool"}],"stateMutability":"view","type":"function"},{"inputs":[{"internalType":"uint256","name":"election_id","type":"uint256"}],"name":"getVoterHistory","outputs":[{"components":[{"internalType":"bool","name":"voted","type":"bool"},{"internalType":"address","name":"delegate","type":"address"},{"internalType":"uint256","name":"vote","type":"uint256"},{"internalType":"bytes32","name":"candidateName","type":"bytes32"},{"internalType":"uint256","name":"pool_id","type":"uint256"},{"internalType":"bytes32","name":"pool_title","type":"bytes32"}],"internalType":"struct Ballot.voterHistory[]","name":"","type":"tuple[]"}],"stateMutability":"view","type":"function"},{"inputs":[{"internalType":"uint256","name":"","type":"uint256"}],"name":"poolParties","outputs":[{"internalType":"address","name":"","type":"address"}],"stateMutability":"view","type":"function"},{"inputs":[{"internalType":"uint256","name":"election_id","type":"uint256"},{"internalType":"address","name":"voter","type":"address"},{"internalType":"bytes32","name":"name","type":"bytes32"}],"name":"verifyVoter","outputs":[],"stateMutability":"nonpayable","type":"function"},{"inputs":[{"internalType":"uint256","name":"election_id","type":"uint256"},{"internalType":"uint256","name":"ballot_id","type":"uint256"},{"internalType":"uint256","name":"choice","type":"uint256"}],"name":"vote","outputs":[],"stateMutability":"nonpayable","type":"function"}],"evm":{"bytecode":{"linkReferences":{},"object":"608060405234801561001057600080fd5b50614460806100206000396000f3fe608060405234801561001057600080fd5b50600436106100ff5760003560e01c8063b5b314e511610097578063e8c2642811610066578063e8c26428146102e9578063f52f1e3a14610319578063f7098c9a14610335578063f8e78e9a14610351576100ff565b8063b5b314e514610277578063bff8e67714610293578063cc35e796146102af578063d6a00943146102cd576100ff565b806337abe716116100d357806337abe716146101d4578063557ed1ba146102045780638a6655d6146102225780639d7107771461023e576100ff565b8062ef3391146101045780630519bb83146101345780630d358757146101685780631e9598e21461019d575b600080fd5b61011e60048036038101906101199190612d01565b61036f565b60405161012b9190612d49565b60405180910390f35b61014e60048036038101906101499190612d01565b6104b9565b60405161015f959493929190612eba565b60405180910390f35b610182600480360381019061017d9190612f14565b610b13565b60405161019496959493929190613050565b60405180910390f35b6101b760048036038101906101b29190612d01565b610d7c565b6040516101cb9897969594939291906130b8565b60405180910390f35b6101ee60048036038101906101e99190612d01565b610de4565b6040516101fb9190613136565b60405180910390f35b61020c610e23565b6040516102199190613151565b60405180910390f35b61023c6004803603810190610237919061316c565b610e2b565b005b61025860048036038101906102539190612d01565b61153a565b60405161026e9a9998979695949392919061331d565b60405180910390f35b610291600480360381019061028c919061341f565b6117f3565b005b6102ad60048036038101906102a89190613620565b611da6565b005b6102b76120d1565b6040516102c49190613151565b60405180910390f35b6102e760048036038101906102e291906136a3565b6120d7565b005b61030360048036038101906102fe9190612d01565b61232e565b604051610310919061381c565b60405180910390f35b610333600480360381019061032e919061392d565b6126c2565b005b61034f600480360381019061034a9190613a73565b6128d7565b005b610359612b78565b6040516103669190613151565b60405180910390f35b6000806003600084815260200190815260200160002090503373ffffffffffffffffffffffffffffffffffffffff168160070160003373ffffffffffffffffffffffffffffffffffffffff1673ffffffffffffffffffffffffffffffffffffffff16815260200190815260200160002060030160009054906101000a900473ffffffffffffffffffffffffffffffffffffffff1673ffffffffffffffffffffffffffffffffffffffff1614610459576040517f08c379a000000000000000000000000000000000000000000000000000000000815260040161045090613b78565b60405180910390fd5b60008160070160003373ffffffffffffffffffffffffffffffffffffffff1673ffffffffffffffffffffffffffffffffffffffff16815260200190815260200160002060060160009054906101000a900460ff1690508092505050919050565b600080600060606000600154861115610507576040517f08c379a00000000000000000000000000000000000000000000000000000000081526004016104fe90613be4565b60405180910390fd5b6000860361054a576040517f08c379a000000000000000000000000000000000000000000000000000000000815260040161054190613be4565b60405180910390fd5b60006003600088815260200190815260200160002090503373ffffffffffffffffffffffffffffffffffffffff168160070160003373ffffffffffffffffffffffffffffffffffffffff1673ffffffffffffffffffffffffffffffffffffffff16815260200190815260200160002060030160009054906101000a900473ffffffffffffffffffffffffffffffffffffffff1673ffffffffffffffffffffffffffffffffffffffff1614610633576040517f08c379a000000000000000000000000000000000000000000000000000000000815260040161062a90613b78565b60405180910390fd5b60008160070160003373ffffffffffffffffffffffffffffffffffffffff1673ffffffffffffffffffffffffffffffffffffffff16815260200190815260200160002060030160009054906101000a900473ffffffffffffffffffffffffffffffffffffffff16905060008260070160003373ffffffffffffffffffffffffffffffffffffffff1673ffffffffffffffffffffffffffffffffffffffff16815260200190815260200160002060040154905060008360070160003373ffffffffffffffffffffffffffffffffffffffff1673ffffffffffffffffffffffffffffffffffffffff16815260200190815260200160002060050154905060008460070160003373ffffffffffffffffffffffffffffffffffffffff1673ffffffffffffffffffffffffffffffffffffffff16815260200190815260200160002060060160009054906101000a900460ff16905060008560070160003373ffffffffffffffffffffffffffffffffffffffff1673ffffffffffffffffffffffffffffffffffffffff1681526020019081526020016000206002015467ffffffffffffffff8111156107e4576107e3613488565b5b60405190808252806020026020018201604052801561081d57816020015b61080a612c13565b8152602001906001900390816108025790505b5090506000808760070160003373ffffffffffffffffffffffffffffffffffffffff1673ffffffffffffffffffffffffffffffffffffffff168152602001908152602001600020600201541115610af45760005b8760060154811015610af25787600501600089600901838154811061089957610898613c04565b5b9060005260206000200160009054906101000a900473ffffffffffffffffffffffffffffffffffffffff1673ffffffffffffffffffffffffffffffffffffffff1673ffffffffffffffffffffffffffffffffffffffff168152602001908152602001600020548860070160003373ffffffffffffffffffffffffffffffffffffffff1673ffffffffffffffffffffffffffffffffffffffff16815260200190815260200160002060000160008a600901848154811061095b5761095a613c04565b5b9060005260206000200160009054906101000a900473ffffffffffffffffffffffffffffffffffffffff1673ffffffffffffffffffffffffffffffffffffffff1673ffffffffffffffffffffffffffffffffffffffff1681526020019081526020016000205403610adf5760405180604001604052808960090183815481106109e7576109e6613c04565b5b9060005260206000200160009054906101000a900473ffffffffffffffffffffffffffffffffffffffff1673ffffffffffffffffffffffffffffffffffffffff1681526020018960050160008b6009018581548110610a4957610a48613c04565b5b9060005260206000200160009054906101000a900473ffffffffffffffffffffffffffffffffffffffff1673ffffffffffffffffffffffffffffffffffffffff1673ffffffffffffffffffffffffffffffffffffffff16815260200190815260200160002054815250838381518110610ac557610ac4613c04565b5b60200260200101819052508180610adb90613c62565b9250505b8080610aea90613c62565b915050610871565b505b85858584869b509b509b509b509b505050505050505091939590929450565b60008060606000806000600154881115610b62576040517f08c379a0000000000000000000000000000000000000000000000000000000008152600401610b5990613be4565b60405180910390fd5b60008803610ba5576040517f08c379a0000000000000000000000000000000000000000000000000000000008152600401610b9c90613be4565b60405180910390fd5b60036000898152602001908152602001600020600b0154871115610bfe576040517f08c379a0000000000000000000000000000000000000000000000000000000008152600401610bf590613cf6565b60405180910390fd5b60008703610c41576040517f08c379a0000000000000000000000000000000000000000000000000000000008152600401610c3890613cf6565b60405180910390fd5b6000600360008a8152602001908152602001600020600a01600089815260200190815260200160002090506000816002015467ffffffffffffffff811115610c8c57610c8b613488565b5b604051908082528060200260200182016040528015610cc557816020015b610cb2612c46565b815260200190600190039081610caa5790505b50905060005b8260020154811015610d4d57604051806040016040528084600101600084815260200190815260200160002060000154815260200184600101600084815260200190815260200160002060010154815250828281518110610d2f57610d2e613c04565b5b60200260200101819052508080610d4590613c62565b915050610ccb565b508160000154826004015482846005015485600201548e97509750975097509750975050509295509295509295565b60036020528060005260406000206000915090508060000154908060010160009054906101000a900473ffffffffffffffffffffffffffffffffffffffff169080600201549080600301549080600401549080600601549080600801549080600b0154905088565b60008181548110610df457600080fd5b906000526020600020016000915054906101000a900473ffffffffffffffffffffffffffffffffffffffff1681565b600042905090565b600154831115610e70576040517f08c379a0000000000000000000000000000000000000000000000000000000008152600401610e6790613be4565b60405180910390fd5b60008303610eb3576040517f08c379a0000000000000000000000000000000000000000000000000000000008152600401610eaa90613be4565b60405180910390fd5b600154831115610ef8576040517f08c379a0000000000000000000000000000000000000000000000000000000008152600401610eef90613be4565b60405180910390fd5b60008303610f3b576040517f08c379a0000000000000000000000000000000000000000000000000000000008152600401610f3290613be4565b60405180910390fd5b60036000848152602001908152602001600020600b0154821115610f94576040517f08c379a0000000000000000000000000000000000000000000000000000000008152600401610f8b90613cf6565b60405180910390fd5b60008203610fd7576040517f08c379a0000000000000000000000000000000000000000000000000000000008152600401610fce90613cf6565b60405180910390fd5b60006003600085815260200190815260200160002090503373ffffffffffffffffffffffffffffffffffffffff168160070160003373ffffffffffffffffffffffffffffffffffffffff1673ffffffffffffffffffffffffffffffffffffffff16815260200190815260200160002060030160009054906101000a900473ffffffffffffffffffffffffffffffffffffffff1673ffffffffffffffffffffffffffffffffffffffff16146110c0576040517f08c379a00000000000000000000000000000000000000000000000000000000081526004016110b790613b78565b60405180910390fd5b6003600085815260200190815260200160002060070160003373ffffffffffffffffffffffffffffffffffffffff1673ffffffffffffffffffffffffffffffffffffffff16815260200190815260200160002060060160009054906101000a900460ff16611163576040517f08c379a000000000000000000000000000000000000000000000000000000000815260040161115a90613d88565b60405180910390fd5b600115158160070160003373ffffffffffffffffffffffffffffffffffffffff1673ffffffffffffffffffffffffffffffffffffffff168152602001908152602001600020600101600085815260200190815260200160002060000160009054906101000a900460ff1615150361120f576040517f08c379a000000000000000000000000000000000000000000000000000000000815260040161120690613df4565b60405180910390fd5b600060036000868152602001908152602001600020600a01600085815260200190815260200160002090508160070160003373ffffffffffffffffffffffffffffffffffffffff1673ffffffffffffffffffffffffffffffffffffffff16815260200190815260200160002060040154816001016000858152602001908152602001600020600101546112a29190613e14565b8160010160008581526020019081526020016000206001018190555060018260070160003373ffffffffffffffffffffffffffffffffffffffff1673ffffffffffffffffffffffffffffffffffffffff168152602001908152602001600020600101600086815260200190815260200160002060000160006101000a81548160ff02191690831515021790555080600401548260070160003373ffffffffffffffffffffffffffffffffffffffff1673ffffffffffffffffffffffffffffffffffffffff168152602001908152602001600020600101600086815260200190815260200160002060040181905550828260070160003373ffffffffffffffffffffffffffffffffffffffff1673ffffffffffffffffffffffffffffffffffffffff168152602001908152602001600020600101600086815260200190815260200160002060010181905550806001016000848152602001908152602001600020600001548260070160003373ffffffffffffffffffffffffffffffffffffffff1673ffffffffffffffffffffffffffffffffffffffff168152602001908152602001600020600101600086815260200190815260200160002060020181905550838260070160003373ffffffffffffffffffffffffffffffffffffffff1673ffffffffffffffffffffffffffffffffffffffff1681526020019081526020016000206001016000868152602001908152602001600020600301819055508160070160003373ffffffffffffffffffffffffffffffffffffffff1673ffffffffffffffffffffffffffffffffffffffff168152602001908152602001600020600501600081548092919061151490613c62565b919050555080600501600081548092919061152e90613c62565b91905055505050505050565b600080600080600060608060008060006001548b111561158f576040517f08c379a000000000000000000000000000000000000000000000000000000000815260040161158690613be4565b60405180910390fd5b60008b036115d2576040517f08c379a00000000000000000000000000000000000000000000000000000000081526004016115c990613be4565b60405180910390fd5b6000600360008d81526020019081526020016000209050806006015467ffffffffffffffff81111561160757611606613488565b5b6040519080825280602002602001820160405280156116355781602001602082028036833780820191505090505b50955060005b81600601548110156116fb5781600501600083600901838154811061166357611662613c04565b5b9060005260206000200160009054906101000a900473ffffffffffffffffffffffffffffffffffffffff1673ffffffffffffffffffffffffffffffffffffffff1673ffffffffffffffffffffffffffffffffffffffff168152602001908152602001600020548782815181106116dc576116db613c04565b5b60200260200101818152505080806116f390613c62565b91505061163b565b5080600001548160010160009054906101000a900473ffffffffffffffffffffffffffffffffffffffff168260020154836003015484600401548a86600901876006015488600b01548960080154838054806020026020016040519081016040528092919081815260200182805480156117ca57602002820191906000526020600020905b8160009054906101000a900473ffffffffffffffffffffffffffffffffffffffff1673ffffffffffffffffffffffffffffffffffffffff1681526020019060010190808311611780575b505050505093509a509a509a509a509a509a509a509a509a509a50509193959799509193959799565b81838260008203611839576040517f08c379a000000000000000000000000000000000000000000000000000000000815260040161183090613be4565b60405180910390fd5b60015482111561187e576040517f08c379a000000000000000000000000000000000000000000000000000000000815260040161187590613e94565b60405180910390fd5b60008373ffffffffffffffffffffffffffffffffffffffff166003600085815260200190815260200160002060070160008673ffffffffffffffffffffffffffffffffffffffff1673ffffffffffffffffffffffffffffffffffffffff16815260200190815260200160002060030160009054906101000a900473ffffffffffffffffffffffffffffffffffffffff1673ffffffffffffffffffffffffffffffffffffffff1614611964576040517f08c379a000000000000000000000000000000000000000000000000000000000815260040161195b90613f26565b60405180910390fd5b60005b60036000858152602001908152602001600020600601548110156119f757826003600086815260200190815260200160002060050160003373ffffffffffffffffffffffffffffffffffffffff1673ffffffffffffffffffffffffffffffffffffffff16815260200190815260200160002054036119e457600191505b80806119ef90613c62565b915050611967565b5080611a38576040517f08c379a0000000000000000000000000000000000000000000000000000000008152600401611a2f90613fb8565b60405180910390fd5b600080600090505b6003600086815260200190815260200160002060060154811015611b1057836003600087815260200190815260200160002060070160008873ffffffffffffffffffffffffffffffffffffffff1673ffffffffffffffffffffffffffffffffffffffff16815260200190815260200160002060000160003373ffffffffffffffffffffffffffffffffffffffff1673ffffffffffffffffffffffffffffffffffffffff1681526020019081526020016000205403611afd57600191505b8080611b0890613c62565b915050611a40565b508015611b52576040517f08c379a0000000000000000000000000000000000000000000000000000000008152600401611b499061404a565b60405180910390fd5b85600360008a815260200190815260200160002060070160008973ffffffffffffffffffffffffffffffffffffffff1673ffffffffffffffffffffffffffffffffffffffff16815260200190815260200160002060000160003373ffffffffffffffffffffffffffffffffffffffff1673ffffffffffffffffffffffffffffffffffffffff168152602001908152602001600020819055506003600089815260200190815260200160002060070160008873ffffffffffffffffffffffffffffffffffffffff1673ffffffffffffffffffffffffffffffffffffffff1681526020019081526020016000206002016000815480929190611c5190613c62565b91905055506000600360008a815260200190815260200160002060060154600360008b815260200190815260200160002060070160008a73ffffffffffffffffffffffffffffffffffffffff1673ffffffffffffffffffffffffffffffffffffffff168152602001908152602001600020600201541490508015611d9b576001600360008b815260200190815260200160002060070160008a73ffffffffffffffffffffffffffffffffffffffff1673ffffffffffffffffffffffffffffffffffffffff168152602001908152602001600020600401819055506001600360008b815260200190815260200160002060070160008a73ffffffffffffffffffffffffffffffffffffffff1673ffffffffffffffffffffffffffffffffffffffff16815260200190815260200160002060060160006101000a81548160ff0219169083151502179055505b505050505050505050565b80600080600090505b8251811015611e6257828181518110611dcb57611dca613c04565b5b60200260200101516000015173ffffffffffffffffffffffffffffffffffffffff163373ffffffffffffffffffffffffffffffffffffffff1603611e0e57600191505b8115611e4f576040517f08c379a0000000000000000000000000000000000000000000000000000000008152600401611e46906140dc565b60405180910390fd5b8080611e5a90613c62565b915050611daf565b50838510611ea5576040517f08c379a0000000000000000000000000000000000000000000000000000000008152600401611e9c90614148565b60405180910390fd5b428511611ee7576040517f08c379a0000000000000000000000000000000000000000000000000000000008152600401611ede906141da565b60405180910390fd5b60016000815480929190611efa90613c62565b9190505550600060036000600154815260200190815260200160002090506001548160000181905550338160010160006101000a81548173ffffffffffffffffffffffffffffffffffffffff021916908373ffffffffffffffffffffffffffffffffffffffff1602179055508681600201819055508581600301819055508481600401819055508351816006018190555060005b84518110156120af57848181518110611faa57611fa9613c04565b5b602002602001015160200151826005016000878481518110611fcf57611fce613c04565b5b60200260200101516000015173ffffffffffffffffffffffffffffffffffffffff1673ffffffffffffffffffffffffffffffffffffffff16815260200190815260200160002081905550816009018582815181106120305761202f613c04565b5b6020026020010151600001519080600181540180825580915050600190039060005260206000200160009091909190916101000a81548173ffffffffffffffffffffffffffffffffffffffff021916908373ffffffffffffffffffffffffffffffffffffffff16021790555080806120a790613c62565b915050611f8e565b50600260008154809291906120c390613c62565b919050555050505050505050565b60025481565b81816003600083815260200190815260200160002060010160009054906101000a900473ffffffffffffffffffffffffffffffffffffffff1673ffffffffffffffffffffffffffffffffffffffff163373ffffffffffffffffffffffffffffffffffffffff161461217d576040517f08c379a00000000000000000000000000000000000000000000000000000000081526004016121749061426c565b60405180910390fd5b8073ffffffffffffffffffffffffffffffffffffffff166003600084815260200190815260200160002060070160008373ffffffffffffffffffffffffffffffffffffffff1673ffffffffffffffffffffffffffffffffffffffff16815260200190815260200160002060030160009054906101000a900473ffffffffffffffffffffffffffffffffffffffff1673ffffffffffffffffffffffffffffffffffffffff1603612261576040517f08c379a0000000000000000000000000000000000000000000000000000000008152600401612258906142d8565b60405180910390fd5b60006003600086815260200190815260200160002060070160008573ffffffffffffffffffffffffffffffffffffffff1673ffffffffffffffffffffffffffffffffffffffff1681526020019081526020016000209050838160030160006101000a81548173ffffffffffffffffffffffffffffffffffffffff021916908373ffffffffffffffffffffffffffffffffffffffff16021790555060036000868152602001908152602001600020600801600081548092919061232290613c62565b91905055505050505050565b6060600154821115612375576040517f08c379a000000000000000000000000000000000000000000000000000000000815260040161236c90613be4565b60405180910390fd5b600082036123b8576040517f08c379a00000000000000000000000000000000000000000000000000000000081526004016123af90613be4565b60405180910390fd5b3373ffffffffffffffffffffffffffffffffffffffff166003600084815260200190815260200160002060070160003373ffffffffffffffffffffffffffffffffffffffff1673ffffffffffffffffffffffffffffffffffffffff16815260200190815260200160002060030160009054906101000a900473ffffffffffffffffffffffffffffffffffffffff1673ffffffffffffffffffffffffffffffffffffffff161461249c576040517f08c379a000000000000000000000000000000000000000000000000000000000815260040161249390613b78565b60405180910390fd5b6000600360008481526020019081526020016000209050600081600b015467ffffffffffffffff8111156124d3576124d2613488565b5b60405190808252806020026020018201604052801561250c57816020015b6124f9612c63565b8152602001906001900390816124f15790505b5090506000600190505b82600b015481116126b757808360070160003373ffffffffffffffffffffffffffffffffffffffff1673ffffffffffffffffffffffffffffffffffffffff168152602001908152602001600020600101600083815260200190815260200160002060030154036126a4578260070160003373ffffffffffffffffffffffffffffffffffffffff1673ffffffffffffffffffffffffffffffffffffffff16815260200190815260200160002060010160008281526020019081526020016000206040518060c00160405290816000820160009054906101000a900460ff161515151581526020016000820160019054906101000a900473ffffffffffffffffffffffffffffffffffffffff1673ffffffffffffffffffffffffffffffffffffffff1673ffffffffffffffffffffffffffffffffffffffff1681526020016001820154815260200160028201548152602001600382015481526020016004820154815250508260018361268791906142f8565b8151811061269857612697613c04565b5b60200260200101819052505b80806126af90613c62565b915050612516565b508092505050919050565b600154841115612707576040517f08c379a00000000000000000000000000000000000000000000000000000000081526004016126fe90613be4565b60405180910390fd5b3373ffffffffffffffffffffffffffffffffffffffff166003600086815260200190815260200160002060010160009054906101000a900473ffffffffffffffffffffffffffffffffffffffff1673ffffffffffffffffffffffffffffffffffffffff16146127ab576040517f08c379a00000000000000000000000000000000000000000000000000000000081526004016127a29061439e565b60405180910390fd5b60036000858152602001908152602001600020600301544210612803576040517f08c379a00000000000000000000000000000000000000000000000000000000081526004016127fa9061440a565b60405180910390fd5b60036000858152602001908152602001600020600b01600081548092919061282a90613c62565b9190505550600060036000868152602001908152602001600020600b01549050600060036000878152602001908152602001600020600a016000838152602001908152602001600020905085816006018190555061288a81838686612b7e565b60005b85518110156128ce576128bb82828884815181106128ae576128ad613c04565b5b6020026020010151612bb2565b80806128c690613c62565b91505061288d565b50505050505050565b6003600083815260200190815260200160002060010160009054906101000a900473ffffffffffffffffffffffffffffffffffffffff1673ffffffffffffffffffffffffffffffffffffffff163373ffffffffffffffffffffffffffffffffffffffff161461297b576040517f08c379a00000000000000000000000000000000000000000000000000000000081526004016129729061426c565b60405180910390fd5b60005b8151811015612b735781818151811061299a57612999613c04565b5b602002602001015173ffffffffffffffffffffffffffffffffffffffff166003600085815260200190815260200160002060070160008484815181106129e3576129e2613c04565b5b602002602001015173ffffffffffffffffffffffffffffffffffffffff1673ffffffffffffffffffffffffffffffffffffffff16815260200190815260200160002060030160009054906101000a900473ffffffffffffffffffffffffffffffffffffffff1673ffffffffffffffffffffffffffffffffffffffff1614612b60576000600360008581526020019081526020016000206007016000848481518110612a9157612a90613c04565b5b602002602001015173ffffffffffffffffffffffffffffffffffffffff1673ffffffffffffffffffffffffffffffffffffffff1681526020019081526020016000209050828281518110612ae857612ae7613c04565b5b60200260200101518160030160006101000a81548173ffffffffffffffffffffffffffffffffffffffff021916908373ffffffffffffffffffffffffffffffffffffffff160217905550600360008581526020019081526020016000206008016000815480929190612b5990613c62565b9190505550505b8080612b6b90613c62565b91505061297e565b505050565b60015481565b828460000181905550818460030160006101000a81548160ff02191690831515021790555080846004018190555050505050565b604051806040016040528082815260200160008152508360010160008481526020019081526020016000206000820151816000015560208201518160010155905050826002016000815480929190612c0990613c62565b9190505550505050565b6040518060400160405280600073ffffffffffffffffffffffffffffffffffffffff168152602001600080191681525090565b604051806040016040528060008019168152602001600081525090565b6040518060c00160405280600015158152602001600073ffffffffffffffffffffffffffffffffffffffff168152602001600081526020016000801916815260200160008152602001600080191681525090565b6000604051905090565b600080fd5b600080fd5b6000819050919050565b612cde81612ccb565b8114612ce957600080fd5b50565b600081359050612cfb81612cd5565b92915050565b600060208284031215612d1757612d16612cc1565b5b6000612d2584828501612cec565b91505092915050565b60008115159050919050565b612d4381612d2e565b82525050565b6000602082019050612d5e6000830184612d3a565b92915050565b600073ffffffffffffffffffffffffffffffffffffffff82169050919050565b6000612d8f82612d64565b9050919050565b612d9f81612d84565b82525050565b612dae81612ccb565b82525050565b600081519050919050565b600082825260208201905092915050565b6000819050602082019050919050565b612de981612d84565b82525050565b6000819050919050565b612e0281612def565b82525050565b604082016000820151612e1e6000850182612de0565b506020820151612e316020850182612df9565b50505050565b6000612e438383612e08565b60408301905092915050565b6000602082019050919050565b6000612e6782612db4565b612e718185612dbf565b9350612e7c83612dd0565b8060005b83811015612ead578151612e948882612e37565b9750612e9f83612e4f565b925050600181019050612e80565b5085935050505092915050565b600060a082019050612ecf6000830188612d96565b612edc6020830187612da5565b612ee96040830186612da5565b8181036060830152612efb8185612e5c565b9050612f0a6080830184612d3a565b9695505050505050565b60008060408385031215612f2b57612f2a612cc1565b5b6000612f3985828601612cec565b9250506020612f4a85828601612cec565b9150509250929050565b612f5d81612def565b82525050565b600081519050919050565b600082825260208201905092915050565b6000819050602082019050919050565b612f9881612ccb565b82525050565b604082016000820151612fb46000850182612df9565b506020820151612fc76020850182612f8f565b50505050565b6000612fd98383612f9e565b60408301905092915050565b6000602082019050919050565b6000612ffd82612f63565b6130078185612f6e565b935061301283612f7f565b8060005b8381101561304357815161302a8882612fcd565b975061303583612fe5565b925050600181019050613016565b5085935050505092915050565b600060c0820190506130656000830189612da5565b6130726020830188612f54565b81810360408301526130848187612ff2565b90506130936060830186612da5565b6130a06080830185612da5565b6130ad60a0830184612da5565b979650505050505050565b6000610100820190506130ce600083018b612da5565b6130db602083018a612d96565b6130e86040830189612f54565b6130f56060830188612da5565b6131026080830187612da5565b61310f60a0830186612da5565b61311c60c0830185612da5565b61312960e0830184612da5565b9998505050505050505050565b600060208201905061314b6000830184612d96565b92915050565b60006020820190506131666000830184612da5565b92915050565b60008060006060848603121561318557613184612cc1565b5b600061319386828701612cec565b93505060206131a486828701612cec565b92505060406131b586828701612cec565b9150509250925092565b600081519050919050565b600082825260208201905092915050565b6000819050602082019050919050565b60006131f78383612df9565b60208301905092915050565b6000602082019050919050565b600061321b826131bf565b61322581856131ca565b9350613230836131db565b8060005b8381101561326157815161324888826131eb565b975061325383613203565b925050600181019050613234565b5085935050505092915050565b600081519050919050565b600082825260208201905092915050565b6000819050602082019050919050565b60006132a68383612de0565b60208301905092915050565b6000602082019050919050565b60006132ca8261326e565b6132d48185613279565b93506132df8361328a565b8060005b838110156133105781516132f7888261329a565b9750613302836132b2565b9250506001810190506132e3565b5085935050505092915050565b600061014082019050613333600083018d612da5565b613340602083018c612d96565b61334d604083018b612f54565b61335a606083018a612da5565b6133676080830189612da5565b81810360a08301526133798188613210565b905081810360c083015261338d81876132bf565b905061339c60e0830186612da5565b6133aa610100830185612da5565b6133b8610120830184612da5565b9b9a5050505050505050505050565b6133d081612d84565b81146133db57600080fd5b50565b6000813590506133ed816133c7565b92915050565b6133fc81612def565b811461340757600080fd5b50565b600081359050613419816133f3565b92915050565b60008060006060848603121561343857613437612cc1565b5b600061344686828701612cec565b9350506020613457868287016133de565b92505060406134688682870161340a565b9150509250925092565b600080fd5b6000601f19601f8301169050919050565b7f4e487b7100000000000000000000000000000000000000000000000000000000600052604160045260246000fd5b6134c082613477565b810181811067ffffffffffffffff821117156134df576134de613488565b5b80604052505050565b60006134f2612cb7565b90506134fe82826134b7565b919050565b600067ffffffffffffffff82111561351e5761351d613488565b5b602082029050602081019050919050565b600080fd5b600080fd5b60006040828403121561354f5761354e613534565b5b61355960406134e8565b90506000613569848285016133de565b600083015250602061357d8482850161340a565b60208301525092915050565b600061359c61359784613503565b6134e8565b905080838252602082019050604084028301858111156135bf576135be61352f565b5b835b818110156135e857806135d48882613539565b8452602084019350506040810190506135c1565b5050509392505050565b600082601f83011261360757613606613472565b5b8135613617848260208601613589565b91505092915050565b6000806000806080858703121561363a57613639612cc1565b5b60006136488782880161340a565b945050602061365987828801612cec565b935050604061366a87828801612cec565b925050606085013567ffffffffffffffff81111561368b5761368a612cc6565b5b613697878288016135f2565b91505092959194509250565b600080604083850312156136ba576136b9612cc1565b5b60006136c885828601612cec565b92505060206136d9858286016133de565b9150509250929050565b600081519050919050565b600082825260208201905092915050565b6000819050602082019050919050565b61371881612d2e565b82525050565b60c082016000820151613734600085018261370f565b5060208201516137476020850182612de0565b50604082015161375a6040850182612f8f565b50606082015161376d6060850182612df9565b5060808201516137806080850182612f8f565b5060a082015161379360a0850182612df9565b50505050565b60006137a5838361371e565b60c08301905092915050565b6000602082019050919050565b60006137c9826136e3565b6137d381856136ee565b93506137de836136ff565b8060005b8381101561380f5781516137f68882613799565b9750613801836137b1565b9250506001810190506137e2565b5085935050505092915050565b6000602082019050818103600083015261383681846137be565b905092915050565b600067ffffffffffffffff82111561385957613858613488565b5b602082029050602081019050919050565b600061387d6138788461383e565b6134e8565b905080838252602082019050602084028301858111156138a05761389f61352f565b5b835b818110156138c957806138b5888261340a565b8452602084019350506020810190506138a2565b5050509392505050565b600082601f8301126138e8576138e7613472565b5b81356138f884826020860161386a565b91505092915050565b61390a81612d2e565b811461391557600080fd5b50565b60008135905061392781613901565b92915050565b6000806000806080858703121561394757613946612cc1565b5b600061395587828801612cec565b945050602085013567ffffffffffffffff81111561397657613975612cc6565b5b613982878288016138d3565b935050604061399387828801613918565b92505060606139a48782880161340a565b91505092959194509250565b600067ffffffffffffffff8211156139cb576139ca613488565b5b602082029050602081019050919050565b60006139ef6139ea846139b0565b6134e8565b90508083825260208201905060208402830185811115613a1257613a1161352f565b5b835b81811015613a3b5780613a2788826133de565b845260208401935050602081019050613a14565b5050509392505050565b600082601f830112613a5a57613a59613472565b5b8135613a6a8482602086016139dc565b91505092915050565b60008060408385031215613a8a57613a89612cc1565b5b6000613a9885828601612cec565b925050602083013567ffffffffffffffff811115613ab957613ab8612cc6565b5b613ac585828601613a45565b9150509250929050565b600082825260208201905092915050565b7f536f72727920796f7520617265206e6f7420616464656420746f20766f74696e60008201527f67206c697374207965742c20636f6e7461637420796f7572207061727479206860208201527f6561640000000000000000000000000000000000000000000000000000000000604082015250565b6000613b62604383613acf565b9150613b6d82613ae0565b606082019050919050565b60006020820190508181036000830152613b9181613b55565b9050919050565b7f4576656e7420646f6573206e6f74206578697374000000000000000000000000600082015250565b6000613bce601483613acf565b9150613bd982613b98565b602082019050919050565b60006020820190508181036000830152613bfd81613bc1565b9050919050565b7f4e487b7100000000000000000000000000000000000000000000000000000000600052603260045260246000fd5b7f4e487b7100000000000000000000000000000000000000000000000000000000600052601160045260246000fd5b6000613c6d82612ccb565b91507fffffffffffffffffffffffffffffffffffffffffffffffffffffffffffffffff8203613c9f57613c9e613c33565b5b600182019050919050565b7f506f6f6c206576656e7420646f6573206e6f7420657869737400000000000000600082015250565b6000613ce0601983613acf565b9150613ceb82613caa565b602082019050919050565b60006020820190508181036000830152613d0f81613cd3565b9050919050565b7f76616c69646174696f6e206661696c65642c20636865636b20796f757220737460008201527f6174757320746f20636f6e6669726d0000000000000000000000000000000000602082015250565b6000613d72602f83613acf565b9150613d7d82613d16565b604082019050919050565b60006020820190508181036000830152613da181613d65565b9050919050565b7f416c726561647920766f74656400000000000000000000000000000000000000600082015250565b6000613dde600d83613acf565b9150613de982613da8565b602082019050919050565b60006020820190508181036000830152613e0d81613dd1565b9050919050565b6000613e1f82612ccb565b9150613e2a83612ccb565b9250828201905080821115613e4257613e41613c33565b5b92915050565b7f456c656374696f6e20646f6573206e6f74206578697374000000000000000000600082015250565b6000613e7e601783613acf565b9150613e8982613e48565b602082019050919050565b60006020820190508181036000830152613ead81613e71565b9050919050565b7f566f746572206e6f7420616464656420746f20766f74696e67206c697374207960008201527f65742020636f6e7461637420796f75722061646d696e697374726174696f6e00602082015250565b6000613f10603f83613acf565b9150613f1b82613eb4565b604082019050919050565b60006020820190508181036000830152613f3f81613f03565b9050919050565b7f4f6e6c792050617274792063616e206769766520726967687420746f20766f7460008201527f652e000000000000000000000000000000000000000000000000000000000000602082015250565b6000613fa2602283613acf565b9150613fad82613f46565b604082019050919050565b60006020820190508181036000830152613fd181613f95565b9050919050565b7f596f75206861766520616c726561647920417574686f72697a656420766f746560008201527f722e205468616e6b20796f750000000000000000000000000000000000000000602082015250565b6000614034602c83613acf565b915061403f82613fd8565b604082019050919050565b6000602082019050818103600083015261406381614027565b9050919050565b7f6368616972706572736f6e2063616e206e6f74206265206d656d626572206f6660008201527f2061207061727479000000000000000000000000000000000000000000000000602082015250565b60006140c6602883613acf565b91506140d18261406a565b604082019050919050565b600060208201905081810360008301526140f5816140b9565b9050919050565b7f496e76616c696420656c656374696f6e20646174657300000000000000000000600082015250565b6000614132601683613acf565b915061413d826140fc565b602082019050919050565b6000602082019050818103600083015261416181614125565b9050919050565b7f496e76616c696420656c656374696f6e2064617465732873746172742064617460008201527f65206c6173742074686520626c6f636b2074696d652900000000000000000000602082015250565b60006141c4603683613acf565b91506141cf82614168565b604082019050919050565b600060208201905081810360008301526141f3816141b7565b9050919050565b7f4f6e6c79206368616972706572736f6e2068617320746865207269676874207460008201527f6f2061646420766f746572730000000000000000000000000000000000000000602082015250565b6000614256602c83613acf565b9150614261826141fa565b604082019050919050565b6000602082019050818103600083015261428581614249565b9050919050565b7f566f74657220616c726561647920657869747300000000000000000000000000600082015250565b60006142c2601383613acf565b91506142cd8261428c565b602082019050919050565b600060208201905081810360008301526142f1816142b5565b9050919050565b600061430382612ccb565b915061430e83612ccb565b925082820390508181111561432657614325613c33565b5b92915050565b7f4f6e6c79206368616972706572736f6e2063616e206164642062616c6c6f742060008201527f6576656e74000000000000000000000000000000000000000000000000000000602082015250565b6000614388602583613acf565b91506143938261432c565b604082019050919050565b600060208201905081810360008301526143b78161437b565b9050919050565b7f416464696e67206e657720506f6f6c206e6f74207065726d6974746564000000600082015250565b60006143f4601d83613acf565b91506143ff826143be565b602082019050919050565b60006020820190508181036000830152614423816143e7565b905091905056fea2646970667358221220f38d798cbc053be1afe1d6442a641b9134327abb887eb8176cd0963130d6244c64736f6c63430008140033","opcodes":"PUSH1 0x80 PUSH1 0x40 MSTORE CALLVALUE DUP1 ISZERO PUSH2 0x10 JUMPI PUSH1 0x0 DUP1 REVERT JUMPDEST POP PUSH2 0x4460 DUP1 PUSH2 0x20 PUSH1 0x0 CODECOPY PUSH1 0x0 RETURN INVALID PUSH1 0x80 PUSH1 0x40 MSTORE CALLVALUE DUP1 ISZERO PUSH2 0x10 JUMPI PUSH1 0x0 DUP1 REVERT JUMPDEST POP PUSH1 0x4 CALLDATASIZE LT PUSH2 0xFF JUMPI PUSH1 0x0 CALLDATALOAD PUSH1 0xE0 SHR DUP1 PUSH4 0xB5B314E5 GT PUSH2 0x97 JUMPI DUP1 PUSH4 0xE8C26428 GT PUSH2 0x66 JUMPI DUP1 PUSH4 0xE8C26428 EQ PUSH2 0x2E9 JUMPI DUP1 PUSH4 0xF52F1E3A EQ PUSH2 0x319 JUMPI DUP1 PUSH4 0xF7098C9A EQ PUSH2 0x335 JUMPI DUP1 PUSH4 0xF8E78E9A EQ PUSH2 0x351 JUMPI PUSH2 0xFF JUMP JUMPDEST DUP1 PUSH4 0xB5B314E5 EQ PUSH2 0x277 JUMPI DUP1 PUSH4 0xBFF8E677 EQ PUSH2 0x293 JUMPI DUP1 PUSH4 0xCC35E796 EQ PUSH2 0x2AF JUMPI DUP1 PUSH4 0xD6A00943 EQ PUSH2 0x2CD JUMPI PUSH2 0xFF JUMP JUMPDEST DUP1 PUSH4 0x37ABE716 GT PUSH2 0xD3 JUMPI DUP1 PUSH4 0x37ABE716 EQ PUSH2 0x1D4 JUMPI DUP1 PUSH4 0x557ED1BA EQ PUSH2 0x204 JUMPI DUP1 PUSH4 0x8A6655D6 EQ PUSH2 0x222 JUMPI DUP1 PUSH4 0x9D710777 EQ PUSH2 0x23E JUMPI PUSH2 0xFF JUMP JUMPDEST DUP1 PUSH3 0xEF3391 EQ PUSH2 0x104 JUMPI DUP1 PUSH4 0x519BB83 EQ PUSH2 0x134 JUMPI DUP1 PUSH4 0xD358757 EQ PUSH2 0x168 JUMPI DUP1 PUSH4 0x1E9598E2 EQ PUSH2 0x19D JUMPI JUMPDEST PUSH1 0x0 DUP1 REVERT JUMPDEST PUSH2 0x11E PUSH1 0x4 DUP1 CALLDATASIZE SUB DUP2 ADD SWAP1 PUSH2 0x119 SWAP2 SWAP1 PUSH2 0x2D01 JUMP JUMPDEST PUSH2 0x36F JUMP JUMPDEST PUSH1 0x40 MLOAD PUSH2 0x12B SWAP2 SWAP1 PUSH2 0x2D49 JUMP JUMPDEST PUSH1 0x40 MLOAD DUP1 SWAP2 SUB SWAP1 RETURN JUMPDEST PUSH2 0x14E PUSH1 0x4 DUP1 CALLDATASIZE SUB DUP2 ADD SWAP1 PUSH2 0x149 SWAP2 SWAP1 PUSH2 0x2D01 JUMP JUMPDEST PUSH2 0x4B9 JUMP JUMPDEST PUSH1 0x40 MLOAD PUSH2 0x15F SWAP6 SWAP5 SWAP4 SWAP3 SWAP2 SWAP1 PUSH2 0x2EBA JUMP JUMPDEST PUSH1 0x40 MLOAD DUP1 SWAP2 SUB SWAP1 RETURN JUMPDEST PUSH2 0x182 PUSH1 0x4 DUP1 CALLDATASIZE SUB DUP2 ADD SWAP1 PUSH2 0x17D SWAP2 SWAP1 PUSH2 0x2F14 JUMP JUMPDEST PUSH2 0xB13 JUMP JUMPDEST PUSH1 0x40 MLOAD PUSH2 0x194 SWAP7 SWAP6 SWAP5 SWAP4 SWAP3 SWAP2 SWAP1 PUSH2 0x3050 JUMP JUMPDEST PUSH1 0x40 MLOAD DUP1 SWAP2 SUB SWAP1 RETURN JUMPDEST PUSH2 0x1B7 PUSH1 0x4 DUP1 CALLDATASIZE SUB DUP2 ADD SWAP1 PUSH2 0x1B2 SWAP2 SWAP1 PUSH2 0x2D01 JUMP JUMPDEST PUSH2 0xD7C JUMP JUMPDEST PUSH1 0x40 MLOAD PUSH2 0x1CB SWAP9 SWAP8 SWAP7 SWAP6 SWAP5 SWAP4 SWAP3 SWAP2 SWAP1 PUSH2 0x30B8 JUMP JUMPDEST PUSH1 0x40 MLOAD DUP1 SWAP2 SUB SWAP1 RETURN JUMPDEST PUSH2 0x1EE PUSH1 0x4 DUP1 CALLDATASIZE SUB DUP2 ADD SWAP1 PUSH2 0x1E9 SWAP2 SWAP1 PUSH2 0x2D01 JUMP JUMPDEST PUSH2 0xDE4 JUMP JUMPDEST PUSH1 0x40 MLOAD PUSH2 0x1FB SWAP2 SWAP1 PUSH2 0x3136 JUMP JUMPDEST PUSH1 0x40 MLOAD DUP1 SWAP2 SUB SWAP1 RETURN JUMPDEST PUSH2 0x20C PUSH2 0xE23 JUMP JUMPDEST PUSH1 0x40 MLOAD PUSH2 0x219 SWAP2 SWAP1 PUSH2 0x3151 JUMP JUMPDEST PUSH1 0x40 MLOAD DUP1 SWAP2 SUB SWAP1 RETURN JUMPDEST PUSH2 0x23C PUSH1 0x4 DUP1 CALLDATASIZE SUB DUP2 ADD SWAP1 PUSH2 0x237 SWAP2 SWAP1 PUSH2 0x316C JUMP JUMPDEST PUSH2 0xE2B JUMP JUMPDEST STOP JUMPDEST PUSH2 0x258 PUSH1 0x4 DUP1 CALLDATASIZE SUB DUP2 ADD SWAP1 PUSH2 0x253 SWAP2 SWAP1 PUSH2 0x2D01 JUMP JUMPDEST PUSH2 0x153A JUMP JUMPDEST PUSH1 0x40 MLOAD PUSH2 0x26E SWAP11 SWAP10 SWAP9 SWAP8 SWAP7 SWAP6 SWAP5 SWAP4 SWAP3 SWAP2 SWAP1 PUSH2 0x331D JUMP JUMPDEST PUSH1 0x40 MLOAD DUP1 SWAP2 SUB SWAP1 RETURN JUMPDEST PUSH2 0x291 PUSH1 0x4 DUP1 CALLDATASIZE SUB DUP2 ADD SWAP1 PUSH2 0x28C SWAP2 SWAP1 PUSH2 0x341F JUMP JUMPDEST PUSH2 0x17F3 JUMP JUMPDEST STOP JUMPDEST PUSH2 0x2AD PUSH1 0x4 DUP1 CALLDATASIZE SUB DUP2 ADD SWAP1 PUSH2 0x2A8 SWAP2 SWAP1 PUSH2 0x3620 JUMP JUMPDEST PUSH2 0x1DA6 JUMP JUMPDEST STOP JUMPDEST PUSH2 0x2B7 PUSH2 0x20D1 JUMP JUMPDEST PUSH1 0x40 MLOAD PUSH2 0x2C4 SWAP2 SWAP1 PUSH2 0x3151 JUMP JUMPDEST PUSH1 0x40 MLOAD DUP1 SWAP2 SUB SWAP1 RETURN JUMPDEST PUSH2 0x2E7 PUSH1 0x4 DUP1 CALLDATASIZE SUB DUP2 ADD SWAP1 PUSH2 0x2E2 SWAP2 SWAP1 PUSH2 0x36A3 JUMP JUMPDEST PUSH2 0x20D7 JUMP JUMPDEST STOP JUMPDEST PUSH2 0x303 PUSH1 0x4 DUP1 CALLDATASIZE SUB DUP2 ADD SWAP1 PUSH2 0x2FE SWAP2 SWAP1 PUSH2 0x2D01 JUMP JUMPDEST PUSH2 0x232E JUMP JUMPDEST PUSH1 0x40 MLOAD PUSH2 0x310 SWAP2 SWAP1 PUSH2 0x381C JUMP JUMPDEST PUSH1 0x40 MLOAD DUP1 SWAP2 SUB SWAP1 RETURN JUMPDEST PUSH2 0x333 PUSH1 0x4 DUP1 CALLDATASIZE SUB DUP2 ADD SWAP1 PUSH2 0x32E SWAP2 SWAP1 PUSH2 0x392D JUMP JUMPDEST PUSH2 0x26C2 JUMP JUMPDEST STOP JUMPDEST PUSH2 0x34F PUSH1 0x4 DUP1 CALLDATASIZE SUB DUP2 ADD SWAP1 PUSH2 0x34A SWAP2 SWAP1 PUSH2 0x3A73 JUMP JUMPDEST PUSH2 0x28D7 JUMP JUMPDEST STOP JUMPDEST PUSH2 0x359 PUSH2 0x2B78 JUMP JUMPDEST PUSH1 0x40 MLOAD PUSH2 0x366 SWAP2 SWAP1 PUSH2 0x3151 JUMP JUMPDEST PUSH1 0x40 MLOAD DUP1 SWAP2 SUB SWAP1 RETURN JUMPDEST PUSH1 0x0 DUP1 PUSH1 0x3 PUSH1 0x0 DUP5 DUP2 MSTORE PUSH1 0x20 ADD SWAP1 DUP2 MSTORE PUSH1 0x20 ADD PUSH1 0x0 KECCAK256 SWAP1 POP CALLER PUSH20 0xFFFFFFFFFFFFFFFFFFFFFFFFFFFFFFFFFFFFFFFF AND DUP2 PUSH1 0x7 ADD PUSH1 0x0 CALLER PUSH20 0xFFFFFFFFFFFFFFFFFFFFFFFFFFFFFFFFFFFFFFFF AND PUSH20 0xFFFFFFFFFFFFFFFFFFFFFFFFFFFFFFFFFFFFFFFF AND DUP2 MSTORE PUSH1 0x20 ADD SWAP1 DUP2 MSTORE PUSH1 0x20 ADD PUSH1 0x0 KECCAK256 PUSH1 0x3 ADD PUSH1 0x0 SWAP1 SLOAD SWAP1 PUSH2 0x100 EXP SWAP1 DIV PUSH20 0xFFFFFFFFFFFFFFFFFFFFFFFFFFFFFFFFFFFFFFFF AND PUSH20 0xFFFFFFFFFFFFFFFFFFFFFFFFFFFFFFFFFFFFFFFF AND EQ PUSH2 0x459 JUMPI PUSH1 0x40 MLOAD PUSH32 0x8C379A000000000000000000000000000000000000000000000000000000000 DUP2 MSTORE PUSH1 0x4 ADD PUSH2 0x450 SWAP1 PUSH2 0x3B78 JUMP JUMPDEST PUSH1 0x40 MLOAD DUP1 SWAP2 SUB SWAP1 REVERT JUMPDEST PUSH1 0x0 DUP2 PUSH1 0x7 ADD PUSH1 0x0 CALLER PUSH20 0xFFFFFFFFFFFFFFFFFFFFFFFFFFFFFFFFFFFFFFFF AND PUSH20 0xFFFFFFFFFFFFFFFFFFFFFFFFFFFFFFFFFFFFFFFF AND DUP2 MSTORE PUSH1 0x20 ADD SWAP1 DUP2 MSTORE PUSH1 0x20 ADD PUSH1 0x0 KECCAK256 PUSH1 0x6 ADD PUSH1 0x0 SWAP1 SLOAD SWAP1 PUSH2 0x100 EXP SWAP1 DIV PUSH1 0xFF AND SWAP1 POP DUP1 SWAP3 POP POP POP SWAP2 SWAP1 POP JUMP JUMPDEST PUSH1 0x0 DUP1 PUSH1 0x0 PUSH1 0x60 PUSH1 0x0 PUSH1 0x1 SLOAD DUP7 GT ISZERO PUSH2 0x507 JUMPI PUSH1 0x40 MLOAD PUSH32 0x8C379A000000000000000000000000000000000000000000000000000000000 DUP2 MSTORE PUSH1 0x4 ADD PUSH2 0x4FE SWAP1 PUSH2 0x3BE4 JUMP JUMPDEST PUSH1 0x40 MLOAD DUP1 SWAP2 SUB SWAP1 REVERT JUMPDEST PUSH1 0x0 DUP7 SUB PUSH2 0x54A JUMPI PUSH1 0x40 MLOAD PUSH32 0x8C379A000000000000000000000000000000000000000000000000000000000 DUP2 MSTORE PUSH1 0x4 ADD PUSH2 0x541 SWAP1 PUSH2 0x3BE4 JUMP JUMPDEST PUSH1 0x40 MLOAD DUP1 SWAP2 SUB SWAP1 REVERT JUMPDEST PUSH1 0x0 PUSH1 0x3 PUSH1 0x0 DUP9 DUP2 MSTORE PUSH1 0x20 ADD SWAP1 DUP2 MSTORE PUSH1 0x20 ADD PUSH1 0x0 KECCAK256 SWAP1 POP CALLER PUSH20 0xFFFFFFFFFFFFFFFFFFFFFFFFFFFFFFFFFFFFFFFF AND DUP2 PUSH1 0x7 ADD PUSH1 0x0 CALLER PUSH20 0xFFFFFFFFFFFFFFFFFFFFFFFFFFFFFFFFFFFFFFFF AND PUSH20 0xFFFFFFFFFFFFFFFFFFFFFFFFFFFFFFFFFFFFFFFF AND DUP2 MSTORE PUSH1 0x20 ADD SWAP1 DUP2 MSTORE PUSH1 0x20 ADD PUSH1 0x0 KECCAK256 PUSH1 0x3 ADD PUSH1 0x0 SWAP1 SLOAD SWAP1 PUSH2 0x100 EXP SWAP1 DIV PUSH20 0xFFFFFFFFFFFFFFFFFFFFFFFFFFFFFFFFFFFFFFFF AND PUSH20 0xFFFFFFFFFFFFFFFFFFFFFFFFFFFFFFFFFFFFFFFF AND EQ PUSH2 0x633 JUMPI PUSH1 0x40 MLOAD PUSH32 0x8C379A000000000000000000000000000000000000000000000000000000000 DUP2 MSTORE PUSH1 0x4 ADD PUSH2 0x62A SWAP1 PUSH2 0x3B78 JUMP JUMPDEST PUSH1 0x40 MLOAD DUP1 SWAP2 SUB SWAP1 REVERT JUMPDEST PUSH1 0x0 DUP2 PUSH1 0x7 ADD PUSH1 0x0 CALLER PUSH20 0xFFFFFFFFFFFFFFFFFFFFFFFFFFFFFFFFFFFFFFFF AND PUSH20 0xFFFFFFFFFFFFFFFFFFFFFFFFFFFFFFFFFFFFFFFF AND DUP2 MSTORE PUSH1 0x20 ADD SWAP1 DUP2 MSTORE PUSH1 0x20 ADD PUSH1 0x0 KECCAK256 PUSH1 0x3 ADD PUSH1 0x0 SWAP1 SLOAD SWAP1 PUSH2 0x100 EXP SWAP1 DIV PUSH20 0xFFFFFFFFFFFFFFFFFFFFFFFFFFFFFFFFFFFFFFFF AND SWAP1 POP PUSH1 0x0 DUP3 PUSH1 0x7 ADD PUSH1 0x0 CALLER PUSH20 0xFFFFFFFFFFFFFFFFFFFFFFFFFFFFFFFFFFFFFFFF AND PUSH20 0xFFFFFFFFFFFFFFFFFFFFFFFFFFFFFFFFFFFFFFFF AND DUP2 MSTORE PUSH1 0x20 ADD SWAP1 DUP2 MSTORE PUSH1 0x20 ADD PUSH1 0x0 KECCAK256 PUSH1 0x4 ADD SLOAD SWAP1 POP PUSH1 0x0 DUP4 PUSH1 0x7 ADD PUSH1 0x0 CALLER PUSH20 0xFFFFFFFFFFFFFFFFFFFFFFFFFFFFFFFFFFFFFFFF AND PUSH20 0xFFFFFFFFFFFFFFFFFFFFFFFFFFFFFFFFFFFFFFFF AND DUP2 MSTORE PUSH1 0x20 ADD SWAP1 DUP2 MSTORE PUSH1 0x20 ADD PUSH1 0x0 KECCAK256 PUSH1 0x5 ADD SLOAD SWAP1 POP PUSH1 0x0 DUP5 PUSH1 0x7 ADD PUSH1 0x0 CALLER PUSH20 0xFFFFFFFFFFFFFFFFFFFFFFFFFFFFFFFFFFFFFFFF AND PUSH20 0xFFFFFFFFFFFFFFFFFFFFFFFFFFFFFFFFFFFFFFFF AND DUP2 MSTORE PUSH1 0x20 ADD SWAP1 DUP2 MSTORE PUSH1 0x20 ADD PUSH1 0x0 KECCAK256 PUSH1 0x6 ADD PUSH1 0x0 SWAP1 SLOAD SWAP1 PUSH2 0x100 EXP SWAP1 DIV PUSH1 0xFF AND SWAP1 POP PUSH1 0x0 DUP6 PUSH1 0x7 ADD PUSH1 0x0 CALLER PUSH20 0xFFFFFFFFFFFFFFFFFFFFFFFFFFFFFFFFFFFFFFFF AND PUSH20 0xFFFFFFFFFFFFFFFFFFFFFFFFFFFFFFFFFFFFFFFF AND DUP2 MSTORE PUSH1 0x20 ADD SWAP1 DUP2 MSTORE PUSH1 0x20 ADD PUSH1 0x0 KECCAK256 PUSH1 0x2 ADD SLOAD PUSH8 0xFFFFFFFFFFFFFFFF DUP2 GT ISZERO PUSH2 0x7E4 JUMPI PUSH2 0x7E3 PUSH2 0x3488 JUMP JUMPDEST JUMPDEST PUSH1 0x40 MLOAD SWAP1 DUP1 DUP3 MSTORE DUP1 PUSH1 0x20 MUL PUSH1 0x20 ADD DUP3 ADD PUSH1 0x40 MSTORE DUP1 ISZERO PUSH2 0x81D JUMPI DUP2 PUSH1 0x20 ADD JUMPDEST PUSH2 0x80A PUSH2 0x2C13 JUMP JUMPDEST DUP2 MSTORE PUSH1 0x20 ADD SWAP1 PUSH1 0x1 SWAP1 SUB SWAP1 DUP2 PUSH2 0x802 JUMPI SWAP1 POP JUMPDEST POP SWAP1 POP PUSH1 0x0 DUP1 DUP8 PUSH1 0x7 ADD PUSH1 0x0 CALLER PUSH20 0xFFFFFFFFFFFFFFFFFFFFFFFFFFFFFFFFFFFFFFFF AND PUSH20 0xFFFFFFFFFFFFFFFFFFFFFFFFFFFFFFFFFFFFFFFF AND DUP2 MSTORE PUSH1 0x20 ADD SWAP1 DUP2 MSTORE PUSH1 0x20 ADD PUSH1 0x0 KECCAK256 PUSH1 0x2 ADD SLOAD GT ISZERO PUSH2 0xAF4 JUMPI PUSH1 0x0 JUMPDEST DUP8 PUSH1 0x6 ADD SLOAD DUP2 LT ISZERO PUSH2 0xAF2 JUMPI DUP8 PUSH1 0x5 ADD PUSH1 0x0 DUP10 PUSH1 0x9 ADD DUP4 DUP2 SLOAD DUP2 LT PUSH2 0x899 JUMPI PUSH2 0x898 PUSH2 0x3C04 JUMP JUMPDEST JUMPDEST SWAP1 PUSH1 0x0 MSTORE PUSH1 0x20 PUSH1 0x0 KECCAK256 ADD PUSH1 0x0 SWAP1 SLOAD SWAP1 PUSH2 0x100 EXP SWAP1 DIV PUSH20 0xFFFFFFFFFFFFFFFFFFFFFFFFFFFFFFFFFFFFFFFF AND PUSH20 0xFFFFFFFFFFFFFFFFFFFFFFFFFFFFFFFFFFFFFFFF AND PUSH20 0xFFFFFFFFFFFFFFFFFFFFFFFFFFFFFFFFFFFFFFFF AND DUP2 MSTORE PUSH1 0x20 ADD SWAP1 DUP2 MSTORE PUSH1 0x20 ADD PUSH1 0x0 KECCAK256 SLOAD DUP9 PUSH1 0x7 ADD PUSH1 0x0 CALLER PUSH20 0xFFFFFFFFFFFFFFFFFFFFFFFFFFFFFFFFFFFFFFFF AND PUSH20 0xFFFFFFFFFFFFFFFFFFFFFFFFFFFFFFFFFFFFFFFF AND DUP2 MSTORE PUSH1 0x20 ADD SWAP1 DUP2 MSTORE PUSH1 0x20 ADD PUSH1 0x0 KECCAK256 PUSH1 0x0 ADD PUSH1 0x0 DUP11 PUSH1 0x9 ADD DUP5 DUP2 SLOAD DUP2 LT PUSH2 0x95B JUMPI PUSH2 0x95A PUSH2 0x3C04 JUMP JUMPDEST JUMPDEST SWAP1 PUSH1 0x0 MSTORE PUSH1 0x20 PUSH1 0x0 KECCAK256 ADD PUSH1 0x0 SWAP1 SLOAD SWAP1 PUSH2 0x100 EXP SWAP1 DIV PUSH20 0xFFFFFFFFFFFFFFFFFFFFFFFFFFFFFFFFFFFFFFFF AND PUSH20 0xFFFFFFFFFFFFFFFFFFFFFFFFFFFFFFFFFFFFFFFF AND PUSH20 0xFFFFFFFFFFFFFFFFFFFFFFFFFFFFFFFFFFFFFFFF AND DUP2 MSTORE PUSH1 0x20 ADD SWAP1 DUP2 MSTORE PUSH1 0x20 ADD PUSH1 0x0 KECCAK256 SLOAD SUB PUSH2 0xADF JUMPI PUSH1 0x40 MLOAD DUP1 PUSH1 0x40 ADD PUSH1 0x40 MSTORE DUP1 DUP10 PUSH1 0x9 ADD DUP4 DUP2 SLOAD DUP2 LT PUSH2 0x9E7 JUMPI PUSH2 0x9E6 PUSH2 0x3C04 JUMP JUMPDEST JUMPDEST SWAP1 PUSH1 0x0 MSTORE PUSH1 0x20 PUSH1 0x0 KECCAK256 ADD PUSH1 0x0 SWAP1 SLOAD SWAP1 PUSH2 0x100 EXP SWAP1 DIV PUSH20 0xFFFFFFFFFFFFFFFFFFFFFFFFFFFFFFFFFFFFFFFF AND PUSH20 0xFFFFFFFFFFFFFFFFFFFFFFFFFFFFFFFFFFFFFFFF AND DUP2 MSTORE PUSH1 0x20 ADD DUP10 PUSH1 0x5 ADD PUSH1 0x0 DUP12 PUSH1 0x9 ADD DUP6 DUP2 SLOAD DUP2 LT PUSH2 0xA49 JUMPI PUSH2 0xA48 PUSH2 0x3C04 JUMP JUMPDEST JUMPDEST SWAP1 PUSH1 0x0 MSTORE PUSH1 0x20 PUSH1 0x0 KECCAK256 ADD PUSH1 0x0 SWAP1 SLOAD SWAP1 PUSH2 0x100 EXP SWAP1 DIV PUSH20 0xFFFFFFFFFFFFFFFFFFFFFFFFFFFFFFFFFFFFFFFF AND PUSH20 0xFFFFFFFFFFFFFFFFFFFFFFFFFFFFFFFFFFFFFFFF AND PUSH20 0xFFFFFFFFFFFFFFFFFFFFFFFFFFFFFFFFFFFFFFFF AND DUP2 MSTORE PUSH1 0x20 ADD SWAP1 DUP2 MSTORE PUSH1 0x20 ADD PUSH1 0x0 KECCAK256 SLOAD DUP2 MSTORE POP DUP4 DUP4 DUP2 MLOAD DUP2 LT PUSH2 0xAC5 JUMPI PUSH2 0xAC4 PUSH2 0x3C04 JUMP JUMPDEST JUMPDEST PUSH1 0x20 MUL PUSH1 0x20 ADD ADD DUP2 SWAP1 MSTORE POP DUP2 DUP1 PUSH2 0xADB SWAP1 PUSH2 0x3C62 JUMP JUMPDEST SWAP3 POP POP JUMPDEST DUP1 DUP1 PUSH2 0xAEA SWAP1 PUSH2 0x3C62 JUMP JUMPDEST SWAP2 POP POP PUSH2 0x871 JUMP JUMPDEST POP JUMPDEST DUP6 DUP6 DUP6 DUP5 DUP7 SWAP12 POP SWAP12 POP SWAP12 POP SWAP12 POP SWAP12 POP POP POP POP POP POP POP POP SWAP2 SWAP4 SWAP6 SWAP1 SWAP3 SWAP5 POP JUMP JUMPDEST PUSH1 0x0 DUP1 PUSH1 0x60 PUSH1 0x0 DUP1 PUSH1 0x0 PUSH1 0x1 SLOAD DUP9 GT ISZERO PUSH2 0xB62 JUMPI PUSH1 0x40 MLOAD PUSH32 0x8C379A000000000000000000000000000000000000000000000000000000000 DUP2 MSTORE PUSH1 0x4 ADD PUSH2 0xB59 SWAP1 PUSH2 0x3BE4 JUMP JUMPDEST PUSH1 0x40 MLOAD DUP1 SWAP2 SUB SWAP1 REVERT JUMPDEST PUSH1 0x0 DUP9 SUB PUSH2 0xBA5 JUMPI PUSH1 0x40 MLOAD PUSH32 0x8C379A000000000000000000000000000000000000000000000000000000000 DUP2 MSTORE PUSH1 0x4 ADD PUSH2 0xB9C SWAP1 PUSH2 0x3BE4 JUMP JUMPDEST PUSH1 0x40 MLOAD DUP1 SWAP2 SUB SWAP1 REVERT JUMPDEST PUSH1 0x3 PUSH1 0x0 DUP10 DUP2 MSTORE PUSH1 0x20 ADD SWAP1 DUP2 MSTORE PUSH1 0x20 ADD PUSH1 0x0 KECCAK256 PUSH1 0xB ADD SLOAD DUP8 GT ISZERO PUSH2 0xBFE JUMPI PUSH1 0x40 MLOAD PUSH32 0x8C379A000000000000000000000000000000000000000000000000000000000 DUP2 MSTORE PUSH1 0x4 ADD PUSH2 0xBF5 SWAP1 PUSH2 0x3CF6 JUMP JUMPDEST PUSH1 0x40 MLOAD DUP1 SWAP2 SUB SWAP1 REVERT JUMPDEST PUSH1 0x0 DUP8 SUB PUSH2 0xC41 JUMPI PUSH1 0x40 MLOAD PUSH32 0x8C379A000000000000000000000000000000000000000000000000000000000 DUP2 MSTORE PUSH1 0x4 ADD PUSH2 0xC38 SWAP1 PUSH2 0x3CF6 JUMP JUMPDEST PUSH1 0x40 MLOAD DUP1 SWAP2 SUB SWAP1 REVERT JUMPDEST PUSH1 0x0 PUSH1 0x3 PUSH1 0x0 DUP11 DUP2 MSTORE PUSH1 0x20 ADD SWAP1 DUP2 MSTORE PUSH1 0x20 ADD PUSH1 0x0 KECCAK256 PUSH1 0xA ADD PUSH1 0x0 DUP10 DUP2 MSTORE PUSH1 0x20 ADD SWAP1 DUP2 MSTORE PUSH1 0x20 ADD PUSH1 0x0 KECCAK256 SWAP1 POP PUSH1 0x0 DUP2 PUSH1 0x2 ADD SLOAD PUSH8 0xFFFFFFFFFFFFFFFF DUP2 GT ISZERO PUSH2 0xC8C JUMPI PUSH2 0xC8B PUSH2 0x3488 JUMP JUMPDEST JUMPDEST PUSH1 0x40 MLOAD SWAP1 DUP1 DUP3 MSTORE DUP1 PUSH1 0x20 MUL PUSH1 0x20 ADD DUP3 ADD PUSH1 0x40 MSTORE DUP1 ISZERO PUSH2 0xCC5 JUMPI DUP2 PUSH1 0x20 ADD JUMPDEST PUSH2 0xCB2 PUSH2 0x2C46 JUMP JUMPDEST DUP2 MSTORE PUSH1 0x20 ADD SWAP1 PUSH1 0x1 SWAP1 SUB SWAP1 DUP2 PUSH2 0xCAA JUMPI SWAP1 POP JUMPDEST POP SWAP1 POP PUSH1 0x0 JUMPDEST DUP3 PUSH1 0x2 ADD SLOAD DUP2 LT ISZERO PUSH2 0xD4D JUMPI PUSH1 0x40 MLOAD DUP1 PUSH1 0x40 ADD PUSH1 0x40 MSTORE DUP1 DUP5 PUSH1 0x1 ADD PUSH1 0x0 DUP5 DUP2 MSTORE PUSH1 0x20 ADD SWAP1 DUP2 MSTORE PUSH1 0x20 ADD PUSH1 0x0 KECCAK256 PUSH1 0x0 ADD SLOAD DUP2 MSTORE PUSH1 0x20 ADD DUP5 PUSH1 0x1 ADD PUSH1 0x0 DUP5 DUP2 MSTORE PUSH1 0x20 ADD SWAP1 DUP2 MSTORE PUSH1 0x20 ADD PUSH1 0x0 KECCAK256 PUSH1 0x1 ADD SLOAD DUP2 MSTORE POP DUP3 DUP3 DUP2 MLOAD DUP2 LT PUSH2 0xD2F JUMPI PUSH2 0xD2E PUSH2 0x3C04 JUMP JUMPDEST JUMPDEST PUSH1 0x20 MUL PUSH1 0x20 ADD ADD DUP2 SWAP1 MSTORE POP DUP1 DUP1 PUSH2 0xD45 SWAP1 PUSH2 0x3C62 JUMP JUMPDEST SWAP2 POP POP PUSH2 0xCCB JUMP JUMPDEST POP DUP2 PUSH1 0x0 ADD SLOAD DUP3 PUSH1 0x4 ADD SLOAD DUP3 DUP5 PUSH1 0x5 ADD SLOAD DUP6 PUSH1 0x2 ADD SLOAD DUP15 SWAP8 POP SWAP8 POP SWAP8 POP SWAP8 POP SWAP8 POP SWAP8 POP POP POP SWAP3 SWAP6 POP SWAP3 SWAP6 POP SWAP3 SWAP6 JUMP JUMPDEST PUSH1 0x3 PUSH1 0x20 MSTORE DUP1 PUSH1 0x0 MSTORE PUSH1 0x40 PUSH1 0x0 KECCAK256 PUSH1 0x0 SWAP2 POP SWAP1 POP DUP1 PUSH1 0x0 ADD SLOAD SWAP1 DUP1 PUSH1 0x1 ADD PUSH1 0x0 SWAP1 SLOAD SWAP1 PUSH2 0x100 EXP SWAP1 DIV PUSH20 0xFFFFFFFFFFFFFFFFFFFFFFFFFFFFFFFFFFFFFFFF AND SWAP1 DUP1 PUSH1 0x2 ADD SLOAD SWAP1 DUP1 PUSH1 0x3 ADD SLOAD SWAP1 DUP1 PUSH1 0x4 ADD SLOAD SWAP1 DUP1 PUSH1 0x6 ADD SLOAD SWAP1 DUP1 PUSH1 0x8 ADD SLOAD SWAP1 DUP1 PUSH1 0xB ADD SLOAD SWAP1 POP DUP9 JUMP JUMPDEST PUSH1 0x0 DUP2 DUP2 SLOAD DUP2 LT PUSH2 0xDF4 JUMPI PUSH1 0x0 DUP1 REVERT JUMPDEST SWAP1 PUSH1 0x0 MSTORE PUSH1 0x20 PUSH1 0x0 KECCAK256 ADD PUSH1 0x0 SWAP2 POP SLOAD SWAP1 PUSH2 0x100 EXP SWAP1 DIV PUSH20 0xFFFFFFFFFFFFFFFFFFFFFFFFFFFFFFFFFFFFFFFF AND DUP2 JUMP JUMPDEST PUSH1 0x0 TIMESTAMP SWAP1 POP SWAP1 JUMP JUMPDEST PUSH1 0x1 SLOAD DUP4 GT ISZERO PUSH2 0xE70 JUMPI PUSH1 0x40 MLOAD PUSH32 0x8C379A000000000000000000000000000000000000000000000000000000000 DUP2 MSTORE PUSH1 0x4 ADD PUSH2 0xE67 SWAP1 PUSH2 0x3BE4 JUMP JUMPDEST PUSH1 0x40 MLOAD DUP1 SWAP2 SUB SWAP1 REVERT JUMPDEST PUSH1 0x0 DUP4 SUB PUSH2 0xEB3 JUMPI PUSH1 0x40 MLOAD PUSH32 0x8C379A000000000000000000000000000000000000000000000000000000000 DUP2 MSTORE PUSH1 0x4 ADD PUSH2 0xEAA SWAP1 PUSH2 0x3BE4 JUMP JUMPDEST PUSH1 0x40 MLOAD DUP1 SWAP2 SUB SWAP1 REVERT JUMPDEST PUSH1 0x1 SLOAD DUP4 GT ISZERO PUSH2 0xEF8 JUMPI PUSH1 0x40 MLOAD PUSH32 0x8C379A000000000000000000000000000000000000000000000000000000000 DUP2 MSTORE PUSH1 0x4 ADD PUSH2 0xEEF SWAP1 PUSH2 0x3BE4 JUMP JUMPDEST PUSH1 0x40 MLOAD DUP1 SWAP2 SUB SWAP1 REVERT JUMPDEST PUSH1 0x0 DUP4 SUB PUSH2 0xF3B JUMPI PUSH1 0x40 MLOAD PUSH32 0x8C379A000000000000000000000000000000000000000000000000000000000 DUP2 MSTORE PUSH1 0x4 ADD PUSH2 0xF32 SWAP1 PUSH2 0x3BE4 JUMP JUMPDEST PUSH1 0x40 MLOAD DUP1 SWAP2 SUB SWAP1 REVERT JUMPDEST PUSH1 0x3 PUSH1 0x0 DUP5 DUP2 MSTORE PUSH1 0x20 ADD SWAP1 DUP2 MSTORE PUSH1 0x20 ADD PUSH1 0x0 KECCAK256 PUSH1 0xB ADD SLOAD DUP3 GT ISZERO PUSH2 0xF94 JUMPI PUSH1 0x40 MLOAD PUSH32 0x8C379A000000000000000000000000000000000000000000000000000000000 DUP2 MSTORE PUSH1 0x4 ADD PUSH2 0xF8B SWAP1 PUSH2 0x3CF6 JUMP JUMPDEST PUSH1 0x40 MLOAD DUP1 SWAP2 SUB SWAP1 REVERT JUMPDEST PUSH1 0x0 DUP3 SUB PUSH2 0xFD7 JUMPI PUSH1 0x40 MLOAD PUSH32 0x8C379A000000000000000000000000000000000000000000000000000000000 DUP2 MSTORE PUSH1 0x4 ADD PUSH2 0xFCE SWAP1 PUSH2 0x3CF6 JUMP JUMPDEST PUSH1 0x40 MLOAD DUP1 SWAP2 SUB SWAP1 REVERT JUMPDEST PUSH1 0x0 PUSH1 0x3 PUSH1 0x0 DUP6 DUP2 MSTORE PUSH1 0x20 ADD SWAP1 DUP2 MSTORE PUSH1 0x20 ADD PUSH1 0x0 KECCAK256 SWAP1 POP CALLER PUSH20 0xFFFFFFFFFFFFFFFFFFFFFFFFFFFFFFFFFFFFFFFF AND DUP2 PUSH1 0x7 ADD PUSH1 0x0 CALLER PUSH20 0xFFFFFFFFFFFFFFFFFFFFFFFFFFFFFFFFFFFFFFFF AND PUSH20 0xFFFFFFFFFFFFFFFFFFFFFFFFFFFFFFFFFFFFFFFF AND DUP2 MSTORE PUSH1 0x20 ADD SWAP1 DUP2 MSTORE PUSH1 0x20 ADD PUSH1 0x0 KECCAK256 PUSH1 0x3 ADD PUSH1 0x0 SWAP1 SLOAD SWAP1 PUSH2 0x100 EXP SWAP1 DIV PUSH20 0xFFFFFFFFFFFFFFFFFFFFFFFFFFFFFFFFFFFFFFFF AND PUSH20 0xFFFFFFFFFFFFFFFFFFFFFFFFFFFFFFFFFFFFFFFF AND EQ PUSH2 0x10C0 JUMPI PUSH1 0x40 MLOAD PUSH32 0x8C379A000000000000000000000000000000000000000000000000000000000 DUP2 MSTORE PUSH1 0x4 ADD PUSH2 0x10B7 SWAP1 PUSH2 0x3B78 JUMP JUMPDEST PUSH1 0x40 MLOAD DUP1 SWAP2 SUB SWAP1 REVERT JUMPDEST PUSH1 0x3 PUSH1 0x0 DUP6 DUP2 MSTORE PUSH1 0x20 ADD SWAP1 DUP2 MSTORE PUSH1 0x20 ADD PUSH1 0x0 KECCAK256 PUSH1 0x7 ADD PUSH1 0x0 CALLER PUSH20 0xFFFFFFFFFFFFFFFFFFFFFFFFFFFFFFFFFFFFFFFF AND PUSH20 0xFFFFFFFFFFFFFFFFFFFFFFFFFFFFFFFFFFFFFFFF AND DUP2 MSTORE PUSH1 0x20 ADD SWAP1 DUP2 MSTORE PUSH1 0x20 ADD PUSH1 0x0 KECCAK256 PUSH1 0x6 ADD PUSH1 0x0 SWAP1 SLOAD SWAP1 PUSH2 0x100 EXP SWAP1 DIV PUSH1 0xFF AND PUSH2 0x1163 JUMPI PUSH1 0x40 MLOAD PUSH32 0x8C379A000000000000000000000000000000000000000000000000000000000 DUP2 MSTORE PUSH1 0x4 ADD PUSH2 0x115A SWAP1 PUSH2 0x3D88 JUMP JUMPDEST PUSH1 0x40 MLOAD DUP1 SWAP2 SUB SWAP1 REVERT JUMPDEST PUSH1 0x1 ISZERO ISZERO DUP2 PUSH1 0x7 ADD PUSH1 0x0 CALLER PUSH20 0xFFFFFFFFFFFFFFFFFFFFFFFFFFFFFFFFFFFFFFFF AND PUSH20 0xFFFFFFFFFFFFFFFFFFFFFFFFFFFFFFFFFFFFFFFF AND DUP2 MSTORE PUSH1 0x20 ADD SWAP1 DUP2 MSTORE PUSH1 0x20 ADD PUSH1 0x0 KECCAK256 PUSH1 0x1 ADD PUSH1 0x0 DUP6 DUP2 MSTORE PUSH1 0x20 ADD SWAP1 DUP2 MSTORE PUSH1 0x20 ADD PUSH1 0x0 KECCAK256 PUSH1 0x0 ADD PUSH1 0x0 SWAP1 SLOAD SWAP1 PUSH2 0x100 EXP SWAP1 DIV PUSH1 0xFF AND ISZERO ISZERO SUB PUSH2 0x120F JUMPI PUSH1 0x40 MLOAD PUSH32 0x8C379A000000000000000000000000000000000000000000000000000000000 DUP2 MSTORE PUSH1 0x4 ADD PUSH2 0x1206 SWAP1 PUSH2 0x3DF4 JUMP JUMPDEST PUSH1 0x40 MLOAD DUP1 SWAP2 SUB SWAP1 REVERT JUMPDEST PUSH1 0x0 PUSH1 0x3 PUSH1 0x0 DUP7 DUP2 MSTORE PUSH1 0x20 ADD SWAP1 DUP2 MSTORE PUSH1 0x20 ADD PUSH1 0x0 KECCAK256 PUSH1 0xA ADD PUSH1 0x0 DUP6 DUP2 MSTORE PUSH1 0x20 ADD SWAP1 DUP2 MSTORE PUSH1 0x20 ADD PUSH1 0x0 KECCAK256 SWAP1 POP DUP2 PUSH1 0x7 ADD PUSH1 0x0 CALLER PUSH20 0xFFFFFFFFFFFFFFFFFFFFFFFFFFFFFFFFFFFFFFFF AND PUSH20 0xFFFFFFFFFFFFFFFFFFFFFFFFFFFFFFFFFFFFFFFF AND DUP2 MSTORE PUSH1 0x20 ADD SWAP1 DUP2 MSTORE PUSH1 0x20 ADD PUSH1 0x0 KECCAK256 PUSH1 0x4 ADD SLOAD DUP2 PUSH1 0x1 ADD PUSH1 0x0 DUP6 DUP2 MSTORE PUSH1 0x20 ADD SWAP1 DUP2 MSTORE PUSH1 0x20 ADD PUSH1 0x0 KECCAK256 PUSH1 0x1 ADD SLOAD PUSH2 0x12A2 SWAP2 SWAP1 PUSH2 0x3E14 JUMP JUMPDEST DUP2 PUSH1 0x1 ADD PUSH1 0x0 DUP6 DUP2 MSTORE PUSH1 0x20 ADD SWAP1 DUP2 MSTORE PUSH1 0x20 ADD PUSH1 0x0 KECCAK256 PUSH1 0x1 ADD DUP2 SWAP1 SSTORE POP PUSH1 0x1 DUP3 PUSH1 0x7 ADD PUSH1 0x0 CALLER PUSH20 0xFFFFFFFFFFFFFFFFFFFFFFFFFFFFFFFFFFFFFFFF AND PUSH20 0xFFFFFFFFFFFFFFFFFFFFFFFFFFFFFFFFFFFFFFFF AND DUP2 MSTORE PUSH1 0x20 ADD SWAP1 DUP2 MSTORE PUSH1 0x20 ADD PUSH1 0x0 KECCAK256 PUSH1 0x1 ADD PUSH1 0x0 DUP7 DUP2 MSTORE PUSH1 0x20 ADD SWAP1 DUP2 MSTORE PUSH1 0x20 ADD PUSH1 0x0 KECCAK256 PUSH1 0x0 ADD PUSH1 0x0 PUSH2 0x100 EXP DUP2 SLOAD DUP2 PUSH1 0xFF MUL NOT AND SWAP1 DUP4 ISZERO ISZERO MUL OR SWAP1 SSTORE POP DUP1 PUSH1 0x4 ADD SLOAD DUP3 PUSH1 0x7 ADD PUSH1 0x0 CALLER PUSH20 0xFFFFFFFFFFFFFFFFFFFFFFFFFFFFFFFFFFFFFFFF AND PUSH20 0xFFFFFFFFFFFFFFFFFFFFFFFFFFFFFFFFFFFFFFFF AND DUP2 MSTORE PUSH1 0x20 ADD SWAP1 DUP2 MSTORE PUSH1 0x20 ADD PUSH1 0x0 KECCAK256 PUSH1 0x1 ADD PUSH1 0x0 DUP7 DUP2 MSTORE PUSH1 0x20 ADD SWAP1 DUP2 MSTORE PUSH1 0x20 ADD PUSH1 0x0 KECCAK256 PUSH1 0x4 ADD DUP2 SWAP1 SSTORE POP DUP3 DUP3 PUSH1 0x7 ADD PUSH1 0x0 CALLER PUSH20 0xFFFFFFFFFFFFFFFFFFFFFFFFFFFFFFFFFFFFFFFF AND PUSH20 0xFFFFFFFFFFFFFFFFFFFFFFFFFFFFFFFFFFFFFFFF AND DUP2 MSTORE PUSH1 0x20 ADD SWAP1 DUP2 MSTORE PUSH1 0x20 ADD PUSH1 0x0 KECCAK256 PUSH1 0x1 ADD PUSH1 0x0 DUP7 DUP2 MSTORE PUSH1 0x20 ADD SWAP1 DUP2 MSTORE PUSH1 0x20 ADD PUSH1 0x0 KECCAK256 PUSH1 0x1 ADD DUP2 SWAP1 SSTORE POP DUP1 PUSH1 0x1 ADD PUSH1 0x0 DUP5 DUP2 MSTORE PUSH1 0x20 ADD SWAP1 DUP2 MSTORE PUSH1 0x20 ADD PUSH1 0x0 KECCAK256 PUSH1 0x0 ADD SLOAD DUP3 PUSH1 0x7 ADD PUSH1 0x0 CALLER PUSH20 0xFFFFFFFFFFFFFFFFFFFFFFFFFFFFFFFFFFFFFFFF AND PUSH20 0xFFFFFFFFFFFFFFFFFFFFFFFFFFFFFFFFFFFFFFFF AND DUP2 MSTORE PUSH1 0x20 ADD SWAP1 DUP2 MSTORE PUSH1 0x20 ADD PUSH1 0x0 KECCAK256 PUSH1 0x1 ADD PUSH1 0x0 DUP7 DUP2 MSTORE PUSH1 0x20 ADD SWAP1 DUP2 MSTORE PUSH1 0x20 ADD PUSH1 0x0 KECCAK256 PUSH1 0x2 ADD DUP2 SWAP1 SSTORE POP DUP4 DUP3 PUSH1 0x7 ADD PUSH1 0x0 CALLER PUSH20 0xFFFFFFFFFFFFFFFFFFFFFFFFFFFFFFFFFFFFFFFF AND PUSH20 0xFFFFFFFFFFFFFFFFFFFFFFFFFFFFFFFFFFFFFFFF AND DUP2 MSTORE PUSH1 0x20 ADD SWAP1 DUP2 MSTORE PUSH1 0x20 ADD PUSH1 0x0 KECCAK256 PUSH1 0x1 ADD PUSH1 0x0 DUP7 DUP2 MSTORE PUSH1 0x20 ADD SWAP1 DUP2 MSTORE PUSH1 0x20 ADD PUSH1 0x0 KECCAK256 PUSH1 0x3 ADD DUP2 SWAP1 SSTORE POP DUP2 PUSH1 0x7 ADD PUSH1 0x0 CALLER PUSH20 0xFFFFFFFFFFFFFFFFFFFFFFFFFFFFFFFFFFFFFFFF AND PUSH20 0xFFFFFFFFFFFFFFFFFFFFFFFFFFFFFFFFFFFFFFFF AND DUP2 MSTORE PUSH1 0x20 ADD SWAP1 DUP2 MSTORE PUSH1 0x20 ADD PUSH1 0x0 KECCAK256 PUSH1 0x5 ADD PUSH1 0x0 DUP2 SLOAD DUP1 SWAP3 SWAP2 SWAP1 PUSH2 0x1514 SWAP1 PUSH2 0x3C62 JUMP JUMPDEST SWAP2 SWAP1 POP SSTORE POP DUP1 PUSH1 0x5 ADD PUSH1 0x0 DUP2 SLOAD DUP1 SWAP3 SWAP2 SWAP1 PUSH2 0x152E SWAP1 PUSH2 0x3C62 JUMP JUMPDEST SWAP2 SWAP1 POP SSTORE POP POP POP POP POP POP JUMP JUMPDEST PUSH1 0x0 DUP1 PUSH1 0x0 DUP1 PUSH1 0x0 PUSH1 0x60 DUP1 PUSH1 0x0 DUP1 PUSH1 0x0 PUSH1 0x1 SLOAD DUP12 GT ISZERO PUSH2 0x158F JUMPI PUSH1 0x40 MLOAD PUSH32 0x8C379A000000000000000000000000000000000000000000000000000000000 DUP2 MSTORE PUSH1 0x4 ADD PUSH2 0x1586 SWAP1 PUSH2 0x3BE4 JUMP JUMPDEST PUSH1 0x40 MLOAD DUP1 SWAP2 SUB SWAP1 REVERT JUMPDEST PUSH1 0x0 DUP12 SUB PUSH2 0x15D2 JUMPI PUSH1 0x40 MLOAD PUSH32 0x8C379A000000000000000000000000000000000000000000000000000000000 DUP2 MSTORE PUSH1 0x4 ADD PUSH2 0x15C9 SWAP1 PUSH2 0x3BE4 JUMP JUMPDEST PUSH1 0x40 MLOAD DUP1 SWAP2 SUB SWAP1 REVERT JUMPDEST PUSH1 0x0 PUSH1 0x3 PUSH1 0x0 DUP14 DUP2 MSTORE PUSH1 0x20 ADD SWAP1 DUP2 MSTORE PUSH1 0x20 ADD PUSH1 0x0 KECCAK256 SWAP1 POP DUP1 PUSH1 0x6 ADD SLOAD PUSH8 0xFFFFFFFFFFFFFFFF DUP2 GT ISZERO PUSH2 0x1607 JUMPI PUSH2 0x1606 PUSH2 0x3488 JUMP JUMPDEST JUMPDEST PUSH1 0x40 MLOAD SWAP1 DUP1 DUP3 MSTORE DUP1 PUSH1 0x20 MUL PUSH1 0x20 ADD DUP3 ADD PUSH1 0x40 MSTORE DUP1 ISZERO PUSH2 0x1635 JUMPI DUP2 PUSH1 0x20 ADD PUSH1 0x20 DUP3 MUL DUP1 CALLDATASIZE DUP4 CALLDATACOPY DUP1 DUP3 ADD SWAP2 POP POP SWAP1 POP JUMPDEST POP SWAP6 POP PUSH1 0x0 JUMPDEST DUP2 PUSH1 0x6 ADD SLOAD DUP2 LT ISZERO PUSH2 0x16FB JUMPI DUP2 PUSH1 0x5 ADD PUSH1 0x0 DUP4 PUSH1 0x9 ADD DUP4 DUP2 SLOAD DUP2 LT PUSH2 0x1663 JUMPI PUSH2 0x1662 PUSH2 0x3C04 JUMP JUMPDEST JUMPDEST SWAP1 PUSH1 0x0 MSTORE PUSH1 0x20 PUSH1 0x0 KECCAK256 ADD PUSH1 0x0 SWAP1 SLOAD SWAP1 PUSH2 0x100 EXP SWAP1 DIV PUSH20 0xFFFFFFFFFFFFFFFFFFFFFFFFFFFFFFFFFFFFFFFF AND PUSH20 0xFFFFFFFFFFFFFFFFFFFFFFFFFFFFFFFFFFFFFFFF AND PUSH20 0xFFFFFFFFFFFFFFFFFFFFFFFFFFFFFFFFFFFFFFFF AND DUP2 MSTORE PUSH1 0x20 ADD SWAP1 DUP2 MSTORE PUSH1 0x20 ADD PUSH1 0x0 KECCAK256 SLOAD DUP8 DUP3 DUP2 MLOAD DUP2 LT PUSH2 0x16DC JUMPI PUSH2 0x16DB PUSH2 0x3C04 JUMP JUMPDEST JUMPDEST PUSH1 0x20 MUL PUSH1 0x20 ADD ADD DUP2 DUP2 MSTORE POP POP DUP1 DUP1 PUSH2 0x16F3 SWAP1 PUSH2 0x3C62 JUMP JUMPDEST SWAP2 POP POP PUSH2 0x163B JUMP JUMPDEST POP DUP1 PUSH1 0x0 ADD SLOAD DUP2 PUSH1 0x1 ADD PUSH1 0x0 SWAP1 SLOAD SWAP1 PUSH2 0x100 EXP SWAP1 DIV PUSH20 0xFFFFFFFFFFFFFFFFFFFFFFFFFFFFFFFFFFFFFFFF AND DUP3 PUSH1 0x2 ADD SLOAD DUP4 PUSH1 0x3 ADD SLOAD DUP5 PUSH1 0x4 ADD SLOAD DUP11 DUP7 PUSH1 0x9 ADD DUP8 PUSH1 0x6 ADD SLOAD DUP9 PUSH1 0xB ADD SLOAD DUP10 PUSH1 0x8 ADD SLOAD DUP4 DUP1 SLOAD DUP1 PUSH1 0x20 MUL PUSH1 0x20 ADD PUSH1 0x40 MLOAD SWAP1 DUP2 ADD PUSH1 0x40 MSTORE DUP1 SWAP3 SWAP2 SWAP1 DUP2 DUP2 MSTORE PUSH1 0x20 ADD DUP3 DUP1 SLOAD DUP1 ISZERO PUSH2 0x17CA JUMPI PUSH1 0x20 MUL DUP3 ADD SWAP2 SWAP1 PUSH1 0x0 MSTORE PUSH1 0x20 PUSH1 0x0 KECCAK256 SWAP1 JUMPDEST DUP2 PUSH1 0x0 SWAP1 SLOAD SWAP1 PUSH2 0x100 EXP SWAP1 DIV PUSH20 0xFFFFFFFFFFFFFFFFFFFFFFFFFFFFFFFFFFFFFFFF AND PUSH20 0xFFFFFFFFFFFFFFFFFFFFFFFFFFFFFFFFFFFFFFFF AND DUP2 MSTORE PUSH1 0x20 ADD SWAP1 PUSH1 0x1 ADD SWAP1 DUP1 DUP4 GT PUSH2 0x1780 JUMPI JUMPDEST POP POP POP POP POP SWAP4 POP SWAP11 POP SWAP11 POP SWAP11 POP SWAP11 POP SWAP11 POP SWAP11 POP SWAP11 POP SWAP11 POP SWAP11 POP SWAP11 POP POP SWAP2 SWAP4 SWAP6 SWAP8 SWAP10 POP SWAP2 SWAP4 SWAP6 SWAP8 SWAP10 JUMP JUMPDEST DUP2 DUP4 DUP3 PUSH1 0x0 DUP3 SUB PUSH2 0x1839 JUMPI PUSH1 0x40 MLOAD PUSH32 0x8C379A000000000000000000000000000000000000000000000000000000000 DUP2 MSTORE PUSH1 0x4 ADD PUSH2 0x1830 SWAP1 PUSH2 0x3BE4 JUMP JUMPDEST PUSH1 0x40 MLOAD DUP1 SWAP2 SUB SWAP1 REVERT JUMPDEST PUSH1 0x1 SLOAD DUP3 GT ISZERO PUSH2 0x187E JUMPI PUSH1 0x40 MLOAD PUSH32 0x8C379A000000000000000000000000000000000000000000000000000000000 DUP2 MSTORE PUSH1 0x4 ADD PUSH2 0x1875 SWAP1 PUSH2 0x3E94 JUMP JUMPDEST PUSH1 0x40 MLOAD DUP1 SWAP2 SUB SWAP1 REVERT JUMPDEST PUSH1 0x0 DUP4 PUSH20 0xFFFFFFFFFFFFFFFFFFFFFFFFFFFFFFFFFFFFFFFF AND PUSH1 0x3 PUSH1 0x0 DUP6 DUP2 MSTORE PUSH1 0x20 ADD SWAP1 DUP2 MSTORE PUSH1 0x20 ADD PUSH1 0x0 KECCAK256 PUSH1 0x7 ADD PUSH1 0x0 DUP7 PUSH20 0xFFFFFFFFFFFFFFFFFFFFFFFFFFFFFFFFFFFFFFFF AND PUSH20 0xFFFFFFFFFFFFFFFFFFFFFFFFFFFFFFFFFFFFFFFF AND DUP2 MSTORE PUSH1 0x20 ADD SWAP1 DUP2 MSTORE PUSH1 0x20 ADD PUSH1 0x0 KECCAK256 PUSH1 0x3 ADD PUSH1 0x0 SWAP1 SLOAD SWAP1 PUSH2 0x100 EXP SWAP1 DIV PUSH20 0xFFFFFFFFFFFFFFFFFFFFFFFFFFFFFFFFFFFFFFFF AND PUSH20 0xFFFFFFFFFFFFFFFFFFFFFFFFFFFFFFFFFFFFFFFF AND EQ PUSH2 0x1964 JUMPI PUSH1 0x40 MLOAD PUSH32 0x8C379A000000000000000000000000000000000000000000000000000000000 DUP2 MSTORE PUSH1 0x4 ADD PUSH2 0x195B SWAP1 PUSH2 0x3F26 JUMP JUMPDEST PUSH1 0x40 MLOAD DUP1 SWAP2 SUB SWAP1 REVERT JUMPDEST PUSH1 0x0 JUMPDEST PUSH1 0x3 PUSH1 0x0 DUP6 DUP2 MSTORE PUSH1 0x20 ADD SWAP1 DUP2 MSTORE PUSH1 0x20 ADD PUSH1 0x0 KECCAK256 PUSH1 0x6 ADD SLOAD DUP2 LT ISZERO PUSH2 0x19F7 JUMPI DUP3 PUSH1 0x3 PUSH1 0x0 DUP7 DUP2 MSTORE PUSH1 0x20 ADD SWAP1 DUP2 MSTORE PUSH1 0x20 ADD PUSH1 0x0 KECCAK256 PUSH1 0x5 ADD PUSH1 0x0 CALLER PUSH20 0xFFFFFFFFFFFFFFFFFFFFFFFFFFFFFFFFFFFFFFFF AND PUSH20 0xFFFFFFFFFFFFFFFFFFFFFFFFFFFFFFFFFFFFFFFF AND DUP2 MSTORE PUSH1 0x20 ADD SWAP1 DUP2 MSTORE PUSH1 0x20 ADD PUSH1 0x0 KECCAK256 SLOAD SUB PUSH2 0x19E4 JUMPI PUSH1 0x1 SWAP2 POP JUMPDEST DUP1 DUP1 PUSH2 0x19EF SWAP1 PUSH2 0x3C62 JUMP JUMPDEST SWAP2 POP POP PUSH2 0x1967 JUMP JUMPDEST POP DUP1 PUSH2 0x1A38 JUMPI PUSH1 0x40 MLOAD PUSH32 0x8C379A000000000000000000000000000000000000000000000000000000000 DUP2 MSTORE PUSH1 0x4 ADD PUSH2 0x1A2F SWAP1 PUSH2 0x3FB8 JUMP JUMPDEST PUSH1 0x40 MLOAD DUP1 SWAP2 SUB SWAP1 REVERT JUMPDEST PUSH1 0x0 DUP1 PUSH1 0x0 SWAP1 POP JUMPDEST PUSH1 0x3 PUSH1 0x0 DUP7 DUP2 MSTORE PUSH1 0x20 ADD SWAP1 DUP2 MSTORE PUSH1 0x20 ADD PUSH1 0x0 KECCAK256 PUSH1 0x6 ADD SLOAD DUP2 LT ISZERO PUSH2 0x1B10 JUMPI DUP4 PUSH1 0x3 PUSH1 0x0 DUP8 DUP2 MSTORE PUSH1 0x20 ADD SWAP1 DUP2 MSTORE PUSH1 0x20 ADD PUSH1 0x0 KECCAK256 PUSH1 0x7 ADD PUSH1 0x0 DUP9 PUSH20 0xFFFFFFFFFFFFFFFFFFFFFFFFFFFFFFFFFFFFFFFF AND PUSH20 0xFFFFFFFFFFFFFFFFFFFFFFFFFFFFFFFFFFFFFFFF AND DUP2 MSTORE PUSH1 0x20 ADD SWAP1 DUP2 MSTORE PUSH1 0x20 ADD PUSH1 0x0 KECCAK256 PUSH1 0x0 ADD PUSH1 0x0 CALLER PUSH20 0xFFFFFFFFFFFFFFFFFFFFFFFFFFFFFFFFFFFFFFFF AND PUSH20 0xFFFFFFFFFFFFFFFFFFFFFFFFFFFFFFFFFFFFFFFF AND DUP2 MSTORE PUSH1 0x20 ADD SWAP1 DUP2 MSTORE PUSH1 0x20 ADD PUSH1 0x0 KECCAK256 SLOAD SUB PUSH2 0x1AFD JUMPI PUSH1 0x1 SWAP2 POP JUMPDEST DUP1 DUP1 PUSH2 0x1B08 SWAP1 PUSH2 0x3C62 JUMP JUMPDEST SWAP2 POP POP PUSH2 0x1A40 JUMP JUMPDEST POP DUP1 ISZERO PUSH2 0x1B52 JUMPI PUSH1 0x40 MLOAD PUSH32 0x8C379A000000000000000000000000000000000000000000000000000000000 DUP2 MSTORE PUSH1 0x4 ADD PUSH2 0x1B49 SWAP1 PUSH2 0x404A JUMP JUMPDEST PUSH1 0x40 MLOAD DUP1 SWAP2 SUB SWAP1 REVERT JUMPDEST DUP6 PUSH1 0x3 PUSH1 0x0 DUP11 DUP2 MSTORE PUSH1 0x20 ADD SWAP1 DUP2 MSTORE PUSH1 0x20 ADD PUSH1 0x0 KECCAK256 PUSH1 0x7 ADD PUSH1 0x0 DUP10 PUSH20 0xFFFFFFFFFFFFFFFFFFFFFFFFFFFFFFFFFFFFFFFF AND PUSH20 0xFFFFFFFFFFFFFFFFFFFFFFFFFFFFFFFFFFFFFFFF AND DUP2 MSTORE PUSH1 0x20 ADD SWAP1 DUP2 MSTORE PUSH1 0x20 ADD PUSH1 0x0 KECCAK256 PUSH1 0x0 ADD PUSH1 0x0 CALLER PUSH20 0xFFFFFFFFFFFFFFFFFFFFFFFFFFFFFFFFFFFFFFFF AND PUSH20 0xFFFFFFFFFFFFFFFFFFFFFFFFFFFFFFFFFFFFFFFF AND DUP2 MSTORE PUSH1 0x20 ADD SWAP1 DUP2 MSTORE PUSH1 0x20 ADD PUSH1 0x0 KECCAK256 DUP2 SWAP1 SSTORE POP PUSH1 0x3 PUSH1 0x0 DUP10 DUP2 MSTORE PUSH1 0x20 ADD SWAP1 DUP2 MSTORE PUSH1 0x20 ADD PUSH1 0x0 KECCAK256 PUSH1 0x7 ADD PUSH1 0x0 DUP9 PUSH20 0xFFFFFFFFFFFFFFFFFFFFFFFFFFFFFFFFFFFFFFFF AND PUSH20 0xFFFFFFFFFFFFFFFFFFFFFFFFFFFFFFFFFFFFFFFF AND DUP2 MSTORE PUSH1 0x20 ADD SWAP1 DUP2 MSTORE PUSH1 0x20 ADD PUSH1 0x0 KECCAK256 PUSH1 0x2 ADD PUSH1 0x0 DUP2 SLOAD DUP1 SWAP3 SWAP2 SWAP1 PUSH2 0x1C51 SWAP1 PUSH2 0x3C62 JUMP JUMPDEST SWAP2 SWAP1 POP SSTORE POP PUSH1 0x0 PUSH1 0x3 PUSH1 0x0 DUP11 DUP2 MSTORE PUSH1 0x20 ADD SWAP1 DUP2 MSTORE PUSH1 0x20 ADD PUSH1 0x0 KECCAK256 PUSH1 0x6 ADD SLOAD PUSH1 0x3 PUSH1 0x0 DUP12 DUP2 MSTORE PUSH1 0x20 ADD SWAP1 DUP2 MSTORE PUSH1 0x20 ADD PUSH1 0x0 KECCAK256 PUSH1 0x7 ADD PUSH1 0x0 DUP11 PUSH20 0xFFFFFFFFFFFFFFFFFFFFFFFFFFFFFFFFFFFFFFFF AND PUSH20 0xFFFFFFFFFFFFFFFFFFFFFFFFFFFFFFFFFFFFFFFF AND DUP2 MSTORE PUSH1 0x20 ADD SWAP1 DUP2 MSTORE PUSH1 0x20 ADD PUSH1 0x0 KECCAK256 PUSH1 0x2 ADD SLOAD EQ SWAP1 POP DUP1 ISZERO PUSH2 0x1D9B JUMPI PUSH1 0x1 PUSH1 0x3 PUSH1 0x0 DUP12 DUP2 MSTORE PUSH1 0x20 ADD SWAP1 DUP2 MSTORE PUSH1 0x20 ADD PUSH1 0x0 KECCAK256 PUSH1 0x7 ADD PUSH1 0x0 DUP11 PUSH20 0xFFFFFFFFFFFFFFFFFFFFFFFFFFFFFFFFFFFFFFFF AND PUSH20 0xFFFFFFFFFFFFFFFFFFFFFFFFFFFFFFFFFFFFFFFF AND DUP2 MSTORE PUSH1 0x20 ADD SWAP1 DUP2 MSTORE PUSH1 0x20 ADD PUSH1 0x0 KECCAK256 PUSH1 0x4 ADD DUP2 SWAP1 SSTORE POP PUSH1 0x1 PUSH1 0x3 PUSH1 0x0 DUP12 DUP2 MSTORE PUSH1 0x20 ADD SWAP1 DUP2 MSTORE PUSH1 0x20 ADD PUSH1 0x0 KECCAK256 PUSH1 0x7 ADD PUSH1 0x0 DUP11 PUSH20 0xFFFFFFFFFFFFFFFFFFFFFFFFFFFFFFFFFFFFFFFF AND PUSH20 0xFFFFFFFFFFFFFFFFFFFFFFFFFFFFFFFFFFFFFFFF AND DUP2 MSTORE PUSH1 0x20 ADD SWAP1 DUP2 MSTORE PUSH1 0x20 ADD PUSH1 0x0 KECCAK256 PUSH1 0x6 ADD PUSH1 0x0 PUSH2 0x100 EXP DUP2 SLOAD DUP2 PUSH1 0xFF MUL NOT AND SWAP1 DUP4 ISZERO ISZERO MUL OR SWAP1 SSTORE POP JUMPDEST POP POP POP POP POP POP POP POP POP JUMP JUMPDEST DUP1 PUSH1 0x0 DUP1 PUSH1 0x0 SWAP1 POP JUMPDEST DUP3 MLOAD DUP2 LT ISZERO PUSH2 0x1E62 JUMPI DUP3 DUP2 DUP2 MLOAD DUP2 LT PUSH2 0x1DCB JUMPI PUSH2 0x1DCA PUSH2 0x3C04 JUMP JUMPDEST JUMPDEST PUSH1 0x20 MUL PUSH1 0x20 ADD ADD MLOAD PUSH1 0x0 ADD MLOAD PUSH20 0xFFFFFFFFFFFFFFFFFFFFFFFFFFFFFFFFFFFFFFFF AND CALLER PUSH20 0xFFFFFFFFFFFFFFFFFFFFFFFFFFFFFFFFFFFFFFFF AND SUB PUSH2 0x1E0E JUMPI PUSH1 0x1 SWAP2 POP JUMPDEST DUP2 ISZERO PUSH2 0x1E4F JUMPI PUSH1 0x40 MLOAD PUSH32 0x8C379A000000000000000000000000000000000000000000000000000000000 DUP2 MSTORE PUSH1 0x4 ADD PUSH2 0x1E46 SWAP1 PUSH2 0x40DC JUMP JUMPDEST PUSH1 0x40 MLOAD DUP1 SWAP2 SUB SWAP1 REVERT JUMPDEST DUP1 DUP1 PUSH2 0x1E5A SWAP1 PUSH2 0x3C62 JUMP JUMPDEST SWAP2 POP POP PUSH2 0x1DAF JUMP JUMPDEST POP DUP4 DUP6 LT PUSH2 0x1EA5 JUMPI PUSH1 0x40 MLOAD PUSH32 0x8C379A000000000000000000000000000000000000000000000000000000000 DUP2 MSTORE PUSH1 0x4 ADD PUSH2 0x1E9C SWAP1 PUSH2 0x4148 JUMP JUMPDEST PUSH1 0x40 MLOAD DUP1 SWAP2 SUB SWAP1 REVERT JUMPDEST TIMESTAMP DUP6 GT PUSH2 0x1EE7 JUMPI PUSH1 0x40 MLOAD PUSH32 0x8C379A000000000000000000000000000000000000000000000000000000000 DUP2 MSTORE PUSH1 0x4 ADD PUSH2 0x1EDE SWAP1 PUSH2 0x41DA JUMP JUMPDEST PUSH1 0x40 MLOAD DUP1 SWAP2 SUB SWAP1 REVERT JUMPDEST PUSH1 0x1 PUSH1 0x0 DUP2 SLOAD DUP1 SWAP3 SWAP2 SWAP1 PUSH2 0x1EFA SWAP1 PUSH2 0x3C62 JUMP JUMPDEST SWAP2 SWAP1 POP SSTORE POP PUSH1 0x0 PUSH1 0x3 PUSH1 0x0 PUSH1 0x1 SLOAD DUP2 MSTORE PUSH1 0x20 ADD SWAP1 DUP2 MSTORE PUSH1 0x20 ADD PUSH1 0x0 KECCAK256 SWAP1 POP PUSH1 0x1 SLOAD DUP2 PUSH1 0x0 ADD DUP2 SWAP1 SSTORE POP CALLER DUP2 PUSH1 0x1 ADD PUSH1 0x0 PUSH2 0x100 EXP DUP2 SLOAD DUP2 PUSH20 0xFFFFFFFFFFFFFFFFFFFFFFFFFFFFFFFFFFFFFFFF MUL NOT AND SWAP1 DUP4 PUSH20 0xFFFFFFFFFFFFFFFFFFFFFFFFFFFFFFFFFFFFFFFF AND MUL OR SWAP1 SSTORE POP DUP7 DUP2 PUSH1 0x2 ADD DUP2 SWAP1 SSTORE POP DUP6 DUP2 PUSH1 0x3 ADD DUP2 SWAP1 SSTORE POP DUP5 DUP2 PUSH1 0x4 ADD DUP2 SWAP1 SSTORE POP DUP4 MLOAD DUP2 PUSH1 0x6 ADD DUP2 SWAP1 SSTORE POP PUSH1 0x0 JUMPDEST DUP5 MLOAD DUP2 LT ISZERO PUSH2 0x20AF JUMPI DUP5 DUP2 DUP2 MLOAD DUP2 LT PUSH2 0x1FAA JUMPI PUSH2 0x1FA9 PUSH2 0x3C04 JUMP JUMPDEST JUMPDEST PUSH1 0x20 MUL PUSH1 0x20 ADD ADD MLOAD PUSH1 0x20 ADD MLOAD DUP3 PUSH1 0x5 ADD PUSH1 0x0 DUP8 DUP5 DUP2 MLOAD DUP2 LT PUSH2 0x1FCF JUMPI PUSH2 0x1FCE PUSH2 0x3C04 JUMP JUMPDEST JUMPDEST PUSH1 0x20 MUL PUSH1 0x20 ADD ADD MLOAD PUSH1 0x0 ADD MLOAD PUSH20 0xFFFFFFFFFFFFFFFFFFFFFFFFFFFFFFFFFFFFFFFF AND PUSH20 0xFFFFFFFFFFFFFFFFFFFFFFFFFFFFFFFFFFFFFFFF AND DUP2 MSTORE PUSH1 0x20 ADD SWAP1 DUP2 MSTORE PUSH1 0x20 ADD PUSH1 0x0 KECCAK256 DUP2 SWAP1 SSTORE POP DUP2 PUSH1 0x9 ADD DUP6 DUP3 DUP2 MLOAD DUP2 LT PUSH2 0x2030 JUMPI PUSH2 0x202F PUSH2 0x3C04 JUMP JUMPDEST JUMPDEST PUSH1 0x20 MUL PUSH1 0x20 ADD ADD MLOAD PUSH1 0x0 ADD MLOAD SWAP1 DUP1 PUSH1 0x1 DUP2 SLOAD ADD DUP1 DUP3 SSTORE DUP1 SWAP2 POP POP PUSH1 0x1 SWAP1 SUB SWAP1 PUSH1 0x0 MSTORE PUSH1 0x20 PUSH1 0x0 KECCAK256 ADD PUSH1 0x0 SWAP1 SWAP2 SWAP1 SWAP2 SWAP1 SWAP2 PUSH2 0x100 EXP DUP2 SLOAD DUP2 PUSH20 0xFFFFFFFFFFFFFFFFFFFFFFFFFFFFFFFFFFFFFFFF MUL NOT AND SWAP1 DUP4 PUSH20 0xFFFFFFFFFFFFFFFFFFFFFFFFFFFFFFFFFFFFFFFF AND MUL OR SWAP1 SSTORE POP DUP1 DUP1 PUSH2 0x20A7 SWAP1 PUSH2 0x3C62 JUMP JUMPDEST SWAP2 POP POP PUSH2 0x1F8E JUMP JUMPDEST POP PUSH1 0x2 PUSH1 0x0 DUP2 SLOAD DUP1 SWAP3 SWAP2 SWAP1 PUSH2 0x20C3 SWAP1 PUSH2 0x3C62 JUMP JUMPDEST SWAP2 SWAP1 POP SSTORE POP POP POP POP POP POP POP POP JUMP JUMPDEST PUSH1 0x2 SLOAD DUP2 JUMP JUMPDEST DUP2 DUP2 PUSH1 0x3 PUSH1 0x0 DUP4 DUP2 MSTORE PUSH1 0x20 ADD SWAP1 DUP2 MSTORE PUSH1 0x20 ADD PUSH1 0x0 KECCAK256 PUSH1 0x1 ADD PUSH1 0x0 SWAP1 SLOAD SWAP1 PUSH2 0x100 EXP SWAP1 DIV PUSH20 0xFFFFFFFFFFFFFFFFFFFFFFFFFFFFFFFFFFFFFFFF AND PUSH20 0xFFFFFFFFFFFFFFFFFFFFFFFFFFFFFFFFFFFFFFFF AND CALLER PUSH20 0xFFFFFFFFFFFFFFFFFFFFFFFFFFFFFFFFFFFFFFFF AND EQ PUSH2 0x217D JUMPI PUSH1 0x40 MLOAD PUSH32 0x8C379A000000000000000000000000000000000000000000000000000000000 DUP2 MSTORE PUSH1 0x4 ADD PUSH2 0x2174 SWAP1 PUSH2 0x426C JUMP JUMPDEST PUSH1 0x40 MLOAD DUP1 SWAP2 SUB SWAP1 REVERT JUMPDEST DUP1 PUSH20 0xFFFFFFFFFFFFFFFFFFFFFFFFFFFFFFFFFFFFFFFF AND PUSH1 0x3 PUSH1 0x0 DUP5 DUP2 MSTORE PUSH1 0x20 ADD SWAP1 DUP2 MSTORE PUSH1 0x20 ADD PUSH1 0x0 KECCAK256 PUSH1 0x7 ADD PUSH1 0x0 DUP4 PUSH20 0xFFFFFFFFFFFFFFFFFFFFFFFFFFFFFFFFFFFFFFFF AND PUSH20 0xFFFFFFFFFFFFFFFFFFFFFFFFFFFFFFFFFFFFFFFF AND DUP2 MSTORE PUSH1 0x20 ADD SWAP1 DUP2 MSTORE PUSH1 0x20 ADD PUSH1 0x0 KECCAK256 PUSH1 0x3 ADD PUSH1 0x0 SWAP1 SLOAD SWAP1 PUSH2 0x100 EXP SWAP1 DIV PUSH20 0xFFFFFFFFFFFFFFFFFFFFFFFFFFFFFFFFFFFFFFFF AND PUSH20 0xFFFFFFFFFFFFFFFFFFFFFFFFFFFFFFFFFFFFFFFF AND SUB PUSH2 0x2261 JUMPI PUSH1 0x40 MLOAD PUSH32 0x8C379A000000000000000000000000000000000000000000000000000000000 DUP2 MSTORE PUSH1 0x4 ADD PUSH2 0x2258 SWAP1 PUSH2 0x42D8 JUMP JUMPDEST PUSH1 0x40 MLOAD DUP1 SWAP2 SUB SWAP1 REVERT JUMPDEST PUSH1 0x0 PUSH1 0x3 PUSH1 0x0 DUP7 DUP2 MSTORE PUSH1 0x20 ADD SWAP1 DUP2 MSTORE PUSH1 0x20 ADD PUSH1 0x0 KECCAK256 PUSH1 0x7 ADD PUSH1 0x0 DUP6 PUSH20 0xFFFFFFFFFFFFFFFFFFFFFFFFFFFFFFFFFFFFFFFF AND PUSH20 0xFFFFFFFFFFFFFFFFFFFFFFFFFFFFFFFFFFFFFFFF AND DUP2 MSTORE PUSH1 0x20 ADD SWAP1 DUP2 MSTORE PUSH1 0x20 ADD PUSH1 0x0 KECCAK256 SWAP1 POP DUP4 DUP2 PUSH1 0x3 ADD PUSH1 0x0 PUSH2 0x100 EXP DUP2 SLOAD DUP2 PUSH20 0xFFFFFFFFFFFFFFFFFFFFFFFFFFFFFFFFFFFFFFFF MUL NOT AND SWAP1 DUP4 PUSH20 0xFFFFFFFFFFFFFFFFFFFFFFFFFFFFFFFFFFFFFFFF AND MUL OR SWAP1 SSTORE POP PUSH1 0x3 PUSH1 0x0 DUP7 DUP2 MSTORE PUSH1 0x20 ADD SWAP1 DUP2 MSTORE PUSH1 0x20 ADD PUSH1 0x0 KECCAK256 PUSH1 0x8 ADD PUSH1 0x0 DUP2 SLOAD DUP1 SWAP3 SWAP2 SWAP1 PUSH2 0x2322 SWAP1 PUSH2 0x3C62 JUMP JUMPDEST SWAP2 SWAP1 POP SSTORE POP POP POP POP POP POP JUMP JUMPDEST PUSH1 0x60 PUSH1 0x1 SLOAD DUP3 GT ISZERO PUSH2 0x2375 JUMPI PUSH1 0x40 MLOAD PUSH32 0x8C379A000000000000000000000000000000000000000000000000000000000 DUP2 MSTORE PUSH1 0x4 ADD PUSH2 0x236C SWAP1 PUSH2 0x3BE4 JUMP JUMPDEST PUSH1 0x40 MLOAD DUP1 SWAP2 SUB SWAP1 REVERT JUMPDEST PUSH1 0x0 DUP3 SUB PUSH2 0x23B8 JUMPI PUSH1 0x40 MLOAD PUSH32 0x8C379A000000000000000000000000000000000000000000000000000000000 DUP2 MSTORE PUSH1 0x4 ADD PUSH2 0x23AF SWAP1 PUSH2 0x3BE4 JUMP JUMPDEST PUSH1 0x40 MLOAD DUP1 SWAP2 SUB SWAP1 REVERT JUMPDEST CALLER PUSH20 0xFFFFFFFFFFFFFFFFFFFFFFFFFFFFFFFFFFFFFFFF AND PUSH1 0x3 PUSH1 0x0 DUP5 DUP2 MSTORE PUSH1 0x20 ADD SWAP1 DUP2 MSTORE PUSH1 0x20 ADD PUSH1 0x0 KECCAK256 PUSH1 0x7 ADD PUSH1 0x0 CALLER PUSH20 0xFFFFFFFFFFFFFFFFFFFFFFFFFFFFFFFFFFFFFFFF AND PUSH20 0xFFFFFFFFFFFFFFFFFFFFFFFFFFFFFFFFFFFFFFFF AND DUP2 MSTORE PUSH1 0x20 ADD SWAP1 DUP2 MSTORE PUSH1 0x20 ADD PUSH1 0x0 KECCAK256 PUSH1 0x3 ADD PUSH1 0x0 SWAP1 SLOAD SWAP1 PUSH2 0x100 EXP SWAP1 DIV PUSH20 0xFFFFFFFFFFFFFFFFFFFFFFFFFFFFFFFFFFFFFFFF AND PUSH20 0xFFFFFFFFFFFFFFFFFFFFFFFFFFFFFFFFFFFFFFFF AND EQ PUSH2 0x249C JUMPI PUSH1 0x40 MLOAD PUSH32 0x8C379A000000000000000000000000000000000000000000000000000000000 DUP2 MSTORE PUSH1 0x4 ADD PUSH2 0x2493 SWAP1 PUSH2 0x3B78 JUMP JUMPDEST PUSH1 0x40 MLOAD DUP1 SWAP2 SUB SWAP1 REVERT JUMPDEST PUSH1 0x0 PUSH1 0x3 PUSH1 0x0 DUP5 DUP2 MSTORE PUSH1 0x20 ADD SWAP1 DUP2 MSTORE PUSH1 0x20 ADD PUSH1 0x0 KECCAK256 SWAP1 POP PUSH1 0x0 DUP2 PUSH1 0xB ADD SLOAD PUSH8 0xFFFFFFFFFFFFFFFF DUP2 GT ISZERO PUSH2 0x24D3 JUMPI PUSH2 0x24D2 PUSH2 0x3488 JUMP JUMPDEST JUMPDEST PUSH1 0x40 MLOAD SWAP1 DUP1 DUP3 MSTORE DUP1 PUSH1 0x20 MUL PUSH1 0x20 ADD DUP3 ADD PUSH1 0x40 MSTORE DUP1 ISZERO PUSH2 0x250C JUMPI DUP2 PUSH1 0x20 ADD JUMPDEST PUSH2 0x24F9 PUSH2 0x2C63 JUMP JUMPDEST DUP2 MSTORE PUSH1 0x20 ADD SWAP1 PUSH1 0x1 SWAP1 SUB SWAP1 DUP2 PUSH2 0x24F1 JUMPI SWAP1 POP JUMPDEST POP SWAP1 POP PUSH1 0x0 PUSH1 0x1 SWAP1 POP JUMPDEST DUP3 PUSH1 0xB ADD SLOAD DUP2 GT PUSH2 0x26B7 JUMPI DUP1 DUP4 PUSH1 0x7 ADD PUSH1 0x0 CALLER PUSH20 0xFFFFFFFFFFFFFFFFFFFFFFFFFFFFFFFFFFFFFFFF AND PUSH20 0xFFFFFFFFFFFFFFFFFFFFFFFFFFFFFFFFFFFFFFFF AND DUP2 MSTORE PUSH1 0x20 ADD SWAP1 DUP2 MSTORE PUSH1 0x20 ADD PUSH1 0x0 KECCAK256 PUSH1 0x1 ADD PUSH1 0x0 DUP4 DUP2 MSTORE PUSH1 0x20 ADD SWAP1 DUP2 MSTORE PUSH1 0x20 ADD PUSH1 0x0 KECCAK256 PUSH1 0x3 ADD SLOAD SUB PUSH2 0x26A4 JUMPI DUP3 PUSH1 0x7 ADD PUSH1 0x0 CALLER PUSH20 0xFFFFFFFFFFFFFFFFFFFFFFFFFFFFFFFFFFFFFFFF AND PUSH20 0xFFFFFFFFFFFFFFFFFFFFFFFFFFFFFFFFFFFFFFFF AND DUP2 MSTORE PUSH1 0x20 ADD SWAP1 DUP2 MSTORE PUSH1 0x20 ADD PUSH1 0x0 KECCAK256 PUSH1 0x1 ADD PUSH1 0x0 DUP3 DUP2 MSTORE PUSH1 0x20 ADD SWAP1 DUP2 MSTORE PUSH1 0x20 ADD PUSH1 0x0 KECCAK256 PUSH1 0x40 MLOAD DUP1 PUSH1 0xC0 ADD PUSH1 0x40 MSTORE SWAP1 DUP2 PUSH1 0x0 DUP3 ADD PUSH1 0x0 SWAP1 SLOAD SWAP1 PUSH2 0x100 EXP SWAP1 DIV PUSH1 0xFF AND ISZERO ISZERO ISZERO ISZERO DUP2 MSTORE PUSH1 0x20 ADD PUSH1 0x0 DUP3 ADD PUSH1 0x1 SWAP1 SLOAD SWAP1 PUSH2 0x100 EXP SWAP1 DIV PUSH20 0xFFFFFFFFFFFFFFFFFFFFFFFFFFFFFFFFFFFFFFFF AND PUSH20 0xFFFFFFFFFFFFFFFFFFFFFFFFFFFFFFFFFFFFFFFF AND PUSH20 0xFFFFFFFFFFFFFFFFFFFFFFFFFFFFFFFFFFFFFFFF AND DUP2 MSTORE PUSH1 0x20 ADD PUSH1 0x1 DUP3 ADD SLOAD DUP2 MSTORE PUSH1 0x20 ADD PUSH1 0x2 DUP3 ADD SLOAD DUP2 MSTORE PUSH1 0x20 ADD PUSH1 0x3 DUP3 ADD SLOAD DUP2 MSTORE PUSH1 0x20 ADD PUSH1 0x4 DUP3 ADD SLOAD DUP2 MSTORE POP POP DUP3 PUSH1 0x1 DUP4 PUSH2 0x2687 SWAP2 SWAP1 PUSH2 0x42F8 JUMP JUMPDEST DUP2 MLOAD DUP2 LT PUSH2 0x2698 JUMPI PUSH2 0x2697 PUSH2 0x3C04 JUMP JUMPDEST JUMPDEST PUSH1 0x20 MUL PUSH1 0x20 ADD ADD DUP2 SWAP1 MSTORE POP JUMPDEST DUP1 DUP1 PUSH2 0x26AF SWAP1 PUSH2 0x3C62 JUMP JUMPDEST SWAP2 POP POP PUSH2 0x2516 JUMP JUMPDEST POP DUP1 SWAP3 POP POP POP SWAP2 SWAP1 POP JUMP JUMPDEST PUSH1 0x1 SLOAD DUP5 GT ISZERO PUSH2 0x2707 JUMPI PUSH1 0x40 MLOAD PUSH32 0x8C379A000000000000000000000000000000000000000000000000000000000 DUP2 MSTORE PUSH1 0x4 ADD PUSH2 0x26FE SWAP1 PUSH2 0x3BE4 JUMP JUMPDEST PUSH1 0x40 MLOAD DUP1 SWAP2 SUB SWAP1 REVERT JUMPDEST CALLER PUSH20 0xFFFFFFFFFFFFFFFFFFFFFFFFFFFFFFFFFFFFFFFF AND PUSH1 0x3 PUSH1 0x0 DUP7 DUP2 MSTORE PUSH1 0x20 ADD SWAP1 DUP2 MSTORE PUSH1 0x20 ADD PUSH1 0x0 KECCAK256 PUSH1 0x1 ADD PUSH1 0x0 SWAP1 SLOAD SWAP1 PUSH2 0x100 EXP SWAP1 DIV PUSH20 0xFFFFFFFFFFFFFFFFFFFFFFFFFFFFFFFFFFFFFFFF AND PUSH20 0xFFFFFFFFFFFFFFFFFFFFFFFFFFFFFFFFFFFFFFFF AND EQ PUSH2 0x27AB JUMPI PUSH1 0x40 MLOAD PUSH32 0x8C379A000000000000000000000000000000000000000000000000000000000 DUP2 MSTORE PUSH1 0x4 ADD PUSH2 0x27A2 SWAP1 PUSH2 0x439E JUMP JUMPDEST PUSH1 0x40 MLOAD DUP1 SWAP2 SUB SWAP1 REVERT JUMPDEST PUSH1 0x3 PUSH1 0x0 DUP6 DUP2 MSTORE PUSH1 0x20 ADD SWAP1 DUP2 MSTORE PUSH1 0x20 ADD PUSH1 0x0 KECCAK256 PUSH1 0x3 ADD SLOAD TIMESTAMP LT PUSH2 0x2803 JUMPI PUSH1 0x40 MLOAD PUSH32 0x8C379A000000000000000000000000000000000000000000000000000000000 DUP2 MSTORE PUSH1 0x4 ADD PUSH2 0x27FA SWAP1 PUSH2 0x440A JUMP JUMPDEST PUSH1 0x40 MLOAD DUP1 SWAP2 SUB SWAP1 REVERT JUMPDEST PUSH1 0x3 PUSH1 0x0 DUP6 DUP2 MSTORE PUSH1 0x20 ADD SWAP1 DUP2 MSTORE PUSH1 0x20 ADD PUSH1 0x0 KECCAK256 PUSH1 0xB ADD PUSH1 0x0 DUP2 SLOAD DUP1 SWAP3 SWAP2 SWAP1 PUSH2 0x282A SWAP1 PUSH2 0x3C62 JUMP JUMPDEST SWAP2 SWAP1 POP SSTORE POP PUSH1 0x0 PUSH1 0x3 PUSH1 0x0 DUP7 DUP2 MSTORE PUSH1 0x20 ADD SWAP1 DUP2 MSTORE PUSH1 0x20 ADD PUSH1 0x0 KECCAK256 PUSH1 0xB ADD SLOAD SWAP1 POP PUSH1 0x0 PUSH1 0x3 PUSH1 0x0 DUP8 DUP2 MSTORE PUSH1 0x20 ADD SWAP1 DUP2 MSTORE PUSH1 0x20 ADD PUSH1 0x0 KECCAK256 PUSH1 0xA ADD PUSH1 0x0 DUP4 DUP2 MSTORE PUSH1 0x20 ADD SWAP1 DUP2 MSTORE PUSH1 0x20 ADD PUSH1 0x0 KECCAK256 SWAP1 POP DUP6 DUP2 PUSH1 0x6 ADD DUP2 SWAP1 SSTORE POP PUSH2 0x288A DUP2 DUP4 DUP7 DUP7 PUSH2 0x2B7E JUMP JUMPDEST PUSH1 0x0 JUMPDEST DUP6 MLOAD DUP2 LT ISZERO PUSH2 0x28CE JUMPI PUSH2 0x28BB DUP3 DUP3 DUP9 DUP5 DUP2 MLOAD DUP2 LT PUSH2 0x28AE JUMPI PUSH2 0x28AD PUSH2 0x3C04 JUMP JUMPDEST JUMPDEST PUSH1 0x20 MUL PUSH1 0x20 ADD ADD MLOAD PUSH2 0x2BB2 JUMP JUMPDEST DUP1 DUP1 PUSH2 0x28C6 SWAP1 PUSH2 0x3C62 JUMP JUMPDEST SWAP2 POP POP PUSH2 0x288D JUMP JUMPDEST POP POP POP POP POP POP POP JUMP JUMPDEST PUSH1 0x3 PUSH1 0x0 DUP4 DUP2 MSTORE PUSH1 0x20 ADD SWAP1 DUP2 MSTORE PUSH1 0x20 ADD PUSH1 0x0 KECCAK256 PUSH1 0x1 ADD PUSH1 0x0 SWAP1 SLOAD SWAP1 PUSH2 0x100 EXP SWAP1 DIV PUSH20 0xFFFFFFFFFFFFFFFFFFFFFFFFFFFFFFFFFFFFFFFF AND PUSH20 0xFFFFFFFFFFFFFFFFFFFFFFFFFFFFFFFFFFFFFFFF AND CALLER PUSH20 0xFFFFFFFFFFFFFFFFFFFFFFFFFFFFFFFFFFFFFFFF AND EQ PUSH2 0x297B JUMPI PUSH1 0x40 MLOAD PUSH32 0x8C379A000000000000000000000000000000000000000000000000000000000 DUP2 MSTORE PUSH1 0x4 ADD PUSH2 0x2972 SWAP1 PUSH2 0x426C JUMP JUMPDEST PUSH1 0x40 MLOAD DUP1 SWAP2 SUB SWAP1 REVERT JUMPDEST PUSH1 0x0 JUMPDEST DUP2 MLOAD DUP2 LT ISZERO PUSH2 0x2B73 JUMPI DUP2 DUP2 DUP2 MLOAD DUP2 LT PUSH2 0x299A JUMPI PUSH2 0x2999 PUSH2 0x3C04 JUMP JUMPDEST JUMPDEST PUSH1 0x20 MUL PUSH1 0x20 ADD ADD MLOAD PUSH20 0xFFFFFFFFFFFFFFFFFFFFFFFFFFFFFFFFFFFFFFFF AND PUSH1 0x3 PUSH1 0x0 DUP6 DUP2 MSTORE PUSH1 0x20 ADD SWAP1 DUP2 MSTORE PUSH1 0x20 ADD PUSH1 0x0 KECCAK256 PUSH1 0x7 ADD PUSH1 0x0 DUP5 DUP5 DUP2 MLOAD DUP2 LT PUSH2 0x29E3 JUMPI PUSH2 0x29E2 PUSH2 0x3C04 JUMP JUMPDEST JUMPDEST PUSH1 0x20 MUL PUSH1 0x20 ADD ADD MLOAD PUSH20 0xFFFFFFFFFFFFFFFFFFFFFFFFFFFFFFFFFFFFFFFF AND PUSH20 0xFFFFFFFFFFFFFFFFFFFFFFFFFFFFFFFFFFFFFFFF AND DUP2 MSTORE PUSH1 0x20 ADD SWAP1 DUP2 MSTORE PUSH1 0x20 ADD PUSH1 0x0 KECCAK256 PUSH1 0x3 ADD PUSH1 0x0 SWAP1 SLOAD SWAP1 PUSH2 0x100 EXP SWAP1 DIV PUSH20 0xFFFFFFFFFFFFFFFFFFFFFFFFFFFFFFFFFFFFFFFF AND PUSH20 0xFFFFFFFFFFFFFFFFFFFFFFFFFFFFFFFFFFFFFFFF AND EQ PUSH2 0x2B60 JUMPI PUSH1 0x0 PUSH1 0x3 PUSH1 0x0 DUP6 DUP2 MSTORE PUSH1 0x20 ADD SWAP1 DUP2 MSTORE PUSH1 0x20 ADD PUSH1 0x0 KECCAK256 PUSH1 0x7 ADD PUSH1 0x0 DUP5 DUP5 DUP2 MLOAD DUP2 LT PUSH2 0x2A91 JUMPI PUSH2 0x2A90 PUSH2 0x3C04 JUMP JUMPDEST JUMPDEST PUSH1 0x20 MUL PUSH1 0x20 ADD ADD MLOAD PUSH20 0xFFFFFFFFFFFFFFFFFFFFFFFFFFFFFFFFFFFFFFFF AND PUSH20 0xFFFFFFFFFFFFFFFFFFFFFFFFFFFFFFFFFFFFFFFF AND DUP2 MSTORE PUSH1 0x20 ADD SWAP1 DUP2 MSTORE PUSH1 0x20 ADD PUSH1 0x0 KECCAK256 SWAP1 POP DUP3 DUP3 DUP2 MLOAD DUP2 LT PUSH2 0x2AE8 JUMPI PUSH2 0x2AE7 PUSH2 0x3C04 JUMP JUMPDEST JUMPDEST PUSH1 0x20 MUL PUSH1 0x20 ADD ADD MLOAD DUP2 PUSH1 0x3 ADD PUSH1 0x0 PUSH2 0x100 EXP DUP2 SLOAD DUP2 PUSH20 0xFFFFFFFFFFFFFFFFFFFFFFFFFFFFFFFFFFFFFFFF MUL NOT AND SWAP1 DUP4 PUSH20 0xFFFFFFFFFFFFFFFFFFFFFFFFFFFFFFFFFFFFFFFF AND MUL OR SWAP1 SSTORE POP PUSH1 0x3 PUSH1 0x0 DUP6 DUP2 MSTORE PUSH1 0x20 ADD SWAP1 DUP2 MSTORE PUSH1 0x20 ADD PUSH1 0x0 KECCAK256 PUSH1 0x8 ADD PUSH1 0x0 DUP2 SLOAD DUP1 SWAP3 SWAP2 SWAP1 PUSH2 0x2B59 SWAP1 PUSH2 0x3C62 JUMP JUMPDEST SWAP2 SWAP1 POP SSTORE POP POP JUMPDEST DUP1 DUP1 PUSH2 0x2B6B SWAP1 PUSH2 0x3C62 JUMP JUMPDEST SWAP2 POP POP PUSH2 0x297E JUMP JUMPDEST POP POP POP JUMP JUMPDEST PUSH1 0x1 SLOAD DUP2 JUMP JUMPDEST DUP3 DUP5 PUSH1 0x0 ADD DUP2 SWAP1 SSTORE POP DUP2 DUP5 PUSH1 0x3 ADD PUSH1 0x0 PUSH2 0x100 EXP DUP2 SLOAD DUP2 PUSH1 0xFF MUL NOT AND SWAP1 DUP4 ISZERO ISZERO MUL OR SWAP1 SSTORE POP DUP1 DUP5 PUSH1 0x4 ADD DUP2 SWAP1 SSTORE POP POP POP POP POP JUMP JUMPDEST PUSH1 0x40 MLOAD DUP1 PUSH1 0x40 ADD PUSH1 0x40 MSTORE DUP1 DUP3 DUP2 MSTORE PUSH1 0x20 ADD PUSH1 0x0 DUP2 MSTORE POP DUP4 PUSH1 0x1 ADD PUSH1 0x0 DUP5 DUP2 MSTORE PUSH1 0x20 ADD SWAP1 DUP2 MSTORE PUSH1 0x20 ADD PUSH1 0x0 KECCAK256 PUSH1 0x0 DUP3 ADD MLOAD DUP2 PUSH1 0x0 ADD SSTORE PUSH1 0x20 DUP3 ADD MLOAD DUP2 PUSH1 0x1 ADD SSTORE SWAP1 POP POP DUP3 PUSH1 0x2 ADD PUSH1 0x0 DUP2 SLOAD DUP1 SWAP3 SWAP2 SWAP1 PUSH2 0x2C09 SWAP1 PUSH2 0x3C62 JUMP JUMPDEST SWAP2 SWAP1 POP SSTORE POP POP POP POP JUMP JUMPDEST PUSH1 0x40 MLOAD DUP1 PUSH1 0x40 ADD PUSH1 0x40 MSTORE DUP1 PUSH1 0x0 PUSH20 0xFFFFFFFFFFFFFFFFFFFFFFFFFFFFFFFFFFFFFFFF AND DUP2 MSTORE PUSH1 0x20 ADD PUSH1 0x0 DUP1 NOT AND DUP2 MSTORE POP SWAP1 JUMP JUMPDEST PUSH1 0x40 MLOAD DUP1 PUSH1 0x40 ADD PUSH1 0x40 MSTORE DUP1 PUSH1 0x0 DUP1 NOT AND DUP2 MSTORE PUSH1 0x20 ADD PUSH1 0x0 DUP2 MSTORE POP SWAP1 JUMP JUMPDEST PUSH1 0x40 MLOAD DUP1 PUSH1 0xC0 ADD PUSH1 0x40 MSTORE DUP1 PUSH1 0x0 ISZERO ISZERO DUP2 MSTORE PUSH1 0x20 ADD PUSH1 0x0 PUSH20 0xFFFFFFFFFFFFFFFFFFFFFFFFFFFFFFFFFFFFFFFF AND DUP2 MSTORE PUSH1 0x20 ADD PUSH1 0x0 DUP2 MSTORE PUSH1 0x20 ADD PUSH1 0x0 DUP1 NOT AND DUP2 MSTORE PUSH1 0x20 ADD PUSH1 0x0 DUP2 MSTORE PUSH1 0x20 ADD PUSH1 0x0 DUP1 NOT AND DUP2 MSTORE POP SWAP1 JUMP JUMPDEST PUSH1 0x0 PUSH1 0x40 MLOAD SWAP1 POP SWAP1 JUMP JUMPDEST PUSH1 0x0 DUP1 REVERT JUMPDEST PUSH1 0x0 DUP1 REVERT JUMPDEST PUSH1 0x0 DUP2 SWAP1 POP SWAP2 SWAP1 POP JUMP JUMPDEST PUSH2 0x2CDE DUP2 PUSH2 0x2CCB JUMP JUMPDEST DUP2 EQ PUSH2 0x2CE9 JUMPI PUSH1 0x0 DUP1 REVERT JUMPDEST POP JUMP JUMPDEST PUSH1 0x0 DUP2 CALLDATALOAD SWAP1 POP PUSH2 0x2CFB DUP2 PUSH2 0x2CD5 JUMP JUMPDEST SWAP3 SWAP2 POP POP JUMP JUMPDEST PUSH1 0x0 PUSH1 0x20 DUP3 DUP5 SUB SLT ISZERO PUSH2 0x2D17 JUMPI PUSH2 0x2D16 PUSH2 0x2CC1 JUMP JUMPDEST JUMPDEST PUSH1 0x0 PUSH2 0x2D25 DUP5 DUP3 DUP6 ADD PUSH2 0x2CEC JUMP JUMPDEST SWAP2 POP POP SWAP3 SWAP2 POP POP JUMP JUMPDEST PUSH1 0x0 DUP2 ISZERO ISZERO SWAP1 POP SWAP2 SWAP1 POP JUMP JUMPDEST PUSH2 0x2D43 DUP2 PUSH2 0x2D2E JUMP JUMPDEST DUP3 MSTORE POP POP JUMP JUMPDEST PUSH1 0x0 PUSH1 0x20 DUP3 ADD SWAP1 POP PUSH2 0x2D5E PUSH1 0x0 DUP4 ADD DUP5 PUSH2 0x2D3A JUMP JUMPDEST SWAP3 SWAP2 POP POP JUMP JUMPDEST PUSH1 0x0 PUSH20 0xFFFFFFFFFFFFFFFFFFFFFFFFFFFFFFFFFFFFFFFF DUP3 AND SWAP1 POP SWAP2 SWAP1 POP JUMP JUMPDEST PUSH1 0x0 PUSH2 0x2D8F DUP3 PUSH2 0x2D64 JUMP JUMPDEST SWAP1 POP SWAP2 SWAP1 POP JUMP JUMPDEST PUSH2 0x2D9F DUP2 PUSH2 0x2D84 JUMP JUMPDEST DUP3 MSTORE POP POP JUMP JUMPDEST PUSH2 0x2DAE DUP2 PUSH2 0x2CCB JUMP JUMPDEST DUP3 MSTORE POP POP JUMP JUMPDEST PUSH1 0x0 DUP2 MLOAD SWAP1 POP SWAP2 SWAP1 POP JUMP JUMPDEST PUSH1 0x0 DUP3 DUP3 MSTORE PUSH1 0x20 DUP3 ADD SWAP1 POP SWAP3 SWAP2 POP POP JUMP JUMPDEST PUSH1 0x0 DUP2 SWAP1 POP PUSH1 0x20 DUP3 ADD SWAP1 POP SWAP2 SWAP1 POP JUMP JUMPDEST PUSH2 0x2DE9 DUP2 PUSH2 0x2D84 JUMP JUMPDEST DUP3 MSTORE POP POP JUMP JUMPDEST PUSH1 0x0 DUP2 SWAP1 POP SWAP2 SWAP1 POP JUMP JUMPDEST PUSH2 0x2E02 DUP2 PUSH2 0x2DEF JUMP JUMPDEST DUP3 MSTORE POP POP JUMP JUMPDEST PUSH1 0x40 DUP3 ADD PUSH1 0x0 DUP3 ADD MLOAD PUSH2 0x2E1E PUSH1 0x0 DUP6 ADD DUP3 PUSH2 0x2DE0 JUMP JUMPDEST POP PUSH1 0x20 DUP3 ADD MLOAD PUSH2 0x2E31 PUSH1 0x20 DUP6 ADD DUP3 PUSH2 0x2DF9 JUMP JUMPDEST POP POP POP POP JUMP JUMPDEST PUSH1 0x0 PUSH2 0x2E43 DUP4 DUP4 PUSH2 0x2E08 JUMP JUMPDEST PUSH1 0x40 DUP4 ADD SWAP1 POP SWAP3 SWAP2 POP POP JUMP JUMPDEST PUSH1 0x0 PUSH1 0x20 DUP3 ADD SWAP1 POP SWAP2 SWAP1 POP JUMP JUMPDEST PUSH1 0x0 PUSH2 0x2E67 DUP3 PUSH2 0x2DB4 JUMP JUMPDEST PUSH2 0x2E71 DUP2 DUP6 PUSH2 0x2DBF JUMP JUMPDEST SWAP4 POP PUSH2 0x2E7C DUP4 PUSH2 0x2DD0 JUMP JUMPDEST DUP1 PUSH1 0x0 JUMPDEST DUP4 DUP2 LT ISZERO PUSH2 0x2EAD JUMPI DUP2 MLOAD PUSH2 0x2E94 DUP9 DUP3 PUSH2 0x2E37 JUMP JUMPDEST SWAP8 POP PUSH2 0x2E9F DUP4 PUSH2 0x2E4F JUMP JUMPDEST SWAP3 POP POP PUSH1 0x1 DUP2 ADD SWAP1 POP PUSH2 0x2E80 JUMP JUMPDEST POP DUP6 SWAP4 POP POP POP POP SWAP3 SWAP2 POP POP JUMP JUMPDEST PUSH1 0x0 PUSH1 0xA0 DUP3 ADD SWAP1 POP PUSH2 0x2ECF PUSH1 0x0 DUP4 ADD DUP9 PUSH2 0x2D96 JUMP JUMPDEST PUSH2 0x2EDC PUSH1 0x20 DUP4 ADD DUP8 PUSH2 0x2DA5 JUMP JUMPDEST PUSH2 0x2EE9 PUSH1 0x40 DUP4 ADD DUP7 PUSH2 0x2DA5 JUMP JUMPDEST DUP2 DUP2 SUB PUSH1 0x60 DUP4 ADD MSTORE PUSH2 0x2EFB DUP2 DUP6 PUSH2 0x2E5C JUMP JUMPDEST SWAP1 POP PUSH2 0x2F0A PUSH1 0x80 DUP4 ADD DUP5 PUSH2 0x2D3A JUMP JUMPDEST SWAP7 SWAP6 POP POP POP POP POP POP JUMP JUMPDEST PUSH1 0x0 DUP1 PUSH1 0x40 DUP4 DUP6 SUB SLT ISZERO PUSH2 0x2F2B JUMPI PUSH2 0x2F2A PUSH2 0x2CC1 JUMP JUMPDEST JUMPDEST PUSH1 0x0 PUSH2 0x2F39 DUP6 DUP3 DUP7 ADD PUSH2 0x2CEC JUMP JUMPDEST SWAP3 POP POP PUSH1 0x20 PUSH2 0x2F4A DUP6 DUP3 DUP7 ADD PUSH2 0x2CEC JUMP JUMPDEST SWAP2 POP POP SWAP3 POP SWAP3 SWAP1 POP JUMP JUMPDEST PUSH2 0x2F5D DUP2 PUSH2 0x2DEF JUMP JUMPDEST DUP3 MSTORE POP POP JUMP JUMPDEST PUSH1 0x0 DUP2 MLOAD SWAP1 POP SWAP2 SWAP1 POP JUMP JUMPDEST PUSH1 0x0 DUP3 DUP3 MSTORE PUSH1 0x20 DUP3 ADD SWAP1 POP SWAP3 SWAP2 POP POP JUMP JUMPDEST PUSH1 0x0 DUP2 SWAP1 POP PUSH1 0x20 DUP3 ADD SWAP1 POP SWAP2 SWAP1 POP JUMP JUMPDEST PUSH2 0x2F98 DUP2 PUSH2 0x2CCB JUMP JUMPDEST DUP3 MSTORE POP POP JUMP JUMPDEST PUSH1 0x40 DUP3 ADD PUSH1 0x0 DUP3 ADD MLOAD PUSH2 0x2FB4 PUSH1 0x0 DUP6 ADD DUP3 PUSH2 0x2DF9 JUMP JUMPDEST POP PUSH1 0x20 DUP3 ADD MLOAD PUSH2 0x2FC7 PUSH1 0x20 DUP6 ADD DUP3 PUSH2 0x2F8F JUMP JUMPDEST POP POP POP POP JUMP JUMPDEST PUSH1 0x0 PUSH2 0x2FD9 DUP4 DUP4 PUSH2 0x2F9E JUMP JUMPDEST PUSH1 0x40 DUP4 ADD SWAP1 POP SWAP3 SWAP2 POP POP JUMP JUMPDEST PUSH1 0x0 PUSH1 0x20 DUP3 ADD SWAP1 POP SWAP2 SWAP1 POP JUMP JUMPDEST PUSH1 0x0 PUSH2 0x2FFD DUP3 PUSH2 0x2F63 JUMP JUMPDEST PUSH2 0x3007 DUP2 DUP6 PUSH2 0x2F6E JUMP JUMPDEST SWAP4 POP PUSH2 0x3012 DUP4 PUSH2 0x2F7F JUMP JUMPDEST DUP1 PUSH1 0x0 JUMPDEST DUP4 DUP2 LT ISZERO PUSH2 0x3043 JUMPI DUP2 MLOAD PUSH2 0x302A DUP9 DUP3 PUSH2 0x2FCD JUMP JUMPDEST SWAP8 POP PUSH2 0x3035 DUP4 PUSH2 0x2FE5 JUMP JUMPDEST SWAP3 POP POP PUSH1 0x1 DUP2 ADD SWAP1 POP PUSH2 0x3016 JUMP JUMPDEST POP DUP6 SWAP4 POP POP POP POP SWAP3 SWAP2 POP POP JUMP JUMPDEST PUSH1 0x0 PUSH1 0xC0 DUP3 ADD SWAP1 POP PUSH2 0x3065 PUSH1 0x0 DUP4 ADD DUP10 PUSH2 0x2DA5 JUMP JUMPDEST PUSH2 0x3072 PUSH1 0x20 DUP4 ADD DUP9 PUSH2 0x2F54 JUMP JUMPDEST DUP2 DUP2 SUB PUSH1 0x40 DUP4 ADD MSTORE PUSH2 0x3084 DUP2 DUP8 PUSH2 0x2FF2 JUMP JUMPDEST SWAP1 POP PUSH2 0x3093 PUSH1 0x60 DUP4 ADD DUP7 PUSH2 0x2DA5 JUMP JUMPDEST PUSH2 0x30A0 PUSH1 0x80 DUP4 ADD DUP6 PUSH2 0x2DA5 JUMP JUMPDEST PUSH2 0x30AD PUSH1 0xA0 DUP4 ADD DUP5 PUSH2 0x2DA5 JUMP JUMPDEST SWAP8 SWAP7 POP POP POP POP POP POP POP JUMP JUMPDEST PUSH1 0x0 PUSH2 0x100 DUP3 ADD SWAP1 POP PUSH2 0x30CE PUSH1 0x0 DUP4 ADD DUP12 PUSH2 0x2DA5 JUMP JUMPDEST PUSH2 0x30DB PUSH1 0x20 DUP4 ADD DUP11 PUSH2 0x2D96 JUMP JUMPDEST PUSH2 0x30E8 PUSH1 0x40 DUP4 ADD DUP10 PUSH2 0x2F54 JUMP JUMPDEST PUSH2 0x30F5 PUSH1 0x60 DUP4 ADD DUP9 PUSH2 0x2DA5 JUMP JUMPDEST PUSH2 0x3102 PUSH1 0x80 DUP4 ADD DUP8 PUSH2 0x2DA5 JUMP JUMPDEST PUSH2 0x310F PUSH1 0xA0 DUP4 ADD DUP7 PUSH2 0x2DA5 JUMP JUMPDEST PUSH2 0x311C PUSH1 0xC0 DUP4 ADD DUP6 PUSH2 0x2DA5 JUMP JUMPDEST PUSH2 0x3129 PUSH1 0xE0 DUP4 ADD DUP5 PUSH2 0x2DA5 JUMP JUMPDEST SWAP10 SWAP9 POP POP POP POP POP POP POP POP POP JUMP JUMPDEST PUSH1 0x0 PUSH1 0x20 DUP3 ADD SWAP1 POP PUSH2 0x314B PUSH1 0x0 DUP4 ADD DUP5 PUSH2 0x2D96 JUMP JUMPDEST SWAP3 SWAP2 POP POP JUMP JUMPDEST PUSH1 0x0 PUSH1 0x20 DUP3 ADD SWAP1 POP PUSH2 0x3166 PUSH1 0x0 DUP4 ADD DUP5 PUSH2 0x2DA5 JUMP JUMPDEST SWAP3 SWAP2 POP POP JUMP JUMPDEST PUSH1 0x0 DUP1 PUSH1 0x0 PUSH1 0x60 DUP5 DUP7 SUB SLT ISZERO PUSH2 0x3185 JUMPI PUSH2 0x3184 PUSH2 0x2CC1 JUMP JUMPDEST JUMPDEST PUSH1 0x0 PUSH2 0x3193 DUP7 DUP3 DUP8 ADD PUSH2 0x2CEC JUMP JUMPDEST SWAP4 POP POP PUSH1 0x20 PUSH2 0x31A4 DUP7 DUP3 DUP8 ADD PUSH2 0x2CEC JUMP JUMPDEST SWAP3 POP POP PUSH1 0x40 PUSH2 0x31B5 DUP7 DUP3 DUP8 ADD PUSH2 0x2CEC JUMP JUMPDEST SWAP2 POP POP SWAP3 POP SWAP3 POP SWAP3 JUMP JUMPDEST PUSH1 0x0 DUP2 MLOAD SWAP1 POP SWAP2 SWAP1 POP JUMP JUMPDEST PUSH1 0x0 DUP3 DUP3 MSTORE PUSH1 0x20 DUP3 ADD SWAP1 POP SWAP3 SWAP2 POP POP JUMP JUMPDEST PUSH1 0x0 DUP2 SWAP1 POP PUSH1 0x20 DUP3 ADD SWAP1 POP SWAP2 SWAP1 POP JUMP JUMPDEST PUSH1 0x0 PUSH2 0x31F7 DUP4 DUP4 PUSH2 0x2DF9 JUMP JUMPDEST PUSH1 0x20 DUP4 ADD SWAP1 POP SWAP3 SWAP2 POP POP JUMP JUMPDEST PUSH1 0x0 PUSH1 0x20 DUP3 ADD SWAP1 POP SWAP2 SWAP1 POP JUMP JUMPDEST PUSH1 0x0 PUSH2 0x321B DUP3 PUSH2 0x31BF JUMP JUMPDEST PUSH2 0x3225 DUP2 DUP6 PUSH2 0x31CA JUMP JUMPDEST SWAP4 POP PUSH2 0x3230 DUP4 PUSH2 0x31DB JUMP JUMPDEST DUP1 PUSH1 0x0 JUMPDEST DUP4 DUP2 LT ISZERO PUSH2 0x3261 JUMPI DUP2 MLOAD PUSH2 0x3248 DUP9 DUP3 PUSH2 0x31EB JUMP JUMPDEST SWAP8 POP PUSH2 0x3253 DUP4 PUSH2 0x3203 JUMP JUMPDEST SWAP3 POP POP PUSH1 0x1 DUP2 ADD SWAP1 POP PUSH2 0x3234 JUMP JUMPDEST POP DUP6 SWAP4 POP POP POP POP SWAP3 SWAP2 POP POP JUMP JUMPDEST PUSH1 0x0 DUP2 MLOAD SWAP1 POP SWAP2 SWAP1 POP JUMP JUMPDEST PUSH1 0x0 DUP3 DUP3 MSTORE PUSH1 0x20 DUP3 ADD SWAP1 POP SWAP3 SWAP2 POP POP JUMP JUMPDEST PUSH1 0x0 DUP2 SWAP1 POP PUSH1 0x20 DUP3 ADD SWAP1 POP SWAP2 SWAP1 POP JUMP JUMPDEST PUSH1 0x0 PUSH2 0x32A6 DUP4 DUP4 PUSH2 0x2DE0 JUMP JUMPDEST PUSH1 0x20 DUP4 ADD SWAP1 POP SWAP3 SWAP2 POP POP JUMP JUMPDEST PUSH1 0x0 PUSH1 0x20 DUP3 ADD SWAP1 POP SWAP2 SWAP1 POP JUMP JUMPDEST PUSH1 0x0 PUSH2 0x32CA DUP3 PUSH2 0x326E JUMP JUMPDEST PUSH2 0x32D4 DUP2 DUP6 PUSH2 0x3279 JUMP JUMPDEST SWAP4 POP PUSH2 0x32DF DUP4 PUSH2 0x328A JUMP JUMPDEST DUP1 PUSH1 0x0 JUMPDEST DUP4 DUP2 LT ISZERO PUSH2 0x3310 JUMPI DUP2 MLOAD PUSH2 0x32F7 DUP9 DUP3 PUSH2 0x329A JUMP JUMPDEST SWAP8 POP PUSH2 0x3302 DUP4 PUSH2 0x32B2 JUMP JUMPDEST SWAP3 POP POP PUSH1 0x1 DUP2 ADD SWAP1 POP PUSH2 0x32E3 JUMP JUMPDEST POP DUP6 SWAP4 POP POP POP POP SWAP3 SWAP2 POP POP JUMP JUMPDEST PUSH1 0x0 PUSH2 0x140 DUP3 ADD SWAP1 POP PUSH2 0x3333 PUSH1 0x0 DUP4 ADD DUP14 PUSH2 0x2DA5 JUMP JUMPDEST PUSH2 0x3340 PUSH1 0x20 DUP4 ADD DUP13 PUSH2 0x2D96 JUMP JUMPDEST PUSH2 0x334D PUSH1 0x40 DUP4 ADD DUP12 PUSH2 0x2F54 JUMP JUMPDEST PUSH2 0x335A PUSH1 0x60 DUP4 ADD DUP11 PUSH2 0x2DA5 JUMP JUMPDEST PUSH2 0x3367 PUSH1 0x80 DUP4 ADD DUP10 PUSH2 0x2DA5 JUMP JUMPDEST DUP2 DUP2 SUB PUSH1 0xA0 DUP4 ADD MSTORE PUSH2 0x3379 DUP2 DUP9 PUSH2 0x3210 JUMP JUMPDEST SWAP1 POP DUP2 DUP2 SUB PUSH1 0xC0 DUP4 ADD MSTORE PUSH2 0x338D DUP2 DUP8 PUSH2 0x32BF JUMP JUMPDEST SWAP1 POP PUSH2 0x339C PUSH1 0xE0 DUP4 ADD DUP7 PUSH2 0x2DA5 JUMP JUMPDEST PUSH2 0x33AA PUSH2 0x100 DUP4 ADD DUP6 PUSH2 0x2DA5 JUMP JUMPDEST PUSH2 0x33B8 PUSH2 0x120 DUP4 ADD DUP5 PUSH2 0x2DA5 JUMP JUMPDEST SWAP12 SWAP11 POP POP POP POP POP POP POP POP POP POP POP JUMP JUMPDEST PUSH2 0x33D0 DUP2 PUSH2 0x2D84 JUMP JUMPDEST DUP2 EQ PUSH2 0x33DB JUMPI PUSH1 0x0 DUP1 REVERT JUMPDEST POP JUMP JUMPDEST PUSH1 0x0 DUP2 CALLDATALOAD SWAP1 POP PUSH2 0x33ED DUP2 PUSH2 0x33C7 JUMP JUMPDEST SWAP3 SWAP2 POP POP JUMP JUMPDEST PUSH2 0x33FC DUP2 PUSH2 0x2DEF JUMP JUMPDEST DUP2 EQ PUSH2 0x3407 JUMPI PUSH1 0x0 DUP1 REVERT JUMPDEST POP JUMP JUMPDEST PUSH1 0x0 DUP2 CALLDATALOAD SWAP1 POP PUSH2 0x3419 DUP2 PUSH2 0x33F3 JUMP JUMPDEST SWAP3 SWAP2 POP POP JUMP JUMPDEST PUSH1 0x0 DUP1 PUSH1 0x0 PUSH1 0x60 DUP5 DUP7 SUB SLT ISZERO PUSH2 0x3438 JUMPI PUSH2 0x3437 PUSH2 0x2CC1 JUMP JUMPDEST JUMPDEST PUSH1 0x0 PUSH2 0x3446 DUP7 DUP3 DUP8 ADD PUSH2 0x2CEC JUMP JUMPDEST SWAP4 POP POP PUSH1 0x20 PUSH2 0x3457 DUP7 DUP3 DUP8 ADD PUSH2 0x33DE JUMP JUMPDEST SWAP3 POP POP PUSH1 0x40 PUSH2 0x3468 DUP7 DUP3 DUP8 ADD PUSH2 0x340A JUMP JUMPDEST SWAP2 POP POP SWAP3 POP SWAP3 POP SWAP3 JUMP JUMPDEST PUSH1 0x0 DUP1 REVERT JUMPDEST PUSH1 0x0 PUSH1 0x1F NOT PUSH1 0x1F DUP4 ADD AND SWAP1 POP SWAP2 SWAP1 POP JUMP JUMPDEST PUSH32 0x4E487B7100000000000000000000000000000000000000000000000000000000 PUSH1 0x0 MSTORE PUSH1 0x41 PUSH1 0x4 MSTORE PUSH1 0x24 PUSH1 0x0 REVERT JUMPDEST PUSH2 0x34C0 DUP3 PUSH2 0x3477 JUMP JUMPDEST DUP2 ADD DUP2 DUP2 LT PUSH8 0xFFFFFFFFFFFFFFFF DUP3 GT OR ISZERO PUSH2 0x34DF JUMPI PUSH2 0x34DE PUSH2 0x3488 JUMP JUMPDEST JUMPDEST DUP1 PUSH1 0x40 MSTORE POP POP POP JUMP JUMPDEST PUSH1 0x0 PUSH2 0x34F2 PUSH2 0x2CB7 JUMP JUMPDEST SWAP1 POP PUSH2 0x34FE DUP3 DUP3 PUSH2 0x34B7 JUMP JUMPDEST SWAP2 SWAP1 POP JUMP JUMPDEST PUSH1 0x0 PUSH8 0xFFFFFFFFFFFFFFFF DUP3 GT ISZERO PUSH2 0x351E JUMPI PUSH2 0x351D PUSH2 0x3488 JUMP JUMPDEST JUMPDEST PUSH1 0x20 DUP3 MUL SWAP1 POP PUSH1 0x20 DUP2 ADD SWAP1 POP SWAP2 SWAP1 POP JUMP JUMPDEST PUSH1 0x0 DUP1 REVERT JUMPDEST PUSH1 0x0 DUP1 REVERT JUMPDEST PUSH1 0x0 PUSH1 0x40 DUP3 DUP5 SUB SLT ISZERO PUSH2 0x354F JUMPI PUSH2 0x354E PUSH2 0x3534 JUMP JUMPDEST JUMPDEST PUSH2 0x3559 PUSH1 0x40 PUSH2 0x34E8 JUMP JUMPDEST SWAP1 POP PUSH1 0x0 PUSH2 0x3569 DUP5 DUP3 DUP6 ADD PUSH2 0x33DE JUMP JUMPDEST PUSH1 0x0 DUP4 ADD MSTORE POP PUSH1 0x20 PUSH2 0x357D DUP5 DUP3 DUP6 ADD PUSH2 0x340A JUMP JUMPDEST PUSH1 0x20 DUP4 ADD MSTORE POP SWAP3 SWAP2 POP POP JUMP JUMPDEST PUSH1 0x0 PUSH2 0x359C PUSH2 0x3597 DUP5 PUSH2 0x3503 JUMP JUMPDEST PUSH2 0x34E8 JUMP JUMPDEST SWAP1 POP DUP1 DUP4 DUP3 MSTORE PUSH1 0x20 DUP3 ADD SWAP1 POP PUSH1 0x40 DUP5 MUL DUP4 ADD DUP6 DUP2 GT ISZERO PUSH2 0x35BF JUMPI PUSH2 0x35BE PUSH2 0x352F JUMP JUMPDEST JUMPDEST DUP4 JUMPDEST DUP2 DUP2 LT ISZERO PUSH2 0x35E8 JUMPI DUP1 PUSH2 0x35D4 DUP9 DUP3 PUSH2 0x3539 JUMP JUMPDEST DUP5 MSTORE PUSH1 0x20 DUP5 ADD SWAP4 POP POP PUSH1 0x40 DUP2 ADD SWAP1 POP PUSH2 0x35C1 JUMP JUMPDEST POP POP POP SWAP4 SWAP3 POP POP POP JUMP JUMPDEST PUSH1 0x0 DUP3 PUSH1 0x1F DUP4 ADD SLT PUSH2 0x3607 JUMPI PUSH2 0x3606 PUSH2 0x3472 JUMP JUMPDEST JUMPDEST DUP2 CALLDATALOAD PUSH2 0x3617 DUP5 DUP3 PUSH1 0x20 DUP7 ADD PUSH2 0x3589 JUMP JUMPDEST SWAP2 POP POP SWAP3 SWAP2 POP POP JUMP JUMPDEST PUSH1 0x0 DUP1 PUSH1 0x0 DUP1 PUSH1 0x80 DUP6 DUP8 SUB SLT ISZERO PUSH2 0x363A JUMPI PUSH2 0x3639 PUSH2 0x2CC1 JUMP JUMPDEST JUMPDEST PUSH1 0x0 PUSH2 0x3648 DUP8 DUP3 DUP9 ADD PUSH2 0x340A JUMP JUMPDEST SWAP5 POP POP PUSH1 0x20 PUSH2 0x3659 DUP8 DUP3 DUP9 ADD PUSH2 0x2CEC JUMP JUMPDEST SWAP4 POP POP PUSH1 0x40 PUSH2 0x366A DUP8 DUP3 DUP9 ADD PUSH2 0x2CEC JUMP JUMPDEST SWAP3 POP POP PUSH1 0x60 DUP6 ADD CALLDATALOAD PUSH8 0xFFFFFFFFFFFFFFFF DUP2 GT ISZERO PUSH2 0x368B JUMPI PUSH2 0x368A PUSH2 0x2CC6 JUMP JUMPDEST JUMPDEST PUSH2 0x3697 DUP8 DUP3 DUP9 ADD PUSH2 0x35F2 JUMP JUMPDEST SWAP2 POP POP SWAP3 SWAP6 SWAP2 SWAP5 POP SWAP3 POP JUMP JUMPDEST PUSH1 0x0 DUP1 PUSH1 0x40 DUP4 DUP6 SUB SLT ISZERO PUSH2 0x36BA JUMPI PUSH2 0x36B9 PUSH2 0x2CC1 JUMP JUMPDEST JUMPDEST PUSH1 0x0 PUSH2 0x36C8 DUP6 DUP3 DUP7 ADD PUSH2 0x2CEC JUMP JUMPDEST SWAP3 POP POP PUSH1 0x20 PUSH2 0x36D9 DUP6 DUP3 DUP7 ADD PUSH2 0x33DE JUMP JUMPDEST SWAP2 POP POP SWAP3 POP SWAP3 SWAP1 POP JUMP JUMPDEST PUSH1 0x0 DUP2 MLOAD SWAP1 POP SWAP2 SWAP1 POP JUMP JUMPDEST PUSH1 0x0 DUP3 DUP3 MSTORE PUSH1 0x20 DUP3 ADD SWAP1 POP SWAP3 SWAP2 POP POP JUMP JUMPDEST PUSH1 0x0 DUP2 SWAP1 POP PUSH1 0x20 DUP3 ADD SWAP1 POP SWAP2 SWAP1 POP JUMP JUMPDEST PUSH2 0x3718 DUP2 PUSH2 0x2D2E JUMP JUMPDEST DUP3 MSTORE POP POP JUMP JUMPDEST PUSH1 0xC0 DUP3 ADD PUSH1 0x0 DUP3 ADD MLOAD PUSH2 0x3734 PUSH1 0x0 DUP6 ADD DUP3 PUSH2 0x370F JUMP JUMPDEST POP PUSH1 0x20 DUP3 ADD MLOAD PUSH2 0x3747 PUSH1 0x20 DUP6 ADD DUP3 PUSH2 0x2DE0 JUMP JUMPDEST POP PUSH1 0x40 DUP3 ADD MLOAD PUSH2 0x375A PUSH1 0x40 DUP6 ADD DUP3 PUSH2 0x2F8F JUMP JUMPDEST POP PUSH1 0x60 DUP3 ADD MLOAD PUSH2 0x376D PUSH1 0x60 DUP6 ADD DUP3 PUSH2 0x2DF9 JUMP JUMPDEST POP PUSH1 0x80 DUP3 ADD MLOAD PUSH2 0x3780 PUSH1 0x80 DUP6 ADD DUP3 PUSH2 0x2F8F JUMP JUMPDEST POP PUSH1 0xA0 DUP3 ADD MLOAD PUSH2 0x3793 PUSH1 0xA0 DUP6 ADD DUP3 PUSH2 0x2DF9 JUMP JUMPDEST POP POP POP POP JUMP JUMPDEST PUSH1 0x0 PUSH2 0x37A5 DUP4 DUP4 PUSH2 0x371E JUMP JUMPDEST PUSH1 0xC0 DUP4 ADD SWAP1 POP SWAP3 SWAP2 POP POP JUMP JUMPDEST PUSH1 0x0 PUSH1 0x20 DUP3 ADD SWAP1 POP SWAP2 SWAP1 POP JUMP JUMPDEST PUSH1 0x0 PUSH2 0x37C9 DUP3 PUSH2 0x36E3 JUMP JUMPDEST PUSH2 0x37D3 DUP2 DUP6 PUSH2 0x36EE JUMP JUMPDEST SWAP4 POP PUSH2 0x37DE DUP4 PUSH2 0x36FF JUMP JUMPDEST DUP1 PUSH1 0x0 JUMPDEST DUP4 DUP2 LT ISZERO PUSH2 0x380F JUMPI DUP2 MLOAD PUSH2 0x37F6 DUP9 DUP3 PUSH2 0x3799 JUMP JUMPDEST SWAP8 POP PUSH2 0x3801 DUP4 PUSH2 0x37B1 JUMP JUMPDEST SWAP3 POP POP PUSH1 0x1 DUP2 ADD SWAP1 POP PUSH2 0x37E2 JUMP JUMPDEST POP DUP6 SWAP4 POP POP POP POP SWAP3 SWAP2 POP POP JUMP JUMPDEST PUSH1 0x0 PUSH1 0x20 DUP3 ADD SWAP1 POP DUP2 DUP2 SUB PUSH1 0x0 DUP4 ADD MSTORE PUSH2 0x3836 DUP2 DUP5 PUSH2 0x37BE JUMP JUMPDEST SWAP1 POP SWAP3 SWAP2 POP POP JUMP JUMPDEST PUSH1 0x0 PUSH8 0xFFFFFFFFFFFFFFFF DUP3 GT ISZERO PUSH2 0x3859 JUMPI PUSH2 0x3858 PUSH2 0x3488 JUMP JUMPDEST JUMPDEST PUSH1 0x20 DUP3 MUL SWAP1 POP PUSH1 0x20 DUP2 ADD SWAP1 POP SWAP2 SWAP1 POP JUMP JUMPDEST PUSH1 0x0 PUSH2 0x387D PUSH2 0x3878 DUP5 PUSH2 0x383E JUMP JUMPDEST PUSH2 0x34E8 JUMP JUMPDEST SWAP1 POP DUP1 DUP4 DUP3 MSTORE PUSH1 0x20 DUP3 ADD SWAP1 POP PUSH1 0x20 DUP5 MUL DUP4 ADD DUP6 DUP2 GT ISZERO PUSH2 0x38A0 JUMPI PUSH2 0x389F PUSH2 0x352F JUMP JUMPDEST JUMPDEST DUP4 JUMPDEST DUP2 DUP2 LT ISZERO PUSH2 0x38C9 JUMPI DUP1 PUSH2 0x38B5 DUP9 DUP3 PUSH2 0x340A JUMP JUMPDEST DUP5 MSTORE PUSH1 0x20 DUP5 ADD SWAP4 POP POP PUSH1 0x20 DUP2 ADD SWAP1 POP PUSH2 0x38A2 JUMP JUMPDEST POP POP POP SWAP4 SWAP3 POP POP POP JUMP JUMPDEST PUSH1 0x0 DUP3 PUSH1 0x1F DUP4 ADD SLT PUSH2 0x38E8 JUMPI PUSH2 0x38E7 PUSH2 0x3472 JUMP JUMPDEST JUMPDEST DUP2 CALLDATALOAD PUSH2 0x38F8 DUP5 DUP3 PUSH1 0x20 DUP7 ADD PUSH2 0x386A JUMP JUMPDEST SWAP2 POP POP SWAP3 SWAP2 POP POP JUMP JUMPDEST PUSH2 0x390A DUP2 PUSH2 0x2D2E JUMP JUMPDEST DUP2 EQ PUSH2 0x3915 JUMPI PUSH1 0x0 DUP1 REVERT JUMPDEST POP JUMP JUMPDEST PUSH1 0x0 DUP2 CALLDATALOAD SWAP1 POP PUSH2 0x3927 DUP2 PUSH2 0x3901 JUMP JUMPDEST SWAP3 SWAP2 POP POP JUMP JUMPDEST PUSH1 0x0 DUP1 PUSH1 0x0 DUP1 PUSH1 0x80 DUP6 DUP8 SUB SLT ISZERO PUSH2 0x3947 JUMPI PUSH2 0x3946 PUSH2 0x2CC1 JUMP JUMPDEST JUMPDEST PUSH1 0x0 PUSH2 0x3955 DUP8 DUP3 DUP9 ADD PUSH2 0x2CEC JUMP JUMPDEST SWAP5 POP POP PUSH1 0x20 DUP6 ADD CALLDATALOAD PUSH8 0xFFFFFFFFFFFFFFFF DUP2 GT ISZERO PUSH2 0x3976 JUMPI PUSH2 0x3975 PUSH2 0x2CC6 JUMP JUMPDEST JUMPDEST PUSH2 0x3982 DUP8 DUP3 DUP9 ADD PUSH2 0x38D3 JUMP JUMPDEST SWAP4 POP POP PUSH1 0x40 PUSH2 0x3993 DUP8 DUP3 DUP9 ADD PUSH2 0x3918 JUMP JUMPDEST SWAP3 POP POP PUSH1 0x60 PUSH2 0x39A4 DUP8 DUP3 DUP9 ADD PUSH2 0x340A JUMP JUMPDEST SWAP2 POP POP SWAP3 SWAP6 SWAP2 SWAP5 POP SWAP3 POP JUMP JUMPDEST PUSH1 0x0 PUSH8 0xFFFFFFFFFFFFFFFF DUP3 GT ISZERO PUSH2 0x39CB JUMPI PUSH2 0x39CA PUSH2 0x3488 JUMP JUMPDEST JUMPDEST PUSH1 0x20 DUP3 MUL SWAP1 POP PUSH1 0x20 DUP2 ADD SWAP1 POP SWAP2 SWAP1 POP JUMP JUMPDEST PUSH1 0x0 PUSH2 0x39EF PUSH2 0x39EA DUP5 PUSH2 0x39B0 JUMP JUMPDEST PUSH2 0x34E8 JUMP JUMPDEST SWAP1 POP DUP1 DUP4 DUP3 MSTORE PUSH1 0x20 DUP3 ADD SWAP1 POP PUSH1 0x20 DUP5 MUL DUP4 ADD DUP6 DUP2 GT ISZERO PUSH2 0x3A12 JUMPI PUSH2 0x3A11 PUSH2 0x352F JUMP JUMPDEST JUMPDEST DUP4 JUMPDEST DUP2 DUP2 LT ISZERO PUSH2 0x3A3B JUMPI DUP1 PUSH2 0x3A27 DUP9 DUP3 PUSH2 0x33DE JUMP JUMPDEST DUP5 MSTORE PUSH1 0x20 DUP5 ADD SWAP4 POP POP PUSH1 0x20 DUP2 ADD SWAP1 POP PUSH2 0x3A14 JUMP JUMPDEST POP POP POP SWAP4 SWAP3 POP POP POP JUMP JUMPDEST PUSH1 0x0 DUP3 PUSH1 0x1F DUP4 ADD SLT PUSH2 0x3A5A JUMPI PUSH2 0x3A59 PUSH2 0x3472 JUMP JUMPDEST JUMPDEST DUP2 CALLDATALOAD PUSH2 0x3A6A DUP5 DUP3 PUSH1 0x20 DUP7 ADD PUSH2 0x39DC JUMP JUMPDEST SWAP2 POP POP SWAP3 SWAP2 POP POP JUMP JUMPDEST PUSH1 0x0 DUP1 PUSH1 0x40 DUP4 DUP6 SUB SLT ISZERO PUSH2 0x3A8A JUMPI PUSH2 0x3A89 PUSH2 0x2CC1 JUMP JUMPDEST JUMPDEST PUSH1 0x0 PUSH2 0x3A98 DUP6 DUP3 DUP7 ADD PUSH2 0x2CEC JUMP JUMPDEST SWAP3 POP POP PUSH1 0x20 DUP4 ADD CALLDATALOAD PUSH8 0xFFFFFFFFFFFFFFFF DUP2 GT ISZERO PUSH2 0x3AB9 JUMPI PUSH2 0x3AB8 PUSH2 0x2CC6 JUMP JUMPDEST JUMPDEST PUSH2 0x3AC5 DUP6 DUP3 DUP7 ADD PUSH2 0x3A45 JUMP JUMPDEST SWAP2 POP POP SWAP3 POP SWAP3 SWAP1 POP JUMP JUMPDEST PUSH1 0x0 DUP3 DUP3 MSTORE PUSH1 0x20 DUP3 ADD SWAP1 POP SWAP3 SWAP2 POP POP JUMP JUMPDEST PUSH32 0x536F72727920796F7520617265206E6F7420616464656420746F20766F74696E PUSH1 0x0 DUP3 ADD MSTORE PUSH32 0x67206C697374207965742C20636F6E7461637420796F75722070617274792068 PUSH1 0x20 DUP3 ADD MSTORE PUSH32 0x6561640000000000000000000000000000000000000000000000000000000000 PUSH1 0x40 DUP3 ADD MSTORE POP JUMP JUMPDEST PUSH1 0x0 PUSH2 0x3B62 PUSH1 0x43 DUP4 PUSH2 0x3ACF JUMP JUMPDEST SWAP2 POP PUSH2 0x3B6D DUP3 PUSH2 0x3AE0 JUMP JUMPDEST PUSH1 0x60 DUP3 ADD SWAP1 POP SWAP2 SWAP1 POP JUMP JUMPDEST PUSH1 0x0 PUSH1 0x20 DUP3 ADD SWAP1 POP DUP2 DUP2 SUB PUSH1 0x0 DUP4 ADD MSTORE PUSH2 0x3B91 DUP2 PUSH2 0x3B55 JUMP JUMPDEST SWAP1 POP SWAP2 SWAP1 POP JUMP JUMPDEST PUSH32 0x4576656E7420646F6573206E6F74206578697374000000000000000000000000 PUSH1 0x0 DUP3 ADD MSTORE POP JUMP JUMPDEST PUSH1 0x0 PUSH2 0x3BCE PUSH1 0x14 DUP4 PUSH2 0x3ACF JUMP JUMPDEST SWAP2 POP PUSH2 0x3BD9 DUP3 PUSH2 0x3B98 JUMP JUMPDEST PUSH1 0x20 DUP3 ADD SWAP1 POP SWAP2 SWAP1 POP JUMP JUMPDEST PUSH1 0x0 PUSH1 0x20 DUP3 ADD SWAP1 POP DUP2 DUP2 SUB PUSH1 0x0 DUP4 ADD MSTORE PUSH2 0x3BFD DUP2 PUSH2 0x3BC1 JUMP JUMPDEST SWAP1 POP SWAP2 SWAP1 POP JUMP JUMPDEST PUSH32 0x4E487B7100000000000000000000000000000000000000000000000000000000 PUSH1 0x0 MSTORE PUSH1 0x32 PUSH1 0x4 MSTORE PUSH1 0x24 PUSH1 0x0 REVERT JUMPDEST PUSH32 0x4E487B7100000000000000000000000000000000000000000000000000000000 PUSH1 0x0 MSTORE PUSH1 0x11 PUSH1 0x4 MSTORE PUSH1 0x24 PUSH1 0x0 REVERT JUMPDEST PUSH1 0x0 PUSH2 0x3C6D DUP3 PUSH2 0x2CCB JUMP JUMPDEST SWAP2 POP PUSH32 0xFFFFFFFFFFFFFFFFFFFFFFFFFFFFFFFFFFFFFFFFFFFFFFFFFFFFFFFFFFFFFFFF DUP3 SUB PUSH2 0x3C9F JUMPI PUSH2 0x3C9E PUSH2 0x3C33 JUMP JUMPDEST JUMPDEST PUSH1 0x1 DUP3 ADD SWAP1 POP SWAP2 SWAP1 POP JUMP JUMPDEST PUSH32 0x506F6F6C206576656E7420646F6573206E6F7420657869737400000000000000 PUSH1 0x0 DUP3 ADD MSTORE POP JUMP JUMPDEST PUSH1 0x0 PUSH2 0x3CE0 PUSH1 0x19 DUP4 PUSH2 0x3ACF JUMP JUMPDEST SWAP2 POP PUSH2 0x3CEB DUP3 PUSH2 0x3CAA JUMP JUMPDEST PUSH1 0x20 DUP3 ADD SWAP1 POP SWAP2 SWAP1 POP JUMP JUMPDEST PUSH1 0x0 PUSH1 0x20 DUP3 ADD SWAP1 POP DUP2 DUP2 SUB PUSH1 0x0 DUP4 ADD MSTORE PUSH2 0x3D0F DUP2 PUSH2 0x3CD3 JUMP JUMPDEST SWAP1 POP SWAP2 SWAP1 POP JUMP JUMPDEST PUSH32 0x76616C69646174696F6E206661696C65642C20636865636B20796F7572207374 PUSH1 0x0 DUP3 ADD MSTORE PUSH32 0x6174757320746F20636F6E6669726D0000000000000000000000000000000000 PUSH1 0x20 DUP3 ADD MSTORE POP JUMP JUMPDEST PUSH1 0x0 PUSH2 0x3D72 PUSH1 0x2F DUP4 PUSH2 0x3ACF JUMP JUMPDEST SWAP2 POP PUSH2 0x3D7D DUP3 PUSH2 0x3D16 JUMP JUMPDEST PUSH1 0x40 DUP3 ADD SWAP1 POP SWAP2 SWAP1 POP JUMP JUMPDEST PUSH1 0x0 PUSH1 0x20 DUP3 ADD SWAP1 POP DUP2 DUP2 SUB PUSH1 0x0 DUP4 ADD MSTORE PUSH2 0x3DA1 DUP2 PUSH2 0x3D65 JUMP JUMPDEST SWAP1 POP SWAP2 SWAP1 POP JUMP JUMPDEST PUSH32 0x416C726561647920766F74656400000000000000000000000000000000000000 PUSH1 0x0 DUP3 ADD MSTORE POP JUMP JUMPDEST PUSH1 0x0 PUSH2 0x3DDE PUSH1 0xD DUP4 PUSH2 0x3ACF JUMP JUMPDEST SWAP2 POP PUSH2 0x3DE9 DUP3 PUSH2 0x3DA8 JUMP JUMPDEST PUSH1 0x20 DUP3 ADD SWAP1 POP SWAP2 SWAP1 POP JUMP JUMPDEST PUSH1 0x0 PUSH1 0x20 DUP3 ADD SWAP1 POP DUP2 DUP2 SUB PUSH1 0x0 DUP4 ADD MSTORE PUSH2 0x3E0D DUP2 PUSH2 0x3DD1 JUMP JUMPDEST SWAP1 POP SWAP2 SWAP1 POP JUMP JUMPDEST PUSH1 0x0 PUSH2 0x3E1F DUP3 PUSH2 0x2CCB JUMP JUMPDEST SWAP2 POP PUSH2 0x3E2A DUP4 PUSH2 0x2CCB JUMP JUMPDEST SWAP3 POP DUP3 DUP3 ADD SWAP1 POP DUP1 DUP3 GT ISZERO PUSH2 0x3E42 JUMPI PUSH2 0x3E41 PUSH2 0x3C33 JUMP JUMPDEST JUMPDEST SWAP3 SWAP2 POP POP JUMP JUMPDEST PUSH32 0x456C656374696F6E20646F6573206E6F74206578697374000000000000000000 PUSH1 0x0 DUP3 ADD MSTORE POP JUMP JUMPDEST PUSH1 0x0 PUSH2 0x3E7E PUSH1 0x17 DUP4 PUSH2 0x3ACF JUMP JUMPDEST SWAP2 POP PUSH2 0x3E89 DUP3 PUSH2 0x3E48 JUMP JUMPDEST PUSH1 0x20 DUP3 ADD SWAP1 POP SWAP2 SWAP1 POP JUMP JUMPDEST PUSH1 0x0 PUSH1 0x20 DUP3 ADD SWAP1 POP DUP2 DUP2 SUB PUSH1 0x0 DUP4 ADD MSTORE PUSH2 0x3EAD DUP2 PUSH2 0x3E71 JUMP JUMPDEST SWAP1 POP SWAP2 SWAP1 POP JUMP JUMPDEST PUSH32 0x566F746572206E6F7420616464656420746F20766F74696E67206C6973742079 PUSH1 0x0 DUP3 ADD MSTORE PUSH32 0x65742020636F6E7461637420796F75722061646D696E697374726174696F6E00 PUSH1 0x20 DUP3 ADD MSTORE POP JUMP JUMPDEST PUSH1 0x0 PUSH2 0x3F10 PUSH1 0x3F DUP4 PUSH2 0x3ACF JUMP JUMPDEST SWAP2 POP PUSH2 0x3F1B DUP3 PUSH2 0x3EB4 JUMP JUMPDEST PUSH1 0x40 DUP3 ADD SWAP1 POP SWAP2 SWAP1 POP JUMP JUMPDEST PUSH1 0x0 PUSH1 0x20 DUP3 ADD SWAP1 POP DUP2 DUP2 SUB PUSH1 0x0 DUP4 ADD MSTORE PUSH2 0x3F3F DUP2 PUSH2 0x3F03 JUMP JUMPDEST SWAP1 POP SWAP2 SWAP1 POP JUMP JUMPDEST PUSH32 0x4F6E6C792050617274792063616E206769766520726967687420746F20766F74 PUSH1 0x0 DUP3 ADD MSTORE PUSH32 0x652E000000000000000000000000000000000000000000000000000000000000 PUSH1 0x20 DUP3 ADD MSTORE POP JUMP JUMPDEST PUSH1 0x0 PUSH2 0x3FA2 PUSH1 0x22 DUP4 PUSH2 0x3ACF JUMP JUMPDEST SWAP2 POP PUSH2 0x3FAD DUP3 PUSH2 0x3F46 JUMP JUMPDEST PUSH1 0x40 DUP3 ADD SWAP1 POP SWAP2 SWAP1 POP JUMP JUMPDEST PUSH1 0x0 PUSH1 0x20 DUP3 ADD SWAP1 POP DUP2 DUP2 SUB PUSH1 0x0 DUP4 ADD MSTORE PUSH2 0x3FD1 DUP2 PUSH2 0x3F95 JUMP JUMPDEST SWAP1 POP SWAP2 SWAP1 POP JUMP JUMPDEST PUSH32 0x596F75206861766520616C726561647920417574686F72697A656420766F7465 PUSH1 0x0 DUP3 ADD MSTORE PUSH32 0x722E205468616E6B20796F750000000000000000000000000000000000000000 PUSH1 0x20 DUP3 ADD MSTORE POP JUMP JUMPDEST PUSH1 0x0 PUSH2 0x4034 PUSH1 0x2C DUP4 PUSH2 0x3ACF JUMP JUMPDEST SWAP2 POP PUSH2 0x403F DUP3 PUSH2 0x3FD8 JUMP JUMPDEST PUSH1 0x40 DUP3 ADD SWAP1 POP SWAP2 SWAP1 POP JUMP JUMPDEST PUSH1 0x0 PUSH1 0x20 DUP3 ADD SWAP1 POP DUP2 DUP2 SUB PUSH1 0x0 DUP4 ADD MSTORE PUSH2 0x4063 DUP2 PUSH2 0x4027 JUMP JUMPDEST SWAP1 POP SWAP2 SWAP1 POP JUMP JUMPDEST PUSH32 0x6368616972706572736F6E2063616E206E6F74206265206D656D626572206F66 PUSH1 0x0 DUP3 ADD MSTORE PUSH32 0x2061207061727479000000000000000000000000000000000000000000000000 PUSH1 0x20 DUP3 ADD MSTORE POP JUMP JUMPDEST PUSH1 0x0 PUSH2 0x40C6 PUSH1 0x28 DUP4 PUSH2 0x3ACF JUMP JUMPDEST SWAP2 POP PUSH2 0x40D1 DUP3 PUSH2 0x406A JUMP JUMPDEST PUSH1 0x40 DUP3 ADD SWAP1 POP SWAP2 SWAP1 POP JUMP JUMPDEST PUSH1 0x0 PUSH1 0x20 DUP3 ADD SWAP1 POP DUP2 DUP2 SUB PUSH1 0x0 DUP4 ADD MSTORE PUSH2 0x40F5 DUP2 PUSH2 0x40B9 JUMP JUMPDEST SWAP1 POP SWAP2 SWAP1 POP JUMP JUMPDEST PUSH32 0x496E76616C696420656C656374696F6E20646174657300000000000000000000 PUSH1 0x0 DUP3 ADD MSTORE POP JUMP JUMPDEST PUSH1 0x0 PUSH2 0x4132 PUSH1 0x16 DUP4 PUSH2 0x3ACF JUMP JUMPDEST SWAP2 POP PUSH2 0x413D DUP3 PUSH2 0x40FC JUMP JUMPDEST PUSH1 0x20 DUP3 ADD SWAP1 POP SWAP2 SWAP1 POP JUMP JUMPDEST PUSH1 0x0 PUSH1 0x20 DUP3 ADD SWAP1 POP DUP2 DUP2 SUB PUSH1 0x0 DUP4 ADD MSTORE PUSH2 0x4161 DUP2 PUSH2 0x4125 JUMP JUMPDEST SWAP1 POP SWAP2 SWAP1 POP JUMP JUMPDEST PUSH32 0x496E76616C696420656C656374696F6E20646174657328737461727420646174 PUSH1 0x0 DUP3 ADD MSTORE PUSH32 0x65206C6173742074686520626C6F636B2074696D652900000000000000000000 PUSH1 0x20 DUP3 ADD MSTORE POP JUMP JUMPDEST PUSH1 0x0 PUSH2 0x41C4 PUSH1 0x36 DUP4 PUSH2 0x3ACF JUMP JUMPDEST SWAP2 POP PUSH2 0x41CF DUP3 PUSH2 0x4168 JUMP JUMPDEST PUSH1 0x40 DUP3 ADD SWAP1 POP SWAP2 SWAP1 POP JUMP JUMPDEST PUSH1 0x0 PUSH1 0x20 DUP3 ADD SWAP1 POP DUP2 DUP2 SUB PUSH1 0x0 DUP4 ADD MSTORE PUSH2 0x41F3 DUP2 PUSH2 0x41B7 JUMP JUMPDEST SWAP1 POP SWAP2 SWAP1 POP JUMP JUMPDEST PUSH32 0x4F6E6C79206368616972706572736F6E20686173207468652072696768742074 PUSH1 0x0 DUP3 ADD MSTORE PUSH32 0x6F2061646420766F746572730000000000000000000000000000000000000000 PUSH1 0x20 DUP3 ADD MSTORE POP JUMP JUMPDEST PUSH1 0x0 PUSH2 0x4256 PUSH1 0x2C DUP4 PUSH2 0x3ACF JUMP JUMPDEST SWAP2 POP PUSH2 0x4261 DUP3 PUSH2 0x41FA JUMP JUMPDEST PUSH1 0x40 DUP3 ADD SWAP1 POP SWAP2 SWAP1 POP JUMP JUMPDEST PUSH1 0x0 PUSH1 0x20 DUP3 ADD SWAP1 POP DUP2 DUP2 SUB PUSH1 0x0 DUP4 ADD MSTORE PUSH2 0x4285 DUP2 PUSH2 0x4249 JUMP JUMPDEST SWAP1 POP SWAP2 SWAP1 POP JUMP JUMPDEST PUSH32 0x566F74657220616C726561647920657869747300000000000000000000000000 PUSH1 0x0 DUP3 ADD MSTORE POP JUMP JUMPDEST PUSH1 0x0 PUSH2 0x42C2 PUSH1 0x13 DUP4 PUSH2 0x3ACF JUMP JUMPDEST SWAP2 POP PUSH2 0x42CD DUP3 PUSH2 0x428C JUMP JUMPDEST PUSH1 0x20 DUP3 ADD SWAP1 POP SWAP2 SWAP1 POP JUMP JUMPDEST PUSH1 0x0 PUSH1 0x20 DUP3 ADD SWAP1 POP DUP2 DUP2 SUB PUSH1 0x0 DUP4 ADD MSTORE PUSH2 0x42F1 DUP2 PUSH2 0x42B5 JUMP JUMPDEST SWAP1 POP SWAP2 SWAP1 POP JUMP JUMPDEST PUSH1 0x0 PUSH2 0x4303 DUP3 PUSH2 0x2CCB JUMP JUMPDEST SWAP2 POP PUSH2 0x430E DUP4 PUSH2 0x2CCB JUMP JUMPDEST SWAP3 POP DUP3 DUP3 SUB SWAP1 POP DUP2 DUP2 GT ISZERO PUSH2 0x4326 JUMPI PUSH2 0x4325 PUSH2 0x3C33 JUMP JUMPDEST JUMPDEST SWAP3 SWAP2 POP POP JUMP JUMPDEST PUSH32 0x4F6E6C79206368616972706572736F6E2063616E206164642062616C6C6F7420 PUSH1 0x0 DUP3 ADD MSTORE PUSH32 0x6576656E74000000000000000000000000000000000000000000000000000000 PUSH1 0x20 DUP3 ADD MSTORE POP JUMP JUMPDEST PUSH1 0x0 PUSH2 0x4388 PUSH1 0x25 DUP4 PUSH2 0x3ACF JUMP JUMPDEST SWAP2 POP PUSH2 0x4393 DUP3 PUSH2 0x432C JUMP JUMPDEST PUSH1 0x40 DUP3 ADD SWAP1 POP SWAP2 SWAP1 POP JUMP JUMPDEST PUSH1 0x0 PUSH1 0x20 DUP3 ADD SWAP1 POP DUP2 DUP2 SUB PUSH1 0x0 DUP4 ADD MSTORE PUSH2 0x43B7 DUP2 PUSH2 0x437B JUMP JUMPDEST SWAP1 POP SWAP2 SWAP1 POP JUMP JUMPDEST PUSH32 0x416464696E67206E657720506F6F6C206E6F74207065726D6974746564000000 PUSH1 0x0 DUP3 ADD MSTORE POP JUMP JUMPDEST PUSH1 0x0 PUSH2 0x43F4 PUSH1 0x1D DUP4 PUSH2 0x3ACF JUMP JUMPDEST SWAP2 POP PUSH2 0x43FF DUP3 PUSH2 0x43BE JUMP JUMPDEST PUSH1 0x20 DUP3 ADD SWAP1 POP SWAP2 SWAP1 POP JUMP JUMPDEST PUSH1 0x0 PUSH1 0x20 DUP3 ADD SWAP1 POP DUP2 DUP2 SUB PUSH1 0x0 DUP4 ADD MSTORE PUSH2 0x4423 DUP2 PUSH2 0x43E7 JUMP JUMPDEST SWAP1 POP SWAP2 SWAP1 POP JUMP INVALID LOG2 PUSH5 0x6970667358 0x22 SLT KECCAK256 RETURN DUP14 PUSH26 0x8CBC053BE1AFE1D6442A641B9134327ABB887EB8176CD0963130 0xD6 0x24 0x4C PUSH5 0x736F6C6343 STOP ADDMOD EQ STOP CALLER "},"methodIdentifiers":{"Elections(uint256)":"1e9598e2","TotalElection()":"cc35e796","addBallotEvent(uint256,bytes32[],bool,bytes32)":"f52f1e3a","addVoterToElectionEvent(uint256,address)":"d6a00943","addVotersToElectionEvent(uint256,address[])":"f7098c9a","electionCreation(bytes32,uint256,uint256,(address,bytes32)[])":"bff8e677","electionID()":"f8e78e9a","getBallot(uint256,uint256)":"0d358757","getElection(uint256)":"9d710777","getTime()":"557ed1ba","getVoteRight(uint256)":"00ef3391","getVoteStatus(uint256)":"0519bb83","getVoterHistory(uint256)":"e8c26428","poolParties(uint256)":"37abe716","verifyVoter(uint256,address,bytes32)":"b5b314e5","vote(uint256,uint256,uint256)":"8a6655d6"}}}}}