{"contracts/Ballot.sol":{"Ballot":{"abi":[{"inputs":[{"internalType":"uint256","name":"","type":"uint256"}],"name":"Elections","outputs":[{"internalType":"uint256","name":"id","type":"uint256"},{"internalType":"address","name":"chairperson","type":"address"},{"internalType":"bytes","name":"name","type":"bytes"},{"internalType":"uint256","name":"startdate","type":"uint256"},{"internalType":"uint256","name":"enddate","type":"uint256"},{"internalType":"uint256","name":"total_parties","type":"uint256"},{"internalType":"uint256","name":"total_voters","type":"uint256"},{"internalType":"uint256","name":"total_ballots","type":"uint256"},{"internalType":"bytes","name":"img_url","type":"bytes"}],"stateMutability":"view","type":"function"},{"inputs":[{"internalType":"uint256","name":"election_id","type":"uint256"},{"components":[{"internalType":"bytes32","name":"name","type":"bytes32"},{"internalType":"bytes","name":"img_url","type":"bytes"}],"internalType":"struct Ballot.InputCandidate[]","name":"_candidates","type":"tuple[]"},{"internalType":"bool","name":"_general","type":"bool"},{"internalType":"bytes32","name":"_name","type":"bytes32"}],"name":"addBallotEvent","outputs":[],"stateMutability":"nonpayable","type":"function"},{"inputs":[{"internalType":"uint256","name":"_electionID","type":"uint256"},{"internalType":"address","name":"_voter","type":"address"}],"name":"addVoterToElectionEvent","outputs":[],"stateMutability":"nonpayable","type":"function"},{"inputs":[{"internalType":"uint256","name":"_electionID","type":"uint256"},{"internalType":"address[]","name":"_voters","type":"address[]"}],"name":"addVotersToElectionEvent","outputs":[],"stateMutability":"nonpayable","type":"function"},{"inputs":[],"name":"electionID","outputs":[{"internalType":"uint256","name":"","type":"uint256"}],"stateMutability":"view","type":"function"},{"inputs":[{"internalType":"uint256","name":"election_id","type":"uint256"},{"internalType":"uint256","name":"ballot_id","type":"uint256"}],"name":"getBallot","outputs":[{"internalType":"uint256","name":"id","type":"uint256"},{"internalType":"bytes32","name":"name","type":"bytes32"},{"components":[{"internalType":"bytes32","name":"name","type":"bytes32"},{"internalType":"bytes","name":"img_url","type":"bytes"},{"internalType":"uint256","name":"voteCount","type":"uint256"}],"internalType":"struct Ballot.Candidate[]","name":"candidates","type":"tuple[]"},{"internalType":"uint256","name":"totalVotes","type":"uint256"},{"internalType":"uint256","name":"candidateCount","type":"uint256"},{"internalType":"uint256","name":"event_id","type":"uint256"}],"stateMutability":"view","type":"function"},{"inputs":[{"internalType":"uint256","name":"election_id","type":"uint256"}],"name":"getElection","outputs":[{"internalType":"uint256","name":"id","type":"uint256"},{"internalType":"address","name":"chairperson","type":"address"},{"internalType":"bytes","name":"name","type":"bytes"},{"internalType":"uint256","name":"startdate","type":"uint256"},{"internalType":"uint256","name":"enddate","type":"uint256"},{"internalType":"bytes32[]","name":"partyNames","type":"bytes32[]"},{"internalType":"address[]","name":"partyAccount","type":"address[]"},{"internalType":"bytes[]","name":"partyimg_urls","type":"bytes[]"},{"internalType":"uint256","name":"total_parties","type":"uint256"},{"internalType":"uint256","name":"total_ballots","type":"uint256"},{"internalType":"uint256","name":"total_voters","type":"uint256"}],"stateMutability":"view","type":"function"},{"inputs":[],"name":"getTime","outputs":[{"internalType":"uint256","name":"time","type":"uint256"}],"stateMutability":"view","type":"function"},{"inputs":[{"internalType":"uint256","name":"election_id","type":"uint256"}],"name":"getVoteRight","outputs":[{"internalType":"bool","name":"rightToVote","type":"bool"}],"stateMutability":"view","type":"function"},{"inputs":[{"internalType":"uint256","name":"election_id","type":"uint256"}],"name":"getVoteStatus","outputs":[{"internalType":"address","name":"account","type":"address"},{"internalType":"uint256","name":"weight","type":"uint256"},{"internalType":"uint256","name":"totalVoteEvents","type":"uint256"},{"components":[{"internalType":"address","name":"account","type":"address"},{"internalType":"bytes32","name":"name","type":"bytes32"},{"internalType":"bytes","name":"img_url","type":"bytes"}],"internalType":"struct Ballot.Party[]","name":"party_verified","type":"tuple[]"},{"internalType":"bool","name":"rightToVote","type":"bool"}],"stateMutability":"view","type":"function"},{"inputs":[{"internalType":"uint256","name":"election_id","type":"uint256"}],"name":"getVoterHistory","outputs":[{"components":[{"internalType":"bool","name":"voted","type":"bool"},{"internalType":"address","name":"delegate","type":"address"},{"internalType":"uint256","name":"vote","type":"uint256"},{"internalType":"bytes32","name":"candidateName","type":"bytes32"},{"internalType":"uint256","name":"pool_id","type":"uint256"},{"internalType":"bytes32","name":"pool_title","type":"bytes32"}],"internalType":"struct Ballot.voterHistory[]","name":"","type":"tuple[]"}],"stateMutability":"view","type":"function"},{"inputs":[{"internalType":"bytes","name":"name","type":"bytes"},{"internalType":"uint256","name":"startdate","type":"uint256"},{"internalType":"uint256","name":"enddate","type":"uint256"},{"components":[{"internalType":"address","name":"account","type":"address"},{"internalType":"bytes32","name":"name","type":"bytes32"},{"internalType":"bytes","name":"img_url","type":"bytes"}],"internalType":"struct Ballot.Party[]","name":"_parties","type":"tuple[]"},{"internalType":"bytes","name":"_img_url","type":"bytes"}],"name":"newElectionEvent","outputs":[],"stateMutability":"nonpayable","type":"function"},{"inputs":[{"internalType":"uint256","name":"","type":"uint256"}],"name":"poolParties","outputs":[{"internalType":"address","name":"","type":"address"}],"stateMutability":"view","type":"function"},{"inputs":[],"name":"totalElectionEvents","outputs":[{"internalType":"uint256","name":"","type":"uint256"}],"stateMutability":"view","type":"function"},{"inputs":[{"internalType":"uint256","name":"election_id","type":"uint256"},{"internalType":"address","name":"voter","type":"address"},{"internalType":"bytes32","name":"name","type":"bytes32"}],"name":"verifyVoter","outputs":[],"stateMutability":"nonpayable","type":"function"},{"inputs":[{"internalType":"uint256","name":"election_id","type":"uint256"},{"internalType":"uint256","name":"ballot_id","type":"uint256"},{"internalType":"uint256","name":"choice","type":"uint256"}],"name":"vote","outputs":[],"stateMutability":"nonpayable","type":"function"}],"evm":{"bytecode":{"linkReferences":{},"object":"608060405234801561001057600080fd5b50615156806100206000396000f3fe608060405234801561001057600080fd5b50600436106100ff5760003560e01c80639d71077711610097578063e8c2642811610066578063e8c26428146102eb578063eb45e3bf1461031b578063f7098c9a14610337578063f8e78e9a14610353576100ff565b80639d7107771461025d578063b5b314e514610297578063d6a00943146102b3578063e7185b16146102cf576100ff565b806337abe716116100d357806337abe716146101d55780634f53a8a314610205578063557ed1ba146102235780638a6655d614610241576100ff565b8062ef3391146101045780630519bb83146101345780630d358757146101685780631e9598e21461019d575b600080fd5b61011e6004803603810190610119919061330e565b610371565b60405161012b9190613356565b60405180910390f35b61014e6004803603810190610149919061330e565b6104bb565b60405161015f95949392919061358b565b60405180910390f35b610182600480360381019061017d91906135e5565b610c2d565b60405161019496959493929190613755565b60405180910390f35b6101b760048036038101906101b2919061330e565b610f3c565b6040516101cc99989796959493929190613807565b60405180910390f35b6101ef60048036038101906101ea919061330e565b6110ba565b6040516101fc91906138a2565b60405180910390f35b61020d6110f9565b60405161021a91906138bd565b60405180910390f35b61022b6110ff565b60405161023891906138bd565b60405180910390f35b61025b600480360381019061025691906138d8565b611107565b005b6102776004803603810190610272919061330e565b611816565b60405161028e9b9a99989796959493929190613b4b565b60405180910390f35b6102b160048036038101906102ac9190613c6a565b611ce3565b005b6102cd60048036038101906102c89190613cbd565b612299565b005b6102e960048036038101906102e49190613fba565b6124f0565b005b6103056004803603810190610300919061330e565b612705565b6040516103129190614176565b60405180910390f35b610335600480360381019061033091906142f9565b612a99565b005b610351600480360381019061034c919061448b565b612eb2565b005b61035b613153565b60405161036891906138bd565b60405180910390f35b6000806003600084815260200190815260200160002090503373ffffffffffffffffffffffffffffffffffffffff168160070160003373ffffffffffffffffffffffffffffffffffffffff1673ffffffffffffffffffffffffffffffffffffffff16815260200190815260200160002060030160009054906101000a900473ffffffffffffffffffffffffffffffffffffffff1673ffffffffffffffffffffffffffffffffffffffff161461045b576040517f08c379a000000000000000000000000000000000000000000000000000000000815260040161045290614590565b60405180910390fd5b60008160070160003373ffffffffffffffffffffffffffffffffffffffff1673ffffffffffffffffffffffffffffffffffffffff16815260200190815260200160002060060160009054906101000a900460ff1690508092505050919050565b600080600060606000600154861115610509576040517f08c379a0000000000000000000000000000000000000000000000000000000008152600401610500906145fc565b60405180910390fd5b6000860361054c576040517f08c379a0000000000000000000000000000000000000000000000000000000008152600401610543906145fc565b60405180910390fd5b60006003600088815260200190815260200160002090503373ffffffffffffffffffffffffffffffffffffffff168160070160003373ffffffffffffffffffffffffffffffffffffffff1673ffffffffffffffffffffffffffffffffffffffff16815260200190815260200160002060030160009054906101000a900473ffffffffffffffffffffffffffffffffffffffff1673ffffffffffffffffffffffffffffffffffffffff1614610635576040517f08c379a000000000000000000000000000000000000000000000000000000000815260040161062c90614590565b60405180910390fd5b60008160070160003373ffffffffffffffffffffffffffffffffffffffff1673ffffffffffffffffffffffffffffffffffffffff16815260200190815260200160002060030160009054906101000a900473ffffffffffffffffffffffffffffffffffffffff16905060008260070160003373ffffffffffffffffffffffffffffffffffffffff1673ffffffffffffffffffffffffffffffffffffffff16815260200190815260200160002060040154905060008360070160003373ffffffffffffffffffffffffffffffffffffffff1673ffffffffffffffffffffffffffffffffffffffff16815260200190815260200160002060050154905060008460070160003373ffffffffffffffffffffffffffffffffffffffff1673ffffffffffffffffffffffffffffffffffffffff16815260200190815260200160002060060160009054906101000a900460ff16905060008560070160003373ffffffffffffffffffffffffffffffffffffffff1673ffffffffffffffffffffffffffffffffffffffff1681526020019081526020016000206002015467ffffffffffffffff8111156107e6576107e5613d02565b5b60405190808252806020026020018201604052801561081f57816020015b61080c613212565b8152602001906001900390816108045790505b5090506000808760070160003373ffffffffffffffffffffffffffffffffffffffff1673ffffffffffffffffffffffffffffffffffffffff168152602001908152602001600020600201541115610c0e5760005b8760060154811015610c0c5787600501600089600901838154811061089b5761089a61461c565b5b9060005260206000200160009054906101000a900473ffffffffffffffffffffffffffffffffffffffff1673ffffffffffffffffffffffffffffffffffffffff1673ffffffffffffffffffffffffffffffffffffffff168152602001908152602001600020600101548860070160003373ffffffffffffffffffffffffffffffffffffffff1673ffffffffffffffffffffffffffffffffffffffff16815260200190815260200160002060000160008a60090184815481106109605761095f61461c565b5b9060005260206000200160009054906101000a900473ffffffffffffffffffffffffffffffffffffffff1673ffffffffffffffffffffffffffffffffffffffff1673ffffffffffffffffffffffffffffffffffffffff1681526020019081526020016000205403610bf95760405180606001604052808960090183815481106109ec576109eb61461c565b5b9060005260206000200160009054906101000a900473ffffffffffffffffffffffffffffffffffffffff1673ffffffffffffffffffffffffffffffffffffffff1681526020018960050160008b6009018581548110610a4e57610a4d61461c565b5b9060005260206000200160009054906101000a900473ffffffffffffffffffffffffffffffffffffffff1673ffffffffffffffffffffffffffffffffffffffff1673ffffffffffffffffffffffffffffffffffffffff1681526020019081526020016000206001015481526020018960050160008b6009018581548110610ad857610ad761461c565b5b9060005260206000200160009054906101000a900473ffffffffffffffffffffffffffffffffffffffff1673ffffffffffffffffffffffffffffffffffffffff1673ffffffffffffffffffffffffffffffffffffffff1681526020019081526020016000206002018054610b4b9061467a565b80601f0160208091040260200160405190810160405280929190818152602001828054610b779061467a565b8015610bc45780601f10610b9957610100808354040283529160200191610bc4565b820191906000526020600020905b815481529060010190602001808311610ba757829003601f168201915b5050505050815250838381518110610bdf57610bde61461c565b5b60200260200101819052508180610bf5906146da565b9250505b8080610c04906146da565b915050610873565b505b85858584869b509b509b509b509b505050505050505091939590929450565b60008060606000806000600154881115610c7c576040517f08c379a0000000000000000000000000000000000000000000000000000000008152600401610c73906145fc565b60405180910390fd5b60008803610cbf576040517f08c379a0000000000000000000000000000000000000000000000000000000008152600401610cb6906145fc565b60405180910390fd5b60036000898152602001908152602001600020600b0154871115610d18576040517f08c379a0000000000000000000000000000000000000000000000000000000008152600401610d0f9061476e565b60405180910390fd5b60008703610d5b576040517f08c379a0000000000000000000000000000000000000000000000000000000008152600401610d529061476e565b60405180910390fd5b6000600360008a8152602001908152602001600020600a01600089815260200190815260200160002090506000816002015467ffffffffffffffff811115610da657610da5613d02565b5b604051908082528060200260200182016040528015610ddf57816020015b610dcc61324c565b815260200190600190039081610dc45790505b50905060005b8260020154811015610f0d5760405180606001604052808460010160008481526020019081526020016000206000015481526020018460010160008481526020019081526020016000206001018054610e3d9061467a565b80601f0160208091040260200160405190810160405280929190818152602001828054610e699061467a565b8015610eb65780601f10610e8b57610100808354040283529160200191610eb6565b820191906000526020600020905b815481529060010190602001808311610e9957829003601f168201915b5050505050815260200184600101600084815260200190815260200160002060020154815250828281518110610eef57610eee61461c565b5b60200260200101819052508080610f05906146da565b915050610de5565b508160000154826004015482846005015485600201548e97509750975097509750975050509295509295509295565b60036020528060005260406000206000915090508060000154908060010160009054906101000a900473ffffffffffffffffffffffffffffffffffffffff1690806002018054610f8b9061467a565b80601f0160208091040260200160405190810160405280929190818152602001828054610fb79061467a565b80156110045780601f10610fd957610100808354040283529160200191611004565b820191906000526020600020905b815481529060010190602001808311610fe757829003601f168201915b50505050509080600301549080600401549080600601549080600801549080600b01549080600c0180546110379061467a565b80601f01602080910402602001604051908101604052809291908181526020018280546110639061467a565b80156110b05780601f10611085576101008083540402835291602001916110b0565b820191906000526020600020905b81548152906001019060200180831161109357829003601f168201915b5050505050905089565b600081815481106110ca57600080fd5b906000526020600020016000915054906101000a900473ffffffffffffffffffffffffffffffffffffffff1681565b60025481565b600042905090565b60015483111561114c576040517f08c379a0000000000000000000000000000000000000000000000000000000008152600401611143906145fc565b60405180910390fd5b6000830361118f576040517f08c379a0000000000000000000000000000000000000000000000000000000008152600401611186906145fc565b60405180910390fd5b6001548311156111d4576040517f08c379a00000000000000000000000000000000000000000000000000000000081526004016111cb906145fc565b60405180910390fd5b60008303611217576040517f08c379a000000000000000000000000000000000000000000000000000000000815260040161120e906145fc565b60405180910390fd5b60036000848152602001908152602001600020600b0154821115611270576040517f08c379a00000000000000000000000000000000000000000000000000000000081526004016112679061476e565b60405180910390fd5b600082036112b3576040517f08c379a00000000000000000000000000000000000000000000000000000000081526004016112aa9061476e565b60405180910390fd5b60006003600085815260200190815260200160002090503373ffffffffffffffffffffffffffffffffffffffff168160070160003373ffffffffffffffffffffffffffffffffffffffff1673ffffffffffffffffffffffffffffffffffffffff16815260200190815260200160002060030160009054906101000a900473ffffffffffffffffffffffffffffffffffffffff1673ffffffffffffffffffffffffffffffffffffffff161461139c576040517f08c379a000000000000000000000000000000000000000000000000000000000815260040161139390614590565b60405180910390fd5b6003600085815260200190815260200160002060070160003373ffffffffffffffffffffffffffffffffffffffff1673ffffffffffffffffffffffffffffffffffffffff16815260200190815260200160002060060160009054906101000a900460ff1661143f576040517f08c379a000000000000000000000000000000000000000000000000000000000815260040161143690614800565b60405180910390fd5b600115158160070160003373ffffffffffffffffffffffffffffffffffffffff1673ffffffffffffffffffffffffffffffffffffffff168152602001908152602001600020600101600085815260200190815260200160002060000160009054906101000a900460ff161515036114eb576040517f08c379a00000000000000000000000000000000000000000000000000000000081526004016114e29061486c565b60405180910390fd5b600060036000868152602001908152602001600020600a01600085815260200190815260200160002090508160070160003373ffffffffffffffffffffffffffffffffffffffff1673ffffffffffffffffffffffffffffffffffffffff168152602001908152602001600020600401548160010160008581526020019081526020016000206002015461157e919061488c565b8160010160008581526020019081526020016000206002018190555060018260070160003373ffffffffffffffffffffffffffffffffffffffff1673ffffffffffffffffffffffffffffffffffffffff168152602001908152602001600020600101600086815260200190815260200160002060000160006101000a81548160ff02191690831515021790555080600401548260070160003373ffffffffffffffffffffffffffffffffffffffff1673ffffffffffffffffffffffffffffffffffffffff168152602001908152602001600020600101600086815260200190815260200160002060040181905550828260070160003373ffffffffffffffffffffffffffffffffffffffff1673ffffffffffffffffffffffffffffffffffffffff168152602001908152602001600020600101600086815260200190815260200160002060010181905550806001016000848152602001908152602001600020600001548260070160003373ffffffffffffffffffffffffffffffffffffffff1673ffffffffffffffffffffffffffffffffffffffff168152602001908152602001600020600101600086815260200190815260200160002060020181905550838260070160003373ffffffffffffffffffffffffffffffffffffffff1673ffffffffffffffffffffffffffffffffffffffff1681526020019081526020016000206001016000868152602001908152602001600020600301819055508160070160003373ffffffffffffffffffffffffffffffffffffffff1673ffffffffffffffffffffffffffffffffffffffff16815260200190815260200160002060050160008154809291906117f0906146da565b919050555080600501600081548092919061180a906146da565b91905055505050505050565b6000806060600080606080606060008060006001548c111561186d576040517f08c379a0000000000000000000000000000000000000000000000000000000008152600401611864906145fc565b60405180910390fd5b60008c036118b0576040517f08c379a00000000000000000000000000000000000000000000000000000000081526004016118a7906145fc565b60405180910390fd5b6000600360008e81526020019081526020016000209050806006015467ffffffffffffffff8111156118e5576118e4613d02565b5b6040519080825280602002602001820160405280156119135781602001602082028036833780820191505090505b509650806006015467ffffffffffffffff81111561193457611933613d02565b5b60405190808252806020026020018201604052801561196757816020015b60608152602001906001900390816119525790505b50945060005b8160060154811015611b5b578160050160008360090183815481106119955761199461461c565b5b9060005260206000200160009054906101000a900473ffffffffffffffffffffffffffffffffffffffff1673ffffffffffffffffffffffffffffffffffffffff1673ffffffffffffffffffffffffffffffffffffffff16815260200190815260200160002060010154888281518110611a1157611a1061461c565b5b602002602001018181525050816005016000836009018381548110611a3957611a3861461c565b5b9060005260206000200160009054906101000a900473ffffffffffffffffffffffffffffffffffffffff1673ffffffffffffffffffffffffffffffffffffffff1673ffffffffffffffffffffffffffffffffffffffff1681526020019081526020016000206002018054611aac9061467a565b80601f0160208091040260200160405190810160405280929190818152602001828054611ad89061467a565b8015611b255780601f10611afa57610100808354040283529160200191611b25565b820191906000526020600020905b815481529060010190602001808311611b0857829003601f168201915b5050505050868281518110611b3d57611b3c61461c565b5b60200260200101819052508080611b53906146da565b91505061196d565b5080600001548160010160009054906101000a900473ffffffffffffffffffffffffffffffffffffffff1682600201836003015484600401548b866009018b886006015489600b01548a60080154888054611bb59061467a565b80601f0160208091040260200160405190810160405280929190818152602001828054611be19061467a565b8015611c2e5780601f10611c0357610100808354040283529160200191611c2e565b820191906000526020600020905b815481529060010190602001808311611c1157829003601f168201915b5050505050985084805480602002602001604051908101604052809291908181526020018280548015611cb657602002820191906000526020600020905b8160009054906101000a900473ffffffffffffffffffffffffffffffffffffffff1673ffffffffffffffffffffffffffffffffffffffff1681526020019060010190808311611c6c575b505050505094509b509b509b509b509b509b509b509b509b509b509b505091939597999b90929496989a50565b81838260008203611d29576040517f08c379a0000000000000000000000000000000000000000000000000000000008152600401611d20906145fc565b60405180910390fd5b600154821115611d6e576040517f08c379a0000000000000000000000000000000000000000000000000000000008152600401611d659061490c565b60405180910390fd5b60008373ffffffffffffffffffffffffffffffffffffffff166003600085815260200190815260200160002060070160008673ffffffffffffffffffffffffffffffffffffffff1673ffffffffffffffffffffffffffffffffffffffff16815260200190815260200160002060030160009054906101000a900473ffffffffffffffffffffffffffffffffffffffff1673ffffffffffffffffffffffffffffffffffffffff1614611e54576040517f08c379a0000000000000000000000000000000000000000000000000000000008152600401611e4b9061499e565b60405180910390fd5b60005b6003600085815260200190815260200160002060060154811015611eea57826003600086815260200190815260200160002060050160003373ffffffffffffffffffffffffffffffffffffffff1673ffffffffffffffffffffffffffffffffffffffff1681526020019081526020016000206001015403611ed757600191505b8080611ee2906146da565b915050611e57565b5080611f2b576040517f08c379a0000000000000000000000000000000000000000000000000000000008152600401611f2290614a30565b60405180910390fd5b600080600090505b600360008681526020019081526020016000206006015481101561200357836003600087815260200190815260200160002060070160008873ffffffffffffffffffffffffffffffffffffffff1673ffffffffffffffffffffffffffffffffffffffff16815260200190815260200160002060000160003373ffffffffffffffffffffffffffffffffffffffff1673ffffffffffffffffffffffffffffffffffffffff1681526020019081526020016000205403611ff057600191505b8080611ffb906146da565b915050611f33565b508015612045576040517f08c379a000000000000000000000000000000000000000000000000000000000815260040161203c90614ac2565b60405180910390fd5b85600360008a815260200190815260200160002060070160008973ffffffffffffffffffffffffffffffffffffffff1673ffffffffffffffffffffffffffffffffffffffff16815260200190815260200160002060000160003373ffffffffffffffffffffffffffffffffffffffff1673ffffffffffffffffffffffffffffffffffffffff168152602001908152602001600020819055506003600089815260200190815260200160002060070160008873ffffffffffffffffffffffffffffffffffffffff1673ffffffffffffffffffffffffffffffffffffffff1681526020019081526020016000206002016000815480929190612144906146da565b91905055506000600360008a815260200190815260200160002060060154600360008b815260200190815260200160002060070160008a73ffffffffffffffffffffffffffffffffffffffff1673ffffffffffffffffffffffffffffffffffffffff16815260200190815260200160002060020154149050801561228e576001600360008b815260200190815260200160002060070160008a73ffffffffffffffffffffffffffffffffffffffff1673ffffffffffffffffffffffffffffffffffffffff168152602001908152602001600020600401819055506001600360008b815260200190815260200160002060070160008a73ffffffffffffffffffffffffffffffffffffffff1673ffffffffffffffffffffffffffffffffffffffff16815260200190815260200160002060060160006101000a81548160ff0219169083151502179055505b505050505050505050565b81816003600083815260200190815260200160002060010160009054906101000a900473ffffffffffffffffffffffffffffffffffffffff1673ffffffffffffffffffffffffffffffffffffffff163373ffffffffffffffffffffffffffffffffffffffff161461233f576040517f08c379a000000000000000000000000000000000000000000000000000000000815260040161233690614b54565b60405180910390fd5b8073ffffffffffffffffffffffffffffffffffffffff166003600084815260200190815260200160002060070160008373ffffffffffffffffffffffffffffffffffffffff1673ffffffffffffffffffffffffffffffffffffffff16815260200190815260200160002060030160009054906101000a900473ffffffffffffffffffffffffffffffffffffffff1673ffffffffffffffffffffffffffffffffffffffff1603612423576040517f08c379a000000000000000000000000000000000000000000000000000000000815260040161241a90614bc0565b60405180910390fd5b60006003600086815260200190815260200160002060070160008573ffffffffffffffffffffffffffffffffffffffff1673ffffffffffffffffffffffffffffffffffffffff1681526020019081526020016000209050838160030160006101000a81548173ffffffffffffffffffffffffffffffffffffffff021916908373ffffffffffffffffffffffffffffffffffffffff1602179055506003600086815260200190815260200160002060080160008154809291906124e4906146da565b91905055505050505050565b600154841115612535576040517f08c379a000000000000000000000000000000000000000000000000000000000815260040161252c906145fc565b60405180910390fd5b3373ffffffffffffffffffffffffffffffffffffffff166003600086815260200190815260200160002060010160009054906101000a900473ffffffffffffffffffffffffffffffffffffffff1673ffffffffffffffffffffffffffffffffffffffff16146125d9576040517f08c379a00000000000000000000000000000000000000000000000000000000081526004016125d090614c52565b60405180910390fd5b60036000858152602001908152602001600020600301544210612631576040517f08c379a000000000000000000000000000000000000000000000000000000000815260040161262890614cbe565b60405180910390fd5b60036000858152602001908152602001600020600b016000815480929190612658906146da565b9190505550600060036000868152602001908152602001600020600b01549050600060036000878152602001908152602001600020600a01600083815260200190815260200160002090508581600601819055506126b881838686613159565b60005b85518110156126fc576126e982828884815181106126dc576126db61461c565b5b602002602001015161318d565b80806126f4906146da565b9150506126bb565b50505050505050565b606060015482111561274c576040517f08c379a0000000000000000000000000000000000000000000000000000000008152600401612743906145fc565b60405180910390fd5b6000820361278f576040517f08c379a0000000000000000000000000000000000000000000000000000000008152600401612786906145fc565b60405180910390fd5b3373ffffffffffffffffffffffffffffffffffffffff166003600084815260200190815260200160002060070160003373ffffffffffffffffffffffffffffffffffffffff1673ffffffffffffffffffffffffffffffffffffffff16815260200190815260200160002060030160009054906101000a900473ffffffffffffffffffffffffffffffffffffffff1673ffffffffffffffffffffffffffffffffffffffff1614612873576040517f08c379a000000000000000000000000000000000000000000000000000000000815260040161286a90614590565b60405180910390fd5b6000600360008481526020019081526020016000209050600081600b015467ffffffffffffffff8111156128aa576128a9613d02565b5b6040519080825280602002602001820160405280156128e357816020015b6128d0613270565b8152602001906001900390816128c85790505b5090506000600190505b82600b01548111612a8e57808360070160003373ffffffffffffffffffffffffffffffffffffffff1673ffffffffffffffffffffffffffffffffffffffff16815260200190815260200160002060010160008381526020019081526020016000206003015403612a7b578260070160003373ffffffffffffffffffffffffffffffffffffffff1673ffffffffffffffffffffffffffffffffffffffff16815260200190815260200160002060010160008281526020019081526020016000206040518060c00160405290816000820160009054906101000a900460ff161515151581526020016000820160019054906101000a900473ffffffffffffffffffffffffffffffffffffffff1673ffffffffffffffffffffffffffffffffffffffff1673ffffffffffffffffffffffffffffffffffffffff16815260200160018201548152602001600282015481526020016003820154815260200160048201548152505082600183612a5e9190614cde565b81518110612a6f57612a6e61461c565b5b60200260200101819052505b8080612a86906146da565b9150506128ed565b508092505050919050565b81600080600090505b8251811015612b5557828181518110612abe57612abd61461c565b5b60200260200101516000015173ffffffffffffffffffffffffffffffffffffffff163373ffffffffffffffffffffffffffffffffffffffff1603612b0157600191505b8115612b42576040517f08c379a0000000000000000000000000000000000000000000000000000000008152600401612b3990614d84565b60405180910390fd5b8080612b4d906146da565b915050612aa2565b50848610612b98576040517f08c379a0000000000000000000000000000000000000000000000000000000008152600401612b8f90614df0565b60405180910390fd5b428611612bda576040517f08c379a0000000000000000000000000000000000000000000000000000000008152600401612bd190614e82565b60405180910390fd5b60016000815480929190612bed906146da565b9190505550600060036000600154815260200190815260200160002090506001548160000181905550338160010160006101000a81548173ffffffffffffffffffffffffffffffffffffffff021916908373ffffffffffffffffffffffffffffffffffffffff16021790555087816002019081612c6a919061504e565b50868160030181905550858160040181905550845181600601819055508381600c019081612c98919061504e565b5060005b8551811015612e8f576040518060600160405280878381518110612cc357612cc261461c565b5b60200260200101516000015173ffffffffffffffffffffffffffffffffffffffff168152602001878381518110612cfd57612cfc61461c565b5b6020026020010151602001518152602001878381518110612d2157612d2061461c565b5b602002602001015160400151815250826005016000888481518110612d4957612d4861461c565b5b60200260200101516000015173ffffffffffffffffffffffffffffffffffffffff1673ffffffffffffffffffffffffffffffffffffffff16815260200190815260200160002060008201518160000160006101000a81548173ffffffffffffffffffffffffffffffffffffffff021916908373ffffffffffffffffffffffffffffffffffffffff160217905550602082015181600101556040820151816002019081612df5919061504e565b5090505081600901868281518110612e1057612e0f61461c565b5b6020026020010151600001519080600181540180825580915050600190039060005260206000200160009091909190916101000a81548173ffffffffffffffffffffffffffffffffffffffff021916908373ffffffffffffffffffffffffffffffffffffffff1602179055508080612e87906146da565b915050612c9c565b5060026000815480929190612ea3906146da565b91905055505050505050505050565b6003600083815260200190815260200160002060010160009054906101000a900473ffffffffffffffffffffffffffffffffffffffff1673ffffffffffffffffffffffffffffffffffffffff163373ffffffffffffffffffffffffffffffffffffffff1614612f56576040517f08c379a0000000000000000000000000000000000000000000000000000000008152600401612f4d90614b54565b60405180910390fd5b60005b815181101561314e57818181518110612f7557612f7461461c565b5b602002602001015173ffffffffffffffffffffffffffffffffffffffff16600360008581526020019081526020016000206007016000848481518110612fbe57612fbd61461c565b5b602002602001015173ffffffffffffffffffffffffffffffffffffffff1673ffffffffffffffffffffffffffffffffffffffff16815260200190815260200160002060030160009054906101000a900473ffffffffffffffffffffffffffffffffffffffff1673ffffffffffffffffffffffffffffffffffffffff161461313b57600060036000858152602001908152602001600020600701600084848151811061306c5761306b61461c565b5b602002602001015173ffffffffffffffffffffffffffffffffffffffff1673ffffffffffffffffffffffffffffffffffffffff16815260200190815260200160002090508282815181106130c3576130c261461c565b5b60200260200101518160030160006101000a81548173ffffffffffffffffffffffffffffffffffffffff021916908373ffffffffffffffffffffffffffffffffffffffff160217905550600360008581526020019081526020016000206008016000815480929190613134906146da565b9190505550505b8080613146906146da565b915050612f59565b505050565b60015481565b828460000181905550818460030160006101000a81548160ff02191690831515021790555080846004018190555050505050565b6040518060600160405280826000015181526020018260200151815260200160008152508360010160008481526020019081526020016000206000820151816000015560208201518160010190816131e5919061504e565b5060408201518160020155905050826002016000815480929190613208906146da565b9190505550505050565b6040518060600160405280600073ffffffffffffffffffffffffffffffffffffffff16815260200160008019168152602001606081525090565b60405180606001604052806000801916815260200160608152602001600081525090565b6040518060c00160405280600015158152602001600073ffffffffffffffffffffffffffffffffffffffff168152602001600081526020016000801916815260200160008152602001600080191681525090565b6000604051905090565b600080fd5b600080fd5b6000819050919050565b6132eb816132d8565b81146132f657600080fd5b50565b600081359050613308816132e2565b92915050565b600060208284031215613324576133236132ce565b5b6000613332848285016132f9565b91505092915050565b60008115159050919050565b6133508161333b565b82525050565b600060208201905061336b6000830184613347565b92915050565b600073ffffffffffffffffffffffffffffffffffffffff82169050919050565b600061339c82613371565b9050919050565b6133ac81613391565b82525050565b6133bb816132d8565b82525050565b600081519050919050565b600082825260208201905092915050565b6000819050602082019050919050565b6133f681613391565b82525050565b6000819050919050565b61340f816133fc565b82525050565b600081519050919050565b600082825260208201905092915050565b60005b8381101561344f578082015181840152602081019050613434565b60008484015250505050565b6000601f19601f8301169050919050565b600061347782613415565b6134818185613420565b9350613491818560208601613431565b61349a8161345b565b840191505092915050565b60006060830160008301516134bd60008601826133ed565b5060208301516134d06020860182613406565b50604083015184820360408601526134e8828261346c565b9150508091505092915050565b600061350183836134a5565b905092915050565b6000602082019050919050565b6000613521826133c1565b61352b81856133cc565b93508360208202850161353d856133dd565b8060005b85811015613579578484038952815161355a85826134f5565b945061356583613509565b925060208a01995050600181019050613541565b50829750879550505050505092915050565b600060a0820190506135a060008301886133a3565b6135ad60208301876133b2565b6135ba60408301866133b2565b81810360608301526135cc8185613516565b90506135db6080830184613347565b9695505050505050565b600080604083850312156135fc576135fb6132ce565b5b600061360a858286016132f9565b925050602061361b858286016132f9565b9150509250929050565b61362e816133fc565b82525050565b600081519050919050565b600082825260208201905092915050565b6000819050602082019050919050565b613669816132d8565b82525050565b60006060830160008301516136876000860182613406565b506020830151848203602086015261369f828261346c565b91505060408301516136b46040860182613660565b508091505092915050565b60006136cb838361366f565b905092915050565b6000602082019050919050565b60006136eb82613634565b6136f5818561363f565b93508360208202850161370785613650565b8060005b85811015613743578484038952815161372485826136bf565b945061372f836136d3565b925060208a0199505060018101905061370b565b50829750879550505050505092915050565b600060c08201905061376a60008301896133b2565b6137776020830188613625565b818103604083015261378981876136e0565b905061379860608301866133b2565b6137a560808301856133b2565b6137b260a08301846133b2565b979650505050505050565b600082825260208201905092915050565b60006137d982613415565b6137e381856137bd565b93506137f3818560208601613431565b6137fc8161345b565b840191505092915050565b60006101208201905061381d600083018c6133b2565b61382a602083018b6133a3565b818103604083015261383c818a6137ce565b905061384b60608301896133b2565b61385860808301886133b2565b61386560a08301876133b2565b61387260c08301866133b2565b61387f60e08301856133b2565b81810361010083015261389281846137ce565b90509a9950505050505050505050565b60006020820190506138b760008301846133a3565b92915050565b60006020820190506138d260008301846133b2565b92915050565b6000806000606084860312156138f1576138f06132ce565b5b60006138ff868287016132f9565b9350506020613910868287016132f9565b9250506040613921868287016132f9565b9150509250925092565b600081519050919050565b600082825260208201905092915050565b6000819050602082019050919050565b60006139638383613406565b60208301905092915050565b6000602082019050919050565b60006139878261392b565b6139918185613936565b935061399c83613947565b8060005b838110156139cd5781516139b48882613957565b97506139bf8361396f565b9250506001810190506139a0565b5085935050505092915050565b600081519050919050565b600082825260208201905092915050565b6000819050602082019050919050565b6000613a1283836133ed565b60208301905092915050565b6000602082019050919050565b6000613a36826139da565b613a4081856139e5565b9350613a4b836139f6565b8060005b83811015613a7c578151613a638882613a06565b9750613a6e83613a1e565b925050600181019050613a4f565b5085935050505092915050565b600081519050919050565b600082825260208201905092915050565b6000819050602082019050919050565b6000613ac1838361346c565b905092915050565b6000602082019050919050565b6000613ae182613a89565b613aeb8185613a94565b935083602082028501613afd85613aa5565b8060005b85811015613b395784840389528151613b1a8582613ab5565b9450613b2583613ac9565b925060208a01995050600181019050613b01565b50829750879550505050505092915050565b600061016082019050613b61600083018e6133b2565b613b6e602083018d6133a3565b8181036040830152613b80818c6137ce565b9050613b8f606083018b6133b2565b613b9c608083018a6133b2565b81810360a0830152613bae818961397c565b905081810360c0830152613bc28188613a2b565b905081810360e0830152613bd68187613ad6565b9050613be66101008301866133b2565b613bf46101208301856133b2565b613c026101408301846133b2565b9c9b505050505050505050505050565b613c1b81613391565b8114613c2657600080fd5b50565b600081359050613c3881613c12565b92915050565b613c47816133fc565b8114613c5257600080fd5b50565b600081359050613c6481613c3e565b92915050565b600080600060608486031215613c8357613c826132ce565b5b6000613c91868287016132f9565b9350506020613ca286828701613c29565b9250506040613cb386828701613c55565b9150509250925092565b60008060408385031215613cd457613cd36132ce565b5b6000613ce2858286016132f9565b9250506020613cf385828601613c29565b9150509250929050565b600080fd5b7f4e487b7100000000000000000000000000000000000000000000000000000000600052604160045260246000fd5b613d3a8261345b565b810181811067ffffffffffffffff82111715613d5957613d58613d02565b5b80604052505050565b6000613d6c6132c4565b9050613d788282613d31565b919050565b600067ffffffffffffffff821115613d9857613d97613d02565b5b602082029050602081019050919050565b600080fd5b600080fd5b600080fd5b600080fd5b600067ffffffffffffffff821115613dd857613dd7613d02565b5b613de18261345b565b9050602081019050919050565b82818337600083830152505050565b6000613e10613e0b84613dbd565b613d62565b905082815260208101848484011115613e2c57613e2b613db8565b5b613e37848285613dee565b509392505050565b600082601f830112613e5457613e53613cfd565b5b8135613e64848260208601613dfd565b91505092915050565b600060408284031215613e8357613e82613dae565b5b613e8d6040613d62565b90506000613e9d84828501613c55565b600083015250602082013567ffffffffffffffff811115613ec157613ec0613db3565b5b613ecd84828501613e3f565b60208301525092915050565b6000613eec613ee784613d7d565b613d62565b90508083825260208201905060208402830185811115613f0f57613f0e613da9565b5b835b81811015613f5657803567ffffffffffffffff811115613f3457613f33613cfd565b5b808601613f418982613e6d565b85526020850194505050602081019050613f11565b5050509392505050565b600082601f830112613f7557613f74613cfd565b5b8135613f85848260208601613ed9565b91505092915050565b613f978161333b565b8114613fa257600080fd5b50565b600081359050613fb481613f8e565b92915050565b60008060008060808587031215613fd457613fd36132ce565b5b6000613fe2878288016132f9565b945050602085013567ffffffffffffffff811115614003576140026132d3565b5b61400f87828801613f60565b935050604061402087828801613fa5565b925050606061403187828801613c55565b91505092959194509250565b600081519050919050565b600082825260208201905092915050565b6000819050602082019050919050565b6140728161333b565b82525050565b60c08201600082015161408e6000850182614069565b5060208201516140a160208501826133ed565b5060408201516140b46040850182613660565b5060608201516140c76060850182613406565b5060808201516140da6080850182613660565b5060a08201516140ed60a0850182613406565b50505050565b60006140ff8383614078565b60c08301905092915050565b6000602082019050919050565b60006141238261403d565b61412d8185614048565b935061413883614059565b8060005b8381101561416957815161415088826140f3565b975061415b8361410b565b92505060018101905061413c565b5085935050505092915050565b600060208201905081810360008301526141908184614118565b905092915050565b600067ffffffffffffffff8211156141b3576141b2613d02565b5b602082029050602081019050919050565b6000606082840312156141da576141d9613dae565b5b6141e46060613d62565b905060006141f484828501613c29565b600083015250602061420884828501613c55565b602083015250604082013567ffffffffffffffff81111561422c5761422b613db3565b5b61423884828501613e3f565b60408301525092915050565b600061425761425284614198565b613d62565b9050808382526020820190506020840283018581111561427a57614279613da9565b5b835b818110156142c157803567ffffffffffffffff81111561429f5761429e613cfd565b5b8086016142ac89826141c4565b8552602085019450505060208101905061427c565b5050509392505050565b600082601f8301126142e0576142df613cfd565b5b81356142f0848260208601614244565b91505092915050565b600080600080600060a08688031215614315576143146132ce565b5b600086013567ffffffffffffffff811115614333576143326132d3565b5b61433f88828901613e3f565b9550506020614350888289016132f9565b9450506040614361888289016132f9565b935050606086013567ffffffffffffffff811115614382576143816132d3565b5b61438e888289016142cb565b925050608086013567ffffffffffffffff8111156143af576143ae6132d3565b5b6143bb88828901613e3f565b9150509295509295909350565b600067ffffffffffffffff8211156143e3576143e2613d02565b5b602082029050602081019050919050565b6000614407614402846143c8565b613d62565b9050808382526020820190506020840283018581111561442a57614429613da9565b5b835b81811015614453578061443f8882613c29565b84526020840193505060208101905061442c565b5050509392505050565b600082601f83011261447257614471613cfd565b5b81356144828482602086016143f4565b91505092915050565b600080604083850312156144a2576144a16132ce565b5b60006144b0858286016132f9565b925050602083013567ffffffffffffffff8111156144d1576144d06132d3565b5b6144dd8582860161445d565b9150509250929050565b600082825260208201905092915050565b7f536f72727920796f7520617265206e6f7420616464656420746f20766f74696e60008201527f67206c697374207965742c20636f6e7461637420796f7572207061727479206860208201527f6561640000000000000000000000000000000000000000000000000000000000604082015250565b600061457a6043836144e7565b9150614585826144f8565b606082019050919050565b600060208201905081810360008301526145a98161456d565b9050919050565b7f4576656e7420646f6573206e6f74206578697374000000000000000000000000600082015250565b60006145e66014836144e7565b91506145f1826145b0565b602082019050919050565b60006020820190508181036000830152614615816145d9565b9050919050565b7f4e487b7100000000000000000000000000000000000000000000000000000000600052603260045260246000fd5b7f4e487b7100000000000000000000000000000000000000000000000000000000600052602260045260246000fd5b6000600282049050600182168061469257607f821691505b6020821081036146a5576146a461464b565b5b50919050565b7f4e487b7100000000000000000000000000000000000000000000000000000000600052601160045260246000fd5b60006146e5826132d8565b91507fffffffffffffffffffffffffffffffffffffffffffffffffffffffffffffffff8203614717576147166146ab565b5b600182019050919050565b7f506f6f6c206576656e7420646f6573206e6f7420657869737400000000000000600082015250565b60006147586019836144e7565b915061476382614722565b602082019050919050565b600060208201905081810360008301526147878161474b565b9050919050565b7f76616c69646174696f6e206661696c65642c20636865636b20796f757220737460008201527f6174757320746f20636f6e6669726d0000000000000000000000000000000000602082015250565b60006147ea602f836144e7565b91506147f58261478e565b604082019050919050565b60006020820190508181036000830152614819816147dd565b9050919050565b7f416c726561647920766f74656400000000000000000000000000000000000000600082015250565b6000614856600d836144e7565b915061486182614820565b602082019050919050565b6000602082019050818103600083015261488581614849565b9050919050565b6000614897826132d8565b91506148a2836132d8565b92508282019050808211156148ba576148b96146ab565b5b92915050565b7f456c656374696f6e20646f6573206e6f74206578697374000000000000000000600082015250565b60006148f66017836144e7565b9150614901826148c0565b602082019050919050565b60006020820190508181036000830152614925816148e9565b9050919050565b7f566f746572206e6f7420616464656420746f20766f74696e67206c697374207960008201527f65742020636f6e7461637420796f75722061646d696e697374726174696f6e00602082015250565b6000614988603f836144e7565b91506149938261492c565b604082019050919050565b600060208201905081810360008301526149b78161497b565b9050919050565b7f4f6e6c792050617274792063616e206769766520726967687420746f20766f7460008201527f652e000000000000000000000000000000000000000000000000000000000000602082015250565b6000614a1a6022836144e7565b9150614a25826149be565b604082019050919050565b60006020820190508181036000830152614a4981614a0d565b9050919050565b7f596f75206861766520616c726561647920417574686f72697a656420766f746560008201527f722e205468616e6b20796f750000000000000000000000000000000000000000602082015250565b6000614aac602c836144e7565b9150614ab782614a50565b604082019050919050565b60006020820190508181036000830152614adb81614a9f565b9050919050565b7f4f6e6c79206368616972706572736f6e2068617320746865207269676874207460008201527f6f2061646420766f746572730000000000000000000000000000000000000000602082015250565b6000614b3e602c836144e7565b9150614b4982614ae2565b604082019050919050565b60006020820190508181036000830152614b6d81614b31565b9050919050565b7f566f74657220616c726561647920657869747300000000000000000000000000600082015250565b6000614baa6013836144e7565b9150614bb582614b74565b602082019050919050565b60006020820190508181036000830152614bd981614b9d565b9050919050565b7f4f6e6c79206368616972706572736f6e2063616e206164642062616c6c6f742060008201527f6576656e74000000000000000000000000000000000000000000000000000000602082015250565b6000614c3c6025836144e7565b9150614c4782614be0565b604082019050919050565b60006020820190508181036000830152614c6b81614c2f565b9050919050565b7f416464696e67206e657720506f6f6c206e6f74207065726d6974746564000000600082015250565b6000614ca8601d836144e7565b9150614cb382614c72565b602082019050919050565b60006020820190508181036000830152614cd781614c9b565b9050919050565b6000614ce9826132d8565b9150614cf4836132d8565b9250828203905081811115614d0c57614d0b6146ab565b5b92915050565b7f6368616972706572736f6e2063616e206e6f74206265206d656d626572206f6660008201527f2061207061727479000000000000000000000000000000000000000000000000602082015250565b6000614d6e6028836144e7565b9150614d7982614d12565b604082019050919050565b60006020820190508181036000830152614d9d81614d61565b9050919050565b7f496e76616c696420656c656374696f6e20646174657300000000000000000000600082015250565b6000614dda6016836144e7565b9150614de582614da4565b602082019050919050565b60006020820190508181036000830152614e0981614dcd565b9050919050565b7f496e76616c696420656c656374696f6e2064617465732873746172742064617460008201527f65206c6173742074686520626c6f636b2074696d652900000000000000000000602082015250565b6000614e6c6036836144e7565b9150614e7782614e10565b604082019050919050565b60006020820190508181036000830152614e9b81614e5f565b9050919050565b60008190508160005260206000209050919050565b60006020601f8301049050919050565b600082821b905092915050565b600060088302614f047fffffffffffffffffffffffffffffffffffffffffffffffffffffffffffffffff82614ec7565b614f0e8683614ec7565b95508019841693508086168417925050509392505050565b6000819050919050565b6000614f4b614f46614f41846132d8565b614f26565b6132d8565b9050919050565b6000819050919050565b614f6583614f30565b614f79614f7182614f52565b848454614ed4565b825550505050565b600090565b614f8e614f81565b614f99818484614f5c565b505050565b5b81811015614fbd57614fb2600082614f86565b600181019050614f9f565b5050565b601f82111561500257614fd381614ea2565b614fdc84614eb7565b81016020851015614feb578190505b614fff614ff785614eb7565b830182614f9e565b50505b505050565b600082821c905092915050565b600061502560001984600802615007565b1980831691505092915050565b600061503e8383615014565b9150826002028217905092915050565b61505782613415565b67ffffffffffffffff8111156150705761506f613d02565b5b61507a825461467a565b615085828285614fc1565b600060209050601f8311600181146150b857600084156150a6578287015190505b6150b08582615032565b865550615118565b601f1984166150c686614ea2565b60005b828110156150ee578489015182556001820191506020850194506020810190506150c9565b8683101561510b5784890151615107601f891682615014565b8355505b6001600288020188555050505b50505050505056fea26469706673582212206d45f6ec8fe98c7842ef81a2f2bf526277ae2500228e9c9bca6f0b04395af34964736f6c63430008140033","opcodes":"PUSH1 0x80 PUSH1 0x40 MSTORE CALLVALUE DUP1 ISZERO PUSH2 0x10 JUMPI PUSH1 0x0 DUP1 REVERT JUMPDEST POP PUSH2 0x5156 DUP1 PUSH2 0x20 PUSH1 0x0 CODECOPY PUSH1 0x0 RETURN INVALID PUSH1 0x80 PUSH1 0x40 MSTORE CALLVALUE DUP1 ISZERO PUSH2 0x10 JUMPI PUSH1 0x0 DUP1 REVERT JUMPDEST POP PUSH1 0x4 CALLDATASIZE LT PUSH2 0xFF JUMPI PUSH1 0x0 CALLDATALOAD PUSH1 0xE0 SHR DUP1 PUSH4 0x9D710777 GT PUSH2 0x97 JUMPI DUP1 PUSH4 0xE8C26428 GT PUSH2 0x66 JUMPI DUP1 PUSH4 0xE8C26428 EQ PUSH2 0x2EB JUMPI DUP1 PUSH4 0xEB45E3BF EQ PUSH2 0x31B JUMPI DUP1 PUSH4 0xF7098C9A EQ PUSH2 0x337 JUMPI DUP1 PUSH4 0xF8E78E9A EQ PUSH2 0x353 JUMPI PUSH2 0xFF JUMP JUMPDEST DUP1 PUSH4 0x9D710777 EQ PUSH2 0x25D JUMPI DUP1 PUSH4 0xB5B314E5 EQ PUSH2 0x297 JUMPI DUP1 PUSH4 0xD6A00943 EQ PUSH2 0x2B3 JUMPI DUP1 PUSH4 0xE7185B16 EQ PUSH2 0x2CF JUMPI PUSH2 0xFF JUMP JUMPDEST DUP1 PUSH4 0x37ABE716 GT PUSH2 0xD3 JUMPI DUP1 PUSH4 0x37ABE716 EQ PUSH2 0x1D5 JUMPI DUP1 PUSH4 0x4F53A8A3 EQ PUSH2 0x205 JUMPI DUP1 PUSH4 0x557ED1BA EQ PUSH2 0x223 JUMPI DUP1 PUSH4 0x8A6655D6 EQ PUSH2 0x241 JUMPI PUSH2 0xFF JUMP JUMPDEST DUP1 PUSH3 0xEF3391 EQ PUSH2 0x104 JUMPI DUP1 PUSH4 0x519BB83 EQ PUSH2 0x134 JUMPI DUP1 PUSH4 0xD358757 EQ PUSH2 0x168 JUMPI DUP1 PUSH4 0x1E9598E2 EQ PUSH2 0x19D JUMPI JUMPDEST PUSH1 0x0 DUP1 REVERT JUMPDEST PUSH2 0x11E PUSH1 0x4 DUP1 CALLDATASIZE SUB DUP2 ADD SWAP1 PUSH2 0x119 SWAP2 SWAP1 PUSH2 0x330E JUMP JUMPDEST PUSH2 0x371 JUMP JUMPDEST PUSH1 0x40 MLOAD PUSH2 0x12B SWAP2 SWAP1 PUSH2 0x3356 JUMP JUMPDEST PUSH1 0x40 MLOAD DUP1 SWAP2 SUB SWAP1 RETURN JUMPDEST PUSH2 0x14E PUSH1 0x4 DUP1 CALLDATASIZE SUB DUP2 ADD SWAP1 PUSH2 0x149 SWAP2 SWAP1 PUSH2 0x330E JUMP JUMPDEST PUSH2 0x4BB JUMP JUMPDEST PUSH1 0x40 MLOAD PUSH2 0x15F SWAP6 SWAP5 SWAP4 SWAP3 SWAP2 SWAP1 PUSH2 0x358B JUMP JUMPDEST PUSH1 0x40 MLOAD DUP1 SWAP2 SUB SWAP1 RETURN JUMPDEST PUSH2 0x182 PUSH1 0x4 DUP1 CALLDATASIZE SUB DUP2 ADD SWAP1 PUSH2 0x17D SWAP2 SWAP1 PUSH2 0x35E5 JUMP JUMPDEST PUSH2 0xC2D JUMP JUMPDEST PUSH1 0x40 MLOAD PUSH2 0x194 SWAP7 SWAP6 SWAP5 SWAP4 SWAP3 SWAP2 SWAP1 PUSH2 0x3755 JUMP JUMPDEST PUSH1 0x40 MLOAD DUP1 SWAP2 SUB SWAP1 RETURN JUMPDEST PUSH2 0x1B7 PUSH1 0x4 DUP1 CALLDATASIZE SUB DUP2 ADD SWAP1 PUSH2 0x1B2 SWAP2 SWAP1 PUSH2 0x330E JUMP JUMPDEST PUSH2 0xF3C JUMP JUMPDEST PUSH1 0x40 MLOAD PUSH2 0x1CC SWAP10 SWAP9 SWAP8 SWAP7 SWAP6 SWAP5 SWAP4 SWAP3 SWAP2 SWAP1 PUSH2 0x3807 JUMP JUMPDEST PUSH1 0x40 MLOAD DUP1 SWAP2 SUB SWAP1 RETURN JUMPDEST PUSH2 0x1EF PUSH1 0x4 DUP1 CALLDATASIZE SUB DUP2 ADD SWAP1 PUSH2 0x1EA SWAP2 SWAP1 PUSH2 0x330E JUMP JUMPDEST PUSH2 0x10BA JUMP JUMPDEST PUSH1 0x40 MLOAD PUSH2 0x1FC SWAP2 SWAP1 PUSH2 0x38A2 JUMP JUMPDEST PUSH1 0x40 MLOAD DUP1 SWAP2 SUB SWAP1 RETURN JUMPDEST PUSH2 0x20D PUSH2 0x10F9 JUMP JUMPDEST PUSH1 0x40 MLOAD PUSH2 0x21A SWAP2 SWAP1 PUSH2 0x38BD JUMP JUMPDEST PUSH1 0x40 MLOAD DUP1 SWAP2 SUB SWAP1 RETURN JUMPDEST PUSH2 0x22B PUSH2 0x10FF JUMP JUMPDEST PUSH1 0x40 MLOAD PUSH2 0x238 SWAP2 SWAP1 PUSH2 0x38BD JUMP JUMPDEST PUSH1 0x40 MLOAD DUP1 SWAP2 SUB SWAP1 RETURN JUMPDEST PUSH2 0x25B PUSH1 0x4 DUP1 CALLDATASIZE SUB DUP2 ADD SWAP1 PUSH2 0x256 SWAP2 SWAP1 PUSH2 0x38D8 JUMP JUMPDEST PUSH2 0x1107 JUMP JUMPDEST STOP JUMPDEST PUSH2 0x277 PUSH1 0x4 DUP1 CALLDATASIZE SUB DUP2 ADD SWAP1 PUSH2 0x272 SWAP2 SWAP1 PUSH2 0x330E JUMP JUMPDEST PUSH2 0x1816 JUMP JUMPDEST PUSH1 0x40 MLOAD PUSH2 0x28E SWAP12 SWAP11 SWAP10 SWAP9 SWAP8 SWAP7 SWAP6 SWAP5 SWAP4 SWAP3 SWAP2 SWAP1 PUSH2 0x3B4B JUMP JUMPDEST PUSH1 0x40 MLOAD DUP1 SWAP2 SUB SWAP1 RETURN JUMPDEST PUSH2 0x2B1 PUSH1 0x4 DUP1 CALLDATASIZE SUB DUP2 ADD SWAP1 PUSH2 0x2AC SWAP2 SWAP1 PUSH2 0x3C6A JUMP JUMPDEST PUSH2 0x1CE3 JUMP JUMPDEST STOP JUMPDEST PUSH2 0x2CD PUSH1 0x4 DUP1 CALLDATASIZE SUB DUP2 ADD SWAP1 PUSH2 0x2C8 SWAP2 SWAP1 PUSH2 0x3CBD JUMP JUMPDEST PUSH2 0x2299 JUMP JUMPDEST STOP JUMPDEST PUSH2 0x2E9 PUSH1 0x4 DUP1 CALLDATASIZE SUB DUP2 ADD SWAP1 PUSH2 0x2E4 SWAP2 SWAP1 PUSH2 0x3FBA JUMP JUMPDEST PUSH2 0x24F0 JUMP JUMPDEST STOP JUMPDEST PUSH2 0x305 PUSH1 0x4 DUP1 CALLDATASIZE SUB DUP2 ADD SWAP1 PUSH2 0x300 SWAP2 SWAP1 PUSH2 0x330E JUMP JUMPDEST PUSH2 0x2705 JUMP JUMPDEST PUSH1 0x40 MLOAD PUSH2 0x312 SWAP2 SWAP1 PUSH2 0x4176 JUMP JUMPDEST PUSH1 0x40 MLOAD DUP1 SWAP2 SUB SWAP1 RETURN JUMPDEST PUSH2 0x335 PUSH1 0x4 DUP1 CALLDATASIZE SUB DUP2 ADD SWAP1 PUSH2 0x330 SWAP2 SWAP1 PUSH2 0x42F9 JUMP JUMPDEST PUSH2 0x2A99 JUMP JUMPDEST STOP JUMPDEST PUSH2 0x351 PUSH1 0x4 DUP1 CALLDATASIZE SUB DUP2 ADD SWAP1 PUSH2 0x34C SWAP2 SWAP1 PUSH2 0x448B JUMP JUMPDEST PUSH2 0x2EB2 JUMP JUMPDEST STOP JUMPDEST PUSH2 0x35B PUSH2 0x3153 JUMP JUMPDEST PUSH1 0x40 MLOAD PUSH2 0x368 SWAP2 SWAP1 PUSH2 0x38BD JUMP JUMPDEST PUSH1 0x40 MLOAD DUP1 SWAP2 SUB SWAP1 RETURN JUMPDEST PUSH1 0x0 DUP1 PUSH1 0x3 PUSH1 0x0 DUP5 DUP2 MSTORE PUSH1 0x20 ADD SWAP1 DUP2 MSTORE PUSH1 0x20 ADD PUSH1 0x0 KECCAK256 SWAP1 POP CALLER PUSH20 0xFFFFFFFFFFFFFFFFFFFFFFFFFFFFFFFFFFFFFFFF AND DUP2 PUSH1 0x7 ADD PUSH1 0x0 CALLER PUSH20 0xFFFFFFFFFFFFFFFFFFFFFFFFFFFFFFFFFFFFFFFF AND PUSH20 0xFFFFFFFFFFFFFFFFFFFFFFFFFFFFFFFFFFFFFFFF AND DUP2 MSTORE PUSH1 0x20 ADD SWAP1 DUP2 MSTORE PUSH1 0x20 ADD PUSH1 0x0 KECCAK256 PUSH1 0x3 ADD PUSH1 0x0 SWAP1 SLOAD SWAP1 PUSH2 0x100 EXP SWAP1 DIV PUSH20 0xFFFFFFFFFFFFFFFFFFFFFFFFFFFFFFFFFFFFFFFF AND PUSH20 0xFFFFFFFFFFFFFFFFFFFFFFFFFFFFFFFFFFFFFFFF AND EQ PUSH2 0x45B JUMPI PUSH1 0x40 MLOAD PUSH32 0x8C379A000000000000000000000000000000000000000000000000000000000 DUP2 MSTORE PUSH1 0x4 ADD PUSH2 0x452 SWAP1 PUSH2 0x4590 JUMP JUMPDEST PUSH1 0x40 MLOAD DUP1 SWAP2 SUB SWAP1 REVERT JUMPDEST PUSH1 0x0 DUP2 PUSH1 0x7 ADD PUSH1 0x0 CALLER PUSH20 0xFFFFFFFFFFFFFFFFFFFFFFFFFFFFFFFFFFFFFFFF AND PUSH20 0xFFFFFFFFFFFFFFFFFFFFFFFFFFFFFFFFFFFFFFFF AND DUP2 MSTORE PUSH1 0x20 ADD SWAP1 DUP2 MSTORE PUSH1 0x20 ADD PUSH1 0x0 KECCAK256 PUSH1 0x6 ADD PUSH1 0x0 SWAP1 SLOAD SWAP1 PUSH2 0x100 EXP SWAP1 DIV PUSH1 0xFF AND SWAP1 POP DUP1 SWAP3 POP POP POP SWAP2 SWAP1 POP JUMP JUMPDEST PUSH1 0x0 DUP1 PUSH1 0x0 PUSH1 0x60 PUSH1 0x0 PUSH1 0x1 SLOAD DUP7 GT ISZERO PUSH2 0x509 JUMPI PUSH1 0x40 MLOAD PUSH32 0x8C379A000000000000000000000000000000000000000000000000000000000 DUP2 MSTORE PUSH1 0x4 ADD PUSH2 0x500 SWAP1 PUSH2 0x45FC JUMP JUMPDEST PUSH1 0x40 MLOAD DUP1 SWAP2 SUB SWAP1 REVERT JUMPDEST PUSH1 0x0 DUP7 SUB PUSH2 0x54C JUMPI PUSH1 0x40 MLOAD PUSH32 0x8C379A000000000000000000000000000000000000000000000000000000000 DUP2 MSTORE PUSH1 0x4 ADD PUSH2 0x543 SWAP1 PUSH2 0x45FC JUMP JUMPDEST PUSH1 0x40 MLOAD DUP1 SWAP2 SUB SWAP1 REVERT JUMPDEST PUSH1 0x0 PUSH1 0x3 PUSH1 0x0 DUP9 DUP2 MSTORE PUSH1 0x20 ADD SWAP1 DUP2 MSTORE PUSH1 0x20 ADD PUSH1 0x0 KECCAK256 SWAP1 POP CALLER PUSH20 0xFFFFFFFFFFFFFFFFFFFFFFFFFFFFFFFFFFFFFFFF AND DUP2 PUSH1 0x7 ADD PUSH1 0x0 CALLER PUSH20 0xFFFFFFFFFFFFFFFFFFFFFFFFFFFFFFFFFFFFFFFF AND PUSH20 0xFFFFFFFFFFFFFFFFFFFFFFFFFFFFFFFFFFFFFFFF AND DUP2 MSTORE PUSH1 0x20 ADD SWAP1 DUP2 MSTORE PUSH1 0x20 ADD PUSH1 0x0 KECCAK256 PUSH1 0x3 ADD PUSH1 0x0 SWAP1 SLOAD SWAP1 PUSH2 0x100 EXP SWAP1 DIV PUSH20 0xFFFFFFFFFFFFFFFFFFFFFFFFFFFFFFFFFFFFFFFF AND PUSH20 0xFFFFFFFFFFFFFFFFFFFFFFFFFFFFFFFFFFFFFFFF AND EQ PUSH2 0x635 JUMPI PUSH1 0x40 MLOAD PUSH32 0x8C379A000000000000000000000000000000000000000000000000000000000 DUP2 MSTORE PUSH1 0x4 ADD PUSH2 0x62C SWAP1 PUSH2 0x4590 JUMP JUMPDEST PUSH1 0x40 MLOAD DUP1 SWAP2 SUB SWAP1 REVERT JUMPDEST PUSH1 0x0 DUP2 PUSH1 0x7 ADD PUSH1 0x0 CALLER PUSH20 0xFFFFFFFFFFFFFFFFFFFFFFFFFFFFFFFFFFFFFFFF AND PUSH20 0xFFFFFFFFFFFFFFFFFFFFFFFFFFFFFFFFFFFFFFFF AND DUP2 MSTORE PUSH1 0x20 ADD SWAP1 DUP2 MSTORE PUSH1 0x20 ADD PUSH1 0x0 KECCAK256 PUSH1 0x3 ADD PUSH1 0x0 SWAP1 SLOAD SWAP1 PUSH2 0x100 EXP SWAP1 DIV PUSH20 0xFFFFFFFFFFFFFFFFFFFFFFFFFFFFFFFFFFFFFFFF AND SWAP1 POP PUSH1 0x0 DUP3 PUSH1 0x7 ADD PUSH1 0x0 CALLER PUSH20 0xFFFFFFFFFFFFFFFFFFFFFFFFFFFFFFFFFFFFFFFF AND PUSH20 0xFFFFFFFFFFFFFFFFFFFFFFFFFFFFFFFFFFFFFFFF AND DUP2 MSTORE PUSH1 0x20 ADD SWAP1 DUP2 MSTORE PUSH1 0x20 ADD PUSH1 0x0 KECCAK256 PUSH1 0x4 ADD SLOAD SWAP1 POP PUSH1 0x0 DUP4 PUSH1 0x7 ADD PUSH1 0x0 CALLER PUSH20 0xFFFFFFFFFFFFFFFFFFFFFFFFFFFFFFFFFFFFFFFF AND PUSH20 0xFFFFFFFFFFFFFFFFFFFFFFFFFFFFFFFFFFFFFFFF AND DUP2 MSTORE PUSH1 0x20 ADD SWAP1 DUP2 MSTORE PUSH1 0x20 ADD PUSH1 0x0 KECCAK256 PUSH1 0x5 ADD SLOAD SWAP1 POP PUSH1 0x0 DUP5 PUSH1 0x7 ADD PUSH1 0x0 CALLER PUSH20 0xFFFFFFFFFFFFFFFFFFFFFFFFFFFFFFFFFFFFFFFF AND PUSH20 0xFFFFFFFFFFFFFFFFFFFFFFFFFFFFFFFFFFFFFFFF AND DUP2 MSTORE PUSH1 0x20 ADD SWAP1 DUP2 MSTORE PUSH1 0x20 ADD PUSH1 0x0 KECCAK256 PUSH1 0x6 ADD PUSH1 0x0 SWAP1 SLOAD SWAP1 PUSH2 0x100 EXP SWAP1 DIV PUSH1 0xFF AND SWAP1 POP PUSH1 0x0 DUP6 PUSH1 0x7 ADD PUSH1 0x0 CALLER PUSH20 0xFFFFFFFFFFFFFFFFFFFFFFFFFFFFFFFFFFFFFFFF AND PUSH20 0xFFFFFFFFFFFFFFFFFFFFFFFFFFFFFFFFFFFFFFFF AND DUP2 MSTORE PUSH1 0x20 ADD SWAP1 DUP2 MSTORE PUSH1 0x20 ADD PUSH1 0x0 KECCAK256 PUSH1 0x2 ADD SLOAD PUSH8 0xFFFFFFFFFFFFFFFF DUP2 GT ISZERO PUSH2 0x7E6 JUMPI PUSH2 0x7E5 PUSH2 0x3D02 JUMP JUMPDEST JUMPDEST PUSH1 0x40 MLOAD SWAP1 DUP1 DUP3 MSTORE DUP1 PUSH1 0x20 MUL PUSH1 0x20 ADD DUP3 ADD PUSH1 0x40 MSTORE DUP1 ISZERO PUSH2 0x81F JUMPI DUP2 PUSH1 0x20 ADD JUMPDEST PUSH2 0x80C PUSH2 0x3212 JUMP JUMPDEST DUP2 MSTORE PUSH1 0x20 ADD SWAP1 PUSH1 0x1 SWAP1 SUB SWAP1 DUP2 PUSH2 0x804 JUMPI SWAP1 POP JUMPDEST POP SWAP1 POP PUSH1 0x0 DUP1 DUP8 PUSH1 0x7 ADD PUSH1 0x0 CALLER PUSH20 0xFFFFFFFFFFFFFFFFFFFFFFFFFFFFFFFFFFFFFFFF AND PUSH20 0xFFFFFFFFFFFFFFFFFFFFFFFFFFFFFFFFFFFFFFFF AND DUP2 MSTORE PUSH1 0x20 ADD SWAP1 DUP2 MSTORE PUSH1 0x20 ADD PUSH1 0x0 KECCAK256 PUSH1 0x2 ADD SLOAD GT ISZERO PUSH2 0xC0E JUMPI PUSH1 0x0 JUMPDEST DUP8 PUSH1 0x6 ADD SLOAD DUP2 LT ISZERO PUSH2 0xC0C JUMPI DUP8 PUSH1 0x5 ADD PUSH1 0x0 DUP10 PUSH1 0x9 ADD DUP4 DUP2 SLOAD DUP2 LT PUSH2 0x89B JUMPI PUSH2 0x89A PUSH2 0x461C JUMP JUMPDEST JUMPDEST SWAP1 PUSH1 0x0 MSTORE PUSH1 0x20 PUSH1 0x0 KECCAK256 ADD PUSH1 0x0 SWAP1 SLOAD SWAP1 PUSH2 0x100 EXP SWAP1 DIV PUSH20 0xFFFFFFFFFFFFFFFFFFFFFFFFFFFFFFFFFFFFFFFF AND PUSH20 0xFFFFFFFFFFFFFFFFFFFFFFFFFFFFFFFFFFFFFFFF AND PUSH20 0xFFFFFFFFFFFFFFFFFFFFFFFFFFFFFFFFFFFFFFFF AND DUP2 MSTORE PUSH1 0x20 ADD SWAP1 DUP2 MSTORE PUSH1 0x20 ADD PUSH1 0x0 KECCAK256 PUSH1 0x1 ADD SLOAD DUP9 PUSH1 0x7 ADD PUSH1 0x0 CALLER PUSH20 0xFFFFFFFFFFFFFFFFFFFFFFFFFFFFFFFFFFFFFFFF AND PUSH20 0xFFFFFFFFFFFFFFFFFFFFFFFFFFFFFFFFFFFFFFFF AND DUP2 MSTORE PUSH1 0x20 ADD SWAP1 DUP2 MSTORE PUSH1 0x20 ADD PUSH1 0x0 KECCAK256 PUSH1 0x0 ADD PUSH1 0x0 DUP11 PUSH1 0x9 ADD DUP5 DUP2 SLOAD DUP2 LT PUSH2 0x960 JUMPI PUSH2 0x95F PUSH2 0x461C JUMP JUMPDEST JUMPDEST SWAP1 PUSH1 0x0 MSTORE PUSH1 0x20 PUSH1 0x0 KECCAK256 ADD PUSH1 0x0 SWAP1 SLOAD SWAP1 PUSH2 0x100 EXP SWAP1 DIV PUSH20 0xFFFFFFFFFFFFFFFFFFFFFFFFFFFFFFFFFFFFFFFF AND PUSH20 0xFFFFFFFFFFFFFFFFFFFFFFFFFFFFFFFFFFFFFFFF AND PUSH20 0xFFFFFFFFFFFFFFFFFFFFFFFFFFFFFFFFFFFFFFFF AND DUP2 MSTORE PUSH1 0x20 ADD SWAP1 DUP2 MSTORE PUSH1 0x20 ADD PUSH1 0x0 KECCAK256 SLOAD SUB PUSH2 0xBF9 JUMPI PUSH1 0x40 MLOAD DUP1 PUSH1 0x60 ADD PUSH1 0x40 MSTORE DUP1 DUP10 PUSH1 0x9 ADD DUP4 DUP2 SLOAD DUP2 LT PUSH2 0x9EC JUMPI PUSH2 0x9EB PUSH2 0x461C JUMP JUMPDEST JUMPDEST SWAP1 PUSH1 0x0 MSTORE PUSH1 0x20 PUSH1 0x0 KECCAK256 ADD PUSH1 0x0 SWAP1 SLOAD SWAP1 PUSH2 0x100 EXP SWAP1 DIV PUSH20 0xFFFFFFFFFFFFFFFFFFFFFFFFFFFFFFFFFFFFFFFF AND PUSH20 0xFFFFFFFFFFFFFFFFFFFFFFFFFFFFFFFFFFFFFFFF AND DUP2 MSTORE PUSH1 0x20 ADD DUP10 PUSH1 0x5 ADD PUSH1 0x0 DUP12 PUSH1 0x9 ADD DUP6 DUP2 SLOAD DUP2 LT PUSH2 0xA4E JUMPI PUSH2 0xA4D PUSH2 0x461C JUMP JUMPDEST JUMPDEST SWAP1 PUSH1 0x0 MSTORE PUSH1 0x20 PUSH1 0x0 KECCAK256 ADD PUSH1 0x0 SWAP1 SLOAD SWAP1 PUSH2 0x100 EXP SWAP1 DIV PUSH20 0xFFFFFFFFFFFFFFFFFFFFFFFFFFFFFFFFFFFFFFFF AND PUSH20 0xFFFFFFFFFFFFFFFFFFFFFFFFFFFFFFFFFFFFFFFF AND PUSH20 0xFFFFFFFFFFFFFFFFFFFFFFFFFFFFFFFFFFFFFFFF AND DUP2 MSTORE PUSH1 0x20 ADD SWAP1 DUP2 MSTORE PUSH1 0x20 ADD PUSH1 0x0 KECCAK256 PUSH1 0x1 ADD SLOAD DUP2 MSTORE PUSH1 0x20 ADD DUP10 PUSH1 0x5 ADD PUSH1 0x0 DUP12 PUSH1 0x9 ADD DUP6 DUP2 SLOAD DUP2 LT PUSH2 0xAD8 JUMPI PUSH2 0xAD7 PUSH2 0x461C JUMP JUMPDEST JUMPDEST SWAP1 PUSH1 0x0 MSTORE PUSH1 0x20 PUSH1 0x0 KECCAK256 ADD PUSH1 0x0 SWAP1 SLOAD SWAP1 PUSH2 0x100 EXP SWAP1 DIV PUSH20 0xFFFFFFFFFFFFFFFFFFFFFFFFFFFFFFFFFFFFFFFF AND PUSH20 0xFFFFFFFFFFFFFFFFFFFFFFFFFFFFFFFFFFFFFFFF AND PUSH20 0xFFFFFFFFFFFFFFFFFFFFFFFFFFFFFFFFFFFFFFFF AND DUP2 MSTORE PUSH1 0x20 ADD SWAP1 DUP2 MSTORE PUSH1 0x20 ADD PUSH1 0x0 KECCAK256 PUSH1 0x2 ADD DUP1 SLOAD PUSH2 0xB4B SWAP1 PUSH2 0x467A JUMP JUMPDEST DUP1 PUSH1 0x1F ADD PUSH1 0x20 DUP1 SWAP2 DIV MUL PUSH1 0x20 ADD PUSH1 0x40 MLOAD SWAP1 DUP2 ADD PUSH1 0x40 MSTORE DUP1 SWAP3 SWAP2 SWAP1 DUP2 DUP2 MSTORE PUSH1 0x20 ADD DUP3 DUP1 SLOAD PUSH2 0xB77 SWAP1 PUSH2 0x467A JUMP JUMPDEST DUP1 ISZERO PUSH2 0xBC4 JUMPI DUP1 PUSH1 0x1F LT PUSH2 0xB99 JUMPI PUSH2 0x100 DUP1 DUP4 SLOAD DIV MUL DUP4 MSTORE SWAP2 PUSH1 0x20 ADD SWAP2 PUSH2 0xBC4 JUMP JUMPDEST DUP3 ADD SWAP2 SWAP1 PUSH1 0x0 MSTORE PUSH1 0x20 PUSH1 0x0 KECCAK256 SWAP1 JUMPDEST DUP2 SLOAD DUP2 MSTORE SWAP1 PUSH1 0x1 ADD SWAP1 PUSH1 0x20 ADD DUP1 DUP4 GT PUSH2 0xBA7 JUMPI DUP3 SWAP1 SUB PUSH1 0x1F AND DUP3 ADD SWAP2 JUMPDEST POP POP POP POP POP DUP2 MSTORE POP DUP4 DUP4 DUP2 MLOAD DUP2 LT PUSH2 0xBDF JUMPI PUSH2 0xBDE PUSH2 0x461C JUMP JUMPDEST JUMPDEST PUSH1 0x20 MUL PUSH1 0x20 ADD ADD DUP2 SWAP1 MSTORE POP DUP2 DUP1 PUSH2 0xBF5 SWAP1 PUSH2 0x46DA JUMP JUMPDEST SWAP3 POP POP JUMPDEST DUP1 DUP1 PUSH2 0xC04 SWAP1 PUSH2 0x46DA JUMP JUMPDEST SWAP2 POP POP PUSH2 0x873 JUMP JUMPDEST POP JUMPDEST DUP6 DUP6 DUP6 DUP5 DUP7 SWAP12 POP SWAP12 POP SWAP12 POP SWAP12 POP SWAP12 POP POP POP POP POP POP POP POP SWAP2 SWAP4 SWAP6 SWAP1 SWAP3 SWAP5 POP JUMP JUMPDEST PUSH1 0x0 DUP1 PUSH1 0x60 PUSH1 0x0 DUP1 PUSH1 0x0 PUSH1 0x1 SLOAD DUP9 GT ISZERO PUSH2 0xC7C JUMPI PUSH1 0x40 MLOAD PUSH32 0x8C379A000000000000000000000000000000000000000000000000000000000 DUP2 MSTORE PUSH1 0x4 ADD PUSH2 0xC73 SWAP1 PUSH2 0x45FC JUMP JUMPDEST PUSH1 0x40 MLOAD DUP1 SWAP2 SUB SWAP1 REVERT JUMPDEST PUSH1 0x0 DUP9 SUB PUSH2 0xCBF JUMPI PUSH1 0x40 MLOAD PUSH32 0x8C379A000000000000000000000000000000000000000000000000000000000 DUP2 MSTORE PUSH1 0x4 ADD PUSH2 0xCB6 SWAP1 PUSH2 0x45FC JUMP JUMPDEST PUSH1 0x40 MLOAD DUP1 SWAP2 SUB SWAP1 REVERT JUMPDEST PUSH1 0x3 PUSH1 0x0 DUP10 DUP2 MSTORE PUSH1 0x20 ADD SWAP1 DUP2 MSTORE PUSH1 0x20 ADD PUSH1 0x0 KECCAK256 PUSH1 0xB ADD SLOAD DUP8 GT ISZERO PUSH2 0xD18 JUMPI PUSH1 0x40 MLOAD PUSH32 0x8C379A000000000000000000000000000000000000000000000000000000000 DUP2 MSTORE PUSH1 0x4 ADD PUSH2 0xD0F SWAP1 PUSH2 0x476E JUMP JUMPDEST PUSH1 0x40 MLOAD DUP1 SWAP2 SUB SWAP1 REVERT JUMPDEST PUSH1 0x0 DUP8 SUB PUSH2 0xD5B JUMPI PUSH1 0x40 MLOAD PUSH32 0x8C379A000000000000000000000000000000000000000000000000000000000 DUP2 MSTORE PUSH1 0x4 ADD PUSH2 0xD52 SWAP1 PUSH2 0x476E JUMP JUMPDEST PUSH1 0x40 MLOAD DUP1 SWAP2 SUB SWAP1 REVERT JUMPDEST PUSH1 0x0 PUSH1 0x3 PUSH1 0x0 DUP11 DUP2 MSTORE PUSH1 0x20 ADD SWAP1 DUP2 MSTORE PUSH1 0x20 ADD PUSH1 0x0 KECCAK256 PUSH1 0xA ADD PUSH1 0x0 DUP10 DUP2 MSTORE PUSH1 0x20 ADD SWAP1 DUP2 MSTORE PUSH1 0x20 ADD PUSH1 0x0 KECCAK256 SWAP1 POP PUSH1 0x0 DUP2 PUSH1 0x2 ADD SLOAD PUSH8 0xFFFFFFFFFFFFFFFF DUP2 GT ISZERO PUSH2 0xDA6 JUMPI PUSH2 0xDA5 PUSH2 0x3D02 JUMP JUMPDEST JUMPDEST PUSH1 0x40 MLOAD SWAP1 DUP1 DUP3 MSTORE DUP1 PUSH1 0x20 MUL PUSH1 0x20 ADD DUP3 ADD PUSH1 0x40 MSTORE DUP1 ISZERO PUSH2 0xDDF JUMPI DUP2 PUSH1 0x20 ADD JUMPDEST PUSH2 0xDCC PUSH2 0x324C JUMP JUMPDEST DUP2 MSTORE PUSH1 0x20 ADD SWAP1 PUSH1 0x1 SWAP1 SUB SWAP1 DUP2 PUSH2 0xDC4 JUMPI SWAP1 POP JUMPDEST POP SWAP1 POP PUSH1 0x0 JUMPDEST DUP3 PUSH1 0x2 ADD SLOAD DUP2 LT ISZERO PUSH2 0xF0D JUMPI PUSH1 0x40 MLOAD DUP1 PUSH1 0x60 ADD PUSH1 0x40 MSTORE DUP1 DUP5 PUSH1 0x1 ADD PUSH1 0x0 DUP5 DUP2 MSTORE PUSH1 0x20 ADD SWAP1 DUP2 MSTORE PUSH1 0x20 ADD PUSH1 0x0 KECCAK256 PUSH1 0x0 ADD SLOAD DUP2 MSTORE PUSH1 0x20 ADD DUP5 PUSH1 0x1 ADD PUSH1 0x0 DUP5 DUP2 MSTORE PUSH1 0x20 ADD SWAP1 DUP2 MSTORE PUSH1 0x20 ADD PUSH1 0x0 KECCAK256 PUSH1 0x1 ADD DUP1 SLOAD PUSH2 0xE3D SWAP1 PUSH2 0x467A JUMP JUMPDEST DUP1 PUSH1 0x1F ADD PUSH1 0x20 DUP1 SWAP2 DIV MUL PUSH1 0x20 ADD PUSH1 0x40 MLOAD SWAP1 DUP2 ADD PUSH1 0x40 MSTORE DUP1 SWAP3 SWAP2 SWAP1 DUP2 DUP2 MSTORE PUSH1 0x20 ADD DUP3 DUP1 SLOAD PUSH2 0xE69 SWAP1 PUSH2 0x467A JUMP JUMPDEST DUP1 ISZERO PUSH2 0xEB6 JUMPI DUP1 PUSH1 0x1F LT PUSH2 0xE8B JUMPI PUSH2 0x100 DUP1 DUP4 SLOAD DIV MUL DUP4 MSTORE SWAP2 PUSH1 0x20 ADD SWAP2 PUSH2 0xEB6 JUMP JUMPDEST DUP3 ADD SWAP2 SWAP1 PUSH1 0x0 MSTORE PUSH1 0x20 PUSH1 0x0 KECCAK256 SWAP1 JUMPDEST DUP2 SLOAD DUP2 MSTORE SWAP1 PUSH1 0x1 ADD SWAP1 PUSH1 0x20 ADD DUP1 DUP4 GT PUSH2 0xE99 JUMPI DUP3 SWAP1 SUB PUSH1 0x1F AND DUP3 ADD SWAP2 JUMPDEST POP POP POP POP POP DUP2 MSTORE PUSH1 0x20 ADD DUP5 PUSH1 0x1 ADD PUSH1 0x0 DUP5 DUP2 MSTORE PUSH1 0x20 ADD SWAP1 DUP2 MSTORE PUSH1 0x20 ADD PUSH1 0x0 KECCAK256 PUSH1 0x2 ADD SLOAD DUP2 MSTORE POP DUP3 DUP3 DUP2 MLOAD DUP2 LT PUSH2 0xEEF JUMPI PUSH2 0xEEE PUSH2 0x461C JUMP JUMPDEST JUMPDEST PUSH1 0x20 MUL PUSH1 0x20 ADD ADD DUP2 SWAP1 MSTORE POP DUP1 DUP1 PUSH2 0xF05 SWAP1 PUSH2 0x46DA JUMP JUMPDEST SWAP2 POP POP PUSH2 0xDE5 JUMP JUMPDEST POP DUP2 PUSH1 0x0 ADD SLOAD DUP3 PUSH1 0x4 ADD SLOAD DUP3 DUP5 PUSH1 0x5 ADD SLOAD DUP6 PUSH1 0x2 ADD SLOAD DUP15 SWAP8 POP SWAP8 POP SWAP8 POP SWAP8 POP SWAP8 POP SWAP8 POP POP POP SWAP3 SWAP6 POP SWAP3 SWAP6 POP SWAP3 SWAP6 JUMP JUMPDEST PUSH1 0x3 PUSH1 0x20 MSTORE DUP1 PUSH1 0x0 MSTORE PUSH1 0x40 PUSH1 0x0 KECCAK256 PUSH1 0x0 SWAP2 POP SWAP1 POP DUP1 PUSH1 0x0 ADD SLOAD SWAP1 DUP1 PUSH1 0x1 ADD PUSH1 0x0 SWAP1 SLOAD SWAP1 PUSH2 0x100 EXP SWAP1 DIV PUSH20 0xFFFFFFFFFFFFFFFFFFFFFFFFFFFFFFFFFFFFFFFF AND SWAP1 DUP1 PUSH1 0x2 ADD DUP1 SLOAD PUSH2 0xF8B SWAP1 PUSH2 0x467A JUMP JUMPDEST DUP1 PUSH1 0x1F ADD PUSH1 0x20 DUP1 SWAP2 DIV MUL PUSH1 0x20 ADD PUSH1 0x40 MLOAD SWAP1 DUP2 ADD PUSH1 0x40 MSTORE DUP1 SWAP3 SWAP2 SWAP1 DUP2 DUP2 MSTORE PUSH1 0x20 ADD DUP3 DUP1 SLOAD PUSH2 0xFB7 SWAP1 PUSH2 0x467A JUMP JUMPDEST DUP1 ISZERO PUSH2 0x1004 JUMPI DUP1 PUSH1 0x1F LT PUSH2 0xFD9 JUMPI PUSH2 0x100 DUP1 DUP4 SLOAD DIV MUL DUP4 MSTORE SWAP2 PUSH1 0x20 ADD SWAP2 PUSH2 0x1004 JUMP JUMPDEST DUP3 ADD SWAP2 SWAP1 PUSH1 0x0 MSTORE PUSH1 0x20 PUSH1 0x0 KECCAK256 SWAP1 JUMPDEST DUP2 SLOAD DUP2 MSTORE SWAP1 PUSH1 0x1 ADD SWAP1 PUSH1 0x20 ADD DUP1 DUP4 GT PUSH2 0xFE7 JUMPI DUP3 SWAP1 SUB PUSH1 0x1F AND DUP3 ADD SWAP2 JUMPDEST POP POP POP POP POP SWAP1 DUP1 PUSH1 0x3 ADD SLOAD SWAP1 DUP1 PUSH1 0x4 ADD SLOAD SWAP1 DUP1 PUSH1 0x6 ADD SLOAD SWAP1 DUP1 PUSH1 0x8 ADD SLOAD SWAP1 DUP1 PUSH1 0xB ADD SLOAD SWAP1 DUP1 PUSH1 0xC ADD DUP1 SLOAD PUSH2 0x1037 SWAP1 PUSH2 0x467A JUMP JUMPDEST DUP1 PUSH1 0x1F ADD PUSH1 0x20 DUP1 SWAP2 DIV MUL PUSH1 0x20 ADD PUSH1 0x40 MLOAD SWAP1 DUP2 ADD PUSH1 0x40 MSTORE DUP1 SWAP3 SWAP2 SWAP1 DUP2 DUP2 MSTORE PUSH1 0x20 ADD DUP3 DUP1 SLOAD PUSH2 0x1063 SWAP1 PUSH2 0x467A JUMP JUMPDEST DUP1 ISZERO PUSH2 0x10B0 JUMPI DUP1 PUSH1 0x1F LT PUSH2 0x1085 JUMPI PUSH2 0x100 DUP1 DUP4 SLOAD DIV MUL DUP4 MSTORE SWAP2 PUSH1 0x20 ADD SWAP2 PUSH2 0x10B0 JUMP JUMPDEST DUP3 ADD SWAP2 SWAP1 PUSH1 0x0 MSTORE PUSH1 0x20 PUSH1 0x0 KECCAK256 SWAP1 JUMPDEST DUP2 SLOAD DUP2 MSTORE SWAP1 PUSH1 0x1 ADD SWAP1 PUSH1 0x20 ADD DUP1 DUP4 GT PUSH2 0x1093 JUMPI DUP3 SWAP1 SUB PUSH1 0x1F AND DUP3 ADD SWAP2 JUMPDEST POP POP POP POP POP SWAP1 POP DUP10 JUMP JUMPDEST PUSH1 0x0 DUP2 DUP2 SLOAD DUP2 LT PUSH2 0x10CA JUMPI PUSH1 0x0 DUP1 REVERT JUMPDEST SWAP1 PUSH1 0x0 MSTORE PUSH1 0x20 PUSH1 0x0 KECCAK256 ADD PUSH1 0x0 SWAP2 POP SLOAD SWAP1 PUSH2 0x100 EXP SWAP1 DIV PUSH20 0xFFFFFFFFFFFFFFFFFFFFFFFFFFFFFFFFFFFFFFFF AND DUP2 JUMP JUMPDEST PUSH1 0x2 SLOAD DUP2 JUMP JUMPDEST PUSH1 0x0 TIMESTAMP SWAP1 POP SWAP1 JUMP JUMPDEST PUSH1 0x1 SLOAD DUP4 GT ISZERO PUSH2 0x114C JUMPI PUSH1 0x40 MLOAD PUSH32 0x8C379A000000000000000000000000000000000000000000000000000000000 DUP2 MSTORE PUSH1 0x4 ADD PUSH2 0x1143 SWAP1 PUSH2 0x45FC JUMP JUMPDEST PUSH1 0x40 MLOAD DUP1 SWAP2 SUB SWAP1 REVERT JUMPDEST PUSH1 0x0 DUP4 SUB PUSH2 0x118F JUMPI PUSH1 0x40 MLOAD PUSH32 0x8C379A000000000000000000000000000000000000000000000000000000000 DUP2 MSTORE PUSH1 0x4 ADD PUSH2 0x1186 SWAP1 PUSH2 0x45FC JUMP JUMPDEST PUSH1 0x40 MLOAD DUP1 SWAP2 SUB SWAP1 REVERT JUMPDEST PUSH1 0x1 SLOAD DUP4 GT ISZERO PUSH2 0x11D4 JUMPI PUSH1 0x40 MLOAD PUSH32 0x8C379A000000000000000000000000000000000000000000000000000000000 DUP2 MSTORE PUSH1 0x4 ADD PUSH2 0x11CB SWAP1 PUSH2 0x45FC JUMP JUMPDEST PUSH1 0x40 MLOAD DUP1 SWAP2 SUB SWAP1 REVERT JUMPDEST PUSH1 0x0 DUP4 SUB PUSH2 0x1217 JUMPI PUSH1 0x40 MLOAD PUSH32 0x8C379A000000000000000000000000000000000000000000000000000000000 DUP2 MSTORE PUSH1 0x4 ADD PUSH2 0x120E SWAP1 PUSH2 0x45FC JUMP JUMPDEST PUSH1 0x40 MLOAD DUP1 SWAP2 SUB SWAP1 REVERT JUMPDEST PUSH1 0x3 PUSH1 0x0 DUP5 DUP2 MSTORE PUSH1 0x20 ADD SWAP1 DUP2 MSTORE PUSH1 0x20 ADD PUSH1 0x0 KECCAK256 PUSH1 0xB ADD SLOAD DUP3 GT ISZERO PUSH2 0x1270 JUMPI PUSH1 0x40 MLOAD PUSH32 0x8C379A000000000000000000000000000000000000000000000000000000000 DUP2 MSTORE PUSH1 0x4 ADD PUSH2 0x1267 SWAP1 PUSH2 0x476E JUMP JUMPDEST PUSH1 0x40 MLOAD DUP1 SWAP2 SUB SWAP1 REVERT JUMPDEST PUSH1 0x0 DUP3 SUB PUSH2 0x12B3 JUMPI PUSH1 0x40 MLOAD PUSH32 0x8C379A000000000000000000000000000000000000000000000000000000000 DUP2 MSTORE PUSH1 0x4 ADD PUSH2 0x12AA SWAP1 PUSH2 0x476E JUMP JUMPDEST PUSH1 0x40 MLOAD DUP1 SWAP2 SUB SWAP1 REVERT JUMPDEST PUSH1 0x0 PUSH1 0x3 PUSH1 0x0 DUP6 DUP2 MSTORE PUSH1 0x20 ADD SWAP1 DUP2 MSTORE PUSH1 0x20 ADD PUSH1 0x0 KECCAK256 SWAP1 POP CALLER PUSH20 0xFFFFFFFFFFFFFFFFFFFFFFFFFFFFFFFFFFFFFFFF AND DUP2 PUSH1 0x7 ADD PUSH1 0x0 CALLER PUSH20 0xFFFFFFFFFFFFFFFFFFFFFFFFFFFFFFFFFFFFFFFF AND PUSH20 0xFFFFFFFFFFFFFFFFFFFFFFFFFFFFFFFFFFFFFFFF AND DUP2 MSTORE PUSH1 0x20 ADD SWAP1 DUP2 MSTORE PUSH1 0x20 ADD PUSH1 0x0 KECCAK256 PUSH1 0x3 ADD PUSH1 0x0 SWAP1 SLOAD SWAP1 PUSH2 0x100 EXP SWAP1 DIV PUSH20 0xFFFFFFFFFFFFFFFFFFFFFFFFFFFFFFFFFFFFFFFF AND PUSH20 0xFFFFFFFFFFFFFFFFFFFFFFFFFFFFFFFFFFFFFFFF AND EQ PUSH2 0x139C JUMPI PUSH1 0x40 MLOAD PUSH32 0x8C379A000000000000000000000000000000000000000000000000000000000 DUP2 MSTORE PUSH1 0x4 ADD PUSH2 0x1393 SWAP1 PUSH2 0x4590 JUMP JUMPDEST PUSH1 0x40 MLOAD DUP1 SWAP2 SUB SWAP1 REVERT JUMPDEST PUSH1 0x3 PUSH1 0x0 DUP6 DUP2 MSTORE PUSH1 0x20 ADD SWAP1 DUP2 MSTORE PUSH1 0x20 ADD PUSH1 0x0 KECCAK256 PUSH1 0x7 ADD PUSH1 0x0 CALLER PUSH20 0xFFFFFFFFFFFFFFFFFFFFFFFFFFFFFFFFFFFFFFFF AND PUSH20 0xFFFFFFFFFFFFFFFFFFFFFFFFFFFFFFFFFFFFFFFF AND DUP2 MSTORE PUSH1 0x20 ADD SWAP1 DUP2 MSTORE PUSH1 0x20 ADD PUSH1 0x0 KECCAK256 PUSH1 0x6 ADD PUSH1 0x0 SWAP1 SLOAD SWAP1 PUSH2 0x100 EXP SWAP1 DIV PUSH1 0xFF AND PUSH2 0x143F JUMPI PUSH1 0x40 MLOAD PUSH32 0x8C379A000000000000000000000000000000000000000000000000000000000 DUP2 MSTORE PUSH1 0x4 ADD PUSH2 0x1436 SWAP1 PUSH2 0x4800 JUMP JUMPDEST PUSH1 0x40 MLOAD DUP1 SWAP2 SUB SWAP1 REVERT JUMPDEST PUSH1 0x1 ISZERO ISZERO DUP2 PUSH1 0x7 ADD PUSH1 0x0 CALLER PUSH20 0xFFFFFFFFFFFFFFFFFFFFFFFFFFFFFFFFFFFFFFFF AND PUSH20 0xFFFFFFFFFFFFFFFFFFFFFFFFFFFFFFFFFFFFFFFF AND DUP2 MSTORE PUSH1 0x20 ADD SWAP1 DUP2 MSTORE PUSH1 0x20 ADD PUSH1 0x0 KECCAK256 PUSH1 0x1 ADD PUSH1 0x0 DUP6 DUP2 MSTORE PUSH1 0x20 ADD SWAP1 DUP2 MSTORE PUSH1 0x20 ADD PUSH1 0x0 KECCAK256 PUSH1 0x0 ADD PUSH1 0x0 SWAP1 SLOAD SWAP1 PUSH2 0x100 EXP SWAP1 DIV PUSH1 0xFF AND ISZERO ISZERO SUB PUSH2 0x14EB JUMPI PUSH1 0x40 MLOAD PUSH32 0x8C379A000000000000000000000000000000000000000000000000000000000 DUP2 MSTORE PUSH1 0x4 ADD PUSH2 0x14E2 SWAP1 PUSH2 0x486C JUMP JUMPDEST PUSH1 0x40 MLOAD DUP1 SWAP2 SUB SWAP1 REVERT JUMPDEST PUSH1 0x0 PUSH1 0x3 PUSH1 0x0 DUP7 DUP2 MSTORE PUSH1 0x20 ADD SWAP1 DUP2 MSTORE PUSH1 0x20 ADD PUSH1 0x0 KECCAK256 PUSH1 0xA ADD PUSH1 0x0 DUP6 DUP2 MSTORE PUSH1 0x20 ADD SWAP1 DUP2 MSTORE PUSH1 0x20 ADD PUSH1 0x0 KECCAK256 SWAP1 POP DUP2 PUSH1 0x7 ADD PUSH1 0x0 CALLER PUSH20 0xFFFFFFFFFFFFFFFFFFFFFFFFFFFFFFFFFFFFFFFF AND PUSH20 0xFFFFFFFFFFFFFFFFFFFFFFFFFFFFFFFFFFFFFFFF AND DUP2 MSTORE PUSH1 0x20 ADD SWAP1 DUP2 MSTORE PUSH1 0x20 ADD PUSH1 0x0 KECCAK256 PUSH1 0x4 ADD SLOAD DUP2 PUSH1 0x1 ADD PUSH1 0x0 DUP6 DUP2 MSTORE PUSH1 0x20 ADD SWAP1 DUP2 MSTORE PUSH1 0x20 ADD PUSH1 0x0 KECCAK256 PUSH1 0x2 ADD SLOAD PUSH2 0x157E SWAP2 SWAP1 PUSH2 0x488C JUMP JUMPDEST DUP2 PUSH1 0x1 ADD PUSH1 0x0 DUP6 DUP2 MSTORE PUSH1 0x20 ADD SWAP1 DUP2 MSTORE PUSH1 0x20 ADD PUSH1 0x0 KECCAK256 PUSH1 0x2 ADD DUP2 SWAP1 SSTORE POP PUSH1 0x1 DUP3 PUSH1 0x7 ADD PUSH1 0x0 CALLER PUSH20 0xFFFFFFFFFFFFFFFFFFFFFFFFFFFFFFFFFFFFFFFF AND PUSH20 0xFFFFFFFFFFFFFFFFFFFFFFFFFFFFFFFFFFFFFFFF AND DUP2 MSTORE PUSH1 0x20 ADD SWAP1 DUP2 MSTORE PUSH1 0x20 ADD PUSH1 0x0 KECCAK256 PUSH1 0x1 ADD PUSH1 0x0 DUP7 DUP2 MSTORE PUSH1 0x20 ADD SWAP1 DUP2 MSTORE PUSH1 0x20 ADD PUSH1 0x0 KECCAK256 PUSH1 0x0 ADD PUSH1 0x0 PUSH2 0x100 EXP DUP2 SLOAD DUP2 PUSH1 0xFF MUL NOT AND SWAP1 DUP4 ISZERO ISZERO MUL OR SWAP1 SSTORE POP DUP1 PUSH1 0x4 ADD SLOAD DUP3 PUSH1 0x7 ADD PUSH1 0x0 CALLER PUSH20 0xFFFFFFFFFFFFFFFFFFFFFFFFFFFFFFFFFFFFFFFF AND PUSH20 0xFFFFFFFFFFFFFFFFFFFFFFFFFFFFFFFFFFFFFFFF AND DUP2 MSTORE PUSH1 0x20 ADD SWAP1 DUP2 MSTORE PUSH1 0x20 ADD PUSH1 0x0 KECCAK256 PUSH1 0x1 ADD PUSH1 0x0 DUP7 DUP2 MSTORE PUSH1 0x20 ADD SWAP1 DUP2 MSTORE PUSH1 0x20 ADD PUSH1 0x0 KECCAK256 PUSH1 0x4 ADD DUP2 SWAP1 SSTORE POP DUP3 DUP3 PUSH1 0x7 ADD PUSH1 0x0 CALLER PUSH20 0xFFFFFFFFFFFFFFFFFFFFFFFFFFFFFFFFFFFFFFFF AND PUSH20 0xFFFFFFFFFFFFFFFFFFFFFFFFFFFFFFFFFFFFFFFF AND DUP2 MSTORE PUSH1 0x20 ADD SWAP1 DUP2 MSTORE PUSH1 0x20 ADD PUSH1 0x0 KECCAK256 PUSH1 0x1 ADD PUSH1 0x0 DUP7 DUP2 MSTORE PUSH1 0x20 ADD SWAP1 DUP2 MSTORE PUSH1 0x20 ADD PUSH1 0x0 KECCAK256 PUSH1 0x1 ADD DUP2 SWAP1 SSTORE POP DUP1 PUSH1 0x1 ADD PUSH1 0x0 DUP5 DUP2 MSTORE PUSH1 0x20 ADD SWAP1 DUP2 MSTORE PUSH1 0x20 ADD PUSH1 0x0 KECCAK256 PUSH1 0x0 ADD SLOAD DUP3 PUSH1 0x7 ADD PUSH1 0x0 CALLER PUSH20 0xFFFFFFFFFFFFFFFFFFFFFFFFFFFFFFFFFFFFFFFF AND PUSH20 0xFFFFFFFFFFFFFFFFFFFFFFFFFFFFFFFFFFFFFFFF AND DUP2 MSTORE PUSH1 0x20 ADD SWAP1 DUP2 MSTORE PUSH1 0x20 ADD PUSH1 0x0 KECCAK256 PUSH1 0x1 ADD PUSH1 0x0 DUP7 DUP2 MSTORE PUSH1 0x20 ADD SWAP1 DUP2 MSTORE PUSH1 0x20 ADD PUSH1 0x0 KECCAK256 PUSH1 0x2 ADD DUP2 SWAP1 SSTORE POP DUP4 DUP3 PUSH1 0x7 ADD PUSH1 0x0 CALLER PUSH20 0xFFFFFFFFFFFFFFFFFFFFFFFFFFFFFFFFFFFFFFFF AND PUSH20 0xFFFFFFFFFFFFFFFFFFFFFFFFFFFFFFFFFFFFFFFF AND DUP2 MSTORE PUSH1 0x20 ADD SWAP1 DUP2 MSTORE PUSH1 0x20 ADD PUSH1 0x0 KECCAK256 PUSH1 0x1 ADD PUSH1 0x0 DUP7 DUP2 MSTORE PUSH1 0x20 ADD SWAP1 DUP2 MSTORE PUSH1 0x20 ADD PUSH1 0x0 KECCAK256 PUSH1 0x3 ADD DUP2 SWAP1 SSTORE POP DUP2 PUSH1 0x7 ADD PUSH1 0x0 CALLER PUSH20 0xFFFFFFFFFFFFFFFFFFFFFFFFFFFFFFFFFFFFFFFF AND PUSH20 0xFFFFFFFFFFFFFFFFFFFFFFFFFFFFFFFFFFFFFFFF AND DUP2 MSTORE PUSH1 0x20 ADD SWAP1 DUP2 MSTORE PUSH1 0x20 ADD PUSH1 0x0 KECCAK256 PUSH1 0x5 ADD PUSH1 0x0 DUP2 SLOAD DUP1 SWAP3 SWAP2 SWAP1 PUSH2 0x17F0 SWAP1 PUSH2 0x46DA JUMP JUMPDEST SWAP2 SWAP1 POP SSTORE POP DUP1 PUSH1 0x5 ADD PUSH1 0x0 DUP2 SLOAD DUP1 SWAP3 SWAP2 SWAP1 PUSH2 0x180A SWAP1 PUSH2 0x46DA JUMP JUMPDEST SWAP2 SWAP1 POP SSTORE POP POP POP POP POP POP JUMP JUMPDEST PUSH1 0x0 DUP1 PUSH1 0x60 PUSH1 0x0 DUP1 PUSH1 0x60 DUP1 PUSH1 0x60 PUSH1 0x0 DUP1 PUSH1 0x0 PUSH1 0x1 SLOAD DUP13 GT ISZERO PUSH2 0x186D JUMPI PUSH1 0x40 MLOAD PUSH32 0x8C379A000000000000000000000000000000000000000000000000000000000 DUP2 MSTORE PUSH1 0x4 ADD PUSH2 0x1864 SWAP1 PUSH2 0x45FC JUMP JUMPDEST PUSH1 0x40 MLOAD DUP1 SWAP2 SUB SWAP1 REVERT JUMPDEST PUSH1 0x0 DUP13 SUB PUSH2 0x18B0 JUMPI PUSH1 0x40 MLOAD PUSH32 0x8C379A000000000000000000000000000000000000000000000000000000000 DUP2 MSTORE PUSH1 0x4 ADD PUSH2 0x18A7 SWAP1 PUSH2 0x45FC JUMP JUMPDEST PUSH1 0x40 MLOAD DUP1 SWAP2 SUB SWAP1 REVERT JUMPDEST PUSH1 0x0 PUSH1 0x3 PUSH1 0x0 DUP15 DUP2 MSTORE PUSH1 0x20 ADD SWAP1 DUP2 MSTORE PUSH1 0x20 ADD PUSH1 0x0 KECCAK256 SWAP1 POP DUP1 PUSH1 0x6 ADD SLOAD PUSH8 0xFFFFFFFFFFFFFFFF DUP2 GT ISZERO PUSH2 0x18E5 JUMPI PUSH2 0x18E4 PUSH2 0x3D02 JUMP JUMPDEST JUMPDEST PUSH1 0x40 MLOAD SWAP1 DUP1 DUP3 MSTORE DUP1 PUSH1 0x20 MUL PUSH1 0x20 ADD DUP3 ADD PUSH1 0x40 MSTORE DUP1 ISZERO PUSH2 0x1913 JUMPI DUP2 PUSH1 0x20 ADD PUSH1 0x20 DUP3 MUL DUP1 CALLDATASIZE DUP4 CALLDATACOPY DUP1 DUP3 ADD SWAP2 POP POP SWAP1 POP JUMPDEST POP SWAP7 POP DUP1 PUSH1 0x6 ADD SLOAD PUSH8 0xFFFFFFFFFFFFFFFF DUP2 GT ISZERO PUSH2 0x1934 JUMPI PUSH2 0x1933 PUSH2 0x3D02 JUMP JUMPDEST JUMPDEST PUSH1 0x40 MLOAD SWAP1 DUP1 DUP3 MSTORE DUP1 PUSH1 0x20 MUL PUSH1 0x20 ADD DUP3 ADD PUSH1 0x40 MSTORE DUP1 ISZERO PUSH2 0x1967 JUMPI DUP2 PUSH1 0x20 ADD JUMPDEST PUSH1 0x60 DUP2 MSTORE PUSH1 0x20 ADD SWAP1 PUSH1 0x1 SWAP1 SUB SWAP1 DUP2 PUSH2 0x1952 JUMPI SWAP1 POP JUMPDEST POP SWAP5 POP PUSH1 0x0 JUMPDEST DUP2 PUSH1 0x6 ADD SLOAD DUP2 LT ISZERO PUSH2 0x1B5B JUMPI DUP2 PUSH1 0x5 ADD PUSH1 0x0 DUP4 PUSH1 0x9 ADD DUP4 DUP2 SLOAD DUP2 LT PUSH2 0x1995 JUMPI PUSH2 0x1994 PUSH2 0x461C JUMP JUMPDEST JUMPDEST SWAP1 PUSH1 0x0 MSTORE PUSH1 0x20 PUSH1 0x0 KECCAK256 ADD PUSH1 0x0 SWAP1 SLOAD SWAP1 PUSH2 0x100 EXP SWAP1 DIV PUSH20 0xFFFFFFFFFFFFFFFFFFFFFFFFFFFFFFFFFFFFFFFF AND PUSH20 0xFFFFFFFFFFFFFFFFFFFFFFFFFFFFFFFFFFFFFFFF AND PUSH20 0xFFFFFFFFFFFFFFFFFFFFFFFFFFFFFFFFFFFFFFFF AND DUP2 MSTORE PUSH1 0x20 ADD SWAP1 DUP2 MSTORE PUSH1 0x20 ADD PUSH1 0x0 KECCAK256 PUSH1 0x1 ADD SLOAD DUP9 DUP3 DUP2 MLOAD DUP2 LT PUSH2 0x1A11 JUMPI PUSH2 0x1A10 PUSH2 0x461C JUMP JUMPDEST JUMPDEST PUSH1 0x20 MUL PUSH1 0x20 ADD ADD DUP2 DUP2 MSTORE POP POP DUP2 PUSH1 0x5 ADD PUSH1 0x0 DUP4 PUSH1 0x9 ADD DUP4 DUP2 SLOAD DUP2 LT PUSH2 0x1A39 JUMPI PUSH2 0x1A38 PUSH2 0x461C JUMP JUMPDEST JUMPDEST SWAP1 PUSH1 0x0 MSTORE PUSH1 0x20 PUSH1 0x0 KECCAK256 ADD PUSH1 0x0 SWAP1 SLOAD SWAP1 PUSH2 0x100 EXP SWAP1 DIV PUSH20 0xFFFFFFFFFFFFFFFFFFFFFFFFFFFFFFFFFFFFFFFF AND PUSH20 0xFFFFFFFFFFFFFFFFFFFFFFFFFFFFFFFFFFFFFFFF AND PUSH20 0xFFFFFFFFFFFFFFFFFFFFFFFFFFFFFFFFFFFFFFFF AND DUP2 MSTORE PUSH1 0x20 ADD SWAP1 DUP2 MSTORE PUSH1 0x20 ADD PUSH1 0x0 KECCAK256 PUSH1 0x2 ADD DUP1 SLOAD PUSH2 0x1AAC SWAP1 PUSH2 0x467A JUMP JUMPDEST DUP1 PUSH1 0x1F ADD PUSH1 0x20 DUP1 SWAP2 DIV MUL PUSH1 0x20 ADD PUSH1 0x40 MLOAD SWAP1 DUP2 ADD PUSH1 0x40 MSTORE DUP1 SWAP3 SWAP2 SWAP1 DUP2 DUP2 MSTORE PUSH1 0x20 ADD DUP3 DUP1 SLOAD PUSH2 0x1AD8 SWAP1 PUSH2 0x467A JUMP JUMPDEST DUP1 ISZERO PUSH2 0x1B25 JUMPI DUP1 PUSH1 0x1F LT PUSH2 0x1AFA JUMPI PUSH2 0x100 DUP1 DUP4 SLOAD DIV MUL DUP4 MSTORE SWAP2 PUSH1 0x20 ADD SWAP2 PUSH2 0x1B25 JUMP JUMPDEST DUP3 ADD SWAP2 SWAP1 PUSH1 0x0 MSTORE PUSH1 0x20 PUSH1 0x0 KECCAK256 SWAP1 JUMPDEST DUP2 SLOAD DUP2 MSTORE SWAP1 PUSH1 0x1 ADD SWAP1 PUSH1 0x20 ADD DUP1 DUP4 GT PUSH2 0x1B08 JUMPI DUP3 SWAP1 SUB PUSH1 0x1F AND DUP3 ADD SWAP2 JUMPDEST POP POP POP POP POP DUP7 DUP3 DUP2 MLOAD DUP2 LT PUSH2 0x1B3D JUMPI PUSH2 0x1B3C PUSH2 0x461C JUMP JUMPDEST JUMPDEST PUSH1 0x20 MUL PUSH1 0x20 ADD ADD DUP2 SWAP1 MSTORE POP DUP1 DUP1 PUSH2 0x1B53 SWAP1 PUSH2 0x46DA JUMP JUMPDEST SWAP2 POP POP PUSH2 0x196D JUMP JUMPDEST POP DUP1 PUSH1 0x0 ADD SLOAD DUP2 PUSH1 0x1 ADD PUSH1 0x0 SWAP1 SLOAD SWAP1 PUSH2 0x100 EXP SWAP1 DIV PUSH20 0xFFFFFFFFFFFFFFFFFFFFFFFFFFFFFFFFFFFFFFFF AND DUP3 PUSH1 0x2 ADD DUP4 PUSH1 0x3 ADD SLOAD DUP5 PUSH1 0x4 ADD SLOAD DUP12 DUP7 PUSH1 0x9 ADD DUP12 DUP9 PUSH1 0x6 ADD SLOAD DUP10 PUSH1 0xB ADD SLOAD DUP11 PUSH1 0x8 ADD SLOAD DUP9 DUP1 SLOAD PUSH2 0x1BB5 SWAP1 PUSH2 0x467A JUMP JUMPDEST DUP1 PUSH1 0x1F ADD PUSH1 0x20 DUP1 SWAP2 DIV MUL PUSH1 0x20 ADD PUSH1 0x40 MLOAD SWAP1 DUP2 ADD PUSH1 0x40 MSTORE DUP1 SWAP3 SWAP2 SWAP1 DUP2 DUP2 MSTORE PUSH1 0x20 ADD DUP3 DUP1 SLOAD PUSH2 0x1BE1 SWAP1 PUSH2 0x467A JUMP JUMPDEST DUP1 ISZERO PUSH2 0x1C2E JUMPI DUP1 PUSH1 0x1F LT PUSH2 0x1C03 JUMPI PUSH2 0x100 DUP1 DUP4 SLOAD DIV MUL DUP4 MSTORE SWAP2 PUSH1 0x20 ADD SWAP2 PUSH2 0x1C2E JUMP JUMPDEST DUP3 ADD SWAP2 SWAP1 PUSH1 0x0 MSTORE PUSH1 0x20 PUSH1 0x0 KECCAK256 SWAP1 JUMPDEST DUP2 SLOAD DUP2 MSTORE SWAP1 PUSH1 0x1 ADD SWAP1 PUSH1 0x20 ADD DUP1 DUP4 GT PUSH2 0x1C11 JUMPI DUP3 SWAP1 SUB PUSH1 0x1F AND DUP3 ADD SWAP2 JUMPDEST POP POP POP POP POP SWAP9 POP DUP5 DUP1 SLOAD DUP1 PUSH1 0x20 MUL PUSH1 0x20 ADD PUSH1 0x40 MLOAD SWAP1 DUP2 ADD PUSH1 0x40 MSTORE DUP1 SWAP3 SWAP2 SWAP1 DUP2 DUP2 MSTORE PUSH1 0x20 ADD DUP3 DUP1 SLOAD DUP1 ISZERO PUSH2 0x1CB6 JUMPI PUSH1 0x20 MUL DUP3 ADD SWAP2 SWAP1 PUSH1 0x0 MSTORE PUSH1 0x20 PUSH1 0x0 KECCAK256 SWAP1 JUMPDEST DUP2 PUSH1 0x0 SWAP1 SLOAD SWAP1 PUSH2 0x100 EXP SWAP1 DIV PUSH20 0xFFFFFFFFFFFFFFFFFFFFFFFFFFFFFFFFFFFFFFFF AND PUSH20 0xFFFFFFFFFFFFFFFFFFFFFFFFFFFFFFFFFFFFFFFF AND DUP2 MSTORE PUSH1 0x20 ADD SWAP1 PUSH1 0x1 ADD SWAP1 DUP1 DUP4 GT PUSH2 0x1C6C JUMPI JUMPDEST POP POP POP POP POP SWAP5 POP SWAP12 POP SWAP12 POP SWAP12 POP SWAP12 POP SWAP12 POP SWAP12 POP SWAP12 POP SWAP12 POP SWAP12 POP SWAP12 POP SWAP12 POP POP SWAP2 SWAP4 SWAP6 SWAP8 SWAP10 SWAP12 SWAP1 SWAP3 SWAP5 SWAP7 SWAP9 SWAP11 POP JUMP JUMPDEST DUP2 DUP4 DUP3 PUSH1 0x0 DUP3 SUB PUSH2 0x1D29 JUMPI PUSH1 0x40 MLOAD PUSH32 0x8C379A000000000000000000000000000000000000000000000000000000000 DUP2 MSTORE PUSH1 0x4 ADD PUSH2 0x1D20 SWAP1 PUSH2 0x45FC JUMP JUMPDEST PUSH1 0x40 MLOAD DUP1 SWAP2 SUB SWAP1 REVERT JUMPDEST PUSH1 0x1 SLOAD DUP3 GT ISZERO PUSH2 0x1D6E JUMPI PUSH1 0x40 MLOAD PUSH32 0x8C379A000000000000000000000000000000000000000000000000000000000 DUP2 MSTORE PUSH1 0x4 ADD PUSH2 0x1D65 SWAP1 PUSH2 0x490C JUMP JUMPDEST PUSH1 0x40 MLOAD DUP1 SWAP2 SUB SWAP1 REVERT JUMPDEST PUSH1 0x0 DUP4 PUSH20 0xFFFFFFFFFFFFFFFFFFFFFFFFFFFFFFFFFFFFFFFF AND PUSH1 0x3 PUSH1 0x0 DUP6 DUP2 MSTORE PUSH1 0x20 ADD SWAP1 DUP2 MSTORE PUSH1 0x20 ADD PUSH1 0x0 KECCAK256 PUSH1 0x7 ADD PUSH1 0x0 DUP7 PUSH20 0xFFFFFFFFFFFFFFFFFFFFFFFFFFFFFFFFFFFFFFFF AND PUSH20 0xFFFFFFFFFFFFFFFFFFFFFFFFFFFFFFFFFFFFFFFF AND DUP2 MSTORE PUSH1 0x20 ADD SWAP1 DUP2 MSTORE PUSH1 0x20 ADD PUSH1 0x0 KECCAK256 PUSH1 0x3 ADD PUSH1 0x0 SWAP1 SLOAD SWAP1 PUSH2 0x100 EXP SWAP1 DIV PUSH20 0xFFFFFFFFFFFFFFFFFFFFFFFFFFFFFFFFFFFFFFFF AND PUSH20 0xFFFFFFFFFFFFFFFFFFFFFFFFFFFFFFFFFFFFFFFF AND EQ PUSH2 0x1E54 JUMPI PUSH1 0x40 MLOAD PUSH32 0x8C379A000000000000000000000000000000000000000000000000000000000 DUP2 MSTORE PUSH1 0x4 ADD PUSH2 0x1E4B SWAP1 PUSH2 0x499E JUMP JUMPDEST PUSH1 0x40 MLOAD DUP1 SWAP2 SUB SWAP1 REVERT JUMPDEST PUSH1 0x0 JUMPDEST PUSH1 0x3 PUSH1 0x0 DUP6 DUP2 MSTORE PUSH1 0x20 ADD SWAP1 DUP2 MSTORE PUSH1 0x20 ADD PUSH1 0x0 KECCAK256 PUSH1 0x6 ADD SLOAD DUP2 LT ISZERO PUSH2 0x1EEA JUMPI DUP3 PUSH1 0x3 PUSH1 0x0 DUP7 DUP2 MSTORE PUSH1 0x20 ADD SWAP1 DUP2 MSTORE PUSH1 0x20 ADD PUSH1 0x0 KECCAK256 PUSH1 0x5 ADD PUSH1 0x0 CALLER PUSH20 0xFFFFFFFFFFFFFFFFFFFFFFFFFFFFFFFFFFFFFFFF AND PUSH20 0xFFFFFFFFFFFFFFFFFFFFFFFFFFFFFFFFFFFFFFFF AND DUP2 MSTORE PUSH1 0x20 ADD SWAP1 DUP2 MSTORE PUSH1 0x20 ADD PUSH1 0x0 KECCAK256 PUSH1 0x1 ADD SLOAD SUB PUSH2 0x1ED7 JUMPI PUSH1 0x1 SWAP2 POP JUMPDEST DUP1 DUP1 PUSH2 0x1EE2 SWAP1 PUSH2 0x46DA JUMP JUMPDEST SWAP2 POP POP PUSH2 0x1E57 JUMP JUMPDEST POP DUP1 PUSH2 0x1F2B JUMPI PUSH1 0x40 MLOAD PUSH32 0x8C379A000000000000000000000000000000000000000000000000000000000 DUP2 MSTORE PUSH1 0x4 ADD PUSH2 0x1F22 SWAP1 PUSH2 0x4A30 JUMP JUMPDEST PUSH1 0x40 MLOAD DUP1 SWAP2 SUB SWAP1 REVERT JUMPDEST PUSH1 0x0 DUP1 PUSH1 0x0 SWAP1 POP JUMPDEST PUSH1 0x3 PUSH1 0x0 DUP7 DUP2 MSTORE PUSH1 0x20 ADD SWAP1 DUP2 MSTORE PUSH1 0x20 ADD PUSH1 0x0 KECCAK256 PUSH1 0x6 ADD SLOAD DUP2 LT ISZERO PUSH2 0x2003 JUMPI DUP4 PUSH1 0x3 PUSH1 0x0 DUP8 DUP2 MSTORE PUSH1 0x20 ADD SWAP1 DUP2 MSTORE PUSH1 0x20 ADD PUSH1 0x0 KECCAK256 PUSH1 0x7 ADD PUSH1 0x0 DUP9 PUSH20 0xFFFFFFFFFFFFFFFFFFFFFFFFFFFFFFFFFFFFFFFF AND PUSH20 0xFFFFFFFFFFFFFFFFFFFFFFFFFFFFFFFFFFFFFFFF AND DUP2 MSTORE PUSH1 0x20 ADD SWAP1 DUP2 MSTORE PUSH1 0x20 ADD PUSH1 0x0 KECCAK256 PUSH1 0x0 ADD PUSH1 0x0 CALLER PUSH20 0xFFFFFFFFFFFFFFFFFFFFFFFFFFFFFFFFFFFFFFFF AND PUSH20 0xFFFFFFFFFFFFFFFFFFFFFFFFFFFFFFFFFFFFFFFF AND DUP2 MSTORE PUSH1 0x20 ADD SWAP1 DUP2 MSTORE PUSH1 0x20 ADD PUSH1 0x0 KECCAK256 SLOAD SUB PUSH2 0x1FF0 JUMPI PUSH1 0x1 SWAP2 POP JUMPDEST DUP1 DUP1 PUSH2 0x1FFB SWAP1 PUSH2 0x46DA JUMP JUMPDEST SWAP2 POP POP PUSH2 0x1F33 JUMP JUMPDEST POP DUP1 ISZERO PUSH2 0x2045 JUMPI PUSH1 0x40 MLOAD PUSH32 0x8C379A000000000000000000000000000000000000000000000000000000000 DUP2 MSTORE PUSH1 0x4 ADD PUSH2 0x203C SWAP1 PUSH2 0x4AC2 JUMP JUMPDEST PUSH1 0x40 MLOAD DUP1 SWAP2 SUB SWAP1 REVERT JUMPDEST DUP6 PUSH1 0x3 PUSH1 0x0 DUP11 DUP2 MSTORE PUSH1 0x20 ADD SWAP1 DUP2 MSTORE PUSH1 0x20 ADD PUSH1 0x0 KECCAK256 PUSH1 0x7 ADD PUSH1 0x0 DUP10 PUSH20 0xFFFFFFFFFFFFFFFFFFFFFFFFFFFFFFFFFFFFFFFF AND PUSH20 0xFFFFFFFFFFFFFFFFFFFFFFFFFFFFFFFFFFFFFFFF AND DUP2 MSTORE PUSH1 0x20 ADD SWAP1 DUP2 MSTORE PUSH1 0x20 ADD PUSH1 0x0 KECCAK256 PUSH1 0x0 ADD PUSH1 0x0 CALLER PUSH20 0xFFFFFFFFFFFFFFFFFFFFFFFFFFFFFFFFFFFFFFFF AND PUSH20 0xFFFFFFFFFFFFFFFFFFFFFFFFFFFFFFFFFFFFFFFF AND DUP2 MSTORE PUSH1 0x20 ADD SWAP1 DUP2 MSTORE PUSH1 0x20 ADD PUSH1 0x0 KECCAK256 DUP2 SWAP1 SSTORE POP PUSH1 0x3 PUSH1 0x0 DUP10 DUP2 MSTORE PUSH1 0x20 ADD SWAP1 DUP2 MSTORE PUSH1 0x20 ADD PUSH1 0x0 KECCAK256 PUSH1 0x7 ADD PUSH1 0x0 DUP9 PUSH20 0xFFFFFFFFFFFFFFFFFFFFFFFFFFFFFFFFFFFFFFFF AND PUSH20 0xFFFFFFFFFFFFFFFFFFFFFFFFFFFFFFFFFFFFFFFF AND DUP2 MSTORE PUSH1 0x20 ADD SWAP1 DUP2 MSTORE PUSH1 0x20 ADD PUSH1 0x0 KECCAK256 PUSH1 0x2 ADD PUSH1 0x0 DUP2 SLOAD DUP1 SWAP3 SWAP2 SWAP1 PUSH2 0x2144 SWAP1 PUSH2 0x46DA JUMP JUMPDEST SWAP2 SWAP1 POP SSTORE POP PUSH1 0x0 PUSH1 0x3 PUSH1 0x0 DUP11 DUP2 MSTORE PUSH1 0x20 ADD SWAP1 DUP2 MSTORE PUSH1 0x20 ADD PUSH1 0x0 KECCAK256 PUSH1 0x6 ADD SLOAD PUSH1 0x3 PUSH1 0x0 DUP12 DUP2 MSTORE PUSH1 0x20 ADD SWAP1 DUP2 MSTORE PUSH1 0x20 ADD PUSH1 0x0 KECCAK256 PUSH1 0x7 ADD PUSH1 0x0 DUP11 PUSH20 0xFFFFFFFFFFFFFFFFFFFFFFFFFFFFFFFFFFFFFFFF AND PUSH20 0xFFFFFFFFFFFFFFFFFFFFFFFFFFFFFFFFFFFFFFFF AND DUP2 MSTORE PUSH1 0x20 ADD SWAP1 DUP2 MSTORE PUSH1 0x20 ADD PUSH1 0x0 KECCAK256 PUSH1 0x2 ADD SLOAD EQ SWAP1 POP DUP1 ISZERO PUSH2 0x228E JUMPI PUSH1 0x1 PUSH1 0x3 PUSH1 0x0 DUP12 DUP2 MSTORE PUSH1 0x20 ADD SWAP1 DUP2 MSTORE PUSH1 0x20 ADD PUSH1 0x0 KECCAK256 PUSH1 0x7 ADD PUSH1 0x0 DUP11 PUSH20 0xFFFFFFFFFFFFFFFFFFFFFFFFFFFFFFFFFFFFFFFF AND PUSH20 0xFFFFFFFFFFFFFFFFFFFFFFFFFFFFFFFFFFFFFFFF AND DUP2 MSTORE PUSH1 0x20 ADD SWAP1 DUP2 MSTORE PUSH1 0x20 ADD PUSH1 0x0 KECCAK256 PUSH1 0x4 ADD DUP2 SWAP1 SSTORE POP PUSH1 0x1 PUSH1 0x3 PUSH1 0x0 DUP12 DUP2 MSTORE PUSH1 0x20 ADD SWAP1 DUP2 MSTORE PUSH1 0x20 ADD PUSH1 0x0 KECCAK256 PUSH1 0x7 ADD PUSH1 0x0 DUP11 PUSH20 0xFFFFFFFFFFFFFFFFFFFFFFFFFFFFFFFFFFFFFFFF AND PUSH20 0xFFFFFFFFFFFFFFFFFFFFFFFFFFFFFFFFFFFFFFFF AND DUP2 MSTORE PUSH1 0x20 ADD SWAP1 DUP2 MSTORE PUSH1 0x20 ADD PUSH1 0x0 KECCAK256 PUSH1 0x6 ADD PUSH1 0x0 PUSH2 0x100 EXP DUP2 SLOAD DUP2 PUSH1 0xFF MUL NOT AND SWAP1 DUP4 ISZERO ISZERO MUL OR SWAP1 SSTORE POP JUMPDEST POP POP POP POP POP POP POP POP POP JUMP JUMPDEST DUP2 DUP2 PUSH1 0x3 PUSH1 0x0 DUP4 DUP2 MSTORE PUSH1 0x20 ADD SWAP1 DUP2 MSTORE PUSH1 0x20 ADD PUSH1 0x0 KECCAK256 PUSH1 0x1 ADD PUSH1 0x0 SWAP1 SLOAD SWAP1 PUSH2 0x100 EXP SWAP1 DIV PUSH20 0xFFFFFFFFFFFFFFFFFFFFFFFFFFFFFFFFFFFFFFFF AND PUSH20 0xFFFFFFFFFFFFFFFFFFFFFFFFFFFFFFFFFFFFFFFF AND CALLER PUSH20 0xFFFFFFFFFFFFFFFFFFFFFFFFFFFFFFFFFFFFFFFF AND EQ PUSH2 0x233F JUMPI PUSH1 0x40 MLOAD PUSH32 0x8C379A000000000000000000000000000000000000000000000000000000000 DUP2 MSTORE PUSH1 0x4 ADD PUSH2 0x2336 SWAP1 PUSH2 0x4B54 JUMP JUMPDEST PUSH1 0x40 MLOAD DUP1 SWAP2 SUB SWAP1 REVERT JUMPDEST DUP1 PUSH20 0xFFFFFFFFFFFFFFFFFFFFFFFFFFFFFFFFFFFFFFFF AND PUSH1 0x3 PUSH1 0x0 DUP5 DUP2 MSTORE PUSH1 0x20 ADD SWAP1 DUP2 MSTORE PUSH1 0x20 ADD PUSH1 0x0 KECCAK256 PUSH1 0x7 ADD PUSH1 0x0 DUP4 PUSH20 0xFFFFFFFFFFFFFFFFFFFFFFFFFFFFFFFFFFFFFFFF AND PUSH20 0xFFFFFFFFFFFFFFFFFFFFFFFFFFFFFFFFFFFFFFFF AND DUP2 MSTORE PUSH1 0x20 ADD SWAP1 DUP2 MSTORE PUSH1 0x20 ADD PUSH1 0x0 KECCAK256 PUSH1 0x3 ADD PUSH1 0x0 SWAP1 SLOAD SWAP1 PUSH2 0x100 EXP SWAP1 DIV PUSH20 0xFFFFFFFFFFFFFFFFFFFFFFFFFFFFFFFFFFFFFFFF AND PUSH20 0xFFFFFFFFFFFFFFFFFFFFFFFFFFFFFFFFFFFFFFFF AND SUB PUSH2 0x2423 JUMPI PUSH1 0x40 MLOAD PUSH32 0x8C379A000000000000000000000000000000000000000000000000000000000 DUP2 MSTORE PUSH1 0x4 ADD PUSH2 0x241A SWAP1 PUSH2 0x4BC0 JUMP JUMPDEST PUSH1 0x40 MLOAD DUP1 SWAP2 SUB SWAP1 REVERT JUMPDEST PUSH1 0x0 PUSH1 0x3 PUSH1 0x0 DUP7 DUP2 MSTORE PUSH1 0x20 ADD SWAP1 DUP2 MSTORE PUSH1 0x20 ADD PUSH1 0x0 KECCAK256 PUSH1 0x7 ADD PUSH1 0x0 DUP6 PUSH20 0xFFFFFFFFFFFFFFFFFFFFFFFFFFFFFFFFFFFFFFFF AND PUSH20 0xFFFFFFFFFFFFFFFFFFFFFFFFFFFFFFFFFFFFFFFF AND DUP2 MSTORE PUSH1 0x20 ADD SWAP1 DUP2 MSTORE PUSH1 0x20 ADD PUSH1 0x0 KECCAK256 SWAP1 POP DUP4 DUP2 PUSH1 0x3 ADD PUSH1 0x0 PUSH2 0x100 EXP DUP2 SLOAD DUP2 PUSH20 0xFFFFFFFFFFFFFFFFFFFFFFFFFFFFFFFFFFFFFFFF MUL NOT AND SWAP1 DUP4 PUSH20 0xFFFFFFFFFFFFFFFFFFFFFFFFFFFFFFFFFFFFFFFF AND MUL OR SWAP1 SSTORE POP PUSH1 0x3 PUSH1 0x0 DUP7 DUP2 MSTORE PUSH1 0x20 ADD SWAP1 DUP2 MSTORE PUSH1 0x20 ADD PUSH1 0x0 KECCAK256 PUSH1 0x8 ADD PUSH1 0x0 DUP2 SLOAD DUP1 SWAP3 SWAP2 SWAP1 PUSH2 0x24E4 SWAP1 PUSH2 0x46DA JUMP JUMPDEST SWAP2 SWAP1 POP SSTORE POP POP POP POP POP POP JUMP JUMPDEST PUSH1 0x1 SLOAD DUP5 GT ISZERO PUSH2 0x2535 JUMPI PUSH1 0x40 MLOAD PUSH32 0x8C379A000000000000000000000000000000000000000000000000000000000 DUP2 MSTORE PUSH1 0x4 ADD PUSH2 0x252C SWAP1 PUSH2 0x45FC JUMP JUMPDEST PUSH1 0x40 MLOAD DUP1 SWAP2 SUB SWAP1 REVERT JUMPDEST CALLER PUSH20 0xFFFFFFFFFFFFFFFFFFFFFFFFFFFFFFFFFFFFFFFF AND PUSH1 0x3 PUSH1 0x0 DUP7 DUP2 MSTORE PUSH1 0x20 ADD SWAP1 DUP2 MSTORE PUSH1 0x20 ADD PUSH1 0x0 KECCAK256 PUSH1 0x1 ADD PUSH1 0x0 SWAP1 SLOAD SWAP1 PUSH2 0x100 EXP SWAP1 DIV PUSH20 0xFFFFFFFFFFFFFFFFFFFFFFFFFFFFFFFFFFFFFFFF AND PUSH20 0xFFFFFFFFFFFFFFFFFFFFFFFFFFFFFFFFFFFFFFFF AND EQ PUSH2 0x25D9 JUMPI PUSH1 0x40 MLOAD PUSH32 0x8C379A000000000000000000000000000000000000000000000000000000000 DUP2 MSTORE PUSH1 0x4 ADD PUSH2 0x25D0 SWAP1 PUSH2 0x4C52 JUMP JUMPDEST PUSH1 0x40 MLOAD DUP1 SWAP2 SUB SWAP1 REVERT JUMPDEST PUSH1 0x3 PUSH1 0x0 DUP6 DUP2 MSTORE PUSH1 0x20 ADD SWAP1 DUP2 MSTORE PUSH1 0x20 ADD PUSH1 0x0 KECCAK256 PUSH1 0x3 ADD SLOAD TIMESTAMP LT PUSH2 0x2631 JUMPI PUSH1 0x40 MLOAD PUSH32 0x8C379A000000000000000000000000000000000000000000000000000000000 DUP2 MSTORE PUSH1 0x4 ADD PUSH2 0x2628 SWAP1 PUSH2 0x4CBE JUMP JUMPDEST PUSH1 0x40 MLOAD DUP1 SWAP2 SUB SWAP1 REVERT JUMPDEST PUSH1 0x3 PUSH1 0x0 DUP6 DUP2 MSTORE PUSH1 0x20 ADD SWAP1 DUP2 MSTORE PUSH1 0x20 ADD PUSH1 0x0 KECCAK256 PUSH1 0xB ADD PUSH1 0x0 DUP2 SLOAD DUP1 SWAP3 SWAP2 SWAP1 PUSH2 0x2658 SWAP1 PUSH2 0x46DA JUMP JUMPDEST SWAP2 SWAP1 POP SSTORE POP PUSH1 0x0 PUSH1 0x3 PUSH1 0x0 DUP7 DUP2 MSTORE PUSH1 0x20 ADD SWAP1 DUP2 MSTORE PUSH1 0x20 ADD PUSH1 0x0 KECCAK256 PUSH1 0xB ADD SLOAD SWAP1 POP PUSH1 0x0 PUSH1 0x3 PUSH1 0x0 DUP8 DUP2 MSTORE PUSH1 0x20 ADD SWAP1 DUP2 MSTORE PUSH1 0x20 ADD PUSH1 0x0 KECCAK256 PUSH1 0xA ADD PUSH1 0x0 DUP4 DUP2 MSTORE PUSH1 0x20 ADD SWAP1 DUP2 MSTORE PUSH1 0x20 ADD PUSH1 0x0 KECCAK256 SWAP1 POP DUP6 DUP2 PUSH1 0x6 ADD DUP2 SWAP1 SSTORE POP PUSH2 0x26B8 DUP2 DUP4 DUP7 DUP7 PUSH2 0x3159 JUMP JUMPDEST PUSH1 0x0 JUMPDEST DUP6 MLOAD DUP2 LT ISZERO PUSH2 0x26FC JUMPI PUSH2 0x26E9 DUP3 DUP3 DUP9 DUP5 DUP2 MLOAD DUP2 LT PUSH2 0x26DC JUMPI PUSH2 0x26DB PUSH2 0x461C JUMP JUMPDEST JUMPDEST PUSH1 0x20 MUL PUSH1 0x20 ADD ADD MLOAD PUSH2 0x318D JUMP JUMPDEST DUP1 DUP1 PUSH2 0x26F4 SWAP1 PUSH2 0x46DA JUMP JUMPDEST SWAP2 POP POP PUSH2 0x26BB JUMP JUMPDEST POP POP POP POP POP POP POP JUMP JUMPDEST PUSH1 0x60 PUSH1 0x1 SLOAD DUP3 GT ISZERO PUSH2 0x274C JUMPI PUSH1 0x40 MLOAD PUSH32 0x8C379A000000000000000000000000000000000000000000000000000000000 DUP2 MSTORE PUSH1 0x4 ADD PUSH2 0x2743 SWAP1 PUSH2 0x45FC JUMP JUMPDEST PUSH1 0x40 MLOAD DUP1 SWAP2 SUB SWAP1 REVERT JUMPDEST PUSH1 0x0 DUP3 SUB PUSH2 0x278F JUMPI PUSH1 0x40 MLOAD PUSH32 0x8C379A000000000000000000000000000000000000000000000000000000000 DUP2 MSTORE PUSH1 0x4 ADD PUSH2 0x2786 SWAP1 PUSH2 0x45FC JUMP JUMPDEST PUSH1 0x40 MLOAD DUP1 SWAP2 SUB SWAP1 REVERT JUMPDEST CALLER PUSH20 0xFFFFFFFFFFFFFFFFFFFFFFFFFFFFFFFFFFFFFFFF AND PUSH1 0x3 PUSH1 0x0 DUP5 DUP2 MSTORE PUSH1 0x20 ADD SWAP1 DUP2 MSTORE PUSH1 0x20 ADD PUSH1 0x0 KECCAK256 PUSH1 0x7 ADD PUSH1 0x0 CALLER PUSH20 0xFFFFFFFFFFFFFFFFFFFFFFFFFFFFFFFFFFFFFFFF AND PUSH20 0xFFFFFFFFFFFFFFFFFFFFFFFFFFFFFFFFFFFFFFFF AND DUP2 MSTORE PUSH1 0x20 ADD SWAP1 DUP2 MSTORE PUSH1 0x20 ADD PUSH1 0x0 KECCAK256 PUSH1 0x3 ADD PUSH1 0x0 SWAP1 SLOAD SWAP1 PUSH2 0x100 EXP SWAP1 DIV PUSH20 0xFFFFFFFFFFFFFFFFFFFFFFFFFFFFFFFFFFFFFFFF AND PUSH20 0xFFFFFFFFFFFFFFFFFFFFFFFFFFFFFFFFFFFFFFFF AND EQ PUSH2 0x2873 JUMPI PUSH1 0x40 MLOAD PUSH32 0x8C379A000000000000000000000000000000000000000000000000000000000 DUP2 MSTORE PUSH1 0x4 ADD PUSH2 0x286A SWAP1 PUSH2 0x4590 JUMP JUMPDEST PUSH1 0x40 MLOAD DUP1 SWAP2 SUB SWAP1 REVERT JUMPDEST PUSH1 0x0 PUSH1 0x3 PUSH1 0x0 DUP5 DUP2 MSTORE PUSH1 0x20 ADD SWAP1 DUP2 MSTORE PUSH1 0x20 ADD PUSH1 0x0 KECCAK256 SWAP1 POP PUSH1 0x0 DUP2 PUSH1 0xB ADD SLOAD PUSH8 0xFFFFFFFFFFFFFFFF DUP2 GT ISZERO PUSH2 0x28AA JUMPI PUSH2 0x28A9 PUSH2 0x3D02 JUMP JUMPDEST JUMPDEST PUSH1 0x40 MLOAD SWAP1 DUP1 DUP3 MSTORE DUP1 PUSH1 0x20 MUL PUSH1 0x20 ADD DUP3 ADD PUSH1 0x40 MSTORE DUP1 ISZERO PUSH2 0x28E3 JUMPI DUP2 PUSH1 0x20 ADD JUMPDEST PUSH2 0x28D0 PUSH2 0x3270 JUMP JUMPDEST DUP2 MSTORE PUSH1 0x20 ADD SWAP1 PUSH1 0x1 SWAP1 SUB SWAP1 DUP2 PUSH2 0x28C8 JUMPI SWAP1 POP JUMPDEST POP SWAP1 POP PUSH1 0x0 PUSH1 0x1 SWAP1 POP JUMPDEST DUP3 PUSH1 0xB ADD SLOAD DUP2 GT PUSH2 0x2A8E JUMPI DUP1 DUP4 PUSH1 0x7 ADD PUSH1 0x0 CALLER PUSH20 0xFFFFFFFFFFFFFFFFFFFFFFFFFFFFFFFFFFFFFFFF AND PUSH20 0xFFFFFFFFFFFFFFFFFFFFFFFFFFFFFFFFFFFFFFFF AND DUP2 MSTORE PUSH1 0x20 ADD SWAP1 DUP2 MSTORE PUSH1 0x20 ADD PUSH1 0x0 KECCAK256 PUSH1 0x1 ADD PUSH1 0x0 DUP4 DUP2 MSTORE PUSH1 0x20 ADD SWAP1 DUP2 MSTORE PUSH1 0x20 ADD PUSH1 0x0 KECCAK256 PUSH1 0x3 ADD SLOAD SUB PUSH2 0x2A7B JUMPI DUP3 PUSH1 0x7 ADD PUSH1 0x0 CALLER PUSH20 0xFFFFFFFFFFFFFFFFFFFFFFFFFFFFFFFFFFFFFFFF AND PUSH20 0xFFFFFFFFFFFFFFFFFFFFFFFFFFFFFFFFFFFFFFFF AND DUP2 MSTORE PUSH1 0x20 ADD SWAP1 DUP2 MSTORE PUSH1 0x20 ADD PUSH1 0x0 KECCAK256 PUSH1 0x1 ADD PUSH1 0x0 DUP3 DUP2 MSTORE PUSH1 0x20 ADD SWAP1 DUP2 MSTORE PUSH1 0x20 ADD PUSH1 0x0 KECCAK256 PUSH1 0x40 MLOAD DUP1 PUSH1 0xC0 ADD PUSH1 0x40 MSTORE SWAP1 DUP2 PUSH1 0x0 DUP3 ADD PUSH1 0x0 SWAP1 SLOAD SWAP1 PUSH2 0x100 EXP SWAP1 DIV PUSH1 0xFF AND ISZERO ISZERO ISZERO ISZERO DUP2 MSTORE PUSH1 0x20 ADD PUSH1 0x0 DUP3 ADD PUSH1 0x1 SWAP1 SLOAD SWAP1 PUSH2 0x100 EXP SWAP1 DIV PUSH20 0xFFFFFFFFFFFFFFFFFFFFFFFFFFFFFFFFFFFFFFFF AND PUSH20 0xFFFFFFFFFFFFFFFFFFFFFFFFFFFFFFFFFFFFFFFF AND PUSH20 0xFFFFFFFFFFFFFFFFFFFFFFFFFFFFFFFFFFFFFFFF AND DUP2 MSTORE PUSH1 0x20 ADD PUSH1 0x1 DUP3 ADD SLOAD DUP2 MSTORE PUSH1 0x20 ADD PUSH1 0x2 DUP3 ADD SLOAD DUP2 MSTORE PUSH1 0x20 ADD PUSH1 0x3 DUP3 ADD SLOAD DUP2 MSTORE PUSH1 0x20 ADD PUSH1 0x4 DUP3 ADD SLOAD DUP2 MSTORE POP POP DUP3 PUSH1 0x1 DUP4 PUSH2 0x2A5E SWAP2 SWAP1 PUSH2 0x4CDE JUMP JUMPDEST DUP2 MLOAD DUP2 LT PUSH2 0x2A6F JUMPI PUSH2 0x2A6E PUSH2 0x461C JUMP JUMPDEST JUMPDEST PUSH1 0x20 MUL PUSH1 0x20 ADD ADD DUP2 SWAP1 MSTORE POP JUMPDEST DUP1 DUP1 PUSH2 0x2A86 SWAP1 PUSH2 0x46DA JUMP JUMPDEST SWAP2 POP POP PUSH2 0x28ED JUMP JUMPDEST POP DUP1 SWAP3 POP POP POP SWAP2 SWAP1 POP JUMP JUMPDEST DUP2 PUSH1 0x0 DUP1 PUSH1 0x0 SWAP1 POP JUMPDEST DUP3 MLOAD DUP2 LT ISZERO PUSH2 0x2B55 JUMPI DUP3 DUP2 DUP2 MLOAD DUP2 LT PUSH2 0x2ABE JUMPI PUSH2 0x2ABD PUSH2 0x461C JUMP JUMPDEST JUMPDEST PUSH1 0x20 MUL PUSH1 0x20 ADD ADD MLOAD PUSH1 0x0 ADD MLOAD PUSH20 0xFFFFFFFFFFFFFFFFFFFFFFFFFFFFFFFFFFFFFFFF AND CALLER PUSH20 0xFFFFFFFFFFFFFFFFFFFFFFFFFFFFFFFFFFFFFFFF AND SUB PUSH2 0x2B01 JUMPI PUSH1 0x1 SWAP2 POP JUMPDEST DUP2 ISZERO PUSH2 0x2B42 JUMPI PUSH1 0x40 MLOAD PUSH32 0x8C379A000000000000000000000000000000000000000000000000000000000 DUP2 MSTORE PUSH1 0x4 ADD PUSH2 0x2B39 SWAP1 PUSH2 0x4D84 JUMP JUMPDEST PUSH1 0x40 MLOAD DUP1 SWAP2 SUB SWAP1 REVERT JUMPDEST DUP1 DUP1 PUSH2 0x2B4D SWAP1 PUSH2 0x46DA JUMP JUMPDEST SWAP2 POP POP PUSH2 0x2AA2 JUMP JUMPDEST POP DUP5 DUP7 LT PUSH2 0x2B98 JUMPI PUSH1 0x40 MLOAD PUSH32 0x8C379A000000000000000000000000000000000000000000000000000000000 DUP2 MSTORE PUSH1 0x4 ADD PUSH2 0x2B8F SWAP1 PUSH2 0x4DF0 JUMP JUMPDEST PUSH1 0x40 MLOAD DUP1 SWAP2 SUB SWAP1 REVERT JUMPDEST TIMESTAMP DUP7 GT PUSH2 0x2BDA JUMPI PUSH1 0x40 MLOAD PUSH32 0x8C379A000000000000000000000000000000000000000000000000000000000 DUP2 MSTORE PUSH1 0x4 ADD PUSH2 0x2BD1 SWAP1 PUSH2 0x4E82 JUMP JUMPDEST PUSH1 0x40 MLOAD DUP1 SWAP2 SUB SWAP1 REVERT JUMPDEST PUSH1 0x1 PUSH1 0x0 DUP2 SLOAD DUP1 SWAP3 SWAP2 SWAP1 PUSH2 0x2BED SWAP1 PUSH2 0x46DA JUMP JUMPDEST SWAP2 SWAP1 POP SSTORE POP PUSH1 0x0 PUSH1 0x3 PUSH1 0x0 PUSH1 0x1 SLOAD DUP2 MSTORE PUSH1 0x20 ADD SWAP1 DUP2 MSTORE PUSH1 0x20 ADD PUSH1 0x0 KECCAK256 SWAP1 POP PUSH1 0x1 SLOAD DUP2 PUSH1 0x0 ADD DUP2 SWAP1 SSTORE POP CALLER DUP2 PUSH1 0x1 ADD PUSH1 0x0 PUSH2 0x100 EXP DUP2 SLOAD DUP2 PUSH20 0xFFFFFFFFFFFFFFFFFFFFFFFFFFFFFFFFFFFFFFFF MUL NOT AND SWAP1 DUP4 PUSH20 0xFFFFFFFFFFFFFFFFFFFFFFFFFFFFFFFFFFFFFFFF AND MUL OR SWAP1 SSTORE POP DUP8 DUP2 PUSH1 0x2 ADD SWAP1 DUP2 PUSH2 0x2C6A SWAP2 SWAP1 PUSH2 0x504E JUMP JUMPDEST POP DUP7 DUP2 PUSH1 0x3 ADD DUP2 SWAP1 SSTORE POP DUP6 DUP2 PUSH1 0x4 ADD DUP2 SWAP1 SSTORE POP DUP5 MLOAD DUP2 PUSH1 0x6 ADD DUP2 SWAP1 SSTORE POP DUP4 DUP2 PUSH1 0xC ADD SWAP1 DUP2 PUSH2 0x2C98 SWAP2 SWAP1 PUSH2 0x504E JUMP JUMPDEST POP PUSH1 0x0 JUMPDEST DUP6 MLOAD DUP2 LT ISZERO PUSH2 0x2E8F JUMPI PUSH1 0x40 MLOAD DUP1 PUSH1 0x60 ADD PUSH1 0x40 MSTORE DUP1 DUP8 DUP4 DUP2 MLOAD DUP2 LT PUSH2 0x2CC3 JUMPI PUSH2 0x2CC2 PUSH2 0x461C JUMP JUMPDEST JUMPDEST PUSH1 0x20 MUL PUSH1 0x20 ADD ADD MLOAD PUSH1 0x0 ADD MLOAD PUSH20 0xFFFFFFFFFFFFFFFFFFFFFFFFFFFFFFFFFFFFFFFF AND DUP2 MSTORE PUSH1 0x20 ADD DUP8 DUP4 DUP2 MLOAD DUP2 LT PUSH2 0x2CFD JUMPI PUSH2 0x2CFC PUSH2 0x461C JUMP JUMPDEST JUMPDEST PUSH1 0x20 MUL PUSH1 0x20 ADD ADD MLOAD PUSH1 0x20 ADD MLOAD DUP2 MSTORE PUSH1 0x20 ADD DUP8 DUP4 DUP2 MLOAD DUP2 LT PUSH2 0x2D21 JUMPI PUSH2 0x2D20 PUSH2 0x461C JUMP JUMPDEST JUMPDEST PUSH1 0x20 MUL PUSH1 0x20 ADD ADD MLOAD PUSH1 0x40 ADD MLOAD DUP2 MSTORE POP DUP3 PUSH1 0x5 ADD PUSH1 0x0 DUP9 DUP5 DUP2 MLOAD DUP2 LT PUSH2 0x2D49 JUMPI PUSH2 0x2D48 PUSH2 0x461C JUMP JUMPDEST JUMPDEST PUSH1 0x20 MUL PUSH1 0x20 ADD ADD MLOAD PUSH1 0x0 ADD MLOAD PUSH20 0xFFFFFFFFFFFFFFFFFFFFFFFFFFFFFFFFFFFFFFFF AND PUSH20 0xFFFFFFFFFFFFFFFFFFFFFFFFFFFFFFFFFFFFFFFF AND DUP2 MSTORE PUSH1 0x20 ADD SWAP1 DUP2 MSTORE PUSH1 0x20 ADD PUSH1 0x0 KECCAK256 PUSH1 0x0 DUP3 ADD MLOAD DUP2 PUSH1 0x0 ADD PUSH1 0x0 PUSH2 0x100 EXP DUP2 SLOAD DUP2 PUSH20 0xFFFFFFFFFFFFFFFFFFFFFFFFFFFFFFFFFFFFFFFF MUL NOT AND SWAP1 DUP4 PUSH20 0xFFFFFFFFFFFFFFFFFFFFFFFFFFFFFFFFFFFFFFFF AND MUL OR SWAP1 SSTORE POP PUSH1 0x20 DUP3 ADD MLOAD DUP2 PUSH1 0x1 ADD SSTORE PUSH1 0x40 DUP3 ADD MLOAD DUP2 PUSH1 0x2 ADD SWAP1 DUP2 PUSH2 0x2DF5 SWAP2 SWAP1 PUSH2 0x504E JUMP JUMPDEST POP SWAP1 POP POP DUP2 PUSH1 0x9 ADD DUP7 DUP3 DUP2 MLOAD DUP2 LT PUSH2 0x2E10 JUMPI PUSH2 0x2E0F PUSH2 0x461C JUMP JUMPDEST JUMPDEST PUSH1 0x20 MUL PUSH1 0x20 ADD ADD MLOAD PUSH1 0x0 ADD MLOAD SWAP1 DUP1 PUSH1 0x1 DUP2 SLOAD ADD DUP1 DUP3 SSTORE DUP1 SWAP2 POP POP PUSH1 0x1 SWAP1 SUB SWAP1 PUSH1 0x0 MSTORE PUSH1 0x20 PUSH1 0x0 KECCAK256 ADD PUSH1 0x0 SWAP1 SWAP2 SWAP1 SWAP2 SWAP1 SWAP2 PUSH2 0x100 EXP DUP2 SLOAD DUP2 PUSH20 0xFFFFFFFFFFFFFFFFFFFFFFFFFFFFFFFFFFFFFFFF MUL NOT AND SWAP1 DUP4 PUSH20 0xFFFFFFFFFFFFFFFFFFFFFFFFFFFFFFFFFFFFFFFF AND MUL OR SWAP1 SSTORE POP DUP1 DUP1 PUSH2 0x2E87 SWAP1 PUSH2 0x46DA JUMP JUMPDEST SWAP2 POP POP PUSH2 0x2C9C JUMP JUMPDEST POP PUSH1 0x2 PUSH1 0x0 DUP2 SLOAD DUP1 SWAP3 SWAP2 SWAP1 PUSH2 0x2EA3 SWAP1 PUSH2 0x46DA JUMP JUMPDEST SWAP2 SWAP1 POP SSTORE POP POP POP POP POP POP POP POP POP JUMP JUMPDEST PUSH1 0x3 PUSH1 0x0 DUP4 DUP2 MSTORE PUSH1 0x20 ADD SWAP1 DUP2 MSTORE PUSH1 0x20 ADD PUSH1 0x0 KECCAK256 PUSH1 0x1 ADD PUSH1 0x0 SWAP1 SLOAD SWAP1 PUSH2 0x100 EXP SWAP1 DIV PUSH20 0xFFFFFFFFFFFFFFFFFFFFFFFFFFFFFFFFFFFFFFFF AND PUSH20 0xFFFFFFFFFFFFFFFFFFFFFFFFFFFFFFFFFFFFFFFF AND CALLER PUSH20 0xFFFFFFFFFFFFFFFFFFFFFFFFFFFFFFFFFFFFFFFF AND EQ PUSH2 0x2F56 JUMPI PUSH1 0x40 MLOAD PUSH32 0x8C379A000000000000000000000000000000000000000000000000000000000 DUP2 MSTORE PUSH1 0x4 ADD PUSH2 0x2F4D SWAP1 PUSH2 0x4B54 JUMP JUMPDEST PUSH1 0x40 MLOAD DUP1 SWAP2 SUB SWAP1 REVERT JUMPDEST PUSH1 0x0 JUMPDEST DUP2 MLOAD DUP2 LT ISZERO PUSH2 0x314E JUMPI DUP2 DUP2 DUP2 MLOAD DUP2 LT PUSH2 0x2F75 JUMPI PUSH2 0x2F74 PUSH2 0x461C JUMP JUMPDEST JUMPDEST PUSH1 0x20 MUL PUSH1 0x20 ADD ADD MLOAD PUSH20 0xFFFFFFFFFFFFFFFFFFFFFFFFFFFFFFFFFFFFFFFF AND PUSH1 0x3 PUSH1 0x0 DUP6 DUP2 MSTORE PUSH1 0x20 ADD SWAP1 DUP2 MSTORE PUSH1 0x20 ADD PUSH1 0x0 KECCAK256 PUSH1 0x7 ADD PUSH1 0x0 DUP5 DUP5 DUP2 MLOAD DUP2 LT PUSH2 0x2FBE JUMPI PUSH2 0x2FBD PUSH2 0x461C JUMP JUMPDEST JUMPDEST PUSH1 0x20 MUL PUSH1 0x20 ADD ADD MLOAD PUSH20 0xFFFFFFFFFFFFFFFFFFFFFFFFFFFFFFFFFFFFFFFF AND PUSH20 0xFFFFFFFFFFFFFFFFFFFFFFFFFFFFFFFFFFFFFFFF AND DUP2 MSTORE PUSH1 0x20 ADD SWAP1 DUP2 MSTORE PUSH1 0x20 ADD PUSH1 0x0 KECCAK256 PUSH1 0x3 ADD PUSH1 0x0 SWAP1 SLOAD SWAP1 PUSH2 0x100 EXP SWAP1 DIV PUSH20 0xFFFFFFFFFFFFFFFFFFFFFFFFFFFFFFFFFFFFFFFF AND PUSH20 0xFFFFFFFFFFFFFFFFFFFFFFFFFFFFFFFFFFFFFFFF AND EQ PUSH2 0x313B JUMPI PUSH1 0x0 PUSH1 0x3 PUSH1 0x0 DUP6 DUP2 MSTORE PUSH1 0x20 ADD SWAP1 DUP2 MSTORE PUSH1 0x20 ADD PUSH1 0x0 KECCAK256 PUSH1 0x7 ADD PUSH1 0x0 DUP5 DUP5 DUP2 MLOAD DUP2 LT PUSH2 0x306C JUMPI PUSH2 0x306B PUSH2 0x461C JUMP JUMPDEST JUMPDEST PUSH1 0x20 MUL PUSH1 0x20 ADD ADD MLOAD PUSH20 0xFFFFFFFFFFFFFFFFFFFFFFFFFFFFFFFFFFFFFFFF AND PUSH20 0xFFFFFFFFFFFFFFFFFFFFFFFFFFFFFFFFFFFFFFFF AND DUP2 MSTORE PUSH1 0x20 ADD SWAP1 DUP2 MSTORE PUSH1 0x20 ADD PUSH1 0x0 KECCAK256 SWAP1 POP DUP3 DUP3 DUP2 MLOAD DUP2 LT PUSH2 0x30C3 JUMPI PUSH2 0x30C2 PUSH2 0x461C JUMP JUMPDEST JUMPDEST PUSH1 0x20 MUL PUSH1 0x20 ADD ADD MLOAD DUP2 PUSH1 0x3 ADD PUSH1 0x0 PUSH2 0x100 EXP DUP2 SLOAD DUP2 PUSH20 0xFFFFFFFFFFFFFFFFFFFFFFFFFFFFFFFFFFFFFFFF MUL NOT AND SWAP1 DUP4 PUSH20 0xFFFFFFFFFFFFFFFFFFFFFFFFFFFFFFFFFFFFFFFF AND MUL OR SWAP1 SSTORE POP PUSH1 0x3 PUSH1 0x0 DUP6 DUP2 MSTORE PUSH1 0x20 ADD SWAP1 DUP2 MSTORE PUSH1 0x20 ADD PUSH1 0x0 KECCAK256 PUSH1 0x8 ADD PUSH1 0x0 DUP2 SLOAD DUP1 SWAP3 SWAP2 SWAP1 PUSH2 0x3134 SWAP1 PUSH2 0x46DA JUMP JUMPDEST SWAP2 SWAP1 POP SSTORE POP POP JUMPDEST DUP1 DUP1 PUSH2 0x3146 SWAP1 PUSH2 0x46DA JUMP JUMPDEST SWAP2 POP POP PUSH2 0x2F59 JUMP JUMPDEST POP POP POP JUMP JUMPDEST PUSH1 0x1 SLOAD DUP2 JUMP JUMPDEST DUP3 DUP5 PUSH1 0x0 ADD DUP2 SWAP1 SSTORE POP DUP2 DUP5 PUSH1 0x3 ADD PUSH1 0x0 PUSH2 0x100 EXP DUP2 SLOAD DUP2 PUSH1 0xFF MUL NOT AND SWAP1 DUP4 ISZERO ISZERO MUL OR SWAP1 SSTORE POP DUP1 DUP5 PUSH1 0x4 ADD DUP2 SWAP1 SSTORE POP POP POP POP POP JUMP JUMPDEST PUSH1 0x40 MLOAD DUP1 PUSH1 0x60 ADD PUSH1 0x40 MSTORE DUP1 DUP3 PUSH1 0x0 ADD MLOAD DUP2 MSTORE PUSH1 0x20 ADD DUP3 PUSH1 0x20 ADD MLOAD DUP2 MSTORE PUSH1 0x20 ADD PUSH1 0x0 DUP2 MSTORE POP DUP4 PUSH1 0x1 ADD PUSH1 0x0 DUP5 DUP2 MSTORE PUSH1 0x20 ADD SWAP1 DUP2 MSTORE PUSH1 0x20 ADD PUSH1 0x0 KECCAK256 PUSH1 0x0 DUP3 ADD MLOAD DUP2 PUSH1 0x0 ADD SSTORE PUSH1 0x20 DUP3 ADD MLOAD DUP2 PUSH1 0x1 ADD SWAP1 DUP2 PUSH2 0x31E5 SWAP2 SWAP1 PUSH2 0x504E JUMP JUMPDEST POP PUSH1 0x40 DUP3 ADD MLOAD DUP2 PUSH1 0x2 ADD SSTORE SWAP1 POP POP DUP3 PUSH1 0x2 ADD PUSH1 0x0 DUP2 SLOAD DUP1 SWAP3 SWAP2 SWAP1 PUSH2 0x3208 SWAP1 PUSH2 0x46DA JUMP JUMPDEST SWAP2 SWAP1 POP SSTORE POP POP POP POP JUMP JUMPDEST PUSH1 0x40 MLOAD DUP1 PUSH1 0x60 ADD PUSH1 0x40 MSTORE DUP1 PUSH1 0x0 PUSH20 0xFFFFFFFFFFFFFFFFFFFFFFFFFFFFFFFFFFFFFFFF AND DUP2 MSTORE PUSH1 0x20 ADD PUSH1 0x0 DUP1 NOT AND DUP2 MSTORE PUSH1 0x20 ADD PUSH1 0x60 DUP2 MSTORE POP SWAP1 JUMP JUMPDEST PUSH1 0x40 MLOAD DUP1 PUSH1 0x60 ADD PUSH1 0x40 MSTORE DUP1 PUSH1 0x0 DUP1 NOT AND DUP2 MSTORE PUSH1 0x20 ADD PUSH1 0x60 DUP2 MSTORE PUSH1 0x20 ADD PUSH1 0x0 DUP2 MSTORE POP SWAP1 JUMP JUMPDEST PUSH1 0x40 MLOAD DUP1 PUSH1 0xC0 ADD PUSH1 0x40 MSTORE DUP1 PUSH1 0x0 ISZERO ISZERO DUP2 MSTORE PUSH1 0x20 ADD PUSH1 0x0 PUSH20 0xFFFFFFFFFFFFFFFFFFFFFFFFFFFFFFFFFFFFFFFF AND DUP2 MSTORE PUSH1 0x20 ADD PUSH1 0x0 DUP2 MSTORE PUSH1 0x20 ADD PUSH1 0x0 DUP1 NOT AND DUP2 MSTORE PUSH1 0x20 ADD PUSH1 0x0 DUP2 MSTORE PUSH1 0x20 ADD PUSH1 0x0 DUP1 NOT AND DUP2 MSTORE POP SWAP1 JUMP JUMPDEST PUSH1 0x0 PUSH1 0x40 MLOAD SWAP1 POP SWAP1 JUMP JUMPDEST PUSH1 0x0 DUP1 REVERT JUMPDEST PUSH1 0x0 DUP1 REVERT JUMPDEST PUSH1 0x0 DUP2 SWAP1 POP SWAP2 SWAP1 POP JUMP JUMPDEST PUSH2 0x32EB DUP2 PUSH2 0x32D8 JUMP JUMPDEST DUP2 EQ PUSH2 0x32F6 JUMPI PUSH1 0x0 DUP1 REVERT JUMPDEST POP JUMP JUMPDEST PUSH1 0x0 DUP2 CALLDATALOAD SWAP1 POP PUSH2 0x3308 DUP2 PUSH2 0x32E2 JUMP JUMPDEST SWAP3 SWAP2 POP POP JUMP JUMPDEST PUSH1 0x0 PUSH1 0x20 DUP3 DUP5 SUB SLT ISZERO PUSH2 0x3324 JUMPI PUSH2 0x3323 PUSH2 0x32CE JUMP JUMPDEST JUMPDEST PUSH1 0x0 PUSH2 0x3332 DUP5 DUP3 DUP6 ADD PUSH2 0x32F9 JUMP JUMPDEST SWAP2 POP POP SWAP3 SWAP2 POP POP JUMP JUMPDEST PUSH1 0x0 DUP2 ISZERO ISZERO SWAP1 POP SWAP2 SWAP1 POP JUMP JUMPDEST PUSH2 0x3350 DUP2 PUSH2 0x333B JUMP JUMPDEST DUP3 MSTORE POP POP JUMP JUMPDEST PUSH1 0x0 PUSH1 0x20 DUP3 ADD SWAP1 POP PUSH2 0x336B PUSH1 0x0 DUP4 ADD DUP5 PUSH2 0x3347 JUMP JUMPDEST SWAP3 SWAP2 POP POP JUMP JUMPDEST PUSH1 0x0 PUSH20 0xFFFFFFFFFFFFFFFFFFFFFFFFFFFFFFFFFFFFFFFF DUP3 AND SWAP1 POP SWAP2 SWAP1 POP JUMP JUMPDEST PUSH1 0x0 PUSH2 0x339C DUP3 PUSH2 0x3371 JUMP JUMPDEST SWAP1 POP SWAP2 SWAP1 POP JUMP JUMPDEST PUSH2 0x33AC DUP2 PUSH2 0x3391 JUMP JUMPDEST DUP3 MSTORE POP POP JUMP JUMPDEST PUSH2 0x33BB DUP2 PUSH2 0x32D8 JUMP JUMPDEST DUP3 MSTORE POP POP JUMP JUMPDEST PUSH1 0x0 DUP2 MLOAD SWAP1 POP SWAP2 SWAP1 POP JUMP JUMPDEST PUSH1 0x0 DUP3 DUP3 MSTORE PUSH1 0x20 DUP3 ADD SWAP1 POP SWAP3 SWAP2 POP POP JUMP JUMPDEST PUSH1 0x0 DUP2 SWAP1 POP PUSH1 0x20 DUP3 ADD SWAP1 POP SWAP2 SWAP1 POP JUMP JUMPDEST PUSH2 0x33F6 DUP2 PUSH2 0x3391 JUMP JUMPDEST DUP3 MSTORE POP POP JUMP JUMPDEST PUSH1 0x0 DUP2 SWAP1 POP SWAP2 SWAP1 POP JUMP JUMPDEST PUSH2 0x340F DUP2 PUSH2 0x33FC JUMP JUMPDEST DUP3 MSTORE POP POP JUMP JUMPDEST PUSH1 0x0 DUP2 MLOAD SWAP1 POP SWAP2 SWAP1 POP JUMP JUMPDEST PUSH1 0x0 DUP3 DUP3 MSTORE PUSH1 0x20 DUP3 ADD SWAP1 POP SWAP3 SWAP2 POP POP JUMP JUMPDEST PUSH1 0x0 JUMPDEST DUP4 DUP2 LT ISZERO PUSH2 0x344F JUMPI DUP1 DUP3 ADD MLOAD DUP2 DUP5 ADD MSTORE PUSH1 0x20 DUP2 ADD SWAP1 POP PUSH2 0x3434 JUMP JUMPDEST PUSH1 0x0 DUP5 DUP5 ADD MSTORE POP POP POP POP JUMP JUMPDEST PUSH1 0x0 PUSH1 0x1F NOT PUSH1 0x1F DUP4 ADD AND SWAP1 POP SWAP2 SWAP1 POP JUMP JUMPDEST PUSH1 0x0 PUSH2 0x3477 DUP3 PUSH2 0x3415 JUMP JUMPDEST PUSH2 0x3481 DUP2 DUP6 PUSH2 0x3420 JUMP JUMPDEST SWAP4 POP PUSH2 0x3491 DUP2 DUP6 PUSH1 0x20 DUP7 ADD PUSH2 0x3431 JUMP JUMPDEST PUSH2 0x349A DUP2 PUSH2 0x345B JUMP JUMPDEST DUP5 ADD SWAP2 POP POP SWAP3 SWAP2 POP POP JUMP JUMPDEST PUSH1 0x0 PUSH1 0x60 DUP4 ADD PUSH1 0x0 DUP4 ADD MLOAD PUSH2 0x34BD PUSH1 0x0 DUP7 ADD DUP3 PUSH2 0x33ED JUMP JUMPDEST POP PUSH1 0x20 DUP4 ADD MLOAD PUSH2 0x34D0 PUSH1 0x20 DUP7 ADD DUP3 PUSH2 0x3406 JUMP JUMPDEST POP PUSH1 0x40 DUP4 ADD MLOAD DUP5 DUP3 SUB PUSH1 0x40 DUP7 ADD MSTORE PUSH2 0x34E8 DUP3 DUP3 PUSH2 0x346C JUMP JUMPDEST SWAP2 POP POP DUP1 SWAP2 POP POP SWAP3 SWAP2 POP POP JUMP JUMPDEST PUSH1 0x0 PUSH2 0x3501 DUP4 DUP4 PUSH2 0x34A5 JUMP JUMPDEST SWAP1 POP SWAP3 SWAP2 POP POP JUMP JUMPDEST PUSH1 0x0 PUSH1 0x20 DUP3 ADD SWAP1 POP SWAP2 SWAP1 POP JUMP JUMPDEST PUSH1 0x0 PUSH2 0x3521 DUP3 PUSH2 0x33C1 JUMP JUMPDEST PUSH2 0x352B DUP2 DUP6 PUSH2 0x33CC JUMP JUMPDEST SWAP4 POP DUP4 PUSH1 0x20 DUP3 MUL DUP6 ADD PUSH2 0x353D DUP6 PUSH2 0x33DD JUMP JUMPDEST DUP1 PUSH1 0x0 JUMPDEST DUP6 DUP2 LT ISZERO PUSH2 0x3579 JUMPI DUP5 DUP5 SUB DUP10 MSTORE DUP2 MLOAD PUSH2 0x355A DUP6 DUP3 PUSH2 0x34F5 JUMP JUMPDEST SWAP5 POP PUSH2 0x3565 DUP4 PUSH2 0x3509 JUMP JUMPDEST SWAP3 POP PUSH1 0x20 DUP11 ADD SWAP10 POP POP PUSH1 0x1 DUP2 ADD SWAP1 POP PUSH2 0x3541 JUMP JUMPDEST POP DUP3 SWAP8 POP DUP8 SWAP6 POP POP POP POP POP POP SWAP3 SWAP2 POP POP JUMP JUMPDEST PUSH1 0x0 PUSH1 0xA0 DUP3 ADD SWAP1 POP PUSH2 0x35A0 PUSH1 0x0 DUP4 ADD DUP9 PUSH2 0x33A3 JUMP JUMPDEST PUSH2 0x35AD PUSH1 0x20 DUP4 ADD DUP8 PUSH2 0x33B2 JUMP JUMPDEST PUSH2 0x35BA PUSH1 0x40 DUP4 ADD DUP7 PUSH2 0x33B2 JUMP JUMPDEST DUP2 DUP2 SUB PUSH1 0x60 DUP4 ADD MSTORE PUSH2 0x35CC DUP2 DUP6 PUSH2 0x3516 JUMP JUMPDEST SWAP1 POP PUSH2 0x35DB PUSH1 0x80 DUP4 ADD DUP5 PUSH2 0x3347 JUMP JUMPDEST SWAP7 SWAP6 POP POP POP POP POP POP JUMP JUMPDEST PUSH1 0x0 DUP1 PUSH1 0x40 DUP4 DUP6 SUB SLT ISZERO PUSH2 0x35FC JUMPI PUSH2 0x35FB PUSH2 0x32CE JUMP JUMPDEST JUMPDEST PUSH1 0x0 PUSH2 0x360A DUP6 DUP3 DUP7 ADD PUSH2 0x32F9 JUMP JUMPDEST SWAP3 POP POP PUSH1 0x20 PUSH2 0x361B DUP6 DUP3 DUP7 ADD PUSH2 0x32F9 JUMP JUMPDEST SWAP2 POP POP SWAP3 POP SWAP3 SWAP1 POP JUMP JUMPDEST PUSH2 0x362E DUP2 PUSH2 0x33FC JUMP JUMPDEST DUP3 MSTORE POP POP JUMP JUMPDEST PUSH1 0x0 DUP2 MLOAD SWAP1 POP SWAP2 SWAP1 POP JUMP JUMPDEST PUSH1 0x0 DUP3 DUP3 MSTORE PUSH1 0x20 DUP3 ADD SWAP1 POP SWAP3 SWAP2 POP POP JUMP JUMPDEST PUSH1 0x0 DUP2 SWAP1 POP PUSH1 0x20 DUP3 ADD SWAP1 POP SWAP2 SWAP1 POP JUMP JUMPDEST PUSH2 0x3669 DUP2 PUSH2 0x32D8 JUMP JUMPDEST DUP3 MSTORE POP POP JUMP JUMPDEST PUSH1 0x0 PUSH1 0x60 DUP4 ADD PUSH1 0x0 DUP4 ADD MLOAD PUSH2 0x3687 PUSH1 0x0 DUP7 ADD DUP3 PUSH2 0x3406 JUMP JUMPDEST POP PUSH1 0x20 DUP4 ADD MLOAD DUP5 DUP3 SUB PUSH1 0x20 DUP7 ADD MSTORE PUSH2 0x369F DUP3 DUP3 PUSH2 0x346C JUMP JUMPDEST SWAP2 POP POP PUSH1 0x40 DUP4 ADD MLOAD PUSH2 0x36B4 PUSH1 0x40 DUP7 ADD DUP3 PUSH2 0x3660 JUMP JUMPDEST POP DUP1 SWAP2 POP POP SWAP3 SWAP2 POP POP JUMP JUMPDEST PUSH1 0x0 PUSH2 0x36CB DUP4 DUP4 PUSH2 0x366F JUMP JUMPDEST SWAP1 POP SWAP3 SWAP2 POP POP JUMP JUMPDEST PUSH1 0x0 PUSH1 0x20 DUP3 ADD SWAP1 POP SWAP2 SWAP1 POP JUMP JUMPDEST PUSH1 0x0 PUSH2 0x36EB DUP3 PUSH2 0x3634 JUMP JUMPDEST PUSH2 0x36F5 DUP2 DUP6 PUSH2 0x363F JUMP JUMPDEST SWAP4 POP DUP4 PUSH1 0x20 DUP3 MUL DUP6 ADD PUSH2 0x3707 DUP6 PUSH2 0x3650 JUMP JUMPDEST DUP1 PUSH1 0x0 JUMPDEST DUP6 DUP2 LT ISZERO PUSH2 0x3743 JUMPI DUP5 DUP5 SUB DUP10 MSTORE DUP2 MLOAD PUSH2 0x3724 DUP6 DUP3 PUSH2 0x36BF JUMP JUMPDEST SWAP5 POP PUSH2 0x372F DUP4 PUSH2 0x36D3 JUMP JUMPDEST SWAP3 POP PUSH1 0x20 DUP11 ADD SWAP10 POP POP PUSH1 0x1 DUP2 ADD SWAP1 POP PUSH2 0x370B JUMP JUMPDEST POP DUP3 SWAP8 POP DUP8 SWAP6 POP POP POP POP POP POP SWAP3 SWAP2 POP POP JUMP JUMPDEST PUSH1 0x0 PUSH1 0xC0 DUP3 ADD SWAP1 POP PUSH2 0x376A PUSH1 0x0 DUP4 ADD DUP10 PUSH2 0x33B2 JUMP JUMPDEST PUSH2 0x3777 PUSH1 0x20 DUP4 ADD DUP9 PUSH2 0x3625 JUMP JUMPDEST DUP2 DUP2 SUB PUSH1 0x40 DUP4 ADD MSTORE PUSH2 0x3789 DUP2 DUP8 PUSH2 0x36E0 JUMP JUMPDEST SWAP1 POP PUSH2 0x3798 PUSH1 0x60 DUP4 ADD DUP7 PUSH2 0x33B2 JUMP JUMPDEST PUSH2 0x37A5 PUSH1 0x80 DUP4 ADD DUP6 PUSH2 0x33B2 JUMP JUMPDEST PUSH2 0x37B2 PUSH1 0xA0 DUP4 ADD DUP5 PUSH2 0x33B2 JUMP JUMPDEST SWAP8 SWAP7 POP POP POP POP POP POP POP JUMP JUMPDEST PUSH1 0x0 DUP3 DUP3 MSTORE PUSH1 0x20 DUP3 ADD SWAP1 POP SWAP3 SWAP2 POP POP JUMP JUMPDEST PUSH1 0x0 PUSH2 0x37D9 DUP3 PUSH2 0x3415 JUMP JUMPDEST PUSH2 0x37E3 DUP2 DUP6 PUSH2 0x37BD JUMP JUMPDEST SWAP4 POP PUSH2 0x37F3 DUP2 DUP6 PUSH1 0x20 DUP7 ADD PUSH2 0x3431 JUMP JUMPDEST PUSH2 0x37FC DUP2 PUSH2 0x345B JUMP JUMPDEST DUP5 ADD SWAP2 POP POP SWAP3 SWAP2 POP POP JUMP JUMPDEST PUSH1 0x0 PUSH2 0x120 DUP3 ADD SWAP1 POP PUSH2 0x381D PUSH1 0x0 DUP4 ADD DUP13 PUSH2 0x33B2 JUMP JUMPDEST PUSH2 0x382A PUSH1 0x20 DUP4 ADD DUP12 PUSH2 0x33A3 JUMP JUMPDEST DUP2 DUP2 SUB PUSH1 0x40 DUP4 ADD MSTORE PUSH2 0x383C DUP2 DUP11 PUSH2 0x37CE JUMP JUMPDEST SWAP1 POP PUSH2 0x384B PUSH1 0x60 DUP4 ADD DUP10 PUSH2 0x33B2 JUMP JUMPDEST PUSH2 0x3858 PUSH1 0x80 DUP4 ADD DUP9 PUSH2 0x33B2 JUMP JUMPDEST PUSH2 0x3865 PUSH1 0xA0 DUP4 ADD DUP8 PUSH2 0x33B2 JUMP JUMPDEST PUSH2 0x3872 PUSH1 0xC0 DUP4 ADD DUP7 PUSH2 0x33B2 JUMP JUMPDEST PUSH2 0x387F PUSH1 0xE0 DUP4 ADD DUP6 PUSH2 0x33B2 JUMP JUMPDEST DUP2 DUP2 SUB PUSH2 0x100 DUP4 ADD MSTORE PUSH2 0x3892 DUP2 DUP5 PUSH2 0x37CE JUMP JUMPDEST SWAP1 POP SWAP11 SWAP10 POP POP POP POP POP POP POP POP POP POP JUMP JUMPDEST PUSH1 0x0 PUSH1 0x20 DUP3 ADD SWAP1 POP PUSH2 0x38B7 PUSH1 0x0 DUP4 ADD DUP5 PUSH2 0x33A3 JUMP JUMPDEST SWAP3 SWAP2 POP POP JUMP JUMPDEST PUSH1 0x0 PUSH1 0x20 DUP3 ADD SWAP1 POP PUSH2 0x38D2 PUSH1 0x0 DUP4 ADD DUP5 PUSH2 0x33B2 JUMP JUMPDEST SWAP3 SWAP2 POP POP JUMP JUMPDEST PUSH1 0x0 DUP1 PUSH1 0x0 PUSH1 0x60 DUP5 DUP7 SUB SLT ISZERO PUSH2 0x38F1 JUMPI PUSH2 0x38F0 PUSH2 0x32CE JUMP JUMPDEST JUMPDEST PUSH1 0x0 PUSH2 0x38FF DUP7 DUP3 DUP8 ADD PUSH2 0x32F9 JUMP JUMPDEST SWAP4 POP POP PUSH1 0x20 PUSH2 0x3910 DUP7 DUP3 DUP8 ADD PUSH2 0x32F9 JUMP JUMPDEST SWAP3 POP POP PUSH1 0x40 PUSH2 0x3921 DUP7 DUP3 DUP8 ADD PUSH2 0x32F9 JUMP JUMPDEST SWAP2 POP POP SWAP3 POP SWAP3 POP SWAP3 JUMP JUMPDEST PUSH1 0x0 DUP2 MLOAD SWAP1 POP SWAP2 SWAP1 POP JUMP JUMPDEST PUSH1 0x0 DUP3 DUP3 MSTORE PUSH1 0x20 DUP3 ADD SWAP1 POP SWAP3 SWAP2 POP POP JUMP JUMPDEST PUSH1 0x0 DUP2 SWAP1 POP PUSH1 0x20 DUP3 ADD SWAP1 POP SWAP2 SWAP1 POP JUMP JUMPDEST PUSH1 0x0 PUSH2 0x3963 DUP4 DUP4 PUSH2 0x3406 JUMP JUMPDEST PUSH1 0x20 DUP4 ADD SWAP1 POP SWAP3 SWAP2 POP POP JUMP JUMPDEST PUSH1 0x0 PUSH1 0x20 DUP3 ADD SWAP1 POP SWAP2 SWAP1 POP JUMP JUMPDEST PUSH1 0x0 PUSH2 0x3987 DUP3 PUSH2 0x392B JUMP JUMPDEST PUSH2 0x3991 DUP2 DUP6 PUSH2 0x3936 JUMP JUMPDEST SWAP4 POP PUSH2 0x399C DUP4 PUSH2 0x3947 JUMP JUMPDEST DUP1 PUSH1 0x0 JUMPDEST DUP4 DUP2 LT ISZERO PUSH2 0x39CD JUMPI DUP2 MLOAD PUSH2 0x39B4 DUP9 DUP3 PUSH2 0x3957 JUMP JUMPDEST SWAP8 POP PUSH2 0x39BF DUP4 PUSH2 0x396F JUMP JUMPDEST SWAP3 POP POP PUSH1 0x1 DUP2 ADD SWAP1 POP PUSH2 0x39A0 JUMP JUMPDEST POP DUP6 SWAP4 POP POP POP POP SWAP3 SWAP2 POP POP JUMP JUMPDEST PUSH1 0x0 DUP2 MLOAD SWAP1 POP SWAP2 SWAP1 POP JUMP JUMPDEST PUSH1 0x0 DUP3 DUP3 MSTORE PUSH1 0x20 DUP3 ADD SWAP1 POP SWAP3 SWAP2 POP POP JUMP JUMPDEST PUSH1 0x0 DUP2 SWAP1 POP PUSH1 0x20 DUP3 ADD SWAP1 POP SWAP2 SWAP1 POP JUMP JUMPDEST PUSH1 0x0 PUSH2 0x3A12 DUP4 DUP4 PUSH2 0x33ED JUMP JUMPDEST PUSH1 0x20 DUP4 ADD SWAP1 POP SWAP3 SWAP2 POP POP JUMP JUMPDEST PUSH1 0x0 PUSH1 0x20 DUP3 ADD SWAP1 POP SWAP2 SWAP1 POP JUMP JUMPDEST PUSH1 0x0 PUSH2 0x3A36 DUP3 PUSH2 0x39DA JUMP JUMPDEST PUSH2 0x3A40 DUP2 DUP6 PUSH2 0x39E5 JUMP JUMPDEST SWAP4 POP PUSH2 0x3A4B DUP4 PUSH2 0x39F6 JUMP JUMPDEST DUP1 PUSH1 0x0 JUMPDEST DUP4 DUP2 LT ISZERO PUSH2 0x3A7C JUMPI DUP2 MLOAD PUSH2 0x3A63 DUP9 DUP3 PUSH2 0x3A06 JUMP JUMPDEST SWAP8 POP PUSH2 0x3A6E DUP4 PUSH2 0x3A1E JUMP JUMPDEST SWAP3 POP POP PUSH1 0x1 DUP2 ADD SWAP1 POP PUSH2 0x3A4F JUMP JUMPDEST POP DUP6 SWAP4 POP POP POP POP SWAP3 SWAP2 POP POP JUMP JUMPDEST PUSH1 0x0 DUP2 MLOAD SWAP1 POP SWAP2 SWAP1 POP JUMP JUMPDEST PUSH1 0x0 DUP3 DUP3 MSTORE PUSH1 0x20 DUP3 ADD SWAP1 POP SWAP3 SWAP2 POP POP JUMP JUMPDEST PUSH1 0x0 DUP2 SWAP1 POP PUSH1 0x20 DUP3 ADD SWAP1 POP SWAP2 SWAP1 POP JUMP JUMPDEST PUSH1 0x0 PUSH2 0x3AC1 DUP4 DUP4 PUSH2 0x346C JUMP JUMPDEST SWAP1 POP SWAP3 SWAP2 POP POP JUMP JUMPDEST PUSH1 0x0 PUSH1 0x20 DUP3 ADD SWAP1 POP SWAP2 SWAP1 POP JUMP JUMPDEST PUSH1 0x0 PUSH2 0x3AE1 DUP3 PUSH2 0x3A89 JUMP JUMPDEST PUSH2 0x3AEB DUP2 DUP6 PUSH2 0x3A94 JUMP JUMPDEST SWAP4 POP DUP4 PUSH1 0x20 DUP3 MUL DUP6 ADD PUSH2 0x3AFD DUP6 PUSH2 0x3AA5 JUMP JUMPDEST DUP1 PUSH1 0x0 JUMPDEST DUP6 DUP2 LT ISZERO PUSH2 0x3B39 JUMPI DUP5 DUP5 SUB DUP10 MSTORE DUP2 MLOAD PUSH2 0x3B1A DUP6 DUP3 PUSH2 0x3AB5 JUMP JUMPDEST SWAP5 POP PUSH2 0x3B25 DUP4 PUSH2 0x3AC9 JUMP JUMPDEST SWAP3 POP PUSH1 0x20 DUP11 ADD SWAP10 POP POP PUSH1 0x1 DUP2 ADD SWAP1 POP PUSH2 0x3B01 JUMP JUMPDEST POP DUP3 SWAP8 POP DUP8 SWAP6 POP POP POP POP POP POP SWAP3 SWAP2 POP POP JUMP JUMPDEST PUSH1 0x0 PUSH2 0x160 DUP3 ADD SWAP1 POP PUSH2 0x3B61 PUSH1 0x0 DUP4 ADD DUP15 PUSH2 0x33B2 JUMP JUMPDEST PUSH2 0x3B6E PUSH1 0x20 DUP4 ADD DUP14 PUSH2 0x33A3 JUMP JUMPDEST DUP2 DUP2 SUB PUSH1 0x40 DUP4 ADD MSTORE PUSH2 0x3B80 DUP2 DUP13 PUSH2 0x37CE JUMP JUMPDEST SWAP1 POP PUSH2 0x3B8F PUSH1 0x60 DUP4 ADD DUP12 PUSH2 0x33B2 JUMP JUMPDEST PUSH2 0x3B9C PUSH1 0x80 DUP4 ADD DUP11 PUSH2 0x33B2 JUMP JUMPDEST DUP2 DUP2 SUB PUSH1 0xA0 DUP4 ADD MSTORE PUSH2 0x3BAE DUP2 DUP10 PUSH2 0x397C JUMP JUMPDEST SWAP1 POP DUP2 DUP2 SUB PUSH1 0xC0 DUP4 ADD MSTORE PUSH2 0x3BC2 DUP2 DUP9 PUSH2 0x3A2B JUMP JUMPDEST SWAP1 POP DUP2 DUP2 SUB PUSH1 0xE0 DUP4 ADD MSTORE PUSH2 0x3BD6 DUP2 DUP8 PUSH2 0x3AD6 JUMP JUMPDEST SWAP1 POP PUSH2 0x3BE6 PUSH2 0x100 DUP4 ADD DUP7 PUSH2 0x33B2 JUMP JUMPDEST PUSH2 0x3BF4 PUSH2 0x120 DUP4 ADD DUP6 PUSH2 0x33B2 JUMP JUMPDEST PUSH2 0x3C02 PUSH2 0x140 DUP4 ADD DUP5 PUSH2 0x33B2 JUMP JUMPDEST SWAP13 SWAP12 POP POP POP POP POP POP POP POP POP POP POP POP JUMP JUMPDEST PUSH2 0x3C1B DUP2 PUSH2 0x3391 JUMP JUMPDEST DUP2 EQ PUSH2 0x3C26 JUMPI PUSH1 0x0 DUP1 REVERT JUMPDEST POP JUMP JUMPDEST PUSH1 0x0 DUP2 CALLDATALOAD SWAP1 POP PUSH2 0x3C38 DUP2 PUSH2 0x3C12 JUMP JUMPDEST SWAP3 SWAP2 POP POP JUMP JUMPDEST PUSH2 0x3C47 DUP2 PUSH2 0x33FC JUMP JUMPDEST DUP2 EQ PUSH2 0x3C52 JUMPI PUSH1 0x0 DUP1 REVERT JUMPDEST POP JUMP JUMPDEST PUSH1 0x0 DUP2 CALLDATALOAD SWAP1 POP PUSH2 0x3C64 DUP2 PUSH2 0x3C3E JUMP JUMPDEST SWAP3 SWAP2 POP POP JUMP JUMPDEST PUSH1 0x0 DUP1 PUSH1 0x0 PUSH1 0x60 DUP5 DUP7 SUB SLT ISZERO PUSH2 0x3C83 JUMPI PUSH2 0x3C82 PUSH2 0x32CE JUMP JUMPDEST JUMPDEST PUSH1 0x0 PUSH2 0x3C91 DUP7 DUP3 DUP8 ADD PUSH2 0x32F9 JUMP JUMPDEST SWAP4 POP POP PUSH1 0x20 PUSH2 0x3CA2 DUP7 DUP3 DUP8 ADD PUSH2 0x3C29 JUMP JUMPDEST SWAP3 POP POP PUSH1 0x40 PUSH2 0x3CB3 DUP7 DUP3 DUP8 ADD PUSH2 0x3C55 JUMP JUMPDEST SWAP2 POP POP SWAP3 POP SWAP3 POP SWAP3 JUMP JUMPDEST PUSH1 0x0 DUP1 PUSH1 0x40 DUP4 DUP6 SUB SLT ISZERO PUSH2 0x3CD4 JUMPI PUSH2 0x3CD3 PUSH2 0x32CE JUMP JUMPDEST JUMPDEST PUSH1 0x0 PUSH2 0x3CE2 DUP6 DUP3 DUP7 ADD PUSH2 0x32F9 JUMP JUMPDEST SWAP3 POP POP PUSH1 0x20 PUSH2 0x3CF3 DUP6 DUP3 DUP7 ADD PUSH2 0x3C29 JUMP JUMPDEST SWAP2 POP POP SWAP3 POP SWAP3 SWAP1 POP JUMP JUMPDEST PUSH1 0x0 DUP1 REVERT JUMPDEST PUSH32 0x4E487B7100000000000000000000000000000000000000000000000000000000 PUSH1 0x0 MSTORE PUSH1 0x41 PUSH1 0x4 MSTORE PUSH1 0x24 PUSH1 0x0 REVERT JUMPDEST PUSH2 0x3D3A DUP3 PUSH2 0x345B JUMP JUMPDEST DUP2 ADD DUP2 DUP2 LT PUSH8 0xFFFFFFFFFFFFFFFF DUP3 GT OR ISZERO PUSH2 0x3D59 JUMPI PUSH2 0x3D58 PUSH2 0x3D02 JUMP JUMPDEST JUMPDEST DUP1 PUSH1 0x40 MSTORE POP POP POP JUMP JUMPDEST PUSH1 0x0 PUSH2 0x3D6C PUSH2 0x32C4 JUMP JUMPDEST SWAP1 POP PUSH2 0x3D78 DUP3 DUP3 PUSH2 0x3D31 JUMP JUMPDEST SWAP2 SWAP1 POP JUMP JUMPDEST PUSH1 0x0 PUSH8 0xFFFFFFFFFFFFFFFF DUP3 GT ISZERO PUSH2 0x3D98 JUMPI PUSH2 0x3D97 PUSH2 0x3D02 JUMP JUMPDEST JUMPDEST PUSH1 0x20 DUP3 MUL SWAP1 POP PUSH1 0x20 DUP2 ADD SWAP1 POP SWAP2 SWAP1 POP JUMP JUMPDEST PUSH1 0x0 DUP1 REVERT JUMPDEST PUSH1 0x0 DUP1 REVERT JUMPDEST PUSH1 0x0 DUP1 REVERT JUMPDEST PUSH1 0x0 DUP1 REVERT JUMPDEST PUSH1 0x0 PUSH8 0xFFFFFFFFFFFFFFFF DUP3 GT ISZERO PUSH2 0x3DD8 JUMPI PUSH2 0x3DD7 PUSH2 0x3D02 JUMP JUMPDEST JUMPDEST PUSH2 0x3DE1 DUP3 PUSH2 0x345B JUMP JUMPDEST SWAP1 POP PUSH1 0x20 DUP2 ADD SWAP1 POP SWAP2 SWAP1 POP JUMP JUMPDEST DUP3 DUP2 DUP4 CALLDATACOPY PUSH1 0x0 DUP4 DUP4 ADD MSTORE POP POP POP JUMP JUMPDEST PUSH1 0x0 PUSH2 0x3E10 PUSH2 0x3E0B DUP5 PUSH2 0x3DBD JUMP JUMPDEST PUSH2 0x3D62 JUMP JUMPDEST SWAP1 POP DUP3 DUP2 MSTORE PUSH1 0x20 DUP2 ADD DUP5 DUP5 DUP5 ADD GT ISZERO PUSH2 0x3E2C JUMPI PUSH2 0x3E2B PUSH2 0x3DB8 JUMP JUMPDEST JUMPDEST PUSH2 0x3E37 DUP5 DUP3 DUP6 PUSH2 0x3DEE JUMP JUMPDEST POP SWAP4 SWAP3 POP POP POP JUMP JUMPDEST PUSH1 0x0 DUP3 PUSH1 0x1F DUP4 ADD SLT PUSH2 0x3E54 JUMPI PUSH2 0x3E53 PUSH2 0x3CFD JUMP JUMPDEST JUMPDEST DUP2 CALLDATALOAD PUSH2 0x3E64 DUP5 DUP3 PUSH1 0x20 DUP7 ADD PUSH2 0x3DFD JUMP JUMPDEST SWAP2 POP POP SWAP3 SWAP2 POP POP JUMP JUMPDEST PUSH1 0x0 PUSH1 0x40 DUP3 DUP5 SUB SLT ISZERO PUSH2 0x3E83 JUMPI PUSH2 0x3E82 PUSH2 0x3DAE JUMP JUMPDEST JUMPDEST PUSH2 0x3E8D PUSH1 0x40 PUSH2 0x3D62 JUMP JUMPDEST SWAP1 POP PUSH1 0x0 PUSH2 0x3E9D DUP5 DUP3 DUP6 ADD PUSH2 0x3C55 JUMP JUMPDEST PUSH1 0x0 DUP4 ADD MSTORE POP PUSH1 0x20 DUP3 ADD CALLDATALOAD PUSH8 0xFFFFFFFFFFFFFFFF DUP2 GT ISZERO PUSH2 0x3EC1 JUMPI PUSH2 0x3EC0 PUSH2 0x3DB3 JUMP JUMPDEST JUMPDEST PUSH2 0x3ECD DUP5 DUP3 DUP6 ADD PUSH2 0x3E3F JUMP JUMPDEST PUSH1 0x20 DUP4 ADD MSTORE POP SWAP3 SWAP2 POP POP JUMP JUMPDEST PUSH1 0x0 PUSH2 0x3EEC PUSH2 0x3EE7 DUP5 PUSH2 0x3D7D JUMP JUMPDEST PUSH2 0x3D62 JUMP JUMPDEST SWAP1 POP DUP1 DUP4 DUP3 MSTORE PUSH1 0x20 DUP3 ADD SWAP1 POP PUSH1 0x20 DUP5 MUL DUP4 ADD DUP6 DUP2 GT ISZERO PUSH2 0x3F0F JUMPI PUSH2 0x3F0E PUSH2 0x3DA9 JUMP JUMPDEST JUMPDEST DUP4 JUMPDEST DUP2 DUP2 LT ISZERO PUSH2 0x3F56 JUMPI DUP1 CALLDATALOAD PUSH8 0xFFFFFFFFFFFFFFFF DUP2 GT ISZERO PUSH2 0x3F34 JUMPI PUSH2 0x3F33 PUSH2 0x3CFD JUMP JUMPDEST JUMPDEST DUP1 DUP7 ADD PUSH2 0x3F41 DUP10 DUP3 PUSH2 0x3E6D JUMP JUMPDEST DUP6 MSTORE PUSH1 0x20 DUP6 ADD SWAP5 POP POP POP PUSH1 0x20 DUP2 ADD SWAP1 POP PUSH2 0x3F11 JUMP JUMPDEST POP POP POP SWAP4 SWAP3 POP POP POP JUMP JUMPDEST PUSH1 0x0 DUP3 PUSH1 0x1F DUP4 ADD SLT PUSH2 0x3F75 JUMPI PUSH2 0x3F74 PUSH2 0x3CFD JUMP JUMPDEST JUMPDEST DUP2 CALLDATALOAD PUSH2 0x3F85 DUP5 DUP3 PUSH1 0x20 DUP7 ADD PUSH2 0x3ED9 JUMP JUMPDEST SWAP2 POP POP SWAP3 SWAP2 POP POP JUMP JUMPDEST PUSH2 0x3F97 DUP2 PUSH2 0x333B JUMP JUMPDEST DUP2 EQ PUSH2 0x3FA2 JUMPI PUSH1 0x0 DUP1 REVERT JUMPDEST POP JUMP JUMPDEST PUSH1 0x0 DUP2 CALLDATALOAD SWAP1 POP PUSH2 0x3FB4 DUP2 PUSH2 0x3F8E JUMP JUMPDEST SWAP3 SWAP2 POP POP JUMP JUMPDEST PUSH1 0x0 DUP1 PUSH1 0x0 DUP1 PUSH1 0x80 DUP6 DUP8 SUB SLT ISZERO PUSH2 0x3FD4 JUMPI PUSH2 0x3FD3 PUSH2 0x32CE JUMP JUMPDEST JUMPDEST PUSH1 0x0 PUSH2 0x3FE2 DUP8 DUP3 DUP9 ADD PUSH2 0x32F9 JUMP JUMPDEST SWAP5 POP POP PUSH1 0x20 DUP6 ADD CALLDATALOAD PUSH8 0xFFFFFFFFFFFFFFFF DUP2 GT ISZERO PUSH2 0x4003 JUMPI PUSH2 0x4002 PUSH2 0x32D3 JUMP JUMPDEST JUMPDEST PUSH2 0x400F DUP8 DUP3 DUP9 ADD PUSH2 0x3F60 JUMP JUMPDEST SWAP4 POP POP PUSH1 0x40 PUSH2 0x4020 DUP8 DUP3 DUP9 ADD PUSH2 0x3FA5 JUMP JUMPDEST SWAP3 POP POP PUSH1 0x60 PUSH2 0x4031 DUP8 DUP3 DUP9 ADD PUSH2 0x3C55 JUMP JUMPDEST SWAP2 POP POP SWAP3 SWAP6 SWAP2 SWAP5 POP SWAP3 POP JUMP JUMPDEST PUSH1 0x0 DUP2 MLOAD SWAP1 POP SWAP2 SWAP1 POP JUMP JUMPDEST PUSH1 0x0 DUP3 DUP3 MSTORE PUSH1 0x20 DUP3 ADD SWAP1 POP SWAP3 SWAP2 POP POP JUMP JUMPDEST PUSH1 0x0 DUP2 SWAP1 POP PUSH1 0x20 DUP3 ADD SWAP1 POP SWAP2 SWAP1 POP JUMP JUMPDEST PUSH2 0x4072 DUP2 PUSH2 0x333B JUMP JUMPDEST DUP3 MSTORE POP POP JUMP JUMPDEST PUSH1 0xC0 DUP3 ADD PUSH1 0x0 DUP3 ADD MLOAD PUSH2 0x408E PUSH1 0x0 DUP6 ADD DUP3 PUSH2 0x4069 JUMP JUMPDEST POP PUSH1 0x20 DUP3 ADD MLOAD PUSH2 0x40A1 PUSH1 0x20 DUP6 ADD DUP3 PUSH2 0x33ED JUMP JUMPDEST POP PUSH1 0x40 DUP3 ADD MLOAD PUSH2 0x40B4 PUSH1 0x40 DUP6 ADD DUP3 PUSH2 0x3660 JUMP JUMPDEST POP PUSH1 0x60 DUP3 ADD MLOAD PUSH2 0x40C7 PUSH1 0x60 DUP6 ADD DUP3 PUSH2 0x3406 JUMP JUMPDEST POP PUSH1 0x80 DUP3 ADD MLOAD PUSH2 0x40DA PUSH1 0x80 DUP6 ADD DUP3 PUSH2 0x3660 JUMP JUMPDEST POP PUSH1 0xA0 DUP3 ADD MLOAD PUSH2 0x40ED PUSH1 0xA0 DUP6 ADD DUP3 PUSH2 0x3406 JUMP JUMPDEST POP POP POP POP JUMP JUMPDEST PUSH1 0x0 PUSH2 0x40FF DUP4 DUP4 PUSH2 0x4078 JUMP JUMPDEST PUSH1 0xC0 DUP4 ADD SWAP1 POP SWAP3 SWAP2 POP POP JUMP JUMPDEST PUSH1 0x0 PUSH1 0x20 DUP3 ADD SWAP1 POP SWAP2 SWAP1 POP JUMP JUMPDEST PUSH1 0x0 PUSH2 0x4123 DUP3 PUSH2 0x403D JUMP JUMPDEST PUSH2 0x412D DUP2 DUP6 PUSH2 0x4048 JUMP JUMPDEST SWAP4 POP PUSH2 0x4138 DUP4 PUSH2 0x4059 JUMP JUMPDEST DUP1 PUSH1 0x0 JUMPDEST DUP4 DUP2 LT ISZERO PUSH2 0x4169 JUMPI DUP2 MLOAD PUSH2 0x4150 DUP9 DUP3 PUSH2 0x40F3 JUMP JUMPDEST SWAP8 POP PUSH2 0x415B DUP4 PUSH2 0x410B JUMP JUMPDEST SWAP3 POP POP PUSH1 0x1 DUP2 ADD SWAP1 POP PUSH2 0x413C JUMP JUMPDEST POP DUP6 SWAP4 POP POP POP POP SWAP3 SWAP2 POP POP JUMP JUMPDEST PUSH1 0x0 PUSH1 0x20 DUP3 ADD SWAP1 POP DUP2 DUP2 SUB PUSH1 0x0 DUP4 ADD MSTORE PUSH2 0x4190 DUP2 DUP5 PUSH2 0x4118 JUMP JUMPDEST SWAP1 POP SWAP3 SWAP2 POP POP JUMP JUMPDEST PUSH1 0x0 PUSH8 0xFFFFFFFFFFFFFFFF DUP3 GT ISZERO PUSH2 0x41B3 JUMPI PUSH2 0x41B2 PUSH2 0x3D02 JUMP JUMPDEST JUMPDEST PUSH1 0x20 DUP3 MUL SWAP1 POP PUSH1 0x20 DUP2 ADD SWAP1 POP SWAP2 SWAP1 POP JUMP JUMPDEST PUSH1 0x0 PUSH1 0x60 DUP3 DUP5 SUB SLT ISZERO PUSH2 0x41DA JUMPI PUSH2 0x41D9 PUSH2 0x3DAE JUMP JUMPDEST JUMPDEST PUSH2 0x41E4 PUSH1 0x60 PUSH2 0x3D62 JUMP JUMPDEST SWAP1 POP PUSH1 0x0 PUSH2 0x41F4 DUP5 DUP3 DUP6 ADD PUSH2 0x3C29 JUMP JUMPDEST PUSH1 0x0 DUP4 ADD MSTORE POP PUSH1 0x20 PUSH2 0x4208 DUP5 DUP3 DUP6 ADD PUSH2 0x3C55 JUMP JUMPDEST PUSH1 0x20 DUP4 ADD MSTORE POP PUSH1 0x40 DUP3 ADD CALLDATALOAD PUSH8 0xFFFFFFFFFFFFFFFF DUP2 GT ISZERO PUSH2 0x422C JUMPI PUSH2 0x422B PUSH2 0x3DB3 JUMP JUMPDEST JUMPDEST PUSH2 0x4238 DUP5 DUP3 DUP6 ADD PUSH2 0x3E3F JUMP JUMPDEST PUSH1 0x40 DUP4 ADD MSTORE POP SWAP3 SWAP2 POP POP JUMP JUMPDEST PUSH1 0x0 PUSH2 0x4257 PUSH2 0x4252 DUP5 PUSH2 0x4198 JUMP JUMPDEST PUSH2 0x3D62 JUMP JUMPDEST SWAP1 POP DUP1 DUP4 DUP3 MSTORE PUSH1 0x20 DUP3 ADD SWAP1 POP PUSH1 0x20 DUP5 MUL DUP4 ADD DUP6 DUP2 GT ISZERO PUSH2 0x427A JUMPI PUSH2 0x4279 PUSH2 0x3DA9 JUMP JUMPDEST JUMPDEST DUP4 JUMPDEST DUP2 DUP2 LT ISZERO PUSH2 0x42C1 JUMPI DUP1 CALLDATALOAD PUSH8 0xFFFFFFFFFFFFFFFF DUP2 GT ISZERO PUSH2 0x429F JUMPI PUSH2 0x429E PUSH2 0x3CFD JUMP JUMPDEST JUMPDEST DUP1 DUP7 ADD PUSH2 0x42AC DUP10 DUP3 PUSH2 0x41C4 JUMP JUMPDEST DUP6 MSTORE PUSH1 0x20 DUP6 ADD SWAP5 POP POP POP PUSH1 0x20 DUP2 ADD SWAP1 POP PUSH2 0x427C JUMP JUMPDEST POP POP POP SWAP4 SWAP3 POP POP POP JUMP JUMPDEST PUSH1 0x0 DUP3 PUSH1 0x1F DUP4 ADD SLT PUSH2 0x42E0 JUMPI PUSH2 0x42DF PUSH2 0x3CFD JUMP JUMPDEST JUMPDEST DUP2 CALLDATALOAD PUSH2 0x42F0 DUP5 DUP3 PUSH1 0x20 DUP7 ADD PUSH2 0x4244 JUMP JUMPDEST SWAP2 POP POP SWAP3 SWAP2 POP POP JUMP JUMPDEST PUSH1 0x0 DUP1 PUSH1 0x0 DUP1 PUSH1 0x0 PUSH1 0xA0 DUP7 DUP9 SUB SLT ISZERO PUSH2 0x4315 JUMPI PUSH2 0x4314 PUSH2 0x32CE JUMP JUMPDEST JUMPDEST PUSH1 0x0 DUP7 ADD CALLDATALOAD PUSH8 0xFFFFFFFFFFFFFFFF DUP2 GT ISZERO PUSH2 0x4333 JUMPI PUSH2 0x4332 PUSH2 0x32D3 JUMP JUMPDEST JUMPDEST PUSH2 0x433F DUP9 DUP3 DUP10 ADD PUSH2 0x3E3F JUMP JUMPDEST SWAP6 POP POP PUSH1 0x20 PUSH2 0x4350 DUP9 DUP3 DUP10 ADD PUSH2 0x32F9 JUMP JUMPDEST SWAP5 POP POP PUSH1 0x40 PUSH2 0x4361 DUP9 DUP3 DUP10 ADD PUSH2 0x32F9 JUMP JUMPDEST SWAP4 POP POP PUSH1 0x60 DUP7 ADD CALLDATALOAD PUSH8 0xFFFFFFFFFFFFFFFF DUP2 GT ISZERO PUSH2 0x4382 JUMPI PUSH2 0x4381 PUSH2 0x32D3 JUMP JUMPDEST JUMPDEST PUSH2 0x438E DUP9 DUP3 DUP10 ADD PUSH2 0x42CB JUMP JUMPDEST SWAP3 POP POP PUSH1 0x80 DUP7 ADD CALLDATALOAD PUSH8 0xFFFFFFFFFFFFFFFF DUP2 GT ISZERO PUSH2 0x43AF JUMPI PUSH2 0x43AE PUSH2 0x32D3 JUMP JUMPDEST JUMPDEST PUSH2 0x43BB DUP9 DUP3 DUP10 ADD PUSH2 0x3E3F JUMP JUMPDEST SWAP2 POP POP SWAP3 SWAP6 POP SWAP3 SWAP6 SWAP1 SWAP4 POP JUMP JUMPDEST PUSH1 0x0 PUSH8 0xFFFFFFFFFFFFFFFF DUP3 GT ISZERO PUSH2 0x43E3 JUMPI PUSH2 0x43E2 PUSH2 0x3D02 JUMP JUMPDEST JUMPDEST PUSH1 0x20 DUP3 MUL SWAP1 POP PUSH1 0x20 DUP2 ADD SWAP1 POP SWAP2 SWAP1 POP JUMP JUMPDEST PUSH1 0x0 PUSH2 0x4407 PUSH2 0x4402 DUP5 PUSH2 0x43C8 JUMP JUMPDEST PUSH2 0x3D62 JUMP JUMPDEST SWAP1 POP DUP1 DUP4 DUP3 MSTORE PUSH1 0x20 DUP3 ADD SWAP1 POP PUSH1 0x20 DUP5 MUL DUP4 ADD DUP6 DUP2 GT ISZERO PUSH2 0x442A JUMPI PUSH2 0x4429 PUSH2 0x3DA9 JUMP JUMPDEST JUMPDEST DUP4 JUMPDEST DUP2 DUP2 LT ISZERO PUSH2 0x4453 JUMPI DUP1 PUSH2 0x443F DUP9 DUP3 PUSH2 0x3C29 JUMP JUMPDEST DUP5 MSTORE PUSH1 0x20 DUP5 ADD SWAP4 POP POP PUSH1 0x20 DUP2 ADD SWAP1 POP PUSH2 0x442C JUMP JUMPDEST POP POP POP SWAP4 SWAP3 POP POP POP JUMP JUMPDEST PUSH1 0x0 DUP3 PUSH1 0x1F DUP4 ADD SLT PUSH2 0x4472 JUMPI PUSH2 0x4471 PUSH2 0x3CFD JUMP JUMPDEST JUMPDEST DUP2 CALLDATALOAD PUSH2 0x4482 DUP5 DUP3 PUSH1 0x20 DUP7 ADD PUSH2 0x43F4 JUMP JUMPDEST SWAP2 POP POP SWAP3 SWAP2 POP POP JUMP JUMPDEST PUSH1 0x0 DUP1 PUSH1 0x40 DUP4 DUP6 SUB SLT ISZERO PUSH2 0x44A2 JUMPI PUSH2 0x44A1 PUSH2 0x32CE JUMP JUMPDEST JUMPDEST PUSH1 0x0 PUSH2 0x44B0 DUP6 DUP3 DUP7 ADD PUSH2 0x32F9 JUMP JUMPDEST SWAP3 POP POP PUSH1 0x20 DUP4 ADD CALLDATALOAD PUSH8 0xFFFFFFFFFFFFFFFF DUP2 GT ISZERO PUSH2 0x44D1 JUMPI PUSH2 0x44D0 PUSH2 0x32D3 JUMP JUMPDEST JUMPDEST PUSH2 0x44DD DUP6 DUP3 DUP7 ADD PUSH2 0x445D JUMP JUMPDEST SWAP2 POP POP SWAP3 POP SWAP3 SWAP1 POP JUMP JUMPDEST PUSH1 0x0 DUP3 DUP3 MSTORE PUSH1 0x20 DUP3 ADD SWAP1 POP SWAP3 SWAP2 POP POP JUMP JUMPDEST PUSH32 0x536F72727920796F7520617265206E6F7420616464656420746F20766F74696E PUSH1 0x0 DUP3 ADD MSTORE PUSH32 0x67206C697374207965742C20636F6E7461637420796F75722070617274792068 PUSH1 0x20 DUP3 ADD MSTORE PUSH32 0x6561640000000000000000000000000000000000000000000000000000000000 PUSH1 0x40 DUP3 ADD MSTORE POP JUMP JUMPDEST PUSH1 0x0 PUSH2 0x457A PUSH1 0x43 DUP4 PUSH2 0x44E7 JUMP JUMPDEST SWAP2 POP PUSH2 0x4585 DUP3 PUSH2 0x44F8 JUMP JUMPDEST PUSH1 0x60 DUP3 ADD SWAP1 POP SWAP2 SWAP1 POP JUMP JUMPDEST PUSH1 0x0 PUSH1 0x20 DUP3 ADD SWAP1 POP DUP2 DUP2 SUB PUSH1 0x0 DUP4 ADD MSTORE PUSH2 0x45A9 DUP2 PUSH2 0x456D JUMP JUMPDEST SWAP1 POP SWAP2 SWAP1 POP JUMP JUMPDEST PUSH32 0x4576656E7420646F6573206E6F74206578697374000000000000000000000000 PUSH1 0x0 DUP3 ADD MSTORE POP JUMP JUMPDEST PUSH1 0x0 PUSH2 0x45E6 PUSH1 0x14 DUP4 PUSH2 0x44E7 JUMP JUMPDEST SWAP2 POP PUSH2 0x45F1 DUP3 PUSH2 0x45B0 JUMP JUMPDEST PUSH1 0x20 DUP3 ADD SWAP1 POP SWAP2 SWAP1 POP JUMP JUMPDEST PUSH1 0x0 PUSH1 0x20 DUP3 ADD SWAP1 POP DUP2 DUP2 SUB PUSH1 0x0 DUP4 ADD MSTORE PUSH2 0x4615 DUP2 PUSH2 0x45D9 JUMP JUMPDEST SWAP1 POP SWAP2 SWAP1 POP JUMP JUMPDEST PUSH32 0x4E487B7100000000000000000000000000000000000000000000000000000000 PUSH1 0x0 MSTORE PUSH1 0x32 PUSH1 0x4 MSTORE PUSH1 0x24 PUSH1 0x0 REVERT JUMPDEST PUSH32 0x4E487B7100000000000000000000000000000000000000000000000000000000 PUSH1 0x0 MSTORE PUSH1 0x22 PUSH1 0x4 MSTORE PUSH1 0x24 PUSH1 0x0 REVERT JUMPDEST PUSH1 0x0 PUSH1 0x2 DUP3 DIV SWAP1 POP PUSH1 0x1 DUP3 AND DUP1 PUSH2 0x4692 JUMPI PUSH1 0x7F DUP3 AND SWAP2 POP JUMPDEST PUSH1 0x20 DUP3 LT DUP2 SUB PUSH2 0x46A5 JUMPI PUSH2 0x46A4 PUSH2 0x464B JUMP JUMPDEST JUMPDEST POP SWAP2 SWAP1 POP JUMP JUMPDEST PUSH32 0x4E487B7100000000000000000000000000000000000000000000000000000000 PUSH1 0x0 MSTORE PUSH1 0x11 PUSH1 0x4 MSTORE PUSH1 0x24 PUSH1 0x0 REVERT JUMPDEST PUSH1 0x0 PUSH2 0x46E5 DUP3 PUSH2 0x32D8 JUMP JUMPDEST SWAP2 POP PUSH32 0xFFFFFFFFFFFFFFFFFFFFFFFFFFFFFFFFFFFFFFFFFFFFFFFFFFFFFFFFFFFFFFFF DUP3 SUB PUSH2 0x4717 JUMPI PUSH2 0x4716 PUSH2 0x46AB JUMP JUMPDEST JUMPDEST PUSH1 0x1 DUP3 ADD SWAP1 POP SWAP2 SWAP1 POP JUMP JUMPDEST PUSH32 0x506F6F6C206576656E7420646F6573206E6F7420657869737400000000000000 PUSH1 0x0 DUP3 ADD MSTORE POP JUMP JUMPDEST PUSH1 0x0 PUSH2 0x4758 PUSH1 0x19 DUP4 PUSH2 0x44E7 JUMP JUMPDEST SWAP2 POP PUSH2 0x4763 DUP3 PUSH2 0x4722 JUMP JUMPDEST PUSH1 0x20 DUP3 ADD SWAP1 POP SWAP2 SWAP1 POP JUMP JUMPDEST PUSH1 0x0 PUSH1 0x20 DUP3 ADD SWAP1 POP DUP2 DUP2 SUB PUSH1 0x0 DUP4 ADD MSTORE PUSH2 0x4787 DUP2 PUSH2 0x474B JUMP JUMPDEST SWAP1 POP SWAP2 SWAP1 POP JUMP JUMPDEST PUSH32 0x76616C69646174696F6E206661696C65642C20636865636B20796F7572207374 PUSH1 0x0 DUP3 ADD MSTORE PUSH32 0x6174757320746F20636F6E6669726D0000000000000000000000000000000000 PUSH1 0x20 DUP3 ADD MSTORE POP JUMP JUMPDEST PUSH1 0x0 PUSH2 0x47EA PUSH1 0x2F DUP4 PUSH2 0x44E7 JUMP JUMPDEST SWAP2 POP PUSH2 0x47F5 DUP3 PUSH2 0x478E JUMP JUMPDEST PUSH1 0x40 DUP3 ADD SWAP1 POP SWAP2 SWAP1 POP JUMP JUMPDEST PUSH1 0x0 PUSH1 0x20 DUP3 ADD SWAP1 POP DUP2 DUP2 SUB PUSH1 0x0 DUP4 ADD MSTORE PUSH2 0x4819 DUP2 PUSH2 0x47DD JUMP JUMPDEST SWAP1 POP SWAP2 SWAP1 POP JUMP JUMPDEST PUSH32 0x416C726561647920766F74656400000000000000000000000000000000000000 PUSH1 0x0 DUP3 ADD MSTORE POP JUMP JUMPDEST PUSH1 0x0 PUSH2 0x4856 PUSH1 0xD DUP4 PUSH2 0x44E7 JUMP JUMPDEST SWAP2 POP PUSH2 0x4861 DUP3 PUSH2 0x4820 JUMP JUMPDEST PUSH1 0x20 DUP3 ADD SWAP1 POP SWAP2 SWAP1 POP JUMP JUMPDEST PUSH1 0x0 PUSH1 0x20 DUP3 ADD SWAP1 POP DUP2 DUP2 SUB PUSH1 0x0 DUP4 ADD MSTORE PUSH2 0x4885 DUP2 PUSH2 0x4849 JUMP JUMPDEST SWAP1 POP SWAP2 SWAP1 POP JUMP JUMPDEST PUSH1 0x0 PUSH2 0x4897 DUP3 PUSH2 0x32D8 JUMP JUMPDEST SWAP2 POP PUSH2 0x48A2 DUP4 PUSH2 0x32D8 JUMP JUMPDEST SWAP3 POP DUP3 DUP3 ADD SWAP1 POP DUP1 DUP3 GT ISZERO PUSH2 0x48BA JUMPI PUSH2 0x48B9 PUSH2 0x46AB JUMP JUMPDEST JUMPDEST SWAP3 SWAP2 POP POP JUMP JUMPDEST PUSH32 0x456C656374696F6E20646F6573206E6F74206578697374000000000000000000 PUSH1 0x0 DUP3 ADD MSTORE POP JUMP JUMPDEST PUSH1 0x0 PUSH2 0x48F6 PUSH1 0x17 DUP4 PUSH2 0x44E7 JUMP JUMPDEST SWAP2 POP PUSH2 0x4901 DUP3 PUSH2 0x48C0 JUMP JUMPDEST PUSH1 0x20 DUP3 ADD SWAP1 POP SWAP2 SWAP1 POP JUMP JUMPDEST PUSH1 0x0 PUSH1 0x20 DUP3 ADD SWAP1 POP DUP2 DUP2 SUB PUSH1 0x0 DUP4 ADD MSTORE PUSH2 0x4925 DUP2 PUSH2 0x48E9 JUMP JUMPDEST SWAP1 POP SWAP2 SWAP1 POP JUMP JUMPDEST PUSH32 0x566F746572206E6F7420616464656420746F20766F74696E67206C6973742079 PUSH1 0x0 DUP3 ADD MSTORE PUSH32 0x65742020636F6E7461637420796F75722061646D696E697374726174696F6E00 PUSH1 0x20 DUP3 ADD MSTORE POP JUMP JUMPDEST PUSH1 0x0 PUSH2 0x4988 PUSH1 0x3F DUP4 PUSH2 0x44E7 JUMP JUMPDEST SWAP2 POP PUSH2 0x4993 DUP3 PUSH2 0x492C JUMP JUMPDEST PUSH1 0x40 DUP3 ADD SWAP1 POP SWAP2 SWAP1 POP JUMP JUMPDEST PUSH1 0x0 PUSH1 0x20 DUP3 ADD SWAP1 POP DUP2 DUP2 SUB PUSH1 0x0 DUP4 ADD MSTORE PUSH2 0x49B7 DUP2 PUSH2 0x497B JUMP JUMPDEST SWAP1 POP SWAP2 SWAP1 POP JUMP JUMPDEST PUSH32 0x4F6E6C792050617274792063616E206769766520726967687420746F20766F74 PUSH1 0x0 DUP3 ADD MSTORE PUSH32 0x652E000000000000000000000000000000000000000000000000000000000000 PUSH1 0x20 DUP3 ADD MSTORE POP JUMP JUMPDEST PUSH1 0x0 PUSH2 0x4A1A PUSH1 0x22 DUP4 PUSH2 0x44E7 JUMP JUMPDEST SWAP2 POP PUSH2 0x4A25 DUP3 PUSH2 0x49BE JUMP JUMPDEST PUSH1 0x40 DUP3 ADD SWAP1 POP SWAP2 SWAP1 POP JUMP JUMPDEST PUSH1 0x0 PUSH1 0x20 DUP3 ADD SWAP1 POP DUP2 DUP2 SUB PUSH1 0x0 DUP4 ADD MSTORE PUSH2 0x4A49 DUP2 PUSH2 0x4A0D JUMP JUMPDEST SWAP1 POP SWAP2 SWAP1 POP JUMP JUMPDEST PUSH32 0x596F75206861766520616C726561647920417574686F72697A656420766F7465 PUSH1 0x0 DUP3 ADD MSTORE PUSH32 0x722E205468616E6B20796F750000000000000000000000000000000000000000 PUSH1 0x20 DUP3 ADD MSTORE POP JUMP JUMPDEST PUSH1 0x0 PUSH2 0x4AAC PUSH1 0x2C DUP4 PUSH2 0x44E7 JUMP JUMPDEST SWAP2 POP PUSH2 0x4AB7 DUP3 PUSH2 0x4A50 JUMP JUMPDEST PUSH1 0x40 DUP3 ADD SWAP1 POP SWAP2 SWAP1 POP JUMP JUMPDEST PUSH1 0x0 PUSH1 0x20 DUP3 ADD SWAP1 POP DUP2 DUP2 SUB PUSH1 0x0 DUP4 ADD MSTORE PUSH2 0x4ADB DUP2 PUSH2 0x4A9F JUMP JUMPDEST SWAP1 POP SWAP2 SWAP1 POP JUMP JUMPDEST PUSH32 0x4F6E6C79206368616972706572736F6E20686173207468652072696768742074 PUSH1 0x0 DUP3 ADD MSTORE PUSH32 0x6F2061646420766F746572730000000000000000000000000000000000000000 PUSH1 0x20 DUP3 ADD MSTORE POP JUMP JUMPDEST PUSH1 0x0 PUSH2 0x4B3E PUSH1 0x2C DUP4 PUSH2 0x44E7 JUMP JUMPDEST SWAP2 POP PUSH2 0x4B49 DUP3 PUSH2 0x4AE2 JUMP JUMPDEST PUSH1 0x40 DUP3 ADD SWAP1 POP SWAP2 SWAP1 POP JUMP JUMPDEST PUSH1 0x0 PUSH1 0x20 DUP3 ADD SWAP1 POP DUP2 DUP2 SUB PUSH1 0x0 DUP4 ADD MSTORE PUSH2 0x4B6D DUP2 PUSH2 0x4B31 JUMP JUMPDEST SWAP1 POP SWAP2 SWAP1 POP JUMP JUMPDEST PUSH32 0x566F74657220616C726561647920657869747300000000000000000000000000 PUSH1 0x0 DUP3 ADD MSTORE POP JUMP JUMPDEST PUSH1 0x0 PUSH2 0x4BAA PUSH1 0x13 DUP4 PUSH2 0x44E7 JUMP JUMPDEST SWAP2 POP PUSH2 0x4BB5 DUP3 PUSH2 0x4B74 JUMP JUMPDEST PUSH1 0x20 DUP3 ADD SWAP1 POP SWAP2 SWAP1 POP JUMP JUMPDEST PUSH1 0x0 PUSH1 0x20 DUP3 ADD SWAP1 POP DUP2 DUP2 SUB PUSH1 0x0 DUP4 ADD MSTORE PUSH2 0x4BD9 DUP2 PUSH2 0x4B9D JUMP JUMPDEST SWAP1 POP SWAP2 SWAP1 POP JUMP JUMPDEST PUSH32 0x4F6E6C79206368616972706572736F6E2063616E206164642062616C6C6F7420 PUSH1 0x0 DUP3 ADD MSTORE PUSH32 0x6576656E74000000000000000000000000000000000000000000000000000000 PUSH1 0x20 DUP3 ADD MSTORE POP JUMP JUMPDEST PUSH1 0x0 PUSH2 0x4C3C PUSH1 0x25 DUP4 PUSH2 0x44E7 JUMP JUMPDEST SWAP2 POP PUSH2 0x4C47 DUP3 PUSH2 0x4BE0 JUMP JUMPDEST PUSH1 0x40 DUP3 ADD SWAP1 POP SWAP2 SWAP1 POP JUMP JUMPDEST PUSH1 0x0 PUSH1 0x20 DUP3 ADD SWAP1 POP DUP2 DUP2 SUB PUSH1 0x0 DUP4 ADD MSTORE PUSH2 0x4C6B DUP2 PUSH2 0x4C2F JUMP JUMPDEST SWAP1 POP SWAP2 SWAP1 POP JUMP JUMPDEST PUSH32 0x416464696E67206E657720506F6F6C206E6F74207065726D6974746564000000 PUSH1 0x0 DUP3 ADD MSTORE POP JUMP JUMPDEST PUSH1 0x0 PUSH2 0x4CA8 PUSH1 0x1D DUP4 PUSH2 0x44E7 JUMP JUMPDEST SWAP2 POP PUSH2 0x4CB3 DUP3 PUSH2 0x4C72 JUMP JUMPDEST PUSH1 0x20 DUP3 ADD SWAP1 POP SWAP2 SWAP1 POP JUMP JUMPDEST PUSH1 0x0 PUSH1 0x20 DUP3 ADD SWAP1 POP DUP2 DUP2 SUB PUSH1 0x0 DUP4 ADD MSTORE PUSH2 0x4CD7 DUP2 PUSH2 0x4C9B JUMP JUMPDEST SWAP1 POP SWAP2 SWAP1 POP JUMP JUMPDEST PUSH1 0x0 PUSH2 0x4CE9 DUP3 PUSH2 0x32D8 JUMP JUMPDEST SWAP2 POP PUSH2 0x4CF4 DUP4 PUSH2 0x32D8 JUMP JUMPDEST SWAP3 POP DUP3 DUP3 SUB SWAP1 POP DUP2 DUP2 GT ISZERO PUSH2 0x4D0C JUMPI PUSH2 0x4D0B PUSH2 0x46AB JUMP JUMPDEST JUMPDEST SWAP3 SWAP2 POP POP JUMP JUMPDEST PUSH32 0x6368616972706572736F6E2063616E206E6F74206265206D656D626572206F66 PUSH1 0x0 DUP3 ADD MSTORE PUSH32 0x2061207061727479000000000000000000000000000000000000000000000000 PUSH1 0x20 DUP3 ADD MSTORE POP JUMP JUMPDEST PUSH1 0x0 PUSH2 0x4D6E PUSH1 0x28 DUP4 PUSH2 0x44E7 JUMP JUMPDEST SWAP2 POP PUSH2 0x4D79 DUP3 PUSH2 0x4D12 JUMP JUMPDEST PUSH1 0x40 DUP3 ADD SWAP1 POP SWAP2 SWAP1 POP JUMP JUMPDEST PUSH1 0x0 PUSH1 0x20 DUP3 ADD SWAP1 POP DUP2 DUP2 SUB PUSH1 0x0 DUP4 ADD MSTORE PUSH2 0x4D9D DUP2 PUSH2 0x4D61 JUMP JUMPDEST SWAP1 POP SWAP2 SWAP1 POP JUMP JUMPDEST PUSH32 0x496E76616C696420656C656374696F6E20646174657300000000000000000000 PUSH1 0x0 DUP3 ADD MSTORE POP JUMP JUMPDEST PUSH1 0x0 PUSH2 0x4DDA PUSH1 0x16 DUP4 PUSH2 0x44E7 JUMP JUMPDEST SWAP2 POP PUSH2 0x4DE5 DUP3 PUSH2 0x4DA4 JUMP JUMPDEST PUSH1 0x20 DUP3 ADD SWAP1 POP SWAP2 SWAP1 POP JUMP JUMPDEST PUSH1 0x0 PUSH1 0x20 DUP3 ADD SWAP1 POP DUP2 DUP2 SUB PUSH1 0x0 DUP4 ADD MSTORE PUSH2 0x4E09 DUP2 PUSH2 0x4DCD JUMP JUMPDEST SWAP1 POP SWAP2 SWAP1 POP JUMP JUMPDEST PUSH32 0x496E76616C696420656C656374696F6E20646174657328737461727420646174 PUSH1 0x0 DUP3 ADD MSTORE PUSH32 0x65206C6173742074686520626C6F636B2074696D652900000000000000000000 PUSH1 0x20 DUP3 ADD MSTORE POP JUMP JUMPDEST PUSH1 0x0 PUSH2 0x4E6C PUSH1 0x36 DUP4 PUSH2 0x44E7 JUMP JUMPDEST SWAP2 POP PUSH2 0x4E77 DUP3 PUSH2 0x4E10 JUMP JUMPDEST PUSH1 0x40 DUP3 ADD SWAP1 POP SWAP2 SWAP1 POP JUMP JUMPDEST PUSH1 0x0 PUSH1 0x20 DUP3 ADD SWAP1 POP DUP2 DUP2 SUB PUSH1 0x0 DUP4 ADD MSTORE PUSH2 0x4E9B DUP2 PUSH2 0x4E5F JUMP JUMPDEST SWAP1 POP SWAP2 SWAP1 POP JUMP JUMPDEST PUSH1 0x0 DUP2 SWAP1 POP DUP2 PUSH1 0x0 MSTORE PUSH1 0x20 PUSH1 0x0 KECCAK256 SWAP1 POP SWAP2 SWAP1 POP JUMP JUMPDEST PUSH1 0x0 PUSH1 0x20 PUSH1 0x1F DUP4 ADD DIV SWAP1 POP SWAP2 SWAP1 POP JUMP JUMPDEST PUSH1 0x0 DUP3 DUP3 SHL SWAP1 POP SWAP3 SWAP2 POP POP JUMP JUMPDEST PUSH1 0x0 PUSH1 0x8 DUP4 MUL PUSH2 0x4F04 PUSH32 0xFFFFFFFFFFFFFFFFFFFFFFFFFFFFFFFFFFFFFFFFFFFFFFFFFFFFFFFFFFFFFFFF DUP3 PUSH2 0x4EC7 JUMP JUMPDEST PUSH2 0x4F0E DUP7 DUP4 PUSH2 0x4EC7 JUMP JUMPDEST SWAP6 POP DUP1 NOT DUP5 AND SWAP4 POP DUP1 DUP7 AND DUP5 OR SWAP3 POP POP POP SWAP4 SWAP3 POP POP POP JUMP JUMPDEST PUSH1 0x0 DUP2 SWAP1 POP SWAP2 SWAP1 POP JUMP JUMPDEST PUSH1 0x0 PUSH2 0x4F4B PUSH2 0x4F46 PUSH2 0x4F41 DUP5 PUSH2 0x32D8 JUMP JUMPDEST PUSH2 0x4F26 JUMP JUMPDEST PUSH2 0x32D8 JUMP JUMPDEST SWAP1 POP SWAP2 SWAP1 POP JUMP JUMPDEST PUSH1 0x0 DUP2 SWAP1 POP SWAP2 SWAP1 POP JUMP JUMPDEST PUSH2 0x4F65 DUP4 PUSH2 0x4F30 JUMP JUMPDEST PUSH2 0x4F79 PUSH2 0x4F71 DUP3 PUSH2 0x4F52 JUMP JUMPDEST DUP5 DUP5 SLOAD PUSH2 0x4ED4 JUMP JUMPDEST DUP3 SSTORE POP POP POP POP JUMP JUMPDEST PUSH1 0x0 SWAP1 JUMP JUMPDEST PUSH2 0x4F8E PUSH2 0x4F81 JUMP JUMPDEST PUSH2 0x4F99 DUP2 DUP5 DUP5 PUSH2 0x4F5C JUMP JUMPDEST POP POP POP JUMP JUMPDEST JUMPDEST DUP2 DUP2 LT ISZERO PUSH2 0x4FBD JUMPI PUSH2 0x4FB2 PUSH1 0x0 DUP3 PUSH2 0x4F86 JUMP JUMPDEST PUSH1 0x1 DUP2 ADD SWAP1 POP PUSH2 0x4F9F JUMP JUMPDEST POP POP JUMP JUMPDEST PUSH1 0x1F DUP3 GT ISZERO PUSH2 0x5002 JUMPI PUSH2 0x4FD3 DUP2 PUSH2 0x4EA2 JUMP JUMPDEST PUSH2 0x4FDC DUP5 PUSH2 0x4EB7 JUMP JUMPDEST DUP2 ADD PUSH1 0x20 DUP6 LT ISZERO PUSH2 0x4FEB JUMPI DUP2 SWAP1 POP JUMPDEST PUSH2 0x4FFF PUSH2 0x4FF7 DUP6 PUSH2 0x4EB7 JUMP JUMPDEST DUP4 ADD DUP3 PUSH2 0x4F9E JUMP JUMPDEST POP POP JUMPDEST POP POP POP JUMP JUMPDEST PUSH1 0x0 DUP3 DUP3 SHR SWAP1 POP SWAP3 SWAP2 POP POP JUMP JUMPDEST PUSH1 0x0 PUSH2 0x5025 PUSH1 0x0 NOT DUP5 PUSH1 0x8 MUL PUSH2 0x5007 JUMP JUMPDEST NOT DUP1 DUP4 AND SWAP2 POP POP SWAP3 SWAP2 POP POP JUMP JUMPDEST PUSH1 0x0 PUSH2 0x503E DUP4 DUP4 PUSH2 0x5014 JUMP JUMPDEST SWAP2 POP DUP3 PUSH1 0x2 MUL DUP3 OR SWAP1 POP SWAP3 SWAP2 POP POP JUMP JUMPDEST PUSH2 0x5057 DUP3 PUSH2 0x3415 JUMP JUMPDEST PUSH8 0xFFFFFFFFFFFFFFFF DUP2 GT ISZERO PUSH2 0x5070 JUMPI PUSH2 0x506F PUSH2 0x3D02 JUMP JUMPDEST JUMPDEST PUSH2 0x507A DUP3 SLOAD PUSH2 0x467A JUMP JUMPDEST PUSH2 0x5085 DUP3 DUP3 DUP6 PUSH2 0x4FC1 JUMP JUMPDEST PUSH1 0x0 PUSH1 0x20 SWAP1 POP PUSH1 0x1F DUP4 GT PUSH1 0x1 DUP2 EQ PUSH2 0x50B8 JUMPI PUSH1 0x0 DUP5 ISZERO PUSH2 0x50A6 JUMPI DUP3 DUP8 ADD MLOAD SWAP1 POP JUMPDEST PUSH2 0x50B0 DUP6 DUP3 PUSH2 0x5032 JUMP JUMPDEST DUP7 SSTORE POP PUSH2 0x5118 JUMP JUMPDEST PUSH1 0x1F NOT DUP5 AND PUSH2 0x50C6 DUP7 PUSH2 0x4EA2 JUMP JUMPDEST PUSH1 0x0 JUMPDEST DUP3 DUP2 LT ISZERO PUSH2 0x50EE JUMPI DUP5 DUP10 ADD MLOAD DUP3 SSTORE PUSH1 0x1 DUP3 ADD SWAP2 POP PUSH1 0x20 DUP6 ADD SWAP5 POP PUSH1 0x20 DUP2 ADD SWAP1 POP PUSH2 0x50C9 JUMP JUMPDEST DUP7 DUP4 LT ISZERO PUSH2 0x510B JUMPI DUP5 DUP10 ADD MLOAD PUSH2 0x5107 PUSH1 0x1F DUP10 AND DUP3 PUSH2 0x5014 JUMP JUMPDEST DUP4 SSTORE POP JUMPDEST PUSH1 0x1 PUSH1 0x2 DUP9 MUL ADD DUP9 SSTORE POP POP POP JUMPDEST POP POP POP POP POP POP JUMP INVALID LOG2 PUSH5 0x6970667358 0x22 SLT KECCAK256 PUSH14 0x45F6EC8FE98C7842EF81A2F2BF52 PUSH3 0x77AE25 STOP 0x22 DUP15 SWAP13 SWAP12 0xCA PUSH16 0xB04395AF34964736F6C634300081400 CALLER "},"methodIdentifiers":{"Elections(uint256)":"1e9598e2","addBallotEvent(uint256,(bytes32,bytes)[],bool,bytes32)":"e7185b16","addVoterToElectionEvent(uint256,address)":"d6a00943","addVotersToElectionEvent(uint256,address[])":"f7098c9a","electionID()":"f8e78e9a","getBallot(uint256,uint256)":"0d358757","getElection(uint256)":"9d710777","getTime()":"557ed1ba","getVoteRight(uint256)":"00ef3391","getVoteStatus(uint256)":"0519bb83","getVoterHistory(uint256)":"e8c26428","newElectionEvent(bytes,uint256,uint256,(address,bytes32,bytes)[],bytes)":"eb45e3bf","poolParties(uint256)":"37abe716","totalElectionEvents()":"4f53a8a3","verifyVoter(uint256,address,bytes32)":"b5b314e5","vote(uint256,uint256,uint256)":"8a6655d6"}}}}}