{
  "_format": "hh-sol-artifact-1",
  "contractName": "BankAccount",
  "sourceName": "contracts/BankAccount.sol",
  "abi": [
    {
      "anonymous": false,
      "inputs": [
        {
          "indexed": false,
          "internalType": "address[]",
          "name": "owners",
          "type": "address[]"
        },
        {
          "indexed": true,
          "internalType": "uint256",
          "name": "id",
          "type": "uint256"
        },
        {
          "indexed": false,
          "internalType": "uint256",
          "name": "timestamp",
          "type": "uint256"
        }
      ],
      "name": "AccountCreated",
      "type": "event"
    },
    {
      "anonymous": false,
      "inputs": [
        {
          "indexed": true,
          "internalType": "address",
          "name": "user",
          "type": "address"
        },
        {
          "indexed": true,
          "internalType": "uint256",
          "name": "accountId",
          "type": "uint256"
        },
        {
          "indexed": false,
          "internalType": "uint256",
          "name": "value",
          "type": "uint256"
        },
        {
          "indexed": false,
          "internalType": "uint256",
          "name": "timestamp",
          "type": "uint256"
        }
      ],
      "name": "Deposit",
      "type": "event"
    },
    {
      "anonymous": false,
      "inputs": [
        {
          "indexed": false,
          "internalType": "string",
          "name": "func",
          "type": "string"
        },
        {
          "indexed": false,
          "internalType": "uint256",
          "name": "gas",
          "type": "uint256"
        }
      ],
      "name": "Log",
      "type": "event"
    },
    {
      "anonymous": false,
      "inputs": [
        {
          "indexed": true,
          "internalType": "uint256",
          "name": "withdrawId",
          "type": "uint256"
        },
        {
          "indexed": false,
          "internalType": "uint256",
          "name": "timestamp",
          "type": "uint256"
        }
      ],
      "name": "Withdraw",
      "type": "event"
    },
    {
      "anonymous": false,
      "inputs": [
        {
          "indexed": true,
          "internalType": "address",
          "name": "user",
          "type": "address"
        },
        {
          "indexed": true,
          "internalType": "uint256",
          "name": "accountId",
          "type": "uint256"
        },
        {
          "indexed": true,
          "internalType": "uint256",
          "name": "withdrawId",
          "type": "uint256"
        },
        {
          "indexed": false,
          "internalType": "uint256",
          "name": "amount",
          "type": "uint256"
        },
        {
          "indexed": false,
          "internalType": "uint256",
          "name": "timestamp",
          "type": "uint256"
        }
      ],
      "name": "WithdrawRequested",
      "type": "event"
    },
    {
      "stateMutability": "payable",
      "type": "fallback"
    },
    {
      "inputs": [
        {
          "internalType": "uint256",
          "name": "accountId",
          "type": "uint256"
        },
        {
          "internalType": "uint256",
          "name": "withdrawId",
          "type": "uint256"
        }
      ],
      "name": "approveWithdrawl",
      "outputs": [],
      "stateMutability": "nonpayable",
      "type": "function"
    },
    {
      "inputs": [
        {
          "internalType": "address[]",
          "name": "otherOwners",
          "type": "address[]"
        }
      ],
      "name": "createAccount",
      "outputs": [],
      "stateMutability": "nonpayable",
      "type": "function"
    },
    {
      "inputs": [
        {
          "internalType": "uint256",
          "name": "accountId",
          "type": "uint256"
        }
      ],
      "name": "deposit",
      "outputs": [],
      "stateMutability": "payable",
      "type": "function"
    },
    {
      "inputs": [],
      "name": "depositEth",
      "outputs": [],
      "stateMutability": "payable",
      "type": "function"
    },
    {
      "inputs": [],
      "name": "getAccounts",
      "outputs": [
        {
          "internalType": "uint256[]",
          "name": "",
          "type": "uint256[]"
        }
      ],
      "stateMutability": "view",
      "type": "function"
    },
    {
      "inputs": [
        {
          "internalType": "uint256",
          "name": "accountId",
          "type": "uint256"
        },
        {
          "internalType": "uint256",
          "name": "withdrawId",
          "type": "uint256"
        }
      ],
      "name": "getApprovals",
      "outputs": [
        {
          "internalType": "uint256",
          "name": "",
          "type": "uint256"
        }
      ],
      "stateMutability": "view",
      "type": "function"
    },
    {
      "inputs": [],
      "name": "getBal",
      "outputs": [
        {
          "internalType": "uint256",
          "name": "",
          "type": "uint256"
        }
      ],
      "stateMutability": "view",
      "type": "function"
    },
    {
      "inputs": [
        {
          "internalType": "uint256",
          "name": "accountId",
          "type": "uint256"
        }
      ],
      "name": "getBalance",
      "outputs": [
        {
          "internalType": "uint256",
          "name": "",
          "type": "uint256"
        }
      ],
      "stateMutability": "view",
      "type": "function"
    },
    {
      "inputs": [
        {
          "internalType": "uint256",
          "name": "accountId",
          "type": "uint256"
        }
      ],
      "name": "getOwners",
      "outputs": [
        {
          "internalType": "address[]",
          "name": "",
          "type": "address[]"
        }
      ],
      "stateMutability": "view",
      "type": "function"
    },
    {
      "inputs": [
        {
          "internalType": "address",
          "name": "owner",
          "type": "address"
        }
      ],
      "name": "getwalletBalance",
      "outputs": [
        {
          "internalType": "uint256",
          "name": "accountBalance",
          "type": "uint256"
        }
      ],
      "stateMutability": "view",
      "type": "function"
    },
    {
      "inputs": [
        {
          "internalType": "uint256",
          "name": "accountId",
          "type": "uint256"
        },
        {
          "internalType": "uint256",
          "name": "amount",
          "type": "uint256"
        }
      ],
      "name": "requestWithdrawl",
      "outputs": [],
      "stateMutability": "nonpayable",
      "type": "function"
    },
    {
      "inputs": [
        {
          "internalType": "address payable",
          "name": "recipient",
          "type": "address"
        }
      ],
      "name": "sendEther",
      "outputs": [],
      "stateMutability": "payable",
      "type": "function"
    },
    {
      "inputs": [
        {
          "internalType": "address",
          "name": "to",
          "type": "address"
        },
        {
          "internalType": "uint256",
          "name": "value",
          "type": "uint256"
        }
      ],
      "name": "sendMoney",
      "outputs": [],
      "stateMutability": "nonpayable",
      "type": "function"
    },
    {
      "inputs": [
        {
          "internalType": "address payable",
          "name": "recipient",
          "type": "address"
        },
        {
          "internalType": "uint256",
          "name": "amount",
          "type": "uint256"
        }
      ],
      "name": "transferEther",
      "outputs": [],
      "stateMutability": "nonpayable",
      "type": "function"
    },
    {
      "inputs": [
        {
          "internalType": "uint256",
          "name": "accountId",
          "type": "uint256"
        },
        {
          "internalType": "uint256",
          "name": "withdrawId",
          "type": "uint256"
        }
      ],
      "name": "withdraw",
      "outputs": [],
      "stateMutability": "nonpayable",
      "type": "function"
    },
    {
      "stateMutability": "payable",
      "type": "receive"
    }
  ],
  "bytecode": "0x608060405234801561001057600080fd5b50612600806100206000396000f3fe6080604052600436106100ec5760003560e01c80637e78d0091161008a578063b6b55f2511610059578063b6b55f251461033a578063ee4525d514610356578063ee4ae2c914610393578063eff63433146103bc5761012a565b80637e78d0091461026c578063867275a5146102a95780638a48ac03146102e6578063a52a6f9a146103115761012a565b8063439370b1116100c6578063439370b1146101f4578063441a3e70146101fe57806348c981e214610227578063785e5531146102435761012a565b806305b1137b146101635780631e0104391461018c57806325caa262146101c95761012a565b3661012a577fdd970dd9b5bfe707922155b058a407655cb18288b807e2216442bca8ad83d6b55a604051610120919061188c565b60405180910390a1005b7fdd970dd9b5bfe707922155b058a407655cb18288b807e2216442bca8ad83d6b55a6040516101599190611906565b60405180910390a1005b34801561016f57600080fd5b5061018a600480360381019061018591906119c8565b6103e5565b005b34801561019857600080fd5b506101b360048036038101906101ae9190611a08565b610473565b6040516101c09190611a35565b60405180910390f35b3480156101d557600080fd5b506101de610492565b6040516101eb9190611a35565b60405180910390f35b6101fc61049a565b005b34801561020a57600080fd5b5061022560048036038101906102209190611a50565b61049c565b005b610241600480360381019061023c9190611a90565b6107a7565b005b34801561024f57600080fd5b5061026a60048036038101906102659190611a50565b610834565b005b34801561027857600080fd5b50610293600480360381019061028e9190611afb565b610cca565b6040516102a09190611a35565b60405180910390f35b3480156102b557600080fd5b506102d060048036038101906102cb9190611a50565b610ceb565b6040516102dd9190611a35565b60405180910390f35b3480156102f257600080fd5b506102fb610d1f565b6040516103089190611be6565b60405180910390f35b34801561031d57600080fd5b5061033860048036038101906103339190611a50565b610db4565b005b610354600480360381019061034f9190611a08565b611005565b005b34801561036257600080fd5b5061037d60048036038101906103789190611a08565b61113c565b60405161038a9190611cc6565b60405180910390f35b34801561039f57600080fd5b506103ba60048036038101906103b59190611ce8565b6111df565b005b3480156103c857600080fd5b506103e360048036038101906103de9190611d8d565b611273565b005b80471015610428576040517f08c379a000000000000000000000000000000000000000000000000000000000815260040161041f90611e4c565b60405180910390fd5b8173ffffffffffffffffffffffffffffffffffffffff166108fc829081150290604051600060405180830381858888f1935050505015801561046e573d6000803e3d6000fd5b505050565b6000806000838152602001908152602001600020600101549050919050565b600047905090565b565b81813373ffffffffffffffffffffffffffffffffffffffff16600080848152602001908152602001600020600201600083815260200190815260200160002060000160009054906101000a900473ffffffffffffffffffffffffffffffffffffffff1673ffffffffffffffffffffffffffffffffffffffff1614610555576040517f08c379a000000000000000000000000000000000000000000000000000000000815260040161054c90611eb8565b60405180910390fd5b600080838152602001908152602001600020600201600082815260200190815260200160002060040160009054906101000a900460ff166105cb576040517f08c379a00000000000000000000000000000000000000000000000000000000081526004016105c290611f24565b60405180910390fd5b6000806000868152602001908152602001600020600201600085815260200190815260200160002060010154905080600080878152602001908152602001600020600101541015610651576040517f08c379a000000000000000000000000000000000000000000000000000000000815260040161064890611f90565b60405180910390fd5b8060008087815260200190815260200160002060010160008282546106769190611fdf565b925050819055506000808681526020019081526020016000206002016000858152602001908152602001600020600080820160006101000a81549073ffffffffffffffffffffffffffffffffffffffff0219169055600182016000905560028201600090556004820160006101000a81549060ff0219169055505060003373ffffffffffffffffffffffffffffffffffffffff168260405161071790612044565b60006040518083038185875af1925050503d8060008114610754576040519150601f19603f3d011682016040523d82523d6000602084013e610759565b606091505b505090508061076757600080fd5b847f56ca301a9219608c91e7bcee90e083c19671d2cdcc96752c7af291cee5f9c8c8426040516107979190611a35565b60405180910390a2505050505050565b600034116107ea576040517f08c379a00000000000000000000000000000000000000000000000000000000081526004016107e1906120a5565b60405180910390fd5b8073ffffffffffffffffffffffffffffffffffffffff166108fc349081150290604051600060405180830381858888f19350505050158015610830573d6000803e3d6000fd5b5050565b816000805b600080848152602001908152602001600020600001805490508110156108f9573373ffffffffffffffffffffffffffffffffffffffff166000808581526020019081526020016000206000018281548110610897576108966120c5565b5b9060005260206000200160009054906101000a900473ffffffffffffffffffffffffffffffffffffffff1673ffffffffffffffffffffffffffffffffffffffff16036108e657600191506108f9565b80806108f1906120f4565b915050610839565b508061093a576040517f08c379a0000000000000000000000000000000000000000000000000000000008152600401610931906121ae565b60405180910390fd5b8383600080838152602001908152602001600020600201600082815260200190815260200160002060040160009054906101000a900460ff16156109b3576040517f08c379a00000000000000000000000000000000000000000000000000000000081526004016109aa9061221a565b60405180910390fd5b3373ffffffffffffffffffffffffffffffffffffffff16600080848152602001908152602001600020600201600083815260200190815260200160002060000160009054906101000a900473ffffffffffffffffffffffffffffffffffffffff1673ffffffffffffffffffffffffffffffffffffffff1603610a6a576040517f08c379a0000000000000000000000000000000000000000000000000000000008152600401610a6190612286565b60405180910390fd5b600073ffffffffffffffffffffffffffffffffffffffff16600080848152602001908152602001600020600201600083815260200190815260200160002060000160009054906101000a900473ffffffffffffffffffffffffffffffffffffffff1673ffffffffffffffffffffffffffffffffffffffff1603610b22576040517f08c379a0000000000000000000000000000000000000000000000000000000008152600401610b19906122f2565b60405180910390fd5b600080838152602001908152602001600020600201600082815260200190815260200160002060030160003373ffffffffffffffffffffffffffffffffffffffff1673ffffffffffffffffffffffffffffffffffffffff16815260200190815260200160002060009054906101000a900460ff1615610bd6576040517f08c379a0000000000000000000000000000000000000000000000000000000008152600401610bcd90612384565b60405180910390fd5b600080600088815260200190815260200160002060020160008781526020019081526020016000209050806002016000815480929190610c15906120f4565b919050555060018160030160003373ffffffffffffffffffffffffffffffffffffffff1673ffffffffffffffffffffffffffffffffffffffff16815260200190815260200160002060006101000a81548160ff021916908315150217905550600160008089815260200190815260200160002060000180549050610c999190611fdf565b816002015403610cc15760018160040160006101000a81548160ff0219169083151502179055505b50505050505050565b60008173ffffffffffffffffffffffffffffffffffffffff16319050919050565b6000806000848152602001908152602001600020600201600083815260200190815260200160002060020154905092915050565b6060600160003373ffffffffffffffffffffffffffffffffffffffff1673ffffffffffffffffffffffffffffffffffffffff168152602001908152602001600020805480602002602001604051908101604052809291908181526020018280548015610daa57602002820191906000526020600020905b815481526020019060010190808311610d96575b5050505050905090565b816000805b60008084815260200190815260200160002060000180549050811015610e79573373ffffffffffffffffffffffffffffffffffffffff166000808581526020019081526020016000206000018281548110610e1757610e166120c5565b5b9060005260206000200160009054906101000a900473ffffffffffffffffffffffffffffffffffffffff1673ffffffffffffffffffffffffffffffffffffffff1603610e665760019150610e79565b8080610e71906120f4565b915050610db9565b5080610eba576040517f08c379a0000000000000000000000000000000000000000000000000000000008152600401610eb1906121ae565b60405180910390fd5b838380600080848152602001908152602001600020600101541015610f14576040517f08c379a0000000000000000000000000000000000000000000000000000000008152600401610f0b90611f90565b60405180910390fd5b60006003549050600080600089815260200190815260200160002060020160008381526020019081526020016000209050338160000160006101000a81548173ffffffffffffffffffffffffffffffffffffffff021916908373ffffffffffffffffffffffffffffffffffffffff16021790555086816001018190555060036000815480929190610fa4906120f4565b919050555081883373ffffffffffffffffffffffffffffffffffffffff167f1f0d204a59639d21245dbaa239dfc9a6227aa86cb614bdda19843c52d155fcfa8a42604051610ff39291906123a4565b60405180910390a45050505050505050565b806000805b600080848152602001908152602001600020600001805490508110156110ca573373ffffffffffffffffffffffffffffffffffffffff166000808581526020019081526020016000206000018281548110611068576110676120c5565b5b9060005260206000200160009054906101000a900473ffffffffffffffffffffffffffffffffffffffff1673ffffffffffffffffffffffffffffffffffffffff16036110b757600191506110ca565b80806110c2906120f4565b91505061100a565b508061110b576040517f08c379a0000000000000000000000000000000000000000000000000000000008152600401611102906121ae565b60405180910390fd5b34600080858152602001908152602001600020600101600082825461113091906123cd565b92505081905550505050565b60606000808381526020019081526020016000206000018054806020026020016040519081016040528092919081815260200182805480156111d357602002820191906000526020600020905b8160009054906101000a900473ffffffffffffffffffffffffffffffffffffffff1673ffffffffffffffffffffffffffffffffffffffff1681526020019060010190808311611189575b50505050509050919050565b80471015611222576040517f08c379a000000000000000000000000000000000000000000000000000000000815260040161121990611e4c565b60405180910390fd5b60008290508073ffffffffffffffffffffffffffffffffffffffff166108fc839081150290604051600060405180830381858888f1935050505015801561126d573d6000803e3d6000fd5b50505050565b8181600460018383905061128791906123cd565b11156112c8576040517f08c379a00000000000000000000000000000000000000000000000000000000081526004016112bf9061244d565b60405180910390fd5b60005b8282905081101561146b573373ffffffffffffffffffffffffffffffffffffffff16838383818110611300576112ff6120c5565b5b90506020020160208101906113159190611afb565b73ffffffffffffffffffffffffffffffffffffffff160361136b576040517f08c379a0000000000000000000000000000000000000000000000000000000008152600401611362906124b9565b60405180910390fd5b600060018261137a91906123cd565b90505b838390508110156114575783838281811061139b5761139a6120c5565b5b90506020020160208101906113b09190611afb565b73ffffffffffffffffffffffffffffffffffffffff168484848181106113d9576113d86120c5565b5b90506020020160208101906113ee9190611afb565b73ffffffffffffffffffffffffffffffffffffffff1603611444576040517f08c379a000000000000000000000000000000000000000000000000000000000815260040161143b906124b9565b60405180910390fd5b808061144f906120f4565b91505061137d565b508080611463906120f4565b9150506112cb565b50600060018585905061147e91906123cd565b67ffffffffffffffff811115611497576114966124d9565b5b6040519080825280602002602001820160405280156114c55781602001602082028036833780820191505090505b509050338186869050815181106114df576114de6120c5565b5b602002602001019073ffffffffffffffffffffffffffffffffffffffff16908173ffffffffffffffffffffffffffffffffffffffff16815250506000600254905060005b82518110156116ea576001835161153a9190611fdf565b8110156115b757868682818110611554576115536120c5565b5b90506020020160208101906115699190611afb565b83828151811061157c5761157b6120c5565b5b602002602001019073ffffffffffffffffffffffffffffffffffffffff16908173ffffffffffffffffffffffffffffffffffffffff16815250505b6002600160008584815181106115d0576115cf6120c5565b5b602002602001015173ffffffffffffffffffffffffffffffffffffffff1673ffffffffffffffffffffffffffffffffffffffff168152602001908152602001600020805490501115611657576040517f08c379a000000000000000000000000000000000000000000000000000000000815260040161164e9061257a565b60405180910390fd5b6001600084838151811061166e5761166d6120c5565b5b602002602001015173ffffffffffffffffffffffffffffffffffffffff1673ffffffffffffffffffffffffffffffffffffffff16815260200190815260200160002082908060018154018082558091505060019003906000526020600020016000909190919091505580806116e2906120f4565b915050611523565b5081600080838152602001908152602001600020600001908051906020019061171492919061176f565b5060026000815480929190611728906120f4565b9190505550807f1dfea57c7217d8ee2ef44253419f3a05acdf0e6dea69f12e9e2afa2e748e3c8c834260405161175f92919061259a565b60405180910390a2505050505050565b8280548282559060005260206000209081019282156117e8579160200282015b828111156117e75782518260006101000a81548173ffffffffffffffffffffffffffffffffffffffff021916908373ffffffffffffffffffffffffffffffffffffffff1602179055509160200191906001019061178f565b5b5090506117f591906117f9565b5090565b5b808211156118125760008160009055506001016117fa565b5090565b600082825260208201905092915050565b7f7265636569766500000000000000000000000000000000000000000000000000600082015250565b600061185d600783611816565b915061186882611827565b602082019050919050565b6000819050919050565b61188681611873565b82525050565b600060408201905081810360008301526118a581611850565b90506118b4602083018461187d565b92915050565b7f66616c6c6261636b000000000000000000000000000000000000000000000000600082015250565b60006118f0600883611816565b91506118fb826118ba565b602082019050919050565b6000604082019050818103600083015261191f816118e3565b905061192e602083018461187d565b92915050565b600080fd5b600080fd5b600073ffffffffffffffffffffffffffffffffffffffff82169050919050565b60006119698261193e565b9050919050565b6119798161195e565b811461198457600080fd5b50565b60008135905061199681611970565b92915050565b6119a581611873565b81146119b057600080fd5b50565b6000813590506119c28161199c565b92915050565b600080604083850312156119df576119de611934565b5b60006119ed85828601611987565b92505060206119fe858286016119b3565b9150509250929050565b600060208284031215611a1e57611a1d611934565b5b6000611a2c848285016119b3565b91505092915050565b6000602082019050611a4a600083018461187d565b92915050565b60008060408385031215611a6757611a66611934565b5b6000611a75858286016119b3565b9250506020611a86858286016119b3565b9150509250929050565b600060208284031215611aa657611aa5611934565b5b6000611ab484828501611987565b91505092915050565b6000611ac88261193e565b9050919050565b611ad881611abd565b8114611ae357600080fd5b50565b600081359050611af581611acf565b92915050565b600060208284031215611b1157611b10611934565b5b6000611b1f84828501611ae6565b91505092915050565b600081519050919050565b600082825260208201905092915050565b6000819050602082019050919050565b611b5d81611873565b82525050565b6000611b6f8383611b54565b60208301905092915050565b6000602082019050919050565b6000611b9382611b28565b611b9d8185611b33565b9350611ba883611b44565b8060005b83811015611bd9578151611bc08882611b63565b9750611bcb83611b7b565b925050600181019050611bac565b5085935050505092915050565b60006020820190508181036000830152611c008184611b88565b905092915050565b600081519050919050565b600082825260208201905092915050565b6000819050602082019050919050565b611c3d81611abd565b82525050565b6000611c4f8383611c34565b60208301905092915050565b6000602082019050919050565b6000611c7382611c08565b611c7d8185611c13565b9350611c8883611c24565b8060005b83811015611cb9578151611ca08882611c43565b9750611cab83611c5b565b925050600181019050611c8c565b5085935050505092915050565b60006020820190508181036000830152611ce08184611c68565b905092915050565b60008060408385031215611cff57611cfe611934565b5b6000611d0d85828601611ae6565b9250506020611d1e858286016119b3565b9150509250929050565b600080fd5b600080fd5b600080fd5b60008083601f840112611d4d57611d4c611d28565b5b8235905067ffffffffffffffff811115611d6a57611d69611d2d565b5b602083019150836020820283011115611d8657611d85611d32565b5b9250929050565b60008060208385031215611da457611da3611934565b5b600083013567ffffffffffffffff811115611dc257611dc1611939565b5b611dce85828601611d37565b92509250509250929050565b7f496e73756666696369656e742062616c616e636520696e2074686520636f6e7460008201527f7261637400000000000000000000000000000000000000000000000000000000602082015250565b6000611e36602483611816565b9150611e4182611dda565b604082019050919050565b60006020820190508181036000830152611e6581611e29565b9050919050565b7f796f7520646964206e6f74206372656174652074686973207265717565737400600082015250565b6000611ea2601f83611816565b9150611ead82611e6c565b602082019050919050565b60006020820190508181036000830152611ed181611e95565b9050919050565b7f746869732072657175657374206973206e6f7420617070726f76656400000000600082015250565b6000611f0e601c83611816565b9150611f1982611ed8565b602082019050919050565b60006020820190508181036000830152611f3d81611f01565b9050919050565b7f696e73756666696369656e742062616c616e6365000000000000000000000000600082015250565b6000611f7a601483611816565b9150611f8582611f44565b602082019050919050565b60006020820190508181036000830152611fa981611f6d565b9050919050565b7f4e487b7100000000000000000000000000000000000000000000000000000000600052601160045260246000fd5b6000611fea82611873565b9150611ff583611873565b925082820390508181111561200d5761200c611fb0565b5b92915050565b600081905092915050565b50565b600061202e600083612013565b91506120398261201e565b600082019050919050565b600061204f82612021565b9150819050919050565b7f416d6f756e74206d7573742062652067726561746572207468616e2030000000600082015250565b600061208f601d83611816565b915061209a82612059565b602082019050919050565b600060208201905081810360008301526120be81612082565b9050919050565b7f4e487b7100000000000000000000000000000000000000000000000000000000600052603260045260246000fd5b60006120ff82611873565b91507fffffffffffffffffffffffffffffffffffffffffffffffffffffffffffffffff820361213157612130611fb0565b5b600182019050919050565b7f796f7520617265206e6f7420616e206f776e6572206f6620746869732061636360008201527f6f756e7400000000000000000000000000000000000000000000000000000000602082015250565b6000612198602483611816565b91506121a38261213c565b604082019050919050565b600060208201905081810360008301526121c78161218b565b9050919050565b7f74686973207265717565737420697320616c726561647920617070726f766564600082015250565b6000612204602083611816565b915061220f826121ce565b602082019050919050565b60006020820190508181036000830152612233816121f7565b9050919050565b7f796f752063616e6e6f7420617070726f76652074686973207265717565737400600082015250565b6000612270601f83611816565b915061227b8261223a565b602082019050919050565b6000602082019050818103600083015261229f81612263565b9050919050565b7f74686973207265717565737420646f6573206e6f742065786973740000000000600082015250565b60006122dc601b83611816565b91506122e7826122a6565b602082019050919050565b6000602082019050818103600083015261230b816122cf565b9050919050565b7f796f75206861766520616c726561647920617070726f7665642074686973207260008201527f6571756573740000000000000000000000000000000000000000000000000000602082015250565b600061236e602683611816565b915061237982612312565b604082019050919050565b6000602082019050818103600083015261239d81612361565b9050919050565b60006040820190506123b9600083018561187d565b6123c6602083018461187d565b9392505050565b60006123d882611873565b91506123e383611873565b92508282019050808211156123fb576123fa611fb0565b5b92915050565b7f6d6178696d756d206f662034206f776e65727320706572206163636f756e7400600082015250565b6000612437601f83611816565b915061244282612401565b602082019050919050565b600060208201905081810360008301526124668161242a565b9050919050565b7f6e6f206475706c6963617465206f776e65727300000000000000000000000000600082015250565b60006124a3601383611816565b91506124ae8261246d565b602082019050919050565b600060208201905081810360008301526124d281612496565b9050919050565b7f4e487b7100000000000000000000000000000000000000000000000000000000600052604160045260246000fd5b7f6561636820757365722063616e20686176652061206d6178206f66203320616360008201527f636f756e74730000000000000000000000000000000000000000000000000000602082015250565b6000612564602683611816565b915061256f82612508565b604082019050919050565b6000602082019050818103600083015261259381612557565b9050919050565b600060408201905081810360008301526125b48185611c68565b90506125c3602083018461187d565b939250505056fea264697066735822122068ce65740b0b53f9c621ded9644bf3a4f87b00971d4525ddccdde2c9cc3a0b0564736f6c63430008140033",
  "linkReferences": {},
  "deployedLinkReferences": {}
}